S01700006275696C642F697269732F6D61696E2E7372656343
S11300000C9489010C94A8010C94A8010C94A801E7
S11300100C94A8010C94A8010C94A8010C94A801B8
S11300200C94A8010C94A8010C94A8010C94A801A8
S11300300C94A8010C94D5200C94A8010C941E21B6
S11300400C945B200C94D51F0C9417200C94502016
S11300500C9494200C94A8010C94A8010C94A8016D
S11300600C9446210C94E2210C94A8010C94562281
S11300700C94A8010C94A8010C94A8010C949D2341
S11300800C947C230C9487230C9492230C94B0231B
S11300900C9460230C94A8010C9471230C94A80173
S11300A00C94A8010C94A8010C94A8010C94A80128
S11300B00C94A8010C94A8010C94A8010C94A80118
S11300C00C94A8010C94A8010C94A801F014131525
S11300D085150C168A17FF1747180E19B418C71878
S11300E01419F51BCC1CF51C0A1D2F1D3E1DFC1DEF
S11300F0201E221E2D1E691E601E8B1EC122CC22B4
S1130100E12228232F2336233D23442300020E0615
S11301100C0400002110422063308440A550C660C6
S1130120E770088129914AA16BB18CC1ADD1CEE1B0
S1130130EFF13112100273325222B5529442F77227
S1130140D662399318837BB35AA3BDD39CC3FFF300
S1130150DEE36224433420040114E664C774A44437
S113016085546AA54BB528850995EEE5CFF5ACC550
S11301708DD55336722611163006D776F666955607
S1130180B4465BB77AA719973887DFF7FEE79DD7A0
S1130190BCC7C448E5588668A77840086118022897
S11301A02338CCC9EDD98EE9AFF9488969990AA9F0
S11301B02BB9F55AD44AB77A966A711A500A333A67
S11301C0122AFDDBDCCBBFFB9EEB799B588B3BBB40
S11301D01AABA66C877CE44CC55C222C033C600CF7
S11301E0411CAEED8FFDECCDCDDD2AAD0BBD688D90
S11301F0499D977EB66ED55EF44E133E322E511E47
S1130200700E9FFFBEEFDDDFFCCF1BBF3AAF599FDF
S1130210788F8891A981CAB1EBA10CD12DC14EF17F
S11302206FE18010A100C230E320045025404670E5
S11302306760B9839893FBA3DAB33DC31CD37FE310
S11302405EF3B1029012F322D23235421452776235
S11302505672EAB5CBA5A89589856EF54FE52CD5E0
S11302600DC5E234C324A014810466744764245485
S11302700544DBA7FAB79987B8975FE77EF71DC7F0
S11302803CD7D326F2369106B016576676761546D5
S113029034564CD96DC90EF92FE9C899E9898AB940
S11302A0ABA94458654806782768C018E108823825
S11302B0A3287DCB5CDB3FEB1EFBF98BD89BBBAB50
S11302C09ABB754A545A376A167AF10AD01AB32A75
S11302D0923A2EFD0FED6CDD4DCDAABD8BADE89DA0
S11302E0C98D267C076C645C454CA23C832CE01CC5
S11302F0C10C1FEF3EFF5DCF7CDF9BAFBABFD98F30
S1130300F89F176E367E554E745E932EB23ED10E14
S1130310F01E11241FBECFEFD1E2DEBFCDBF13E02C
S1130320A0E0B2E0E4E9F8E500E00BBF02C007900A
S11303300D92A23DB107D9F717E1A2EDB3E001C0D8
S11303401D92A838B107E1F70E94CD230C94482CE4
S11303500C9400002F980895289A08959FB7F89454
S113036080915C0A8F5F80935C0A9FBF08950DB4EF
S113037007FEFDCF8EB50895982F0DB407FEFDCF6F
S11303808EB59EBD0895289808958627082E8295D7
S1130390807F8025092E982F82958F700826869558
S11303A098278927880F880F880F80250895FC01D6
S11303B0CB014383528361839083BA010895FC0186
S11303C020816181862F90E0A0E0B0E0DC019927D4
S11303D08827B22B2381822B2281BC01CD01722B71
S11303E00895E6E8FBE01182108284E080931C0605
S11303F010925B0A1092910B10922A061092B50982
S11304001092B409089580919E168F3F69F0E82FE9
S1130410F0E0E257FA4F908190939E169F3F11F4BB
S113042090936D179FEF908308958091B00080930F
S1130430B0008091B60081FDFCCF08952FB7F894E9
S11304403091B2008091860590918705A09188052E
S1130450B0918905B99B0BC04091B3003091B200B3
S11304600196A11DB11D840F911DA11DB11DBC01DB
S1130470CD01630F711D811D911D2FBF08959FB77D
S1130480F894E82FF0E0E257FA4F20812F3F99F4D7
S1130490E0916D17E81779F020919E162F3F19F41B
S11304A080939E1604C0F0E0E257FA4F8083809355
S11304B06D1780E001C085E09FBF0895CF93CFB74B
S11304C0F89480916B17811108C080E10E943F026B
S11304D0811103C081E080936B17CFBFCF91089542
S11304E082E00C943F028091510A8A3021F4809179
S11304F01C06843021F081E08093E803089582E1B2
S11305000E943F021092E8030895FC0120812251C9
S1130510E20FF11D24852E3319F58851954001F51C
S1130520611119C080913F098F5F80933F09E09169
S11305304905F0914A05808190E0982F8827218110
S1130540822B20912102309122028217930719F401
S113055084818F5F8483809131068D7F80933106FF
S113056008952FB7F89480911002909111022FBF33
S1130570089540918400509185006FB7F8942091BC
S11305808400309185002D5F3F4FF901E41BF50B8A
S1130590E817F90718F49C01240F351F21153105BC
S11305A011F421E030E02150310930938B00209385
S11305B08A0084E086BB80916F00846080936F0022
S11305C06FBF08950F931F93CF93DF938C018FB761
S11305D0F894C091560AD091570A9E012F5E3E4F5F
S11305E03093570A2093560A8FBF84E00E943F023B
S11305F0CE01B8010E943D288A5D9E4FDF91CF91C4
S11306001F910F910895E1ECF8E01082399689E08A
S1130610E930F807D1F78FB7F89410929E088FBF8E
S113062008950F931F932FB7F8948091B009909178
S1130630B109A091B209B091B3096091840070919D
S11306408500B09B07C00196A11DB11D6091840077
S1130650709185002FBF25E0769567952A95E1F77F
S1130660AB0160E070E03BE0880F991FAA1FBB1F3D
S11306703A95D1F78A019B01082B192B2A2B3B2B86
S1130680C901B8011F910F9108959FB7F89480FF95
S113069002C0129801C0129A81FF02C0119801C0D1
S11306A0119A82FF02C0109801C0109A9FBF08954A
S11306B00F931F930E941103AB01BC018091BD08ED
S11306C09091BE08A091BF08B091C00800919A080B
S11306D010919B0820919C0830919D08080F191FC8
S11306E02A1F3B1F481759076A077B0730F0081772
S11306F019072A073B0758F005C0081719072A07E6
S11307003B0770F5401751076207730748F5D90195
S1130710C801841B950BA60BB70B8130E4E09E0740
S1130720A105B10500F18A019B011C5F2F4F3F4FCA
S11307300093BD081093BE082093BF083093C008EF
S11307409450A109B10980939A0890939B08A093AF
S11307509C08B0939D0880E094E0A0E0B0E013C052
S113076080E090E0DC010093BD081093BE08209364
S1130770BF083093C00810929A0810929B081092F8
S11307809C0810929D0825E0880F991F2A95E1F78F
S113079035E0440F551F3A95E1F7209184003091DC
S11307A085002D5F3F4FB901641B750B68177907EE
S11307B018F49C01240F351F2115310511F421E093
S11307C030E021503109309389002093880082E081
S11307D086BB80916F00826080936F001F910F91A0
S11307E008959091F203E92FF0E0EE0FFF1FE35A12
S11307F0F54F408151812091F003222359F09F5FEE
S1130800943119F09093F20302C01092F203215034
S11308102093F003CA0108959091EF03E92FF0E0CB
S1130820EE0FFF1FEB5BF64F408151812091ED03EA
S1130830222359F09F5F943119F09093EF0302C083
S11308401092EF0321502093ED03CA010895909173
S1130850EC03E92FF0E0EE0FFF1FEE50FA4F40815A
S113086051812091EA03222359F09F5F943119F0BA
S11308709093EC0302C01092EC0321502093EA03FE
S1130880CA010895823031F0833031F0813031F47F
S11308900C94F1030C940C040C9427048091E4054B
S11308A09091E50508958091F003882319F00E9442
S11308B0F103F9CF8091ED03882319F00E940C0411
S11308C0F9CF8091EA03882319F00E942704F9CF15
S11308D00895E2E1F1E06927660FF11DE60FF11DCD
S11308E0C895982F802D3196C8959025089520910C
S11308F0DC039091E70321112FC081112DC081E009
S11309008093DC03209106022093DB03292F2170BE
S113091020934E0520910002309101023093DA03B6
S11309202093D9032091E6032093D803292F217023
S11309308227967EE82FF0E0EE0FFF1FEE5FFD4F5B
S1130940208131813093010220930002982B9093EF
S1130950E70385E10C943F0290FF02C09B7F01C036
S11309609D7F9093E7030895CF93DF93D82FC62FED
S113097080911C06813061F028F0823099F0833038
S113098019F1E2C0DD2309F425C10E94F101ECC094
S1130990D11120C16093910B8CEB860F823008F04B
S11309A0D3C0E4C0D111D0C060932A068091B409A9
S11309B09091B5090E9469049093B5098093B40994
S11309C083E080931C0606C180915B0A8F3F09F483
S11309D0BBC0DD2309F454C0823008F4B5C0E091F3
S11309E0860BEE2311F0E15001C0E2E0AE2FB0E03F
S11309F0AA57B44F12962C9130E0322F2227EE23BF
S1130A0011F0E15001C0E2E0F0E0EA57F44F8281D6
S1130A10282B8091B4099091B5092817390709F05A
S1130A2093C080E00E9477048091910B8434A9F4F0
S1130A3020912A06E091A1099091A20981E08E0FEC
S1130A40863008F4BDC0992341F0F0E0EF55F64F2D
S1130A5022831092A1090E945E020E94F1018091FA
S1130A60D7038D7F8093D7038091E803882309F40B
S1130A70B1C084E080931C06DF91CF910C94730283
S1130A80823008F44CC0E091870BF0E0EA57F44F51
S1130A9092818091E703282F269526952695237029
S1130AA030E02130310521F02230310579F01EC0CB
S1130AB0877E80618093E703992311F080E001C071
S1130AC085E08093E6039093060210C08091E603CC
S1130AD08F3260F4E0910002F0910102E80FF11D01
S1130AE090838091E6038F5F8093E6038091870B68
S1130AF0E82FF0E0EA57F44F62818F5F833018F4F7
S1130B008093870B02C01092870B8091B409909157
S1130B10B5090E9469049093B5098093B409809142
S1130B20860BE82FF0E0EA57F44FC2838F5F8330DF
S1130B3018F48093860B02C01092860B80915B0A96
S1130B408F5F80935B0A46C00E94F1018091D703B6
S1130B508D7F8093D70381E00E9477048091E8031E
S1130B60811187CFDD23B1F181E02BCF8091B409CE
S1130B709091B5090E9469049093B5098093B409D2
S1130B80C43411F482E001C083E080931C06909188
S1130B90E70390FF04C092FDD7CF946003C091FD9A
S1130BA0D3CF92609093E7038091E703877E8860B8
S1130BB08093E7031092E6038FEF809306020AC046
S1130BC0891709F44ACFF0E0EF55F64F228380935A
S1130BD0A10941CFDF91CF9108950F931F93CF9334
S1130BE0DF93FC0123813FEF320F333010F081E0BB
S1130BF08AC0223029F0233031F0C091F00305C0BF
S1130C00C091ED0302C0C091EA03FC018DE8C89FC6
S1130C10E00111248FE2289FC00DD11D1124C95673
S1130C20D44F8E01045F1F4F8CE1D80101900D92C7
S1130C308A95E1F71E8A8091761790E0982F88278D
S1130C4020917717822B888F9F8BCE014C960E9420
S1130C50D7010115110559F28F85823001F18330D6
S1130C60C1F1813009F04EC09091F003943108F045
S1130C7049C08091F103E82FF0E0EE0FFF1FE35A23
S1130C80F54F118300838F5F843119F08093F10352
S1130C9002C01092F1039F5F9093F00333C09091D0
S1130CA0ED03943178F58091EE03E82FF0E0EE0F38
S1130CB0FF1FEB5BF64F118300838F5F843119F0C4
S1130CC08093EE0302C01092EE039F5F9093ED03B6
S1130CD019C09091EA039431A8F48091EB03E82FB2
S1130CE0F0E0EE0FFF1FEE50FA4F118300838F5F89
S1130CF0843119F08093EB0302C01092EB039F5FE1
S1130D009093EA0380E0DF91CF911F910F910895B2
S1130D10E0914905F0914A05208130E0322F2227E5
S1130D208181282B81E040912102509122022417D5
S1130D30350709F480E00895CF93DF93EC018091A7
S1130D404D058F9380914C058F9323E232E03F93BE
S1130D502F930E945D290F900F900F900F90C15018
S1130D60D44059F480914C0590914D05019690938F
S1130D704D0580934C051092900BDF91CF9108950F
S1130D80CF93DF93DFB7F894C091F303C11109C087
S1130D9081E08093F3031092090289E00E943F02EC
S1130DA018C08091BB088F3F99F4E0910A02EE23AA
S1130DB079F080910B028F3F19F410920B0204C05A
S1130DC0F0E0E554F74F108210920A02C0E001C02F
S1130DD0C5E0DFBF8C2FDF91CF9108959C018091F6
S1130DE0E2039091E303892BB1F59FB7F89485E072
S1130DF08093E0031092DF033093E5032093E40330
S1130E0022E030E03093E3032093E2031092DD0309
S1130E101092DE03645F6093E1039FBF8FB7F89481
S1130E209091510A9A3011F48FBF17C08FBF9FB7AA
S1130E30F89480910E09811106C081E080930E0917
S1130E4010920F0901C080E09FBF882331F00E94F7
S1130E505E0280E0089585E008951092E303109205
S1130E60E20381E008958FEF8093401780933F174A
S1130E7084E68093451780919B1690919C16892B4C
S1130E80F1F48AE397E190939C1680939B168CE18E
S1130E908093431780910702882391F010920702F0
S1130EA06CE18AE397E10E94EE06882349F091E021
S1130EB09093070210929C1610929B16089585E059
S1130EC008958091D4038C3118F4482F50E002C067
S1130ED04CE150E09CE1E6E4F7E1DF011D929A95D4
S1130EE0E9F79091D60320E030E02417350799F014
S1130EF0E92FF0E0EB57F54F6081882329F09F5FDD
S1130F009A3F09F490E08150F901E65CF84E648759
S1130F102F5F3F4FEACF9093D6038093D4030E9470
S1130F203307882319F086E10C943F020895CF9388
S1130F30DF931F92CDB7DEB79091D30391110BC00D
S1130F409091D4039D3738F091E09093D303898333
S1130F500E94610789813FB7F8942091D4032A3F06
S1130F60B8F49091D503E92FF0E0EB57F54F808367
S1130F7081E0890F8A3F19F08093D50302C0109253
S1130F80D5032F5F2093D4033FBF80E090E003C0DC
S1130F903FBF8FEF9FEF0F90DF91CF910895CF93D5
S1130FA0DF93DFB7F8948091F403823021F5C09188
S1130FB00C02C11120C090910E029F3FB1F0E92FA5
S1130FC0F0E0E351FA4F808180930E028F3F11F4D9
S1130FD080930D028FEF808390930C0281E08093C5
S1130FE0F40380E00E943F0204C090930C0210922C
S1130FF0F403DFBF02C0DFBFC1E08C2FDF91CF91CC
S11310000895CF93DF93DFB7F8948091F303823090
S113101039F5C0910902C11123C090910B029F3F81
S1131020B1F0E92FF0E0E554F74F808180930B0293
S11310308F3F11F480930A028FEF8083909309020B
S113104081E08093F30389E00E943F0204C09093FF
S113105009021092F3038CB58F7B8CBDDFBF02C0F5
S1131060DFBFC1E08C2FDF91CF910895CF92DF9243
S1131070EF92FF920F931F93CF93CFB7F8942091E1
S1131080B3009091B20087B3291711F081FF02C019
S1131090CFBF7CC080912B06811102C086EE3FC079
S11310A00E941E02C0901005D0901105E090120518
S11310B0F09013050091A5161091A6162091A7167D
S11310C03091A816AB01BC014C195D096E097F096A
S11310D0401751076207730728F010922B0686EE1B
S11310E091E01EC0D901C8018C0D9D1DAE1DBF1D10
S11310F04091860550918705609188057091890516
S1131100841B950BA60BB70B873E9105A105B10572
S113111028F682309105A105B10508F482E090E03B
S11311202FEF280F3091B60033FDFCCF3091B20081
S11311302313822F4091860550918705609188057D
S1131140709189058A019B010F5F1F4F2F4F3F4FFD
S1131150080F111D211D311D041715072607370718
S113116010F4842F80952091B60023FDFCCF80934A
S1131170B300CFBF992351F085E0CF911F910F9118
S1131180FF90EF90DF90CF900C943F02CF911F918E
S11311900F91FF90EF90DF90CF9008950F931F93DE
S11311A02FB7F894409161085091620860916308E8
S11311B0709164088091840090918500B09B08C070
S11311C04F5F5F4F6F4F7F4F8091840090918500F8
S11311D02FBFBA0155274427A0E0B0E08A019B0144
S11311E0082B192B2A2B3B2BC901B8011F910F91F6
S11311F00895CF93DF931F92CDB7DEB789830E9402
S1131200C301898180688EBD80E00E94BC010E9478
S1131210B70189830E94AC0189810F90DF91CF913E
S113122008951F93CF93DF931F92CDB7DEB7182F86
S113123069830E94C301912F906C9EBD89810E9495
S1131240BC010E94B7010F90DF91CF911F910C94C4
S1131250AC018CB58F7B8CBD229A2398219A209A5D
S11312608CB580618CBD8CB58F778CBD8CB5877F38
S11312708CBD8CB58B7F8CBD8CB580648CBD8DB5DD
S113128081608DBD8CB58C7F8CBD0895CF93DF9329
S1131290FC01228130E0322F22274181242B25FFBB
S11312A015C027743C7C2134384881F4FC01C78183
S11312B0D0E0DC2FCC278681C82B0E94B10221E02C
S11312C0C817D90709F020E0822F01C080E0DF9120
S11312D0CF910895CF92DF92EF92FF92CF93C82FD0
S11312E06A017B010E941E0229E0C29FF0011124C1
S11312F0DF01A654B64F6D937D938D939C93139702
S11313001496CD92DD92ED92FC921797EE53F64F20
S1131310808181608260808386E0CF91FF90EF902E
S1131320DF90CF900C943F024F925F926F927F9226
S11313308F929F92AF92BF92CF92DF92FF920F93C0
S11313401F93CF93DF93AAEBB9E0C12CD12C49E0D2
S11313504C9DF0014D9DF00D1124EF01C654D64F64
S1131360F884F1FE8DC00D911D912D913C91139740
S113137014968D909D90AD90BC9017972B013C01D5
S1131380401A510A620A730A481459046A047B0415
S113139008F476C0F0FE06C0EE53F64F20812D7F90
S11313A020830AC0B901A801480D591D6A1D7B1D7F
S11313B0488359836A837B8322E0C21669F084E000
S11313C0C81609F444C021E0C21263C08FB7F89470
S11313D01092F6038FBF5DC08091FD03811131C06F
S11313E0E0914905F0914A05808190E0982F882783
S11313F02181822B019671F480913F098F5F809344
S11314003F09853038F014829091210280912202A4
S113141091838083E0914905F0914A05808190E0B1
S1131420982F88272181822B019699F1809131068A
S113143081FD2FC08260809331068BE00E943F02C1
S113144028C08091D4098D7F8093D40922C08091D3
S1131450D2031F928F938CE392E09F938F930E9409
S11314605D2940E85EE360E070E084E00E946A0980
S113147087E10E943F020F900F900F900F9009C0D8
S11314802FEFC21AD20A199625E0C216D10409F028
S11314905FCF86E0DF91CF911F910F91FF90DF9096
S11314A0CF90BF90AF909F908F907F906F905F9000
S11314B04F900C943F02CF92DF92EF92FF920F93E2
S11314C01F93CF93DF93EC01C880D980EA80FB801F
S11314D08091140590911505A0911605B0911705FA
S11314E0A7019601281B390B4A0B5B0BCA01B901F2
S11314F00E94F62620918A0530918B0540918C0537
S113150050918D050E94D0270E94B8260091AF0506
S11315101091B0052091B1053091B205DC01CB01E9
S1131520800F911FA21FB31FC80ED91EEA1EFB1EF7
S1131530C882D982EA82FB8280919E08843050F46A
S1131540DF91CF911F910F91FF90EF90DF90CF909B
S11315500C94880680E0DF91CF911F910F91FF904A
S1131560EF90DF90CF900895CF938FB7F894909138
S11315700902911106C09091F303923011F48FBFC8
S11315800FC08FBFCFB7F8948091F30381110AC0C5
S113159082E08093F303109209020E942909CFBFCD
S11315A081E004C0CFBF0E94C00680E0CF910895BF
S11315B010920702E0919B16F0919C163097D1F09F
S11315C08091960880FD16C080910702811116C093
S11315D02581868161856D3118F08FE00C943F027E
S11315E090E0922B86839583CF010E94EE06882398
S11315F029F0F3CF81E080930702E6CF089580912C
S1131600090990910A09892BC1F581E090E0909332
S11316108F0B80938E0B8EEA95E090930A0980934A
S11316200909109228061092270681E08093290662
S11316308091C00080648093C0008091C100806468
S11316408093C10080912706909128069C012F5F0A
S11316503F4F3093280620932706FC01E255FA4FAA
S113166080819FB7F8948093C6008091C000806405
S11316708093C0009FBF80E0089585E0089593E8BB
S1131680980F923050F49091D70391609093D703C0
S113169090E289278093580A8DE78093AE050C94D5
S11316A0FF0A9FB7F8948091D7038E7F8093D70366
S11316B08EE78093AE059FBF0C94FF0A2F923F9252
S11316C04F925F926F927F928F929F92AF92BF924E
S11316D0CF92DF92EF92FF920F931F93CF93DF93FA
S11316E02091FE03222311F0D5E0D6C0D091391702
S11316F0D530D1F720918B0B2111F6CF8C010E94AC
S1131700B40A882389F3F80184A582FF03C066A57F
S11317106F7001C060E080914409681731F06093F4
S11317204409606885E00E941109F801228130E0D3
S1131730322F22278181282B27743C7C213438487E
S1131740A1F486E00E94F9088F7190E040915C0852
S11317502091EE0530E0240F311D43E035952795A7
S11317604A95E1F7281739074CF169E082E00E94B5
S113177011090E94CE082B013C0148018FEF881A01
S1131780980AF801C08184A59EEF392E3C0E84FF8F
S113179009C09801281939098BEF8C0FD82ED20E65
S11317A03D1802C0D32C312C81E00E94F9088F71BE
S11317B0893039F066E082E00E9411090E94010834
S11317C06BC08FB7F8942F9AE0908400F090850056
S11317D08FBF0E94AA010E94C30180E68EBD8C2F98
S11317E00E94BC01E401CD2C89910E94BC01CA94E1
S11317F0C110FACFDA94CD2DD0E05401AC0EBD1E49
S11318002196C80DD91D6701F2EACF0ED11CC41868
S1131810D508EE24D7FCE094FE2CC40CD51CE61CA1
S1131820F71C332011F18FEFA81AB80AC5010E94E2
S1131830DF012B013C01AB01BC014C195D096E09B0
S11318407F09C5010E94D7012C2E8C2E9D2EF401F8
S113185081914F010E94BC01882D82198311F7CF19
S1131860B301A201C5010E94D7010E94B7010E94E1
S1131870AC0166E082E00E941109F80184A582604F
S113188084A7C0A6D1A6E2A6F3A686E08093391762
S113189084E08093FE03D0E08D2FDF91CF911F91E0
S11318A00F91FF90EF90DF90CF90BF90AF909F90FB
S11318B08F907F906F905F904F903F902F900895FE
S11318C03F924F925F926F927F928F929F92AF92CC
S11318D0BF92CF92DF92EF92FF920F931F93CF9319
S11318E0DF9300D0CDB7DEB714E030E8A32E05E0D7
S11318F043E0D42E59E0852E62E0C62E78E0B72E60
S113190086EA95E0E5E09E2E980E8091490A8230A1
S113191009F07DC01092490A80910B09823009F4C4
S113192059C0833009F461C0813009F070C020913E
S11319308400309185006090AC097090AD09621A02
S1131940730A90911B06903841F410921B069091F3
S11319501A06923009F05BC03AC097FF04C016140F
S113196017040CF4A8C3E090F005F090F105809101
S113197054058111A0C3C7010E945E0B282F811159
S11319809BC3D7019C968C919C978E7F9C968C933D
S113199081E080935405F0926F17E0926E17D09215
S11319A01B0635C097FF9FC3161417040CF09BC386
S11319B0A0921B0681E080930B098093490AC3011E
S11319C029830E94B90229812093A91681E080937A
S11319D01A0608C01092540510921B061092A916FC
S11319E010931A060E94700212C090913917923017
S11319F019F48093391709C08091FE03863029F4C5
S1131A001092FE0381E00E94F9080E945F12809107
S1131A108B0B882309F4B3C080913917813009F402
S1131A20AEC00E94B40A882309F4A9C08FB7F89401
S1131A3060906508709066088FBF10928B0B8FE0E2
S1131A400E94F908F82E8091FE038B7F833021F4E5
S1131A5000933917B092FE03F2FE4AC08091FE0350
S1131A60863011F41092FE038091FE03811140C070
S1131A70B4E0FB1234C086E00E94F9088F719091A3
S1131A80EE05292F26952695921B980F9093EE0527
S1131A90E0914705F091480594A59B7F986094A731
S1131AA086A70E94CE08930127503109261B370BC5
S1131AB02901662457FC6094762CE0914705F09147
S1131AC0480524A5226024A7AB01BC01440D551D83
S1131AD0661D771D40A751A762A773A707C0E091B1
S1131AE04705F091480584A5857F84A70093FE03EC
S1131AF0F3FE45C08091FE03843081F500933917CD
S1131B001092FE0380915405833019F41092540509
S1131B1036C0E0916E17F0916F17828190E0982F94
S1131B2088272181822B85FF0EC087749C7C813499
S1131B30984849F4878190E0982F88272681822B42
S1131B40019609F0D3C21092540510921B0610920C
S1131B50A91610931A060E94700211C0853079F4F8
S1131B6086E00E94F90890915C088F71292F2695D0
S1131B702695921B980F90935C088092FE038091A7
S1131B80FE03882309F44DC2893009F0BCC10E94C8
S1131B90C30180E28EBD0DB407FEFDCF8EB51EBC21
S1131BA00DB407FEFDCF8EB59DEF980F973208F068
S1131BB07AC01EBCE0914705F09148053F015FEFF4
S1131BC0651A750A8083AEEF5A2E580E86E0851585
S1131BD010F0452C02C0F7E04F2E7301342C40E086
S1131BE050E080E049835A830E94BC01D7018D9361
S1131BF07D01682F49815A81CA010E94C501AC0147
S1131C003A943110EECF2FEF240D30E02F5F3F4F89
S1131C10620E731EE0914705F0914805818187703B
S1131C20823029F4809154058230D9F50BC09FB7D6
S1131C30F89481E020917F0B233008F080E09FBF6F
S1131C40882379F1852D84197301680E80E0498316
S1131C505A836E1469F00E94BC01F70181937F01DD
S1131C60682F49815A81CA010E94C501AC01EECF97
S1131C700E94BC01682F49815A81CA010E94C50192
S1131C807C0180E00E94BC01682FC7010E94C5014D
S1131C907C010E94B701E0914705F091480585A7B2
S1131CA005C00E94B701EE24E394F12C0E94AC011C
S1131CB0009339171092FE03EF2809F0A9C1409050
S1131CC0470550904805D20111968C911197877061
S1131CD090915405823029F5923009F00FC1E091BA
S1131CE06E17F0916F1713969C918381981306C118
S1131CF080916F008B7F80936F001092490AE0916E
S1131D006E17F0916F1784A5816084A71092540513
S1131D1010921B061092A91610931A060E947002C4
S1131D20EDC0911117C0C2010E944609882391F0A9
S1131D3000936E09C0926F0910927009F2018381B9
S1131D40809371098EE699E00E945E0B811102C0B6
S1131D50D0925405E0908400F0908500C2010E9466
S1131D604609882321F0F4EEEF1AFCEFFF0AF09203
S1131D70AD09E092AC0980918400909185009701AF
S1131D80281B390BC90118161906ACF420911B063F
S1131D9021110EC02091490A21110DC021E0209388
S1131DA00B092093490A0E94B902A0921B0603C0A2
S1131DB0206820931B06D20119968C91199790E004
S1131DC0982F882718962C91822B20916C17422FDC
S1131DD050E0FA01EE0FFF1FE858F84E6081718160
S1131DE0F09072176817790711F4FA0110C0A8E788
S1131DF0B7E1E6EAF5E020E030E070E060E04D9124
S1131E005D914817590779F420936C17F901EA5545
S1131E10FA4F80818F1509F43FC0F394F092721742
S1131E20F08260E822C041915F2D541B651710F4C5
S1131E30722F652F2F5F3F4F2530310501F77093C7
S1131E406C17272F30E0F901EE0FFF1FE858F84E0A
S1131E5091838083F394F0927217F901EA55FA4F53
S1131E60F082F901E15BFA4F108280917217982F8A
S1131E709F779F3719F020916C170EC06F37D8F3F6
S1131E80E6EAF5E0282F207890819F679813208355
S1131E9031969E12F9CFEFCFD20113969C91E22F87
S1131EA0F0E0DF01A15BBA4F8C91EF57F44F80FF54
S1131EB004C08081981303C021C081608C939083F7
S1131EC0FFB6F89480917F0B8330B8F4E091A216AA
S1131ED0E80FE33008F0E350F0E0EE0FFF1FEC589A
S1131EE0FB4F7080E180518240828F5F80937F0B33
S1131EF083E00E943F02472C5E2CFFBE50924805AF
S1131F004092470585C09FEF980F933008F06EC04C
S1131F109EEF980F9230D8F520913917213099F41B
S1131F209091490A91110FC029830E94AA01D0926D
S1131F300B0929812093490A8BE293E00E94B9029C
S1131F40C09239173EC0833011F5233001F50E9449
S1131F50B40A8823E1F08FE00E94F908809181009F
S1131F6080648093810080E286BB80916F008062F0
S1131F7080936F006091E605606688E00E94110915
S1131F8066E082E00E941109109339171AC080910B
S1131F90FE0381508230A8F480913917853089F48A
S1131FA00E94B40A882369F063E082E00E94110968
S1131FB080916F008F7D80936F0010928B0BD09275
S1131FC039178091FE03813041F490913917933091
S1131FD0F9F42F9A8093391706C08230C9F480919E
S1131FE039178330A9F4B092FE0312C0873081F40C
S1131FF00E94B40A882361F06091E605606688E077
S11320000E94110980913917853069F710933917A7
S11320108091FE03883029F41092FE0381E00E942F
S11320203F028091FE0381111DC0809139178530D4
S1132030C9F480918B0B811115C0809154058111D5
S113204011C080911B0681110DC08091490A811134
S113205009C080911A06823029F481E080931A061F
S11320600E9470028091FE03811103C087E00E94E8
S11320703F028FB7F89490915C0A9130B9F41092B2
S11320805C0A8FBF0F900F90DF91CF911F910F913A
S1132090FF90EF90DF90CF90BF90AF909F908F9084
S11320A07F906F905F904F903F90089591E0909350
S11320B05C0A8FBF2ACC25E090911B06892F8F776D
S11320C0813009F06FCC9078926090931B0680E188
S11320D098E00E94E20221E020930B092093490A30
S11320E00E94B90294CC10921B066ECC8091490ACE
S11320F0811129CDC0920B0981E08093490A89E9B5
S113210093E00E94B902C092540539CD9FB7F89468
S113211080915C0A815080935C0A803811F09FBFE3
S1132120089581E080935C0A9FBF0C94600C0F9328
S11321301F93CF93DF931F92CDB7DEB78C018FE34C
S1132140F80182879091F9039F5F9093F903938339
S11321500E94AE0180911A0681110DC01093530A9A
S11321600093520A81E080931A0610924B0A0E944F
S1132170700280E001C085E089830E948610898115
S11321800F90DF91CF911F910F910895FF920F93BC
S11321901F93CF93DF93EA012D3108F068C0EA81E1
S11321A0F0E0FE2FEE279981E92BAF0147745C7CA8
S11321B04134584839F0E073FF27E164F868E98353
S11321C098E89A838B01F82E235F28830E94B1023A
S11321D0888799879FB7F89480910F029FBF8C835B
S11321E01D82FB860E831F838FB7F8949091F403AE
S11321F091110FC092E09093F40310920C028FBFE0
S1132200CE010E949710C82F882391F10E94CF0716
S11322102FC08FBFD093EC05C093EB05DFB7F894C4
S1132220C091F403C11109C081E08093F4031092BA
S11322300C0280E00E943F0218C08091ED058F3FA0
S113224099F4E0910D02EE2379F080910E028F3F14
S113225019F410920E0204C0F0E0E351FA4F108218
S113226010920D02C0E001C0C5E0DFBF01C0C6E0AE
S11322708C2FDF91CF911F910F91FF9008951092B1
S11322800802E091AE09F091AF093097C9F080914E
S1132290A41680FD15C080910802811115C020810B
S11322A02D50678170E0762F66278681682BAF01F9
S11322B083850E94C610882339F08DE00C943F0278
S11322C081E080930802E7CF0895EF92FF921F9375
S11322D0CF93DF931F92CDB7DEB7182F7B01809188
S11322E00802811113C08091AE099091AF0986173D
S11322F0970761F41092AF091092AE0949830E94C6
S11323003F114981642FC7010E9485021A3009F4E4
S1132310C1C01B3009F0CCC0C7010C969093850551
S113232080938405F701178584A580FF47C08091B9
S1132330F603811143C081E38093450A9BE08091B9
S1132340450A8823D9F0282F30E0929FD001939F2B
S1132350B00D1124AE5CB94F21503109929FF001A8
S1132360939FF00D1124EE5CF94F292F01900D92EB
S11323702A95E1F781508093450AE1CFF7018589D9
S11323808093330610923206868580933406C70103
S11323904C960E94DF01AB01BC0185E396E00E94EC
S11323A0D701C70180960E94DF01AB01BC0189E31C
S11323B096E00E94D7018FEF810F41C09FB7F89438
S11323C08091A3168F5F8093A31620914A0A281741
S11323D010F480934A0A9FBF8FB7F8949091F50345
S11323E0911107C09091A316923018F091E0909348
S11323F0F5038FBF9FB7F8948091A3169FBF8430D5
S113240048F00E9453048FB7F8941092A3161092C8
S1132410F5038FBFE0918405F09185058FB7F8949B
S11324209091A3168FBF208131818FEF810F2130CE
S1132430310519F4943018F408C0923030F0833028
S113244048F5812F0E94420425C0833018F51230CC
S113245051F0133081F0E091F203F0E0EE0FFF1F32
S1132460E35AF54F0FC0E091EF03F0E0EE0FFF1FCA
S1132470EB5BF64F07C0E091EC03F0E0EE0FFF1FBB
S1132480EE50FA4F0190F081E02D309719F08285DB
S11324908F5F82878FB7F8941092EF058FBFC701C3
S11324A00F90DF91CF911F91FF90EF900C949C06B9
S11324B00F90DF91CF911F91FF90EF9008959FB7F8
S11324C0F89480915C0A882329F0806880935C0AE0
S11324D09FBF089581E080935C0A9FBF0C94600CB9
S11324E0CF93DF931F92CDB7DEB70E94AE018091E8
S11324F01A06811119C08091FE03811115C08091C3
S11325003917813029F48091490A81110DC002C024
S1132510853099F083E08093FE030E945F1285E08A
S113252080931A0680E001C085E089830E948610AA
S113253089810F90DF91CF91089589E0F6CF8FB70D
S1132540F89408958FBF08958FB7F8949091D303AA
S1132550913011F48FBF0EC09091D403911104C037
S11325608FBF81E090E0089591E09093D3038FBFF3
S11325700E94610780E090E00895CF92DF92EF928D
S1132580FF920F931F93CF93DF93CFB7F8940E94DA
S113259011030091E7051091E8052091E9053091B8
S11325A0EA05DC01CB01800F911FA21FB31F8093AA
S11325B05D0890935E08A0935F08B0936008CFBF56
S11325C02FB7F8948091B90990E001966091AB0916
S11325D070E00E9451288093B9092FBFF090B90987
S11325E02FB7F894809112028823E9F1E0E3F4E034
S11325F082E090E08193919334E0E034F307D1F7E3
S11326008091210290912202009739F481E090E0B8
S1132610909335048093340424C08130910529F4C7
S113262090933704809336041CC08230910539F4AA
S113263081E090E0909339048093380412C0833091
S1132640910539F481E090E090933B0480933A043F
S113265008C0049731F481E090E0909331048093B2
S1132660300410921202F0927304C0917617D0E0F5
S1132670DC2FCC2780917717C82B2196C09377172E
S1132680D09376172FBF8091F6030F2D10E0813081
S113269071F08091F503813041F4C80180959095E3
S11326A068E070E00E94512802C08F2D87700E945C
S11326B04503000F111FF801E05DFB4F00811181FC
S11326C00130110551F030F00230110551F48BE660
S11326D092E005C08FE592E002C086E692E00E9497
S11326E071290E94A41281E0F81228C0809121026D
S11326F090912202892B09F0C8C081E695E090935D
S1132700AD058093AC051092620510926105C093EB
S11327106505D09364058091EF058111B6C025E06D
S113272045E555E06FEF7FEF8AE00E94C610811106
S1132730ACC08FB7F894F092EF05A6C00130110534
S113274009F0A3C08091F503813009F0EBC08091BA
S1132750F003882309F4C1C0E091F203F0E0EE0F26
S1132760FF1FE35AF54F0190F081E02D80E0909136
S1132770F503992309F4DAC0813009F4D7C081EC58
S113278095E09093F8038093F7038CE1A1ECB5E016
S113279001900D928A95E1F7CFB7F8942091210228
S11327A030912202E091F703F091F80327838681A8
S11327B0A901415051094230510508F0DEC09DEF96
S11327C0980F923008F0D9C090E02350310922309C
S11327D0310508F4D4C090870E941E02AB01BC01ED
S11327E08091F7039091F80344960E94D701E091F9
S11327F0F703F091F8038091A316808F809132063D
S113280090913306A0913406818F928FA38F80918B
S1132810EF05CFBF811139C080916D0981110E94EC
S113282070128091F60381110BC08091B60580620D
S11328302091B70590E0922B8093B6059093B7054D
S11328402FB7F8948091761790E0982F88273091CD
S11328507717832BE091F703F091F8038687958728
S11328602FBFE091F703F091F803608570E02CE14D
S113287045EB55E08BE00E94C610811106C08FB76E
S1132880F89491E09093EF058FBFC090E705D09046
S1132890E805E090E905F090EA050E941103CFB73E
S11328A0F8946093BD087093BE088093BF0890931A
S11328B0C008C0929A08D0929B08E0929C08F092BB
S11328C09D080E945803CFBFDF91CF911F910F91B4
S11328D0FF90EF90DF90CF9008958091ED038823CF
S11328E041F0E091EF03F0E0EE0FFF1FEB5BF64FDA
S11328F03ACF8091EA03882341F0E091EC03F0E0C1
S1132900EE0FFF1FEE50FA4F2ECFE091E405F09149
S1132910E5058FB7F8941092F5031092A3168FBFB4
S113292081E025CF80E0EFE9F8E021CF8091F0034A
S1132930882341F0E091F203F0E0EE0FFF1FE35A29
S1132940F54F17C08091ED03882341F0E091EF0328
S1132950F0E0EE0FFF1FEB5BF64F0BC08091EA0334
S1132960882399F0E091EC03F0E0EE0FFF1FEE50A6
S1132970FA4F0190F081E02D02CF982F26CF81509D
S1132980823008F028CF90E026CF8FB7F8941092C9
S1132990A3167ACF2F923F924F925F926F927F92BB
S11329A08F929F92AF92BF92CF92DF92EF92FF925B
S11329B00F931F93CF93DF93CDB7DEB7C454D109E0
S11329C00FB6F894DEBF0FBECDBF90E088319105FD
S11329D010F00C94BB1FFC01EA59FF4F0C94E02843
S11329E08FB7F89492E09093F4038FBF80910C0218
S11329F081110C94BB1F8091EB059091EC050E9412
S1132A009710882311F40C94BB1F24968FAF24973E
S1132A100E94CF07E091EB05F091EC0524964FADB1
S1132A202497BF01CAC080911A0610921A068530F5
S1132A3009F053C04CE150E069E970E08FE998E097
S1132A400E9456291FB7F89410926D098091B4051D
S1132A50811140C08091210290912202892B81F43E
S1132A608FB7F8941092B9098FBF80916F008D7F52
S1132A7080936F000E94BD12809175178093AB09FB
S1132A8081E08093B40584E792E00E94712940E0DC
S1132A9052E360E070E04093400950934109609331
S1132AA042097093430986E08093AB0540939D09E6
S1132AB050939E0960939F097093A0094093E70582
S1132AC05093E8056093E9057093EA058093300616
S1132AD08093AB091FBF0C94BB1F863071F48091A7
S1132AE04B05882311F40C94BB1F10924B058FB730
S1132AF0F89491E090936D0980C2873011F40C949E
S1132B00BB1F80931A060C94BB1F0E94AE01009158
S1132B101A06013091F580914B0A8F5F80934B0A1E
S1132B20863058F58091520A9091530A20911B06E1
S1132B30211115C01091490A111111C09093F1058A
S1132B408093F00500931B068BED91E10E94E20255
S1132B5000930B090093490A0E94B90201C015E0D1
S1132B601093A916111104C083E080931A0608C0BB
S1132B7082E080931A0610E003C010921A0611E056
S1132B800E948610112311F40C94BB1F4091A916C6
S1132B900091520A1091530AD8011A968C918F33DE
S1132BA011F00C94BB1F24964FAF24970E94CF07BB
S1132BB024964FAD2497B801F80183850E946511CE
S1132BC00C94BB1FE091A216F0E0EE0FFF1FEC582F
S1132BD0FB4F008111818FBFD8012C918EEF820FA2
S1132BE0893008F5302E212E9FB7F8948091A216D3
S1132BF0E82FF0E0EE0FFF1FEC58FB4F30822182EC
S1132C008F5F833008F083C18093A21680917F0B7D
S1132C10815080937F0B9FBF8FB7F89490917F0B67
S1132C209111D0CFEAC11A968C911A978F3309F07B
S1132C305AC185EF820F8230A8F21B963C911B97F4
S1132C401796EC901797F12CFE2CEE2416968C9187
S1132C50E82ABFEFEB16FB0651F4F80194814FB755
S1132C60F89480910F024FBF9817A1F0BBCF25961F
S1132C702FAF259724963FAF24970E94B102259643
S1132C802FAD259724963FAD2497E816F90609F051
S1132C90A9CFE3CF3B3009F468C03D3309F401C147
S1132CA03A3009F09FCFD801818590E0982F88278A
S1132CB018962C91822B90935A0A8093590AC80132
S1132CC00C969093AD058093AC058091AF059091DF
S1132CD0B005A091B105B091B20580934D0A9093CF
S1132CE04E0AA0934F0AB093500A80919E08809395
S1132CF0960B2091210230912202232B31F09091E6
S1132D00FC03911102C00E9445038091210290911D
S1132D102202892B09F466CF8091960B883009F042
S1132D2061CF8091590A90915A0A892B09F05ACFA0
S1132D308CE296E00E945B0A8FB7F8941092B9096E
S1132D408FBF80916F008D7F80936F000E94BD12B2
S1132D50FFB6F8948091FC03811105C0B1E0B093F3
S1132D60FC030E945304FFBE3DCF8FB7F894D0906C
S1132D7073048FBFF801918982899936F1F4833203
S1132D80E1F480899091F60391112CCF9FB7F894C8
S1132D90F1E0F093F6039FBF70E9E72EFF24F3946C
S1132DA08E9DA0018F9D500D1124662757FD6095BF
S1132DB0762F81E00E946A0915CFE82EF12C8091CC
S1132DC0210290912202E816F90661F00E941E0287
S1132DD0AB01BC018091F603811104C0C8010C96BB
S1132DE00E94ED05ED2DF0E0EE0FFF1FE05DFB4FBF
S1132DF080819181029711F00E94A4128091210296
S1132E0090912202E816F90609F0ECCE51E3F52E72
S1132E10F092450A2091450A2223E1F0822F90E0A6
S1132E20DC01AA0FBB1FA80FB91FA658BB4F0197FF
S1132E30FC01EE0FFF1F8E0F9F1FFC01E658FB4F96
S1132E40C080D180E280CD92DD92EC92215020931B
S1132E50450AE0CFD80155968C91559780937B0411
S1132E6010927A041E968C911E9780937C0451963E
S1132E70EC91F0E0EE0FFF1FE35EF94F808191814A
S1132E8001969183808389E892E00E947129809160
S1132E90FA039091FB0301969093FB038093FA034A
S1132EA0A1CE2D50253008F49DCEF80180818251A9
S1132EB090E00C96800F911FDC012C912E3309F0C9
S1132EC091CE2091310620FD8DCE24A521FF8ACEFE
S1132ED001960E94DF01611571058105904811F08A
S1132EE00C946E1F7FCEF801E780F12CFE2CEE24AB
S1132EF08681E82A0E94B102E816F90621F0EF2043
S1132F00E09409F06FCE8FB7F8948FBF6BCE109218
S1132F10A2167CCEEFB7F894809158089091590886
S1132F20A0915A08B0915B081C012D019C01A201DB
S1132F3060E070E080E090E003E00E94E928510145
S1132F406201E12CF12C00E010E00E9429295901D2
S1132F506A017B01F82F192F03E00E94E9280F2F43
S1132F600E94292959016A017B01F82F192F03E0D6
S1132F700E94E9280F2F0E94292959016A017B0127
S1132F80F82F192F03E00E94E9280F2F0E94292906
S1132F9059016A017B01F82F192F03E00E94E928E7
S1132FA00F2F0E94292901E00E94E92829013A01F2
S1132FB000E20E94042949015A01769467945794C7
S1132FC04794840C951CA61CB71CB7FE07C0E89454
S1132FD0B7F80FEF801A900AA00AB00A8092580836
S1132FE090925908A0925A08B0925B08EFBF8FB72D
S1132FF0F8949092570A8092560A8FBFBCC780916A
S1133000B305811141C04091920B5091930B609193
S1133010940B7091950B2FB7F894C090A516D0908F
S1133020A616E090A716F090A8168091100590912E
S11330301105A0911205B09113058C0D9D1DAE1DB7
S1133040BF1D2FBF4093920B5093930B6093940B2F
S11330507093950B1092B3052FB7F89431E0309329
S11330602B068093100590931105A0931205B0933D
S113307013054093A5165093A6166093A716709354
S1133080A8162FBF0E9436080E941E0247C00E9445
S11330901E022FB7F89410922B062FBFEAEBF9E02B
S11330A010E044244A94542C642C5FE7752E20E0ED
S11330B030E009E0029FA001039F500D1124DA01C2
S11330C0A654B64F18964C9141FF1AC0C080D180C7
S11330D0E280F3804B015C018C189D08AE08BF08A8
S11330E0C480D580E680F780C818D908EA08FB08B0
S11330F0C414D504E604F7041CF42601370111E0D6
S11331002F5F3F4F399625303105A1F6112309F47D
S113311032C714141504160417041CF00E949409F1
S11331202AC74092920B5092930B6092940B709228
S1133130950B21E02093B3053FB7F89420932B0619
S113314060931005709311058093120590931305F5
S11331504092A5165092A6166092A7167092A816D1
S11331603FBF0E94360807C78FB7F8941092470AEA
S11331701092460A109238171092371710920004D2
S11331801092FF031092AA091092A90936CF1FB713
S1133190F89482E08093F3030E9429091FBF809171
S11331A009028111E8C68091391781113AC00EEFE6
S11331B011E0C801019701960197E1F716980E9462
S11331C0AA0186E090E0019701960197E1F7169A2B
S11331D060E083E00E94110968E082E00E94110926
S11331E0C801019701960197E1F76DE48EE00E9412
S11331F0110967EC89E00E94110960E885E00E94EA
S11332001109109244098AE18093E6056AE788E08F
S11332100E9411092F9A81E0809339170E940108B6
S1133220AAC60E945F12A7C60091540A1091550ABB
S1133230D8011C962C911C9730E0322F22271D9622
S11332408C91282BE0914905F0914A05808190E00A
S1133250982F88274181842B28173907A0F440919F
S11332603F09443038F440912102509122028417DE
S1133270950749F021833083F8018089E09149055D
S1133280F0914A050DC08217930709F0AAC2D8012C
S113329050968C919481B82FB91B1B160CF0A1C2C7
S11332A08483E0914905F0914A05808190E0982F4C
S11332B088272181822B20912102309122028217BA
S11332C0930710F410923F095801E5E1AE0EB11CCA
S11332D0C5010E94DF0169837A838B839C83CE01BD
S11332E001960E945B0A4801F1E18F0E911CC40112
S11332F00E94DF01C980DA80EB80FC80C61AD70AFD
S1133300E80AF90AC982DA82EB82FC8280919E087B
S1133310843020F40E948806811118C004EFC00E86
S113332001E0D01EE11CF11C19EEC11613E0D10618
S1133330E104F10458F08091E9038F5F8093E9037D
S1133340843008F472C00E9403036FC01092800B93
S11333501092E903E1ECEE2EE8E0FE2E00E0DD241D
S1133360DA94412C512C320110E0C5010E94DF0196
S1133370D70111962D913D914D915C911497DC01EB
S1133380CB01821B930BA40BB50B8F3FEFEF9E0772
S1133390AE07EFE7BE0710F0F7011082F7013081A6
S11333A0332331F03091800B3F5F3093800B01C0A9
S11333B0D12E84159505A605B70518F02C013D01FD
S11333C0012F1F5FF9E0EF0EF11C183071F6EE24A7
S11333D0EA94DE1431F08091800B8F5F8093800B30
S11333E00D2D29E00202800111240F53174F81E0B3
S11333F0D8018C93C5010E94DF01F80161837283B7
S113340083839483C4010E94DF016B017C01C501A5
S11334100E94DF01C61AD70AE80AF90AD8011596EC
S1133420CD92DD92ED92FC921897E0908A05F0908F
S11334308B0500918C0510918D05EBAAFCAA0DABB0
S11334401EAB01EC18E01EA30DA3F80180E090E090
S1133450982E2081213009F4FCC4019639968830D5
S11334609105B1F7BEC1182D292D2103C0011124E6
S1133470AC014F53574F1A01DA018C91813009F096
S113348095C011964D905D906D907C901497EFA02F
S1133490F8A409A51AA54E185F08600A710AC301A9
S11334A0B201298D3A8D4B8D5C8D0E94872879015C
S11334B08A01550F220B322FA9012D8B3E8B4F8B86
S11334C0588F2D813E814F81588569857A858B85FA
S11334D09C8557016801ED88FE2C0E2D1E2D0E943F
S11334E020292D833E834F83588769877A878B876A
S11334F09C87C301B201298D3A8D4B8D5C8D0E944E
S11335006528ED8CFE8C0F8D18A1E60EF71E081FA2
S1133510191FED8EFE8E0F8F18A3F1018581968100
S1133520A781B085BC01CD01EBA4FCA40DA51EA50B
S11335306E197F09800B910B298D3A8D4B8D5C8D13
S11335400E94872879018A016D8B7E8B8F8B988FDF
S113355029013A01770C4408542C32012D853E850B
S11335604F85588969897A898B899C8957016801B3
S1133570E42CF42C042D142D0E9420292D873E8741
S11335804F87588B698B7A8B8B8B9C8B09A11AA1E3
S11335902BA13CA18D899E89AF89B88D080F191F75
S11335A02A1F3B1F09A31AA32BA33CA3939498E0BF
S11335B0991259CFCFA0D8A4E9A4FAA40D811E81F1
S11335C02F813885C00ED11EE21EF31E6D8D7E8DB7
S11335D08F8D98A1298D3A8D4B8D5C8D0E94872803
S11335E0D701C601820F931FA41FB51F8FAB98AFDD
S11335F0A9AFBAAFCBA4DCA4EDA4FEA40D851E85AF
S11336002F853889C00ED11EE21EF31E69A17AA14E
S11336108BA19CA1298D3A8D4B8D5C8D0E948728AE
S1133620D701C601820F931FA41FB51F8BAF9CAF98
S1133630ADAFBEAF1D8E19A21FA21BA61FA618AA4E
S113364019AA1AAA312C212C1D821D86198E1D8AB5
S1133650912C812CADA1BEA18C91813009F060C068
S113366011964D905D906D907C901497EFA8F8ACF6
S113367009AD1AAD4E185F08600A710A15968D914E
S11336809D910D90BC91A02D9C01AD01EBACFCACC7
S11336900DAD1EAD2E193F09400B510B23962CAFD7
S11336A03DAF4EAF5FAF2397C301B201A3019201B7
S11336B00E949E2859016A017B018C01232D322D21
S11336C04D815D85698D7D89892D982D0E942029E4
S11336D0322E232E4D835D87698F7D8B982E892E04
S11336E0C301B20123962CAD3DAD4EAD5FAD239722
S11336F00E949E2859016A017B018C012D8D39A1FC
S11337004FA15BA56FA578A989A99AA90E94202930
S11337102D8F39A34FA35BA76FA778AB89AB9AAB67
S11337200DA11EA1075F1F4F1EA30DA30950194031
S113373009F090CF232D322D4D815D85698D7D89D2
S1133740892D982DA0E00E94322901F12D8D39A1F7
S11337504FA15BA56FA578A989A99AA90E94EE2615
S11337606B017C01232D322D4D815D85698D7D8911
S1133770892D982D0E94EE269B01AC01C701B6014C
S11337800E9446266BAB7CAB8DAB9EAB8FB7F89497
S1133790EBA8FCA80DA91EA9E0928A05F0928B055E
S11337A000938C0510938D050BAD1CAD2DAD3EAD76
S11337B00093AF051093B0052093B1053093B20583
S11337C02FA938AD49AD5AAD209314053093150592
S11337D040931605509317059091800B90939E0883
S11337E08FBF809131068E7F74C30E941E026B01CD
S11337F07C0169837A838B839C83CE0101960E942A
S11338005B0AE0914905F0914A052091210230912B
S11338102202808190E0982F88274181842B82178F
S1133820930781F58091140590911505A0911605D3
S1133830B091170597018601081B190B2A0B3B0B46
S1133840D901C8010097A105B0425CF12FB7F894E3
S1133850C0921405D0921505E0921605F092170552
S113386089819A81AB81BC818C199D09AE09BF09FC
S11338708093AF059093B005A093B105B093B205C2
S11338802FBF0FC080913F09853058F010923F0937
S113389021833083E0914905F0914A0584818F5F4B
S11338A0848349815A816B817C81809149059091FF
S11338B04A0505960E94D70180919E088330B8F48A
S11338C0E0914905F0914A05808190E0982F88277E
S11338D02181822B209121023091220282179307A9
S11338E031F080913F098F5F80933F09EFC20E94BE
S11338F01E024B015C010E94CE082EE320932D058D
S1133900C818D908EA08FB081AE0CC0CDD1CEE1C28
S1133910FF1C1A95D1F7AB01BC014C0D5D1D6E1D4A
S11339207F1D8EE295E00E94D7018091440580615D
S1133930809344058FEF80931E0580931F058DE3CC
S1133940809323058091AE099091AF09892B09F0EA
S1133950BDC288E195E09093AF098093AE098BE1F5
S11339608093180580910802882309F404C31092F7
S113397008022EE048E155E06FEF7FEF8DE30E94EF
S1133980C610882309F4F7C281E0809308021092DC
S1133990AF091092AE099AC28091A416882309F443
S11339A0EAC2BEEAEB2EB9E0FB2E10E001E09091F2
S11339B0A416802F892389F0D7012D913C9111976A
S11339C01D921C92802F809598239093A416111118
S11339D004C063E0C9010E948502000F1F5FB2E0CA
S11339E0EB0EF11C183019F7C6C210910802E12F32
S11339F0F0E0EE0FFF1FE255F64FE080F1801182F8
S1133A0010820E943F111111B6C261E0C7010E94E9
S1133A108502B1C280919608882309F4ACC2EBE90F
S1133A20EE2EE6E1FE2E10E001E080919608902F44
S1133A30982369F0F70111821082902F90958923C1
S1133A4080939608111103C086E10E943F02000F83
S1133A501F5FF2E0EF0EF11C183039F78CC21091A1
S1133A600702E12FF0E0EE0FFF1FE556F94E118239
S1133A7010820E94D80A11117EC227C12FB7F89470
S1133A8010926B179091510A88EF890F823050F48D
S1133A901092510AE091B809F0E0EE0FFF1FE45FC5
S1133AA0F64F10822FBF823018F53FB7F8948091FB
S1133AB0A1168F5F8093A1168091BC08833489F48A
S1133AC08091A2099091A109981741F08F5F8630E7
S1133AD018F48093A20902C01092A20920E080E0A9
S1133AE005C081E0983009F480E021E03FBF04C0C4
S1133AF09111F2C180E020E03FB7F8949091E8037F
S1133B003FBF992339F09FB7F8943AE03093510AB4
S1133B109FBF3FC04FB7F89430910C0990910E09A4
S1133B204FBF6FB7F8945091A1094091A2096FBF9C
S1133B30541709F131111FC03FB7F89492E09093E4
S1133B400C095FB7F8944091A1099091A2095FBF55
S1133B50491739F0E091A209F0E0EF55F64F928150
S1133B6001C090E090930D0993E49093BC081092E7
S1133B70B8093FBF0CC09150923058F49FB7F894E5
S1133B8035E43093BC0831E03093B8099FBF11E0AD
S1133B9001C010E0222341F09FB7F8948093DF0323
S1133BA09FBF84E10E943F020FB7F8948091510AAD
S1133BB08A3021F40E9473020FBFDDC10FBF1123AD
S1133BC009F4D9C18FB7F894109271171092701735
S1133BD01092970891E09093510A8FBF0E94510B65
S1133BE0882309F4C8C18FB7F89499E09093510AD7
S1133BF08FBF0E945E02BFC18091C1008F7B809302
S1133C00C1008091C1008F778093C10010924C0A4B
S1133C10109229068091C10088608093C100809130
S1133C20C10080618093C1008091C100806880934D
S1133C30C1008FB7F8941092510A10921C06DDC986
S1133C4083E144C08091C100877F8093C10080914B
S1133C50C1008F7E8093C1008EC11092E303109245
S1133C60E2038FB7F8941091DF038FBF8091DE03D6
S1133C70811113E08091E4039091E5032091DD0329
S1133C80211179C120910702211175C120919B1640
S1133C9030919C162817390709F06DC110929C16B3
S1133CA010929B160E94D80A11110FC08091D40360
S1133CB0882319F00E9461075EC11092D3035BC18F
S1133CC00E943307882309F456C186E10E943F020B
S1133CD052C19FB7F8942091D9033091DA038091AF
S1133CE04E059FBF9FB7F894E82FF0E0EE0FFF1F3B
S1133CF0EE5FFD4F31832083882321F08091E70319
S1133D008B7F03C08091E7038D7F8093E70310923C
S1133D10DC039FBF30C18AEA92E00E94712981E0EE
S1133D2090E090935104809350041BE0109352044C
S1133D3021E02093530482E0809354048091210273
S1133D409091220280935504109256048093570454
S1133D501092580410925F043091480A3093590429
S1133D601F921F921F922F9399279F938F938CECEE
S1133D7092E09F938F930E945D29809159041F9232
S1133D808F931F921F938EEF92E09F938F930E94C5
S1133D905D29209154040FB6F894DEBF0FBECDBF49
S1133DA0243008F023E0F09059048091F503813029
S1133DB031F48091500490915104892B19F100E061
S1133DC010E01217C1F010935F04812F8F0D8093C0
S1133DD0590425962FAF25970E941E02AB01BC0102
S1133DE080E594E00E94ED0525962FAD259781117D
S1133DF0082F1F5FE6CF002329F082E293E00E94A0
S1133E00712905C087E393E00E94712900E0909135
S1133E10480A80915404890F8093480A1092D2036F
S1133E201F928F938FE493E09F938F930E945D2959
S1133E300F900F900F900F90011106C081E08093B6
S1133E40D20389E693E002C084E893E00E947129DA
S1133E5092C029E0289FF001299FF00D1124EF530F
S1133E60F74F21813281438154812FA338A749A779
S1133E705AA785819681A781B0858BA79CA7ADA7FA
S1133E80BEA78091800BE82EF12C00E010E0E98EB3
S1133E90FA8E0B8F1C8F1D861E861F86188A198A20
S1133EA01A8A1B8A1C8A1D821E821F821886198602
S1133EB01A861B861C8619A21AA21BA21CA21D8E7E
S1133EC01E8E1F8E18A249E0842E70CB809131067D
S1133ED08D7F809331064FC010E066CE3090540A37
S1133EE02090550A1093550A0093540AD8018C91D6
S1133EF08251F801E80FF11DCF010D960E94DF01F8
S1133F002B013C01D8019896CD90DD90ED90FC906A
S1133F109B970E94CE084B015C010E941E022AE07E
S1133F2075946794579447942A95D1F7DC01CB0193
S1133F30840D951DA61DB71DC818D908EA08FB08ED
S1133F403AE0F594E794D794C7943A95D1F7AC0145
S1133F50BD014C0D5D1D6E1D7F1DC80145960E945F
S1133F60D701809131068160809331068AE00E94F6
S1133F703F020C94F415CC5BDF4F0FB6F894DEBF10
S1133F800FBECDBFDF91CF911F910F91FF90EF90A6
S1133F90DF90CF90BF90AF909F908F907F906F9065
S1133FA05F904F903F902F90089578941F920F92B6
S1133FB00FB60F9211240BB60F922F933F934F938A
S1133FC05F936F937F938F939F93AF93BF93CF939D
S1133FD0EF93FF9380916F008D7F80936F00CFB735
S1133FE0F89480919A0890919B08A0919C08B091B4
S1133FF09D08892B8A2B8B2B19F40E94BD1202C0B9
S11340000E945803CFBFFF91EF91CF91BF91AF9121
S11340109F918F917F916F915F914F913F912F91DC
S11340200F900BBE0F900FBE0F901F9018957894B1
S11340301F920F920FB60F9211240BB60F922F936B
S11340403F934F935F936F937F938F939F93AF931C
S1134050BF93EF93FF9380916F008B7F80936F00EA
S113406078948FB7F8949091490A913019F492E0BA
S11340709093490A8FBF0E945F12FF91EF91BF9105
S1134080AF919F918F917F916F915F914F913F91EC
S11340902F910F900BBE0F900FBE0F901F9018958D
S11340A078941F920F920FB60F9211240F900FBEA7
S11340B00F901F90189578941F920F920FB60F923D
S11340C011240BB60F922F933F934F935F936F93EB
S11340D07F938F939F93AF93BF93EF93FF93E6E800
S11340E0F0E080819181208131818FB7F894309301
S11340F066082093650891E090938B0B8FBF0E9414
S11341005F12FF91EF91BF91AF919F918F917F913A
S11341106F915F914F913F912F910F900BBE0F9034
S11341200FBE0F901F90189578941F920F920FB6A0
S11341300F9211242F938F939F93AF93BF932FB715
S1134140F8948091610890916208A0916308B091FD
S113415064080196A11DB11D8093610890936208C3
S1134160A0936308B09364082FBF2FB7F89480918D
S1134170B0099091B109A091B209B091B309019627
S1134180A11DB11D8093B0099093B109A093B20908
S1134190B093B3092FBFBF91AF919F918F912F918E
S11341A00F900FBE0F901F9018951F920F920FB68D
S11341B00F9211240BB60F920F931F932F933F93DB
S11341C04F935F936F937F938F939F93AF93BF931B
S11341D0EF93FF930E9415028091B30090E0019643
S11341E040918605509187056091880570918905F5
S11341F08A019B01080F191F211D311D009386059B
S113420010938705209388053093890578940E943C
S11342103608FF91EF91BF91AF919F918F917F915C
S11342206F915F914F913F912F911F910F910F903B
S11342300BBE0F900FBE0F901F9018951F920F92F8
S11342400FB60F9211240BB60F922F933F934F93F7
S11342505F936F937F938F939F93AF93BF93EF93EA
S1134260FF930E941502FF91EF91BF91AF919F912F
S11342708F917F916F915F914F913F912F910F900B
S11342800BBE0F900FBE0F901F9018951F920F92A8
S11342900FB60F9211240BB60F922F933F934F93A7
S11342A05F936F937F938F939F93AF93BF93EF939A
S11342B0FF932EB5E091460AF091470A309739F002
S11342C08091A9099091AA09E80FF91F2083809190
S11342D0A9099091AA0901969093AA098093A90922
S11342E08CB58F778CBD8091A9099091AA096091B2
S11342F0FF03709100048617970708F03FC02091D0
S1134300371730913817E091460AF091470AAC010B
S1134310465F5F4F6417750708F4AB0141505109BC
S113432084179507C8F42115310549F0D901A80F60
S1134330B91F6C916EBD0DB407FEFDCF04C01EBC49
S11343400DB407FEFDCF6EB5309721F0DF01A80F45
S1134350B91F6C930196E4CF4CB540684CBD211550
S1134360310531F0F901E80FF91F20812EBD01C09C
S11343701EBC9093AA098093A90911C01092470A00
S11343801092460A109238171092371710920004B0
S11343901092FF031092AA091092A9098EB5FF91F9
S11343A0EF91BF91AF919F918F917F916F915F91A9
S11343B04F913F912F910F900BBE0F900FBE0F9016
S11343C01F9018951F920F920FB60F9211240BB6DF
S11343D00F922F933F934F935F936F937F938F939A
S11343E09F93AF93BF93EF93FF938091C00087FF98
S11343F04AC06091C6002091B6093091B7092115D1
S1134400310551F18091691790916A17AC014F5FA2
S11344105F4F50936A1740936917F901E80FF91F2A
S113442060832091691730916A1780917317909176
S113443074172817390738F11092B7091092B60982
S113444080914C0A8330F9F08091C1008F7780937A
S1134450C10010924C0A17C06E3719F460E081E075
S113446010C08091D7036D3721F482608093D70305
S11344700AC081FF05C08D7F8093D70380E268273F
S113448080E00E94B404FF91EF91BF91AF919F919E
S11344908F917F916F915F914F913F912F910F90E9
S11344A00BBE0F900FBE0F901F90189578941F921B
S11344B00F920FB60F9211240BB60F92EF92FF9248
S11344C00F931F932F933F934F935F936F937F9318
S11344D08F939F93AF93BF93CF93DF93EF93FF9308
S11344E0809127069091280620918E0B30918F0B96
S11344F082179307D0F42091090930910A09AC017D
S11345004F5F5F4F5093280640932706F901E80F49
S1134510F91F80819FB7F8948093C6008091C000F2
S113452080648093C0009FBFB2C010920A091092A9
S11345300909109229068091C1008F7B8093C100E4
S11345400FB7F8948091D703982F9170F92E80FFBC
S11345500AC08E7F8093D7038091580A8093AE055A
S11345600E94FF0A93C0E091510A8E2F90E0FC0153
S11345703197E830F10508F084C0E258FF4F0C94FD
S1134580E0288091BC080E943F0B182F83E08093A1
S1134590510A6091BC080AC08091A1160E943F0B89
S11345A0182F83E08093510A6091A11680917017AF
S11345B0909171170E9469049093711780937017FA
S11345C05EC0E091B809F0E0EE0FFF1FE45FF64F24
S11345D081810E943F0B182FE090B809CE2DD0E0C6
S11345E0CC0FDD1FFE01E45FF64F618180917017EF
S11345F0909171170E9469049093711780937017BA
S1134600909197089F5F9093970881E0E8121EC0ED
S11346108091E003E091E403F091E503E80FF11DDC
S113462020818F5F8093E0033091E103381720F4F9
S113463082E080930E0901C0F22EC45FD64F8881B8
S1134640823021F09F3F11F0F98219C084E012C03A
S1134650809170170E943F0B182F85E00BC080914A
S113466071170E943F0B182F86E004C00E94510B63
S1134670182F87E08093510A02C088E003C01123F9
S113468029F089E08093510A0E945E020FBFFF91D6
S1134690EF91DF91CF91BF91AF919F918F917F91D6
S11346A06F915F914F913F912F911F910F91FF90C7
S11346B0EF900F900BBE0F900FBE0F901F901895A8
S11346C01F920F920FB60F9211248F938091C800FE
S11346D087FD8091CE008F910F900FBE0F901F9099
S11346E0189578941F920F920FB60F9211240F9081
S11346F00FBE0F901F90189578941F920F920FB6CB
S11347000F9211240F900FBE0F901F90189578945C
S11347101F920F920FB60F9211240F900FBE0F909D
S11347201F90189578941F920F920FB60F92112430
S11347300F900FBE0F901F90189578941F920F92B0
S11347400FB60F9211248F939F93809196009091AE
S113475097009F918F910F900FBE0F901F90189507
S113476078941F920F920FB60F9211242F938F9368
S11347709F932FB7F8948091980890919908019687
S113478090939908809398082FBF9F918F912F91B0
S11347900F900FBE0F901F901895CFB7F89414BECA
S11347A00FB6F894A89580916000886180936000AA
S11347B0109260000FBE48E150E06FEF70E08EE8A9
S11347C095E00E9456298FEF80939E1680936D1773
S11347D056985E9854985C9880916F008F7D809372
S11347E06F00209A0E94AC01279A0E94AA010E9A97
S11347F0169A80E199E090934805809347051092BA
S11348005C088AE58093EE0581E08093810080E274
S11348108093B60083E08093B100209184003091AE
S113482085008AE740918400509185004217530720
S113483008F481509A018111F5CF8091B2009091D2
S1134840B2009817E1F320918400309185008091A3
S1134850B2009091B2009817E1F380918400909196
S113486085004096821B930B55E0969587955A9543
S1134870E1F79093A01680939F161092B1001092C6
S113488081001092B6001092B2001092850010922E
S113489084008FEF87BB86BB8091B6008571E1F7FA
S11348A00A9A099A089A129A119A109A18B88FEFCC
S11348B087B90C98149810929500109294008091E6
S11348C0710081608093710080919100887F826083
S11348D080939100109285001092840080916F0063
S11348E0816080936F0080918100887F82608093D3
S11348F081000E940302D82F8F3F19F00E94CA142E
S1134900F8CF83E192E0909385178093841702E0B7
S113491016E060919F167091A016CB01A0E0B0E064
S1134920BC01CD012CE0660F771F881F991F2A95C3
S1134930D1F7C12C31EED32EE12CF12CA701960135
S11349400E946528215031092093C4003093C5008A
S11349500093C0001093C2001092C10060919F1692
S11349607091A016CB01A0E0B0E0BC01CD014CE0F9
S1134970660F771F881F991F4A95D1F7A7019601E3
S11349800E946528215031092093CC003093CD003A
S11349900093C8001093CA001092C90084E490E008
S11349A090938D0B80938C0B10920C0910920E092E
S11349B08AE08093510A109297081092BC081092D2
S11349C0A116109271171092701710926B17109213
S11349D0B8090E94F1011092A2091092A109109243
S11349E0D303D093BB080E94C0068091B6008062B6
S11349F08093B6008091B60081FDFCCF82E0809365
S1134A00B0008091B60080FDFCCF83E08093B100BC
S1134A108091B60083FDFCCF86EE8093B300809135
S1134A2070008260809370000E9436088091210299
S1134A3090912202AC014F5F5F4F60E070E04093C1
S1134A4058085093590860935A0870935B082AEAEF
S1134A5036E1309375042093740429ED36E13093E4
S1134A6077042093760428E037E130937904209387
S1134A7078048295807F8093F903DFEFD093ED056E
S1134A808FEF9FEF909379178093781790937B170C
S1134A9080937A1790937D1780937C1790937F1758
S1134AA080937E17909381178093801780E491E020
S1134AB0A0E0B0E08093E7059093E805A093E905B2
S1134AC0B093EA0581E18093AB0910929D16109290
S1134AD08A0510928B0510928C0510928D05109208
S1134AE014051092150510921605109217051092D0
S1134AF0AF051092B0051092B1051092B2050E9454
S1134B00030384E295E090934A0580934905D0938A
S1134B102505D093240587E698E09093550A809361
S1134B20540A84E0809331060E9403028F3F19F0F7
S1134B300E94CA14F9CFCFBF78941F928BE08F9351
S1134B4085EB93E09F938F930E945D290E94A412AA
S1134B501092480A48E75FE560E070E084E00E9454
S1134B606A098FB7F8940F900F900F900F9090915F
S1134B70510A9A3031F090911C06943011F08FBF95
S1134B8004C08FBF81E10E943F021092900B1092EB
S1134B904D0510924C051092FB031092FA038BE919
S1134BA093E00E9471290E9470120E947012109268
S1134BB03F099091210280912202E0914905F091F0
S1134BC04A05938382838091D4098D7F8093D4098D
S1134BD081E08093FD03CFB7F8940E9403028F3FD6
S1134BE009F050C080917000837089F08091B60004
S1134BF08A71E1F78091B3009091B200891B8C30E7
S1134C0040F08091B200853F20F483E003C085E04A
S1134C1001C082E0E0916E00E670E9F490916F00CB
S1134C209E72E1F4E0917100EE72A9F40CB407FCF9
S1134C3015C09091C100987189F4E091C900E871A0
S1134C4051F49091BC0092FD09C090917A0097FDB7
S1134C5004C0E5E003C0E0E001C0E1E093B78E17D3
S1134C6008F4E82FF0E0E45FFE4F8491E92FE07F41
S1134C70E160E82BE3BF78948895F89483B78E7F3E
S1134C8083BFABCFCFBF0E94CA14A5CF0E945A26C0
S1134C900C9496270E948F2758F00E94882740F092
S1134CA029F45F3F29F00C946F2751110C94CA2703
S1134CB00C9475270E94A72768F39923B1F3552311
S1134CC091F3951B550BBB27AA276217730784071B
S1134CD038F09F5F5F4F220F331F441FAA1FA9F3B1
S1134CE035D00E2E3AF0E0E832D091505040E6959F
S1134CF0001CCAF72BD0FE2F29D0660F771F881F00
S1134D00BB1F261737074807AB07B0E809F0BB0BF2
S1134D10802DBF01FF2793585F4F3AF09E3F510506
S1134D2078F00C946F270C94CA275F3FE4F3983E05
S1134D30D4F3869577956795B795F7959F5FC9F7EF
S1134D40880F911D9695879597F90895E1E0660F70
S1134D50771F881FBB1F621773078407BA0720F0E9
S1134D60621B730B840BBA0BEE1F88F7E095089552
S1134D700E94BF266894B1110C94CA2708950E941A
S1134D80AF2788F09F5798F0B92F9927B751B0F003
S1134D90E1F0660F771F881F991F1AF0BA95C9F7BB
S1134DA014C0B13091F00E94C927B1E008950C9469
S1134DB0C927672F782F8827B85F39F0B93FCCF31C
S1134DC0869577956795B395D9F73EF49095809538
S1134DD0709561957F4F8F4F9F4F089597FB16F401
S1134DE00E9478270C943227E89409C097FB3EF47C
S1134DF090958095709561957F4F8F4F9F4F992324
S1134E00A9F0F92F96E9BB279395F69587957795A1
S1134E106795B795F111F8CFFAF4BB0F11F460FF61
S1134E201BC06F5F7F4F8F4F9F4F16C0882311F0B9
S1134E3096E911C0772321F09EE8872F762F05C0CD
S1134E40662371F096E8862F70E060E02AF09A9568
S1134E50660F771F881FDAF7880F9695879597F95D
S1134E600895E894F92F96EBFF2381F012161306A8
S1134E701406440B9395F695879577956795579502
S1134E804040FF23B9F71BC099270895882351F4A4
S1134E909850D2F7872B762F652F542F432F322F1C
S1134EA020E0B1F3121613061406440B88233AF0DB
S1134EB09A95440F551F661F771F881FCAF75523FD
S1134EC04AF4440F551F11F460FF04C06F5F7F4F15
S1134ED08F4F9F4F880F9695879597F9089597F967
S1134EE09F6780E870E060E008959FEF80EC08958C
S1134EF09095809570956095509540953095219545
S1134F003F4F4F4F5F4F6F4F7F4F8F4F9F4F0895CE
S1134F1000240A9416161706180609060895002494
S1134F200A9412161306140605060895092E03940E
S1134F30000C11F4882352F0BB0F40F4BF2B11F482
S1134F4060FF04C06F5F7F4F8F4F9F4F089557FDE1
S1134F509058440F551F59F05F3F71F04795880FE3
S1134F6097FB991F61F09F3F79F08795089512167A
S1134F7013061406551FF2CF4695F1DF08C0161626
S1134F8017061806991FF1CF8695710561050894D7
S1134F900895E894BB2766277727CB0197F90895EE
S1134FA00E94E3270C9496270E94882738F00E94D9
S1134FB08F2720F0952311F00C946F270C947527FC
S1134FC011240C94CA270E94A72770F3959FC1F35C
S1134FD0950F50E0551F629FF001729FBB27F00DA3
S1134FE0B11D639FAA27F00DB11DAA1F649F6627F8
S1134FF0B00DA11D661F829F2227B00DA11D621F47
S1135000739FB00DA11D621F839FA00D611D221F00
S1135010749F3327A00D611D231F849F600D211DE4
S1135020822F762F6A2F11249F5750409AF0F1F067
S113503088234AF0EE0FFF1FBB1F661F771F881FD0
S113504091505040A9F79E3F510580F00C946F2772
S11350500C94CA275F3FE4F3983ED4F38695779582
S11350606795B795F795E7959F5FC1F7FE2B880F76
S1135070911D9695879597F90895AA1BBB1B51E13D
S113508007C0AA1FBB1FA617B70710F0A61BB70BB4
S1135090881F991F5A95A9F780959095BC01CD0159
S11350A0089597FB072E16F4009407D077FD09D0D6
S11350B00E943D2807FC05D03EF4909581959F4FB2
S11350C00895709561957F4F0895A1E21A2EAA1B49
S11350D0BB1BFD010DC0AA1FBB1FEE1FFF1FA217A4
S11350E0B307E407F50720F0A21BB30BE40BF50BA1
S11350F0661F771F881F991F1A9469F7609570952A
S1135100809590959B01AC01BD01CF010895052EBA
S113511097FB1EF400940E94D82857FD07D00E94E4
S1135120652807FC03D04EF40C94D828509540957C
S1135130309521953F4F4F4F5F4F089597FB57FF91
S11351400C94AE289F938F930E94AE286E1B7F0B06
S1135150AF91BF918A0B9B0B0895E894DF93CF9393
S1135160FC01DB010E943E297F936F93E9019A01C0
S1135170AC01BF93AF933F932F93DF010E943E296D
S113518026F46C1B7D0B820B930B9E01EB01FC013F
S11351900E944D29AF91BF912F913F910E944D29BB
S11351A0BE01CF01F9012F913F91CF91DF91089575
S11351B090958095709561957F4F8F4F9F4F08957F
S11351C0EE0FFF1F0024001C0BBE0790F691E02D8C
S11351D009940F93083090F0982F872F762F652F1E
S11351E0542F432F322F22270850F4CF220F331F7E
S11351F0441F551F661F771F881F991F0A95B2F712
S11352000F91089597FB10F8169400080F93083037
S113521098F00850232F342F452F562F672F782FBF
S1135220892F902DF4CF0594979587957795679559
S113523057954795379527950A95AAF70F9108959D
S11352402A0D3B1D4C1D5D1D6E1D7F1D801F911F72
S113525008952A193B094C095D096E097F09800BE1
S1135260910B08950024A7FD00942A1730054005EA
S1135270500560057005800590050895A29FB00152
S1135280B39FC001A39F700D811D1124911DB29F76
S1135290700D811D1124911D08950E943E29460F11
S11352A0571FC81FD91F08F431960895DC0101C0A7
S11352B06D9341505040E0F70895CF93DF93CDB7FD
S11352C0DEB7AE014B5F5F4FFA0161917191AF019F
S11352D080918417909185170E94A129DF91CF9125
S11352E008950F931F93CF93DF93E0918417F09168
S11352F08517238121FF1BC08C01D0E0C0E0F80199
S113530081918F016091841770918517DB01189644
S1135310ED91FC911997882331F00995892B79F344
S1135320DFEFCFEFECCF8AE00995892B19F08FEFEF
S11353309FEF02C08D2F9C2FDF91CF911F910F9172
S113534008952F923F924F925F926F927F928F9225
S11353509F92AF92BF92CF92DF92EF92FF920F9300
S11353601F93CF93DF93CDB7DEB72C970FB6F89486
S1135370DEBF0FBECDBF7C016B018A01FC01178229
S11353801682838181FFBDC1CE0101964C01F701D4
S11353909381F60193FD859193FF81916F01882399
S11353A009F4ABC1853239F493FD859193FF819162
S11353B06F01853229F4B70190E00E94B22BE7CF48
S11353C0512C312C20E02032A0F48B3269F030F4DF
S11353D0803259F0833269F420612CC08D3239F067
S11353E0803339F4216026C02260246023C0286001
S11353F021C027FD27C030ED380F3A3078F426FF5E
S113540006C0FAE05F9E300D1124532E13C08AE0CB
S1135410389E300D1124332E20620CC08E3221F4BC
S113542026FD6BC1206406C08C3611F4206802C0CE
S1135430883641F4F60193FD859193FF81916F01C4
S11354408111C1CF982F9F7D9554933028F40C5F20
S11354501F4FFFE3F9830DC0833631F0833771F0BA
S1135460833509F05BC022C0F801808189830E5F17
S11354701F4F44244394512C540115C03801F2E0C9
S11354806F0E711CF801A080B18026FF03C0652D4A
S113549070E002C06FEF7FEFC5012C870E94A72B3D
S11354A02C0183012C852F77222E17C03801F2E0BE
S11354B06F0E711CF801A080B18026FF03C0652D1A
S11354C070E002C06FEF7FEFC5012C870E949C2B18
S11354D02C012C852068222E830123FC1BC0832DE4
S11354E090E048165906B0F4B70180E290E00E94BB
S11354F0B22B3A94F4CFF50127FC859127FE8191D4
S11355005F01B70190E00E94B22B31103A94F1E0B0
S11355104F1A51084114510471F7E5C0843611F053
S1135520893639F5F80127FF07C0608171818281CE
S113553093810C5F1F4F08C060817181882777FDBC
S11355408095982F0E5F1F4F2F76722E97FF09C0FC
S113555090958095709561957F4F8F4F9F4F2068F0
S1135560722E2AE030E0A4010E94EA2BA82EA8188B
S113557044C0853729F42F7EB22E2AE030E025C0BE
S1135580F22FF97FBF2E8F36C1F018F4883579F0E9
S1135590B4C0803719F0883721F0AFC02F2F2061B5
S11355A0B22EB4FE0DC08B2D8460B82E09C024FF2A
S11355B00AC09F2F9660B92E06C028E030E005C0CF
S11355C020E130E002C020E132E0F801B7FE07C07C
S11355D060817181828193810C5F1F4F06C060815D
S11355E0718180E090E00E5F1F4FA4010E94EA2BBE
S11355F0A82EA818FB2DFF777F2E76FE0BC0372D23
S11356003E7FA51450F474FE0AC072FC08C0372D06
S11356103E7E05C0BA2C372D03C0BA2C01C0B52C70
S113562034FF0DC0FE01EA0DF11D8081803311F4B9
S1135630397E09C032FF06C0B394B39404C0832FEB
S1135640867809F0B39433FD13C030FF06C05A2C9A
S1135650B31418F4530C5B18B32CB31468F4B701E7
S113566080E290E03C870E94B22BB3943C85F5CF56
S1135670B31410F43B1801C0312C34FF12C0B7012D
S113568080E390E03C870E94B22B3C8532FF17C038
S113569031FD03C088E790E002C088E590E0B701DF
S11356A00CC0832F867859F031FF02C08BE201C011
S11356B080E237FD8DE2B70190E00E94B22BA51481
S11356C038F4B70180E390E00E94B22B5A94F7CFEC
S11356D0AA94F401EA0DF11D8081B70190E00E94C3
S11356E0B22BA110F5CF332009F451CEB70180E2DB
S11356F090E00E94B22B3A94F6CFF701868197810D
S113570002C08FEF9FEF2C960FB6F894DEBF0FBE4A
S1135710CDBFDF91CF911F910F91FF90EF90DF905C
S1135720CF90BF90AF909F908F907F906F905F903D
S11357304F903F902F900895FC0105906150704068
S11357400110D8F7809590958E0F9F1F0895FC0146
S11357506150704001900110D8F7809590958E0F9C
S11357609F1F08950F931F93CF93DF93FB01238112
S113577021FD03C08FEF9FEF28C022FF16C0468192
S11357805781248135814217530744F4A081B181A4
S11357909D012F5F3F4F318320838C932681378176
S11357A02F5F3F4F3783268310C0EB01092F182F3B
S11357B00084F185E02D0995892BE1F68E819F8186
S11357C001969F838E83812F902FDF91CF911F911C
S11357D00F910895FA01AA27283051F1203181F15F
S11357E0E8946F936E7F6E5F7F4F8F4F9F4FAF4FE5
S11357F0B1E03ED0B4E03CD0670F781F891F9A1FF8
S1135800A11D680F791F8A1F911DA11D6A0F711DAB
S1135810811D911DA11D20D009F468943F912AE0B7
S1135820269F11243019305D3193DEF6CF0108959F
S1135830462F4770405D4193B3E00FD0C9F7F6CFD0
S1135840462F4F70405D4A3318F0495D31FD405298
S1135850419302D0A9F7EACFB4E0A695979587952E
S113586077956795BA95C9F700976105710508950D
S11358709B01AC010A2E06945795479537952795B9
S1135880BA95C9F7620F731F841F951FA01D089551
S1075890F894FFCFB6
S1135894E709E709160AFF0101FFFFFFFFFFFF22E3
S11358A4010001000000020000000097070000004E
S11358B40001004150503A205061636B65747320B9
S11358C473656E74203A202564200A005458466C8B
S11358D46F77503A2054696D657220666972656405
S11358E4202D20627573792069732025640A004190
S11358F45F49444C4500415F545800415F4C49534F
S113590454454E004D6163436F6E74726F6C2E7315
S113591474617274446F6E6500415050204D61632C
S1135924526563656976652E726563656976653A61
S1135934207265636569766564004150503A20536A
S1135944657474696E67207570204D4343207061DB
S1135954636B6574206669656C6473004D4343200E
S11359647061636B657420737263203D2025752C0C
S1135974207072696F203D2025752C206465737432
S1135984696E6174696F6E203D2025750A00545850
S1135994466C6F77502E73656E6420666C6F772047
S11359A425753A207365715F6E756D203D202575EC
S11359B40A004150503A20466C6F7753656E642058
S11359C46661696C6564004150503A20466C6F7797
S11359D453656E6420746F204D4143204F4B005433
S11359E458466C6F77503A205061636B657473202A
S11359F473656E743A25640A005458466C6F775084
S1135A043A20506B742070617373656420746F2042
S1135A14415050005458466C6F77503A205061639B
S1135A246B6574206661696C6564004150503A206A
S1135A34417474656D7074696E6720746F20737437
S1135A4461727420005458466C6F77503A20626F28
S1135A546F74696E6720666C6F772025752E2E2E01
S1055A640A0032
S9030000FC
