S01700006275696C642F697269732F6D61696E2E7372656343
S11300000C9488010C94A7010C94A7010C94A701EB
S11300100C94A7010C94A7010C94A7010C94A701BC
S11300200C94A7010C94A7010C94A7010C94A701AC
S11300300C94A7010C94591F0C94A7010C94A21FB3
S11300400C94DF1E0C94591E0C949B1E0C94D41E0D
S11300500C94181F0C94A7010C94A7010C94A701ED
S11300600C94CA1F0C9466200C94A7010C94DA20FB
S11300700C94A7010C94A7010C94A7010C942122C1
S11300800C9400220C940B220C9416220C9434220F
S11300900C94E4210C94A7010C94F5210C94A70171
S11300A00C94A7010C94A7010C94A7010C94A7012C
S11300B00C94A7010C94A7010C94A7010C94A7011C
S11300C00C94A7010C94A7010C94A7019B13BE13D5
S11300D028148514A4161B1763172A18D017E317BE
S11300E03018111BE81B111C261C4B1C5A1C181D14
S11300F03C1D3E1D491D851D7C1D4521502165214A
S1130100AC21B321BA21C121C82100020E060C047E
S113011000002110422063308440A550C660E7707F
S1130120088129914AA16BB18CC1ADD1CEE1EFF127
S11301303112100273325222B5529442F772D662CF
S1130140399318837BB35AA3BDD39CC3FFF3DEE377
S11301506224433420040114E664C774A44485541F
S11301606AA54BB528850995EEE5CFF5ACC58DD5C7
S11301705336722611163006D776F6669556B4466F
S11301805BB77AA719973887DFF7FEE79DD7BCC717
S1130190C448E5588668A7784008611802282338BF
S11301A0CCC9EDD98EE9AFF9488969990AA92BB967
S11301B0F55AD44AB77A966A711A500A333A122A0F
S11301C0FDDBDCCBBFFB9EEB799B588B3BBB1AABB7
S11301D0A66C877CE44CC55C222C033C600C411C5F
S11301E0AEED8FFDECCDCDDD2AAD0BBD688D499D07
S11301F0977EB66ED55EF44E133E322E511E700EAF
S11302009FFFBEEFDDDFFCCF1BBF3AAF599F788F56
S11302108891A981CAB1EBA10CD12DC14EF16FE136
S11302208010A100C230E32004502540467067606E
S1130230B9839893FBA3DAB33DC31CD37FE35EF386
S1130240B1029012F322D2323542145277625672BE
S1130250EAB5CBA5A89589856EF54FE52CD50DC5D6
S1130260E234C324A014810466744764245405440E
S1130270DBA7FAB79987B8975FE77EF71DC73CD726
S1130280D326F2369106B01657667676154634565E
S11302904CD96DC90EF92FE9C899E9898AB9ABA976
S11302A04458654806782768C018E1088238A328AE
S11302B07DCB5CDB3FEB1EFBF98BD89BBBAB9ABBC6
S11302C0754A545A376A167AF10AD01AB32A923AFE
S11302D02EFD0FED6CDD4DCDAABD8BADE89DC98D16
S11302E0267C076C645C454CA23C832CE01CC10C4E
S11302F01FEF3EFF5DCF7CDF9BAFBABFD98FF89F66
S1130300176E367E554E745E932EB23ED10EF01E9D
S113031011241FBECFEFD1E2DEBFCDBF12E0A0E0BB
S1130320B2E0EEE8FFE400E00BBF02C007900D92DC
S1130330A432B107D9F715E1A4E2B2E001C01D92DD
S1130340AA39B107E1F70E9451220C94C5270C94F5
S113035000002F980895289A08959FB7F8948091E3
S11303606D088F5F80936D089FBF08950DB407FEDD
S1130370FDCF8EB50895982F0DB407FEFDCF8EB531
S11303809EBD0895289808958627082E8295807F1B
S11303908025092E982F82958F7008268695982798
S11303A08927880F880F880F80250895FC01CB01C9
S11303B04383528361839083BA010895FC012081B1
S11303C06181862F90E0A0E0B0E0DC0199278827C6
S11303D0B22B2381822B2281BC01CD01722B089583
S11303E0E8E9F9E01182108284E080933D041092E0
S11303F06C081092A30910924D041092D407109225
S1130400D30708958091B0148F3F69F0E82FF0E08E
S1130410E055FC4F90819093B0149F3F11F490935A
S11304207F159FEF908308958091B0008093B00072
S11304308091B60081FDFCCF08959FB7F894E82F12
S1130440F0E0E055FC4F20812F3F99F4E0917F15B7
S1130450E81779F02091B0142F3F19F48093B01469
S113046004C0F0E0E055FC4F808380937F1580E06A
S113047001C085E09FBF0895CF93CFB7F8948091D2
S11304807D15811108C080E10E941D02811103C005
S113049081E080937D15CFBFCF91089582E00C94C5
S11304A01D02809162088A3021F480913D048430D9
S11304B021F081E080933902089582E10E941D02B7
S11304C0109239020895FC0120812251E20FF11D9E
S11304D024852E3319F58A53934001F5611119C00F
S11304E080915E078F5F80935E07E0916B03F091CC
S11304F06C03808190E0982F88272181822B2091A2
S11305002102309122028217930719F484818F5FAC
S11305108483809150048D7F8093500408952FB775
S1130520F89480911002909111022FBF0895409188
S11305308400509185006FB7F89420918400309125
S113054085002D5F3F4FF901E41BF50BE817F90710
S113055018F49C01240F351F2115310511F421E0F5
S113056030E02150310930938B0020938A0084E0DD
S113057086BB80916F00846080936F006FBF089585
S11305800F931F93CF93DF938C018FB7F894C0918F
S11305906708D09168089E012F5E3E4F309368082B
S11305A0209367088FBF84E00E941D02CE01B8012A
S11305B00E94A5268A5D9E4FDF91CF911F910F91D6
S11305C00895E0EEF6E01082399687E0E832F80705
S11305D0D1F78FB7F8941092BD068FBF08952FB747
S11305E0F8943091B2008091A8039091A903A0914E
S11305F0AA03B091AB03B99B0BC04091B3003091F7
S1130600B2000196A11DB11D840F911DA11DB11D44
S1130610BC01CD01630F711D811D911D2FBF089574
S11306204F925F926F927F928F929F92AF92BF92FE
S1130630CF92DF92FF920F931F93CF93DF93A9ED95
S1130640B7E0C12CD12C49E04C9DF0014D9DF00D3B
S11306501124EF01C752D84FF884F1FE71C00D91F7
S11306601D912D913C91139714968D909D90AD9072
S1130670BC9017972B013C01401A510A620A730A75
S1130680481459046A047B0408F45AC0F0FE06C0F6
S1130690EF51F84F20812D7F20830AC0B901A801B2
S11306A0480D591D6A1D7B1D488359836A837B83CA
S11306B021E0C21621F082E0C81639F04AC08FB793
S11306C0F894109247028FBF44C080914E0281116A
S11306D031C0E0916B03F0916C03808190E0982F1E
S11306E088272181822B019671F480915E078F5FA8
S11306F080935E07853038F01482909121028091B6
S1130700220291838083E0916B03F0916C038081DA
S113071090E0982F88272181822B0196D1F0809137
S1130720500481FD16C08260809350048BE00E94C7
S11307301D020FC08091F3078D7F8093F30709C0DA
S11307402FEFC21AD20A199624E0C216D10409F076
S11307507BCF86E0DF91CF911F910F91FF90DF90C7
S1130760CF90BF90AF909F908F907F906F905F904D
S11307704F900C941D020F931F932FB7F894809100
S1130780CF079091D007A091D107B091D207609183
S1130790840070918500B09B07C00196A11DB11D16
S11307A060918400709185002FBF25E07695679550
S11307B02A95E1F7AB0160E070E03BE0880F991FF8
S11307C0AA1FBB1F3A95D1F78A019B01082B192B4D
S11307D02A2B3B2BC901B8011F910F9108959FB794
S11307E0F89480FF02C0129801C0129A81FF02C0DF
S11307F0119801C0119A82FF02C0109801C0109A8A
S11308009FBF08950F931F930E94BB03AB01BC01CC
S11308108091DC069091DD06A091DE06B091DF06A2
S11308200091B9061091BA062091BB063091BC061E
S1130830080F191F2A1F3B1F481759076A077B0710
S113084030F0081719072A073B0758F005C00817A6
S113085019072A073B0770F540175107620773070A
S113086048F5D901C801841B950BA60BB70B813041
S1130870E4E09E07A105B10500F18A019B011C5F1C
S11308802F4F3F4F0093DC061093DD062093DE06C6
S11308903093DF069450A109B1098093B90690936F
S11308A0BA06A093BB06B093BC0680E094E0A0E037
S11308B0B0E013C080E090E0DC010093DC0610930C
S11308C0DD062093DE063093DF061092B9061092FF
S11308D0BA061092BB061092BC0625E0880F991F39
S11308E02A95E1F735E0440F551F3A95E1F7209139
S11308F08400309185002D5F3F4FB901641B750B57
S11309006817790718F49C01240F351F2115310548
S113091011F421E030E02150310930938900209313
S1130920880082E086BB80916F00826080936F00B4
S11309301F910F91089590914302E92FF0E0EE0F7B
S1130940FF1FE259F74F4081518120914102222338
S113095059F09F5F943119F09093430202C01092B2
S11309604302215020934102CA010895909140020C
S1130970E92FF0E0EE0FFF1FEC59F84F4081518151
S113098020913E02222359F09F5F943119F09093F5
S1130990400202C010924002215020933E02CA013C
S11309A0089590913D02E92FF0E0EE0FFF1FED5EF8
S11309B0FB4F4081518120913B02222359F09F5FDC
S11309C0943119F090933D0202C010923D022150DF
S11309D020933B02CA010895823031F0833031F014
S11309E0813031F40C949B040C94B6040C94D1041F
S11309F080910504909106040895E0E1F1E06927EF
S1130A00660FF11DE60FF11DC895982F802D3196C4
S1130A10C8959025089520912D02909138022111B6
S1130A202FC081112DC081E080932D0220910602F8
S1130A3020932C02292F217020937003209100020F
S1130A403091010230932B0220932A022091370225
S1130A5020932902292F21708227967EE82FF0E027
S1130A60EE0FFF1FEE5FFD4F2081318130930102B5
S1130A7020930002982B9093380285E10C941D0278
S1130A8090FF02C09B7F01C09D7F90933802089520
S1130A90CF93DF93D82FC62F80913D04813061F02E
S1130AA028F0823099F0833019F1E2C0DD2309F493
S1130AB025C10E94F001ECC0D11120C16093A309AB
S1130AC08CEB860F823008F0D3C0E4C0D111D0C0C3
S1130AD060934D048091D3079091D4070E94FD0444
S1130AE09093D4078093D30783E080933D0406C199
S1130AF080916C088F3F09F4BBC0DD2309F454C016
S1130B00823008F4B5C0E0919809EE2311F0E15069
S1130B1001C0E2E0AE2FB0E0A856B64F12962C9179
S1130B2030E0322F2227EE2311F0E15001C0E2E041
S1130B30F0E0E856F64F8281282B8091D3079091FC
S1130B40D4072817390709F093C080E00E940B05E9
S1130B508091A3098434A9F420914D04E091C00745
S1130B609091C10781E08E0F863008F4BDC09923AF
S1130B7041F0F0E0E054F84F22831092C0070E9445
S1130B803C020E94F001809128028D7F809328020C
S1130B9080913902882309F4B1C084E080933D0434
S1130BA0DF91CF910C945102823008F44CC0E09153
S1130BB09909F0E0E856F64F928180913802282F87
S1130BC0269526952695237030E02130310521F0B5
S1130BD02230310579F01EC0877E8061809338020F
S1130BE0992311F080E001C085E08093370290934F
S1130BF0060210C0809137028F3260F4E091000247
S1130C00F0910102E80FF11D9083809137028F5F0C
S1130C108093370280919909E82FF0E0E856F64F67
S1130C2062818F5F833018F48093990902C0109217
S1130C3099098091D3079091D4070E94FD04909361
S1130C40D4078093D30780919809E82FF0E0E85601
S1130C50F64FC2838F5F833018F48093980902C0E3
S1130C601092980980916C088F5F80936C0846C03D
S1130C700E94F001809128028D7F8093280281E0F8
S1130C800E940B0580913902811187CFDD23B1F1D8
S1130C9081E02BCF8091D3079091D4070E94FD046B
S1130CA09093D4078093D307C43411F482E001C035
S1130CB083E080933D049091380290FF04C092FD3C
S1130CC0D7CF946003C091FDD3CF92609093380244
S1130CD080913802877E88608093380210923702B0
S1130CE08FEF809306020AC0891709F44ACFF0E017
S1130CF0E054F84F22838093C00741CFDF91CF9116
S1130D000895E0916B03F0916C03208130E0322F61
S1130D1022278181282B81E04091210250912202D7
S1130D202417350709F480E00895CF93DF93DFB7E4
S1130D30F894C0914402C11109C081E08093440237
S1130D401092090289E00E941D0218C08091DA06FF
S1130D508F3F99F4E0910A02EE2379F080910B021F
S1130D608F3F19F410920B0204C0F0E0E652F94FE1
S1130D70108210920A02C0E001C0C5E0DFBF8C2FD0
S1130D80DF91CF9108959C018091330290913402B8
S1130D90892BB1F59FB7F89485E0809331021092C6
S1130DA03002309336022093350222E030E0309353
S1130DB034022093330210922E0210922F02645FA9
S1130DC0609332029FBF8FB7F894909162089A3073
S1130DD011F48FBF17C08FBF9FB7F89480912D0770
S1130DE0811106C081E080932D0710922E0701C067
S1130DF080E09FBF882331F00E943C0280E0089588
S1130E0085E00895109234021092330281E008952F
S1130E108FEF809352158093511584E68093571574
S1130E208091AD149091AE14892BF1F48CE495E18A
S1130E309093AE148093AD148CE1809355158091FA
S1130E400702882391F0109207026CE18CE495E18B
S1130E500E94C306882349F091E090930702109200
S1130E60AE141092AD14089585E008958091250282
S1130E708C3118F4482F50E002C04CE150E09CE162
S1130E80E8E5F5E1DF011D929A95E9F790912702D3
S1130E9020E030E02417350799F0E92FF0E0EA5616
S1130EA0F74F6081882329F09F5F9A3F09F490E00F
S1130EB08150F901E45BFA4E64872F5F3F4FEACF1C
S1130EC090932702809325020E940807882319F033
S1130ED086E10C941D020895CF93DF931F92CDB742
S1130EE0DEB79091240291110BC0909125029D3799
S1130EF038F091E09093240289830E943607898117
S1130F003FB7F894209125022A3FB8F49091260225
S1130F10E92FF0E0EA56F74F808381E0890F8A3F9A
S1130F2019F08093260202C0109226022F5F2093AC
S1130F3025023FBF80E090E003C03FBF8FEF9FEFEB
S1130F400F90DF91CF910895CF93DF93DFB7F8949B
S1130F5080914502823021F5C0910C02C11120C05C
S1130F6090910E029F3FB1F0E92FF0E0E25FFB4F5A
S1130F70808180930E028F3F11F480930D028FEFD6
S1130F80808390930C0281E08093450280E00E946C
S1130F901D0204C090930C0210924502DFBF02C0F0
S1130FA0DFBFC1E08C2FDF91CF910895CF93DF9302
S1130FB0DFB7F89480914402823039F5C091090278
S1130FC0C11123C090910B029F3FB1F0E92FF0E0D3
S1130FD0E652F94F808180930B028F3F11F4809386
S1130FE00A028FEF80839093090281E08093440288
S1130FF089E00E941D0204C09093090210924402E9
S11310008CB58F7B8CBDDFBF02C0DFBFC1E08C2FEE
S1131010DF91CF910895CF92DF92EF92FF920F93D9
S11310201F93CF93CFB7F8942091B3009091B2005F
S113103087B3291711F081FF02C0CFBF7CC0809114
S11310404E04811102C086EE3FC00E94EF02C090A0
S11310503203D0903303E0903403F09035030091D1
S1131060B7141091B8142091B9143091BA14AB018B
S1131070BC014C195D096E097F09401751076207CD
S1131080730728F010924E0486EE91E01EC0D90139
S1131090C8018C0D9D1DAE1DBF1D4091A80350912C
S11310A0A9036091AA037091AB03841B950BA60B53
S11310B0B70B873E9105A105B10528F6823091054D
S11310C0A105B10508F482E090E02FEF280F3091DC
S11310D0B60033FDFCCF3091B2002313822F409130
S11310E0A8035091A9036091AA037091AB038A01EC
S11310F09B010F5F1F4F2F4F3F4F080F111D211DE5
S1131100311D041715072607370710F4842F80951F
S11311102091B60023FDFCCF8093B300CFBF992369
S113112051F085E0CF911F910F91FF90EF90DF90E8
S1131130CF900C941D02CF911F910F91FF90EF90CF
S1131140DF90CF9008950F931F932FB7F894409199
S11311508006509181066091820670918306809189
S1131160840090918500B09B08C04F5F5F4F6F4F24
S11311707F4F80918400909185002FBFBA0155273D
S11311804427A0E0B0E08A019B01082B192B2A2BED
S11311903B2BC901B8011F910F9108958091410221
S11311A0882319F00E949B04F9CF80913E02882382
S11311B019F00E94B604F9CF80913B02882319F0FC
S11311C00E94D104F9CF0895CF93DF931F92CDB736
S11311D0DEB789830E94C201898180688EBD80E068
S11311E00E94BB010E94B60189830E94AB018981E0
S11311F00F90DF91CF9108951F93CF93DF931F92A8
S1131200CDB7DEB7182F69830E94C201912F906C6D
S11312109EBD89810E94BB010E94B6010F90DF919F
S1131220CF911F910C94AB018CB58F7B8CBD229A0E
S11312302398219A209A8CB580618CBD8CB58F77C8
S11312408CBD8CB5877F8CBD8CB58B7F8CBD8CB5EC
S113125080648CBD8DB581608DBD8CB58C7F8CBD5B
S11312600895CF93DF93FC01228130E0322F2227AF
S11312704181242B25FF15C027743C7C2134384838
S113128081F4FC01C781D0E0DC2FCC278681C82BF8
S11312900E948F0221E0C817D90709F020E0822FAD
S11312A001C080E0DF91CF910895CF92DF92EF9259
S11312B0FF920F931F93CF93DF93EC01C880D980E3
S11312C0EA80FB808091360390913703A091380324
S11312D0B0913903A7019601281B390B4A0B5B0B0C
S11312E0CA01B9010E945E252091AC033091AD037F
S11312F04091AE035091AF030E9438260E942025EE
S11313000091D0031091D1032091D2033091D303E3
S1131310DC01CB01800F911FA21FB31FC80ED91E81
S1131320EA1EFB1EC882D982EA82FB828091BD0636
S1131330843050F4DF91CF911F910F91FF90EF9083
S1131340DF90CF900C94810680E0DF91CF911F91C4
S11313500F91FF90EF90DF90CF900895CF938FB7C8
S1131360F89490910902911106C090914402923030
S113137011F48FBF0FC08FBFCFB7F8948091440290
S113138081110AC082E080934402109209020E94F3
S11313901409CFBF81E004C0CFBF0E94950680E04E
S11313A0CF91089510920702E091AD14F091AE141C
S11313B03097D1F08091B50680FD16C08091070268
S11313C0811116C02581868161856D3118F08FE009
S11313D00C941D0290E0922B86839583CF010E948A
S11313E0C306882329F0F3CF81E080930702E6CF78
S11313F008958091280790912907892BC1F581E0F0
S113140090E09093A1098093A0098FEC93E09093CE
S113141029078093280710924B0410924A0481E014
S113142080934C048091C00080648093C0008091BC
S1131430C10080648093C10080914A0490914B0460
S11314409C012F5F3F4F30934B0420934A04FC01CF
S1131450E153FC4F80819FB7F8948093C60080913C
S1131460C00080648093C0009FBF80E0089585E041
S1131470089593E8980F923050F490912802916067
S11314809093280290E28927809369088DE78093DE
S1131490CF030C94F9099FB7F894809128028E7FAA
S11314A0809328028EE78093CF039FBF0C94F909A1
S11314B02F923F924F925F926F927F928F929F9260
S11314C0AF92BF92CF92DF92EF92FF920F931F934E
S11314D0CF93DF9320914F02222311F0D5E0D6C0A1
S11314E0D0914B15D530D1F720919D092111F6CF1C
S11314F08C010E94AE09882389F3F80184A582FF38
S113150003C066A56F7001C060E08091630768172F
S113151031F060936307606885E00E94FC08F8017D
S1131520228130E0322F22278181282B27743C7CB2
S113153021343848A1F486E00E94E4088F7190E0D9
S113154040917B0620910F0430E0240F311D43E0CD
S1131550359527954A95E1F7281739074CF169E045
S113156082E00E94FC080E94A3082B013C01480170
S11315708FEF881A980AF801C08184A59EEF392E4E
S11315803C0E84FF09C09801281939098BEF8C0F90
S1131590D82ED20E3D1802C0D32C312C81E00E94EB
S11315A0E4088F71893039F066E082E00E94FC081B
S11315B00E94D6076BC08FB7F8942F9AE0908400EE
S11315C0F09085008FBF0E94A9010E94C20180E6AD
S11315D08EBD8C2F0E94BB01E401CD2C89910E9409
S11315E0BB01CA94C110FACFDA94CD2DD0E05401D6
S11315F0AC0EBD1E2196C80DD91D6701F2EACF0EAF
S1131600D11CC418D508EE24D7FCE094FE2CC40CDD
S1131610D51CE61CF71C332011F18FEFA81AB80A69
S1131620C5010E94DE012B013C01AB01BC014C1938
S11316305D096E097F09C5010E94D6012C2E8C2EEE
S11316409D2EF40181914F010E94BB01882D8219C6
S11316508311F7CFB301A201C5010E94D6010E94F4
S1131660B6010E94AB0166E082E00E94FC08F8012A
S113167084A5826084A7C0A6D1A6E2A6F3A686E0CC
S113168080934B1584E080934F02D0E08D2FDF913F
S1131690CF911F910F91FF90EF90DF90CF90BF906B
S11316A0AF909F908F907F906F905F904F903F90FE
S11316B02F9008953F924F925F926F927F928F92F4
S11316C09F92AF92BF92CF92DF92EF92FF920F93CD
S11316D01F93CF93DF9300D0CDB7DEB714E030E88B
S11316E0A32E05E043E0D42E59E0852E62E0C62EF9
S11316F078E0B72E87EC93E0E5E09E2E980E80917B
S11317005E08823009F07DC010925E0880912A073D
S1131710823009F459C0833009F461C0813009F082
S113172070C020918400309185006090CB07709048
S1131730CC07621A730A90913C04903841F41092D9
S11317403C0490913B04923009F05BC03AC097FF8F
S113175004C0161417040CF4A8C3E0901104F0900C
S11317601204809176038111A0C3C7010E94580A14
S1131770282F81119BC3D7019C968C919C978E7FB7
S11317809C968C9381E080937603F0928115E0928D
S11317908015D0923C0435C097FF9FC316141704DC
S11317A00CF09BC3A0923C0481E080932A078093B1
S11317B05E08C30129830E94970229812093BB14E8
S11317C081E080933B0408C01092760310923C049D
S11317D01092BB1410933B040E944E0212C09091CD
S11317E04B15923019F480934B1509C080914F0228
S11317F0863029F410924F0281E00E94E4080E948E
S1131800831180919D09882309F4B3C080914B15FD
S1131810813009F4AEC00E94AE09882309F4A9C03E
S11318208FB7F89460908406709085068FBF1092ED
S11318309D098FE00E94E408F82E80914F028B7F6F
S1131840833021F400934B15B0924F02F2FE4AC04C
S113185080914F02863011F410924F0280914F0212
S1131860811140C0B4E0FB1234C086E00E94E40859
S11318708F7190910F04292F26952695921B980F0E
S113188090930F04E0916903F0916A0394A59B7F00
S1131890986094A786A70E94A30893012750310952
S11318A0261B370B2901662457FC6094762CE091A3
S11318B06903F0916A0324A5226024A7AB01BC014B
S11318C0440D551D661D771D40A751A762A773A738
S11318D007C0E0916903F0916A0384A5857F84A71A
S11318E000934F02F3FE45C080914F02843081F58E
S11318F000934B1510924F0280917603833019F4B4
S11319001092760336C0E0918015F09181158281A2
S113191090E0982F88272181822B85FF0EC0877441
S11319209C7C8134984849F4878190E0982F8827DB
S11319302681822B019609F0D3C21092760310926D
S11319403C041092BB1410933B040E944E0211C03D
S1131950853079F486E00E94E40890917B068F71CB
S1131960292F26952695921B980F90937B0680929B
S11319704F0280914F02882309F44DC2893009F047
S1131980BCC10E94C20180E28EBD0DB407FEFDCF32
S11319908EB51EBC0DB407FEFDCF8EB59DEF980F1E
S11319A0973208F07AC01EBCE0916903F0916A0393
S11319B03F015FEF651A750A8083AEEF5A2E580E09
S11319C086E0851510F0452C02C0F7E04F2E730118
S11319D0342C40E050E080E049835A830E94BB01EC
S11319E0D7018D937D01682F49815A81CA010E94D4
S11319F0C401AC013A943110EECF2FEF240D30E046
S1131A002F5F3F4F620E731EE0916903F0916A03EA
S1131A1081818770823029F4809176038230D9F5F0
S1131A200BC09FB7F89481E020919009233008F00F
S1131A3080E09FBF882379F1852D84197301680E96
S1131A4080E049835A836E1469F00E94BB01F70158
S1131A5081937F01682F49815A81CA010E94C40180
S1131A60AC01EECF0E94BB01682F49815A81CA01A3
S1131A700E94C4017C0180E00E94BB01682FC70161
S1131A800E94C4017C010E94B601E0916903F091B7
S1131A906A0385A705C00E94B601EE24E394F12CE5
S1131AA00E94AB0100934B1510924F02EF2809F0EE
S1131AB0A9C14090690350906A03D20111968C9198
S1131AC01197877090917603823029F5923009F04E
S1131AD00FC1E0918015F091811513969C9183813B
S1131AE0981306C180916F008B7F80936F001092D2
S1131AF05E08E0918015F091811584A5816084A72A
S1131B001092760310923C041092BB1410933B0481
S1131B100E944E02EDC0911117C0C2010E9431090A
S1131B20882391F000938D07C0928E0710928F073F
S1131B30F2018381809390078DE897E00E94580A10
S1131B40811102C0D0927603E0908400F090850069
S1131B50C2010E943109882321F0F4EEEF1AFCEF50
S1131B60FF0AF092CC07E092CB0780918400909119
S1131B7085009701281B390BC90118161906ACF406
S1131B8020913C0421110EC020915E0821110DC04A
S1131B9021E020932A0720935E080E949702A092D6
S1131BA03C0403C0206820933C04D20119968C9114
S1131BB0199790E0982F882718962C91822B2091C2
S1131BC07E15422F50E0FA01EE0FFF1FE657FA4E42
S1131BD060817181F09084156817790711F4FA0116
S1131BE010C0AAE8B5E1E7ECF3E020E030E070E0F3
S1131BF060E04D915D914817590779F420937E1563
S1131C00F901E953FC4F80818F1509F43FC0F39427
S1131C10F0928415F08260E822C041915F2D541B3C
S1131C20651710F4722F652F2F5F3F4F2530310554
S1131C3001F770937E15272F30E0F901EE0FFF1F97
S1131C40E657FA4E91838083F394F0928415F90158
S1131C50E953FC4FF082F901EF58FC4F1082809158
S1131C608415982F9F779F3719F020917E150EC009
S1131C706F37D8F3E7ECF3E0282F207890819F6743
S1131C809813208331969E12F9CFEFCFD201139689
S1131C909C91E22FF0E0DF01AF58BC4F8C91EE56DF
S1131CA0F64F80FF04C08081981303C021C0816077
S1131CB08C939083FFB6F894809190098330B8F4A4
S1131CC0E091B414E80FE33008F0E350F0E0EE0FD5
S1131CD0FF1FEA56FD4F7080E180518240828F5F82
S1131CE08093900983E00E941D02472C5E2CFFBE66
S1131CF050926A034092690385C09FEF980F933016
S1131D0008F06EC09EEF980F9230D8F520914B15D5
S1131D10213099F490915E0891110FC029830E949B
S1131D20A901D0922A07298120935E088BE293E0CF
S1131D300E949702C0924B153EC0833011F52330A8
S1131D4001F50E94AE098823E1F08FE00E94E408C7
S1131D508091810080648093810080E286BB8091C1
S1131D606F00806280936F0060910704606688E072
S1131D700E94FC0866E082E00E94FC0810934B1568
S1131D801AC080914F0281508230A8F480914B1583
S1131D90853089F40E94AE09882369F063E082E00B
S1131DA00E94FC0880916F008F7D80936F001092D9
S1131DB09D09D0924B1580914F02813041F490914E
S1131DC04B159330F9F42F9A80934B1506C082304B
S1131DD0C9F480914B158330A9F4B0924F0212C01C
S1131DE0873081F40E94AE09882361F06091070472
S1131DF0606688E00E94FC0880914B15853069F785
S1131E0010934B1580914F02883029F410924F02A1
S1131E1081E00E941D0280914F0281111DC08091BA
S1131E204B158530C9F480919D09811115C08091AD
S1131E307603811111C080913C0481110DC0809101
S1131E405E08811109C080913B04823029F481E04D
S1131E5080933B040E944E0280914F02811103C083
S1131E6087E00E941D028FB7F89490916D0891301D
S1131E70B9F410926D088FBF0F900F90DF91CF913E
S1131E801F910F91FF90EF90DF90CF90BF90AF9094
S1131E909F908F907F906F905F904F903F900895A8
S1131EA091E090936D088FBF2ACC25E090913C047B
S1131EB0892F8F77813009F06FCC9078926090935E
S1131EC03C0480E198E00E94C00221E020932A07AC
S1131ED020935E080E94970294CC10923C046ECC2E
S1131EE080915E08811129CDC0922A0781E08093F8
S1131EF05E0889E993E00E949702C092760339CD87
S1131F009FB7F89480916D08815080936D08803854
S1131F1011F09FBF089581E080936D089FBF0C94DA
S1131F205A0B0F931F93CF93DF931F92CDB7DEB756
S1131F308C018FE3F801828790914A029F5F90930E
S1131F404A0293830E94AD0180913B0481110DC02C
S1131F50109364080093630881E080933B0410921B
S1131F6060080E944E0280E001C085E089830E94DF
S1131F70800F89810F90DF91CF911F910F91089568
S1131F80FF920F931F93CF93DF93EA012D3108F053
S1131F9068C0EA81F0E0FE2FEE279981E92BAF01BA
S1131FA047745C7C4134584839F0E073FF27E1649E
S1131FB0F868E98398E89A838B01F82E235F2883D5
S1131FC00E948F02888799879FB7F89480910F02A7
S1131FD09FBF8C831D82FB860E831F838FB7F8946B
S1131FE09091450291110FC092E090934502109296
S1131FF00C028FBFCE010E94910FC82F882391F14C
S11320000E94A4072FC08FBFD0930D04C0930C046B
S1132010DFB7F894C0914502C11109C081E08093F3
S1132020450210920C0280E00E941D0218C08091AB
S11320300E048F3F99F4E0910D02EE2379F0809124
S11320400E028F3F19F410920E0204C0F0E0E25F1A
S1132050FB4F108210920D02C0E001C0C5E0DFBF4B
S113206001C0C6E08C2FDF91CF911F910F91FF909B
S1132070089510920802E091CD07F091CE073097B1
S1132080C9F08091B61480FD15C0809108028111B9
S113209015C020812D50678170E0762F66278681D8
S11320A0682BAF0183850E94C00F882339F08DE02F
S11320B00C941D0281E080930802E7CF0895EF920B
S11320C0FF920F931F93CF93DF931F92CDB7DEB789
S11320D0182F7B0180910802811113C08091CD07D4
S11320E09091CE078617970761F41092CE0710924D
S11320F0CD0749830E9439104981642FC7010E948A
S113210063021A3019F01B3069F0F5C08FB7F894E8
S1132110109210048FBF82E5E81682E0F80609F0F9
S1132120EAC0DEC0C7010C969093A7038093A60370
S1132130F701178584A580FF47C08091470281116C
S113214043C081E380935B089BE080915B08882314
S1132150D9F0282F30E0929FD001939FB00D112425
S1132160AF5ABB4F21503109929FF001939FF00D5C
S11321701124EF5AFB4F292F01900D922A95E1F774
S1132180815080935B08E1CFF701858980935204E5
S113219010925104868580935304C7014C960E9483
S11321A0DE01AB01BC0184E594E00E94D601C701C5
S11321B080960E94DE01AB01BC0188E594E00E9498
S11321C0D6018FEF810F57C09FB7F8948091B51453
S11321D08F5F8093B51420915F08281710F48093C3
S11321E05F089FBF0FB7F89480914602882391F04F
S11321F00FBF9FB7F8948091B5149FBF843030F11E
S11322000E94CE088FB7F8941092B514109246022B
S11322108FBF1CC08091B514823050F381E080934D
S1132220460280914102882319F00E949B04F9CF51
S113223080913E02882319F00E94B604F9CF809160
S11322403B028823A9F20E94D104F9CFE091A603AE
S1132250F091A7038FB7F8949091B5148FBF2081A4
S113226031818FEF810F2130310519F4943018F446
S113227008C0923030F0833048F5812F0E94EC047E
S113228025C0833018F5123051F0133081F0E091FD
S11322904302F0E0EE0FFF1FE259F74F0FC0E09149
S11322A04002F0E0EE0FFF1FEC59F84F07C0E09139
S11322B03D02F0E0EE0FFF1FED5EFB4F0190F08159
S11322C0E02D309719F082858F5F82878FB7F8945D
S11322D0109210048FBFF2E5EF16F2E0FF0659F4F6
S11322E080916E0390916F03019690936F03809396
S11322F06E031092A2090F90DF91CF911F910F915D
S1132300FF90EF9008959FB7F89480916D0888230B
S113231029F0806880936D089FBF089581E08093C1
S11323206D089FBF0C945A0BCF93DF931F92CDB7C8
S1132330DEB70E94AD0180913B04811119C08091E8
S11323404F02811115C080914B15813029F4809181
S11323505E0881110DC002C0853099F083E080933E
S11323604F020E94831185E080933B0480E001C00A
S113237085E089830E94800F89810F90DF91CF913E
S1132380089589E0F6CF8FB7F89408958FBF089524
S11323908FB7F89490912402913011F48FBF0EC03E
S11323A090912502911104C08FBF81E090E00895BF
S11323B091E0909324028FBF0E94360780E090E062
S11323C00895CF92DF92EF92FF920F931F93CF93D2
S11323D0DF93CFB7F8940E94BB03009108041091D7
S11323E0090420910A0430910B04DC01CB01800F15
S11323F0911FA21FB31F80937C0690937D06A09328
S11324007E06B0937F06CFBF2FB7F8948091D8078C
S113241090E001966091CA0770E00E94B92680930B
S1132420D8072FBFC091D8072FB7F8948091120214
S1132430882341F1E1E8F2E082E090E08193919316
S113244032E0E139F307D1F7809121029091220221
S11324508130910549F4909386028093850290938C
S11324608A02809389020CC0892B51F481E090E0A8
S1132470909388028093870290938C0280938B02BE
S113248010921202C0939502809197098C1769F0FB
S11324908091881590E0982F882730918915832B97
S11324A001968093891590938815F0908815D091A2
S11324B08915C09397092FBF809147020C2F10E014
S11324C0813071F080914602813041F4C8018095D9
S11324D0909568E070E00E94B92602C08C2F877046
S11324E00E94EF03000F111FF801EF57FD4F008109
S11324F011810E94C811C13069F580912102909127
S11325002202892B09F0BBC030E03F2983E893E025
S11325109093CE038093CD0310928403109283038F
S113252080E090E08D2B8093870330938603809125
S113253010048111A4C025E047E753E06FEF7FEF5B
S11325408AE00E94C00F81119AC08FB7F894C0939B
S1132550100494C00130110509F091C0809121024A
S1132560909122028093C006009709F0B0C081E0E8
S11325708093C40682EE93E09093490280934802CC
S11325808CE1EEEBF6E0A2EEB3E001900D928A95B9
S1132590E1F7CFB7F8942091210230912202E09123
S11325A04802F091490227838681A90141505109CB
S11325B04230510508F091C09DEF980F923008F019
S11325C08CC090E0235031092230310508F487C0D3
S11325D090870E94EF02AB01BC0180914802909168
S11325E0490244960E94D601E0914802F0914902C2
S11325F08091B514808F80911004CFBF81113FC0AA
S113260080918C0781110E9494118091470281115D
S11326100BC08091D70380622091D80390E0922B65
S11326208093D7039093D8032FB7F894809188159B
S113263090E0982F882730918915832BE0914802E8
S1132640F0914902868795879091480480914904C6
S1132650928F818F2FBFE0914802F09149026085EB
S113266070E02CE146ED53E08BE00E94C00F811135
S113267006C08FB7F89491E0909310048FBFC09078
S11326800804D0900904E0900A04F0900B040E941E
S1132690BB03CFB7F8946093DC067093DD06809398
S11326A0DE069093DF06C092B906D092BA06E09295
S11326B0BB06F092BC060E940204CFBFDF91CF910B
S11326C01F910F91FF90EF90DF90CF9008950197A5
S11326D009F050CF1092C4064DCF982F73CF81507C
S11326E0823008F075CF90E073CF2F923F924F92D3
S11326F05F926F927F928F929F92AF92BF92CF928E
S1132700DF92EF92FF920F931F93CF93DF93CDB796
S1132710DEB7C454D1090FB6F894DEBF0FBECDBFE7
S113272090E08731910510F00C943F1EFC01EA59AA
S1132730FF4F0C9448278FB7F89492E0909345028A
S11327408FBF80910C0281110C943F1E80910C0468
S113275090910D040E94910F882311F40C943F1E54
S113276024968FAF24970E94A407E0910C04F09163
S11327700D0424964FAD2497BF01C2C080913B0441
S113278010923B04853009F04BC04CE150E069E9FC
S113279070E08EEB96E00E94BE271FB7F89410926B
S11327A08C078091D503811138C0809121029091CA
S11327B02202892B61F48FB7F8941092D8078FBF47
S11327C080916F008D7F80936F000E94E11181E002
S11327D08093D50340E85CE060E070E040935F07DD
S11327E050936007609361077093620786E080935B
S11327F0CC034093BC075093BD076093BE0770930E
S1132800BF07409308045093090460930A0470932B
S11328100B0480934F048093CA071FBF0C943F1E80
S1132820863071F480916D03882311F40C943F1E5B
S113283010926D038FB7F89491E090938C07F9C2CE
S1132840873011F40C943F1E80933B040C943F1E7C
S11328500E94AD0100913B04013091F58091600824
S11328608F5F80936008863058F58091630890915B
S1132870640820913C04211115C010915E081111C7
S113288011C0909312048093110400933C048BEDC7
S113289091E10E94C00200932A0700935E080E94FF
S11328A0970201C015E01093BB14111104C083E01A
S11328B080933B0408C082E080933B0410E003C093
S11328C010923B0411E00E94800F112311F40C9428
S11328D03F1E4091BB140091630810916408D80115
S11328E01A968C918F3311F00C943F1E24964FAF9F
S11328F024970E94A40724964FAD2497B801F801A9
S113290083850E945F100C943F1E772473948FB7C5
S1132910F89490919009992309F48BC2E091B4142E
S1132920F0E0EE0FFF1FEA56FD4F008111818FBFCB
S1132930D8012C918EEF820F893008F4E9C11A96E0
S11329408C911A978F3309F0CEC185EF820F8230B4
S113295008F4DEC11B963C911B971796EC901797D1
S1132960F12CFE2CEE2416968C91E82ABFEFEB1680
S1132970FB0651F4F80194814FB7F89480910F024B
S11329804FBF9817A1F0C4C125962FAF2597249661
S11329903FAF24970E948F0225962FAD259724964A
S11329A03FAD2497E816F90609F0B2C1E3CF3B30F6
S11329B0C9F13D3309F477C13A3009F0A9C18185E1
S11329C090E0982F88272085822B90936B08809322
S11329D06A089801245F3F4F3093CE032093CD03C0
S11329E02091210230912202232B09F491C1892BD9
S11329F009F08EC18FB7F8941092D8078FBF8091D9
S1132A006F008D7F80936F000E94E111FFB6F894F0
S1132A1080914D02811104C070924D020E94CE0833
S1132A20FFBE76C18FB7F894909095028FBFF801DE
S1132A3091898289993681F5833271F5F088809184
S1132A404702811165C18FB7F894709247028FBF16
S1132A500E94EF026093E2077093E3078093E40718
S1132A609093E507F4E6FF9EC0011124AA2797FD81
S1132A70A095BA2F8093E6079093E707A093E80701
S1132A80B093E9078091EA07816082608093EA0746
S1132A9086E00E941D023CC1C82ED12C80912102E7
S1132AA090912202C816D90609F49FC00E94EF0231
S1132AB0AB01BC0180914702811197C0D8011F96D8
S1132AC08C919FEF980F933008F08FC0823029F0DB
S1132AD0833031F0E090410205C0E0903E0202C034
S1132AE0E0903B02BDE8BE9D70011124F7012FE286
S1132AF0289FE00DF11D1124DF01A755B64F7D017C
S1132B005D01BCE0AB0EB11CF8013C96D5018CE133
S1132B1001900D928A95E1F7F701168A8091881544
S1132B2090E0982F882720918915822B808F978B8E
S1132B30C7014C960E94D601A114B10409F455C0F2
S1132B40D7011F968C918230F9F08330B1F1813036
S1132B5009F04BC090914102943108F046C0809135
S1132B604202E82FF0E0EE0FFF1FE259F74FB18267
S1132B70A0828F5F80934202843111F4109242024A
S1132B809F5F9093410231C090913E02943168F569
S1132B9080913F02E82FF0E0EE0FFF1FEC59F84F51
S1132BA0B182A0828F5F80933F02843111F410922E
S1132BB03F029F5F90933E0218C090913B02943174
S1132BC0A0F480913C02E82FF0E0EE0FFF1FED5ED1
S1132BD0FB4FB182A0828F5F80933C02843111F459
S1132BE010923C029F5F90933B02E92DF0E0EE0FC0
S1132BF0FF1FEF57FD4F80819181029711F00E94D2
S1132C00C8118091210290912202C816D90609F0B8
S1132C107FC0B1E3B0935B0820915B082223E1F00D
S1132C20822F90E0DC01AA0FBB1FA80FB91FA45686
S1132C30BD4F0197FC01EE0FFF1F8E0F9F1FFC017C
S1132C40E456FD4FC080D180E280CD92DD92EC92BB
S1132C50215020935B08E0CFF801858980939D0281
S1132C6010929C02868580939E02809148049091E4
S1132C70490401969093490480934804E189F0E063
S1132C80EE0FFF1FE25CFB4F8081918101969183DF
S1132C90808380914B0290914C02019690934C0258
S1132CA080934B0235C02D50253090F1D80180819E
S1132CB0825190E00C96800F911FFC0120812E33ED
S1132CC039F52091500420FD23C09C962C9121FFBE
S1132CD01FC001960E94DE016115710581059048AF
S1132CE009F07AC715C0D8011796EC901797F12C04
S1132CF0FE2CEE2416968C91E82A0E948F02E81688
S1132D00F90619F0EF20E09419F48FB7F8948FBF07
S1132D1098019FB7F8948091B414E82FF0E0EE0F77
S1132D20FF1FEA56FD4F208331838F5F833018F4F1
S1132D308093B41402C01092B4148091900981500D
S1132D40809390099FBFE3CDEFB7F8948091770605
S1132D5090917806A0917906B0917A061C012D0114
S1132D609C01A20160E070E080E090E003E00E943A
S1132D70512751016201E12CF12C00E010E00E9486
S1132D80912759016A017B01F82F192F03E00E9452
S1132D9051270F2F0E94912759016A017B01F82FB7
S1132DA0192F03E00E9451270F2F0E9491275901E8
S1132DB06A017B01F82F192F03E00E9451270F2F7E
S1132DC00E94912759016A017B01F82F192F03E012
S1132DD00E9451270F2F0E94912701E00E94512742
S1132DE029013A0100E20E946C2749015A01D301EA
S1132DF0C201B695A79597958795880E991EAA1E28
S1132E00BB1EB7FE07C0E894B7F8FFEF8F1A9F0AFE
S1132E10AF0ABF0A8092770690927806A09279064C
S1132E20B0927A06EFBF8FB7F894909268088092B8
S1132E3067088FBF24C78091D403811141C040919A
S1132E40A4095091A5096091A6097091A7092FB70B
S1132E50F894C090B714D090B814E090B914F090DE
S1132E60BA148091320390913303A0913403B0914A
S1132E7035038C0D9D1DAE1DBF1D2FBF4093A409AE
S1132E805093A5096093A6097093A7091092D403DF
S1132E902FB7F89431E030934E048093320390932B
S1132EA03303A0933403B09335034093B714509382
S1132EB0B8146093B9147093BA142FBF0E940B080E
S1132EC00E94EF0247C00E94EF022FB7F8941092BD
S1132ED04E042FBF49ED57E0A0E0CC24CA94DC2C6B
S1132EE0EC2CEFE7FE2E20E030E0B9E0B29FF001D9
S1132EF0B39FF00D1124E752F84FE085E1FF1BC0AA
S1132F00FA0180809180A280B3802B013C01481893
S1132F1059086A087B0884809580A680B780841845
S1132F209508A608B7088C149D04AE04BF041CF4CD
S1132F3075016401A1E02F5F3F4F475F5F4F24306D
S1132F403105A1F6AA2309F49AC61C141D041E0413
S1132F501F041CF00E94100392C6C092A409D092D0
S1132F60A509E092A609F092A70921E02093D403D1
S1132F703FB7F89420934E04609332037093330365
S1132F808093340390933503C092B714D092B8144D
S1132F90E092B914F092BA143FBF0E940B086FC6B6
S1132FA08FB7F89410925D0810925C0810924A153D
S1132FB01092491510925102109250021092C907B2
S1132FC01092C80736CF1FB7F89482E0809344026A
S1132FD00E9414091FBF80910902811150C680917B
S1132FE04B1581113AC00EEF11E0C801019701960B
S1132FF00197E1F716980E94A90186E090E00197F5
S113300001960197E1F7169A60E083E00E94FC08BC
S113301068E082E00E94FC08C801019701960197CC
S1133020E1F76DE48EE00E94FC0867EC89E00E9401
S1133030FC0860E885E00E94FC08109263078AE1BE
S1133040809307046AE788E00E94FC082F9A81E0D5
S113305080934B150E94D60712C60E9483110FC697
S11330600091650810916608D8011C962C911C9754
S113307030E0322F22271D968C91282BE0916B0390
S1133080F0916C03808190E0982F88274181842BF4
S113309028173907A0F440915E07443038F4409172
S11330A02102509122028417950749F0218330832D
S11330B0F8018089E0916B03F0916C030DC08217D5
S11330C0930709F0AAC2D80150968C919481B82F25
S11330D0B91B1B160CF0A1C28483E0916B03F09121
S11330E06C03808190E0982F88272181822B209186
S11330F02102309122028217930710F410925E0786
S11331005801E5E1AE0EB11CC5010E94DE016983E0
S11331107A838B839C83CE0101960E9455094801D2
S1133120F1E18F0E911CC4010E94DE01C980DA8096
S1133130EB80FC80C61AD70AE80AF90AC982DA8247
S1133140EB82FC828091BD06843020F40E948106CB
S1133150811118C004EFC00E01E0D01EE11CF11C67
S113316019EEC11613E0D106E104F10458F0809180
S11331703A028F5F80933A02843008F472C00E944E
S1133180E1026FC01092910910923A02E0EEEE2E25
S1133190E6E0FE2E00E0DD24DA94412C512C3201CD
S11331A010E0C5010E94DE01D70111962D913D91D9
S11331B04D915C911497DC01CB01821B930BA40B02
S11331C0B50B8F3FEFEF9E07AE07EFE7BE0710F09A
S11331D0F7011082F7013081332331F030919109E6
S11331E03F5F3093910901C0D12E84159505A60542
S11331F0B70518F02C013D01012F1F5FF9E0EF0E18
S1133200F11C183071F6EE24EA94DE1431F080914A
S113321091098F5F809391090D2D29E002028001AD
S113322011240052194F81E0D8018C93C5010E94EA
S1133230DE01F8016183728383839483C4010E9455
S1133240DE016B017C01C5010E94DE01C61AD70AAA
S1133250E80AF90AD8011596CD92DD92ED92FC9216
S11332601897E090AC03F090AD030091AE03109179
S1133270AF03EBAAFCAA0DAB1EAB00EE16E01EA337
S11332800DA3F80180E090E0982E2081213009F40C
S11332905EC40196399688309105B1F7BEC1182DE8
S11332A0292D2103C0011124AC014052594F1A01A8
S11332B0DA018C91813009F095C011964D905D90A2
S11332C06D907C901497EFA0F8A409A51AA54E1848
S11332D05F08600A710AC301B201298D3A8D4B8DD2
S11332E05C8D0E94EF2679018A01550F220B322F43
S11332F0A9012D8B3E8B4F8B588F2D853E854F8595
S1133300588969897A898B899C8957016801ED8874
S1133310FE2C0E2D1E2D0E9488272D873E874F8759
S1133320588B698B7A8B8B8B9C8BC301B201298D53
S11333303A8D4B8D5C8D0E94CD26ED8CFE8C0F8DCD
S113334018A1E60EF71E081F191FED8EFE8E0F8FB3
S113335018A3F10185819681A781B085BC01CD01B7
S1133360EBA4FCA40DA51EA56E197F09800B910B7F
S1133370298D3A8D4B8D5C8D0E94EF2679018A014F
S11333806D8B7E8B8F8B988F29013A01770C4408C3
S1133390542C32012D813E814F81588569857A856F
S11333A08B859C8557016801E42CF42C042D142D85
S11333B00E9488272D833E834F83588769877A87A5
S11333C08B879C8709A11AA12BA13CA18D899E8979
S11333D0AF89B88D080F191F2A1F3B1F09A31AA311
S11333E02BA33CA3939498E0991259CFCFA0D8A4CF
S11333F0E9A4FAA40D851E852F853889C00ED11E37
S1133400E21EF31E6D8D7E8D8F8D98A1298D3A8DD0
S11334104B8D5C8D0E94EF26D701C601820F931F4E
S1133420A41FB51F8FAB98AFA9AFBAAFCBA4DCA4D0
S1133430EDA4FEA40D811E812F813885C00ED11EFE
S1133440E21EF31E69A17AA18BA19CA1298D3A8D5C
S11334504B8D5C8D0E94EF26D701C601820F931F0E
S1133460A41FB51F8BAF9CAFADAFBEAF1D8E19A20D
S11334701FA21BA61FA618AA19AA1AAA312C212C0E
S11334801D821D86198E1D8A912C812CADA1BEA191
S11334908C91813009F060C011964D905D906D90D3
S11334A07C901497EFA8F8AC09AD1AAD4E185F08DC
S11334B0600A710A15968D919D910D90BC91A02D75
S11334C09C01AD01EBACFCAC0DAD1EAD2E193F095A
S11334D0400B510B23962CAF3DAF4EAF5FAF2397FC
S11334E0C301B201A30192010E94062759016A0196
S11334F07B018C01232D322D4D815D85698D7D8964
S1133500892D982D0E948827322E232E4D835D8786
S1133510698F7D8B982E892EC301B20123962CAD21
S11335203DAD4EAD5FAD23970E94062759016A0158
S11335307B018C012D8D39A14FA15BA56FA578A9C5
S113354089A99AA90E9488272D8F39A34FA35BA725
S11335506FA778AB89AB9AAB0DA11EA1075F1F4F74
S11335601EA30DA30852174009F090CF232D322D2E
S11335704D815D85698D7D89892D982DA0E00E94FE
S11335809A2701F12D8D39A14FA15BA56FA578A9CB
S113359089A99AA90E9456256B017C01232D322DFD
S11335A04D815D85698D7D89892D982D0E945625D3
S11335B09B01AC01C701B6010E94AE246BAB7CAB8E
S11335C08DAB9EAB8FB7F894EBA8FCA80DA91EA9F0
S11335D0E092AC03F092AD030093AE031093AF03FB
S11335E00BAD1CAD2DAD3EAD0093D0031093D103B4
S11335F02093D2033093D3032FA938AD49AD5AADEC
S113360020933603309337034093380350933903A0
S1133610909191099093BD068FBF809150048E7F45
S1133620D6C20E94EF026B017C0169837A838B838B
S11336309C83CE0101960E945509E0916B03F091A1
S11336406C032091210230912202808190E0982F16
S113365088274181842B8217930781F58091360353
S113366090913703A0913803B091390397018601F3
S1133670081B190B2A0B3B0BD901C8010097A105A4
S1133680B0425CF12FB7F894C0923603D09237035E
S1133690E0923803F092390389819A81AB81BC812D
S11336A08C199D09AE09BF098093D0039093D1036F
S11336B0A093D203B093D3032FBF0FC080915E07B2
S11336C0853058F010925E0721833083E0916B03BC
S11336D0F0916C0384818F5F848349815A816B816B
S11336E07C8180916B0390916C0305960E94D601B6
S11336F08091BD068330B8F4E0916B03F0916C03C4
S1133700808190E0982F88272181822B20912102AB
S1133710309122028217930731F080915E078F5F08
S113372080935E0751C20E94EF024B015C010E942C
S1133730A3082EE320934F03C818D908EA08FB080E
S11337401AE0CC0CDD1CEE1CFF1C1A95D1F7AB0162
S1133750BC014C0D5D1D6E1D7F1D80E593E00E9434
S1133760D601809166038061809366038FEF809316
S11337704003809341038DE3809345038091CD07FB
S11337809091CE07892B09F01FC28AE393E09093AE
S1133790CE078093CD078BE180933A038091080292
S11337A0882309F46CC2109208022EE04AE353E025
S11337B06FEF7FEF8DE30E94C00F882309F45FC28F
S11337C081E0809308021092CE071092CD07FCC1CD
S11337D08091B614882309F452C2BDECEB2EB7E0F5
S11337E0FB2E10E001E09091B614802F892389F01C
S11337F0D7012D913C9111971D921C92802F809599
S113380098239093B614111104C063E0C9010E9477
S11338106302000F1F5FB2E0EB0EF11C183019F7C2
S11338202EC210910802E12FF0E0EE0FFF1FE353C8
S1133830F84FE080F180118210820E94391011113A
S11338401EC261E0C7010E94630219C28091B506DD
S1133850882309F414C2EDEAEE2EE4E1FE2E10E012
S113386001E08091B506902F982369F0F701118249
S11338701082902F909589238093B506111103C06F
S113388086E10E941D02000F1F5FF2E0EF0EF11CA3
S1133890183039F7F4C110910702E12FF0E0EE0F70
S11338A0FF1FE355FB4E118210820E94D2091111B1
S11338B0E6C127C12FB7F89410927D158091620854
S11338C098EF980F923050F410926208E091D70765
S11338D0F0E0EE0FFF1FE55DF84F10822FBF92302E
S11338E018F53FB7F8949091B3149F5F9093B31475
S11338F09091DB06933489F48091C1079091C007BD
S1133900981741F08F5F863018F48093C10702C086
S11339101092C10720E090E005C091E0883009F4DE
S113392090E021E03FBF04C0811154C190E020E049
S11339303FB7F894809139023FBF882339F08FB79D
S1133940F8943AE0309362088FBF3FC04FB7F894C1
S113395030912B0780912D074FBF6FB7F89450918A
S1133960C0074091C1076FBF541709F131111FC03F
S11339703FB7F89482E080932B075FB7F8944091A7
S1133980C0078091C1075FBF481739F0E091C107B4
S1133990F0E0E054F84F828101C080E080932C076E
S11339A083E48093DB061092D7073FBF0CC081509D
S11339B0823058F48FB7F89435E43093DB0631E065
S11339C03093D7078FBF11E001C010E0222341F0EC
S11339D08FB7F894909330028FBF84E10E941D0248
S11339E00FB7F894809162088A3021F40E94510242
S11339F00FBF45C10FBF112309F441C18FB7F8941C
S1133A0010928315109282151092B60691E090934D
S1133A1062088FBF0E944B0A882309F430C18FB714
S1133A20F89499E0909362088FBF0E943C0227C1EA
S1133A308091C1008F7B8093C1008091C1008F77FA
S1133A408093C1001092610810924C048091C100CF
S1133A5088608093C1008091C10080618093C1001F
S1133A608091C10080688093C1008FB7F894109250
S1133A70620810923D04DDC983E144C08091C10015
S1133A80877F8093C1008091C1008F7E8093C100A5
S1133A90F6C010923402109233028FB7F89410914A
S1133AA030028FBF80912F02811113E08091350283
S1133AB09091360220912E022111E1C0209107023B
S1133AC02111DDC02091AD143091AE1428173907AF
S1133AD009F0D5C01092AE141092AD140E94D20910
S1133AE011110FC080912502882319F00E94360716
S1133AF0C6C010922402C3C00E940807882309F498
S1133B00BEC086E10E941D02BAC09FB7F8942091FE
S1133B102A0230912B02809170039FBF9FB7F894C3
S1133B20E82FF0E0EE0FFF1FEE5FFD4F318320839F
S1133B30882321F0809138028B7F03C08091380262
S1133B408D7F8093380210922D029FBF98C029E088
S1133B50289FF001299FF00D1124E052F94FE180D4
S1133B60F28003811481EFA2F8A609A71AA70581A0
S1133B701681278130850BA71CA72DA73EA780910E
S1133B809109282F30E040E050E0298F3A8F4B8F85
S1133B905C8F1D821E821F82188619861A861B86D8
S1133BA01C861D861E861F86188A198A1A8A1B8AF5
S1133BB01C8A19A21AA21BA21CA21D8E1E8E1F8E65
S1133BC018A249E0842E0ECC809150048D7F8093FE
S1133BD0500455C010E004CF209165086090660839
S1133BE01093660800936508D8018C918251F801FE
S1133BF0E80FF11DCF010D9625962FAF25970E9452
S1133C00DE014B015C01D8019896CD90DD90ED90DA
S1133C10FC909B970E94A3081B012C010E94EF02B9
S1133C202AE0B594A794979487942A95D1F7DC0158
S1133C30CB01880D991DAA1DBB1DC218D308E40829
S1133C40F5083AE0F594E794D794C7943A95D1F7F8
S1133C50AC01BD014C0D5D1D6E1D7F1DC801459657
S1133C600E94D601809150048160809350048AE0C0
S1133C700E941D0225962FAD2597362D4AC8CC5B90
S1133C80DF4F0FB6F894DEBF0FBECDBFDF91CF91EB
S1133C901F910F91FF90EF90DF90CF90BF90AF9066
S1133CA09F908F907F906F905F904F903F902F9058
S1133CB0089578941F920F920FB60F9211240BB6A9
S1133CC00F922F933F934F935F936F937F938F93B1
S1133CD09F93AF93BF93CF93EF93FF9380916F0024
S1133CE08D7F80936F00CFB7F8948091B90690913F
S1133CF0BA06A091BB06B091BC06892B8A2B8B2BEC
S1133D0019F40E94E11102C00E940204CFBFFF9186
S1133D10EF91CF91BF91AF919F918F917F916F91CF
S1133D205F914F913F912F910F900BBE0F900FBE5B
S1133D300F901F90189578941F920F920FB60F92C0
S1133D4011240BB60F922F933F934F935F936F936E
S1133D507F938F939F93AF93BF93EF93FF93809140
S1133D606F008B7F80936F0078948FB7F894909155
S1133D705E08913019F492E090935E088FBF0E9420
S1133D808311FF91EF91BF91AF919F918F917F919B
S1133D906F915F914F913F912F910F900BBE0F90B8
S1133DA00FBE0F901F90189578941F920F920FB624
S1133DB00F9211240F900FBE0F901F9018957894B6
S1133DC01F920F920FB60F9211240BB60F922F93DE
S1133DD03F934F935F936F937F938F939F93AF938F
S1133DE0BF93EF93FF93E6E8F0E080819181208117
S1133DF031818FB7F894309385062093840691E03F
S1133E0090939D098FBF0E948311FF91EF91BF9101
S1133E10AF919F918F917F916F915F914F913F915E
S1133E202F910F900BBE0F900FBE0F901F901895FF
S1133E3078941F920F920FB60F9211242F938F93A1
S1133E409F93AF93BF932FB7F8948091800690917E
S1133E508106A0918206B09183060196A11DB11D31
S1133E608093800690938106A0938206B093830684
S1133E702FBF2FB7F8948091CF079091D007A091CE
S1133E80D107B091D2070196A11DB11D8093CF0730
S1133E909093D007A093D107B093D2072FBFBF91BF
S1133EA0AF919F918F912F910F900FBE0F901F9004
S1133EB018951F920F920FB60F9211240BB60F9202
S1133EC00F931F932F933F934F935F936F937F931E
S1133ED08F939F93AF93BF93EF93FF930E9414022A
S1133EE08091B30090E001964091A8035091A903FA
S1133EF06091AA037091AB038A019B01080F191FFB
S1133F00211D311D0093A8031093A9032093AA0334
S1133F103093AB0378940E940B08FF91EF91BF910B
S1133F20AF919F918F917F916F915F914F913F914D
S1133F302F911F910F910F900BBE0F900FBE0F90FA
S1133F401F9018951F920F920FB60F9211240BB663
S1133F500F922F933F934F935F936F937F938F931E
S1133F609F93AF93BF93EF93FF930E941402FF912B
S1133F70EF91BF91AF919F918F917F916F915F91DD
S1133F804F913F912F910F900BBE0F900FBE0F904A
S1133F901F9018951F920F920FB60F9211240BB613
S1133FA00F922F933F934F935F936F937F938F93CE
S1133FB09F93AF93BF93EF93FF932EB5E0915C086B
S1133FC0F0915D08309739F08091C8079091C90746
S1133FD0E80FF91F20838091C8079091C9070196C3
S1133FE09093C9078093C8078CB58F778CBD809157
S1133FF0C8079091C90760915002709151028617C9
S1134000970708F03FC02091491530914A15E09177
S11340105C08F0915D08AC01465F5F4F641775075B
S113402008F4AB014150510984179507C8F42115D0
S1134030310549F0D901A80FB91F6C916EBD0DB4BB
S113404007FEFDCF04C01EBC0DB407FEFDCF6EB548
S1134050309721F0DF01A80FB91F6C930196E4CFCC
S11340604CB540684CBD2115310531F0F901E80F1C
S1134070F91F20812EBD01C01EBC9093C9078093F7
S1134080C80711C010925D0810925C0810924A157E
S11340901092491510925102109250021092C907C1
S11340A01092C8078EB5FF91EF91BF91AF919F9188
S11340B08F917F916F915F914F913F912F910F90CD
S11340C00BBE0F900FBE0F901F9018951F920F926A
S11340D00FB60F9211240BB60F922F933F934F9369
S11340E05F936F937F938F939F93AF93BF93EF935C
S11340F0FF938091C00087FF4AC06091C600209161
S1134100D5073091D6072115310551F180917B15E2
S113411090917C15AC014F5F5F4F50937C15409399
S11341207B15F901E80FF91F608320917B1530910D
S11341307C1580918515909186152817390738F1DB
S11341401092D6071092D507809161088330F9F058
S11341508091C1008F778093C1001092610817C0CD
S11341606E3719F460E081E010C0809128026D3749
S113417021F48260809328020AC081FF05C08D7FEC
S11341808093280280E2682780E00E944805FF911E
S1134190EF91BF91AF919F918F917F916F915F91BB
S11341A04F913F912F910F900BBE0F900FBE0F9028
S11341B01F90189578941F920F920FB60F921124A6
S11341C00BB60F92EF92FF920F931F932F933F938F
S11341D04F935F936F937F938F939F93AF93BF930B
S11341E0CF93DF93EF93FF9380914A0490914B0414
S11341F02091A0093091A10982179307D0F420914E
S1134200280730912907AC014F5F5F4F50934B044F
S113421040934A04F901E80FF91F80819FB7F8948D
S11342208093C6008091C00080648093C0009FBFCB
S1134230B2C0109229071092280710924C04809162
S1134240C1008F7B8093C1000FB7F894809128023E
S1134250982F9170F92E80FF0AC08E7F80932802D8
S1134260809169088093CF030E94F90993C0E0917B
S113427062088E2F90E0FC013197E830F10508F0D8
S113428084C0E358FF4F0C9448278091DB060E94BA
S1134290390A182F83E0809362086091DB060AC014
S11342A08091B3140E94390A182F83E08093620826
S11342B06091B31480918215909183150E94FD043E
S11342C090938315809382155EC0E091D707F0E048
S11342D0EE0FFF1FE55DF84F81810E94390A182F08
S11342E0E090D707CE2DD0E0CC0FDD1FFE01E55DB9
S11342F0F84F618180918215909183150E94FD048D
S113430090938315809382159091B6069F5F909346
S1134310B60681E0E8121EC080913102E0913502B8
S1134320F0913602E80FF11D20818F5F80933102F6
S113433030913202381720F482E080932D0701C0B7
S1134340F22EC55DD84F8881823021F09F3F11F055
S1134350F98219C084E012C0809182150E94390A42
S1134360182F85E00BC0809183150E94390A182FFD
S113437086E004C00E944B0A182F87E080936208ED
S113438002C088E003C0112329F089E08093620809
S11343900E943C020FBFFF91EF91DF91CF91BF913B
S11343A0AF919F918F917F916F915F914F913F91C9
S11343B02F911F910F91FF90EF900F900BBE0F90D4
S11343C00FBE0F901F9018951F920F920FB60F9269
S11343D011248F938091C80087FD8091CE008F9126
S11343E00F900FBE0F901F90189578941F920F9204
S11343F00FB60F9211240F900FBE0F901F901895B7
S113440078941F920F920FB60F9211240F900FBE43
S11344100F901F90189578941F920F920FB60F92D9
S113442011240F900FBE0F901F90189578941F922F
S11344300F920FB60F9211240F900FBE0F901F9082
S1134440189578941F920F920FB60F9211248F93A0
S11344509F9380919600909197009F918F910F90D8
S11344600FBE0F901F90189578941F920F920FB65D
S11344700F9211242F938F939F932FB7F8948091C9
S1134480B7069091B80601969093B8068093B70644
S11344902FBF9F918F912F910F900FBE0F901F9060
S11344A01895CFB7F89414BE0FB6F894A8958091D8
S11344B06000886180936000109260000FBE47E145
S11344C050E06FEF70E080EB93E00E94BE278FEF27
S11344D08093B01480937F1556985E9854985C9896
S11344E080916F008F7D80936F00209A0E94AB01B2
S11344F0279A0E94A9010E9A169A8FE297E0909348
S11345006A038093690310927B068AE580930F0403
S113451081E08093810080E28093B60083E0809301
S1134520B10020918400309185008AE74091840095
S1134530509185004217530708F481509A01811164
S1134540F5CF8091B2009091B2009817E1F32091D9
S11345508400309185008091B2009091B200981748
S1134560E1F380918400909185004096821B930B27
S113457055E0969587955A95E1F79093B2148093F8
S1134580B1141092B100109281001092B6001092F2
S1134590B20010928500109284008FEF87BB86BB17
S11345A08091B6008571E1F70A9A099A089A129ADD
S11345B0119A109A18B88FEF87B90C981498109222
S11345C09500109294008091710081608093710035
S11345D080919100887F8260809391001092850081
S11345E01092840080916F00816080936F008091AD
S11345F08100887F8260809381000E940202D82F0C
S11346008F3F19F00E947513F8CF83E192E09093E5
S113461097158093961502E016E06091B11470919D
S1134620B214CB01A0E0B0E0BC01CD012CE0660FD8
S1134630771F881F991F2A95D1F7C12C31EED32EED
S1134640E12CF12CA70196010E94CD2621503109BD
S11346502093C4003093C5000093C0001093C2009F
S11346601092C1006091B1147091B214CB01A0E01A
S1134670B0E0BC01CD014CE0660F771F881F991F85
S11346804A95D1F7A70196010E94CD262150310900
S11346902093CC003093CD000093C8001093CA003F
S11346A01092C90084E490E090939F0980939E093E
S11346B010922B0710922D078AE0809362081092C3
S11346C0B6061092DB061092B31410928315109262
S11346D0821510927D151092D7070E94F001109256
S11346E0C1071092C00710922402D093DA060E94E8
S11346F095068091B60080628093B6008091B600E2
S113470081FDFCCF82E08093B0008091B60080FDF3
S1134710FCCF83E08093B1008091B60083FDFCCF91
S113472086EE8093B3008091700082608093700065
S11347300E940B088091210290912202AC014F5FEC
S11347405F4F60E070E04093770650937806609383
S1134750790670937A062CEB34E130939702209318
S113476096022BEE34E130939902209398022AE1C9
S113477035E130939B0220939A028295807F809347
S11347804A02DFEFD0930E048FEF9FEF90938B15C7
S113479080938A1590938D1580938C1590938F1523
S11347A080938E1590939115809390159093931503
S11347B08093921580E491E0A0E0B0E08093080437
S11347C090930904A0930A04B0930B0481E18093AD
S11347D0CA071092AF141092AC031092AD0310925A
S11347E0AE031092AF031092360310923703109267
S11347F03803109239031092D0031092D10310920F
S1134800D2031092D3030E94E10286E493E09093D2
S11348106C0380936B03D0934703D093460386E8DD
S113482096E0909366088093650884E08093500432
S11348300E9402028F3F19F00E947513F9CFCFBF77
S113484078948FB7F894909162089A3031F09091EF
S11348503D04943011F08FBF04C08FBF81E10E94EA
S11348601D021092A20910926F0310926E0310920F
S11348704C0210924B020E9494110E9494111092C7
S11348805E079091210280912202E0916B03F091E6
S11348906C03938382838091F3078D7F8093F30766
S11348A081E080934E02CFB7F8940E9402028F3FBA
S11348B009F050C080917000837089F08091B60037
S11348C08A71E1F78091B3009091B200891B8C301A
S11348D040F08091B200853F20F483E003C085E07E
S11348E001C082E0E0916E00E670E9F490916F00FF
S11348F09E72E1F4E0917100EE72A9F40CB407FC2D
S113490015C09091C100987189F4E091C900E871D3
S113491051F49091BC0092FD09C090917A0097FDEA
S113492004C0E5E003C0E0E001C0E1E093B78E1706
S113493008F4E82FF0E0E65FFE4F8491E92FE07F72
S1134940E160E82BE3BF78948895F89483B78E7F71
S113495083BFABCFCFBF0E947513A5CF0E94C224E3
S11349600C94FE250E94F72558F00E94F02540F093
S113497029F45F3F29F00C94D72551110C94322669
S11349800C94DD250E940F2668F39923B1F3552377
S113499091F3951B550BBB27AA276217730784074E
S11349A038F09F5F5F4F220F331F441FAA1FA9F3E4
S11349B035D00E2E3AF0E0E832D091505040E695D2
S11349C0001CCAF72BD0FE2F29D0660F771F881F33
S11349D0BB1F261737074807AB07B0E809F0BB0B26
S11349E0802DBF01FF2793585F4F3AF09E3F51053A
S11349F078F00C94D7250C9432265F3FE4F3983E6C
S1134A00D4F3869577956795B795F7959F5FC9F722
S1134A10880F911D9695879597F90895E1E0660FA3
S1134A20771F881FBB1F621773078407BA0720F01C
S1134A30621B730B840BBA0BEE1F88F7E095089585
S1134A400E9427256894B1110C94322608950E947F
S1134A50172688F09F5798F0B92F9927B751B0F0CF
S1134A60E1F0660F771F881F991F1AF0BA95C9F7EE
S1134A7014C0B13091F00E943126B1E008950C9435
S1134A803126672F782F8827B85F39F0B93FCCF3E8
S1134A90869577956795B395D9F73EF4909580956B
S1134AA0709561957F4F8F4F9F4F089597FB16F434
S1134AB00E94E0250C949A25E89409C097FB3EF4E3
S1134AC090958095709561957F4F8F4F9F4F992357
S1134AD0A9F0F92F96E9BB279395F69587957795D5
S1134AE06795B795F111F8CFFAF4BB0F11F460FF95
S1134AF01BC06F5F7F4F8F4F9F4F16C0882311F0ED
S1134B0096E911C0772321F09EE8872F762F05C000
S1134B10662371F096E8862F70E060E02AF09A959B
S1134B20660F771F881FDAF7880F9695879597F990
S1134B300895E894F92F96EBFF2381F012161306DB
S1134B401406440B9395F695879577956795579535
S1134B504040FF23B9F71BC099270895882351F4D7
S1134B609850D2F7872B762F652F542F432F322F4F
S1134B7020E0B1F3121613061406440B88233AF00E
S1134B809A95440F551F661F771F881FCAF7552330
S1134B904AF4440F551F11F460FF04C06F5F7F4F48
S1134BA08F4F9F4F880F9695879597F9089597F99A
S1134BB09F6780E870E060E008959FEF80EC0895BF
S1134BC09095809570956095509540953095219578
S1134BD03F4F4F4F5F4F6F4F7F4F8F4F9F4F089502
S1134BE000240A94161617061806090608950024C8
S1134BF00A9412161306140605060895092E039442
S1134C00000C11F4882352F0BB0F40F4BF2B11F4B5
S1134C1060FF04C06F5F7F4F8F4F9F4F089557FD14
S1134C209058440F551F59F05F3F71F04795880F16
S1134C3097FB991F61F09F3F79F0879508951216AD
S1134C4013061406551FF2CF4695F1DF08C0161659
S1134C5017061806991FF1CF86957105610508940A
S1134C600895E894BB2766277727CB0197F9089521
S1134C700E944B260C94FE250E94F02538F00E94D9
S1134C80F72520F0952311F00C94D7250C94DD25FD
S1134C9011240C9432260E940F2670F3959FC1F3C1
S1134CA0950F50E0551F629FF001729FBB27F00DD6
S1134CB0B11D639FAA27F00DB11DAA1F649F66272B
S1134CC0B00DA11D661F829F2227B00DA11D621F7A
S1134CD0739FB00DA11D621F839FA00D611D221F34
S1134CE0749F3327A00D611D231F849F600D211D18
S1134CF0822F762F6A2F11249F5750409AF0F1F09B
S1134D0088234AF0EE0FFF1FBB1F661F771F881F03
S1134D1091505040A9F79E3F510580F00C94D7253F
S1134D200C9432265F3FE4F3983ED4F3869577954E
S1134D306795B795F795E7959F5FC1F7FE2B880FA9
S1134D40911D9695879597F90895AA1BBB1B51E170
S1134D5007C0AA1FBB1FA617B70710F0A61BB70BE7
S1134D60881F991F5A95A9F780959095BC01CD018C
S1134D70089597FB072E16F4009407D077FD09D009
S1134D800E94A52607FC05D03EF4909581959F4F7F
S1134D900895709561957F4F0895A1E21A2EAA1B7C
S1134DA0BB1BFD010DC0AA1FBB1FEE1FFF1FA217D7
S1134DB0B307E407F50720F0A21BB30BE40BF50BD4
S1134DC0661F771F881F991F1A9469F7609570955D
S1134DD0809590959B01AC01BD01CF010895052EEE
S1134DE097FB1EF400940E94402757FD07D00E94B1
S1134DF0CD2607FC03D04EF40C94402750954095E3
S1134E00309521953F4F4F4F5F4F089597FB57FFC4
S1134E100C9416279F938F930E9416276E1B7F0B6B
S1134E20AF91BF918A0B9B0B0895E894DF93CF93C6
S1134E30FC01DB010E94A6277F936F93E9019A018D
S1134E40AC01BF93AF933F932F93DF010E94A6273A
S1134E5026F46C1B7D0B820B930B9E01EB01FC0172
S1134E600E94B527AF91BF912F913F910E94B52722
S1134E70BE01CF01F9012F913F91CF91DF910895A8
S1134E8090958095709561957F4F8F4F9F4F0895B2
S1134E90EE0FFF1F0024001C0BBE0790F691E02DBF
S1134EA009940F93083090F0982F872F762F652F51
S1134EB0542F432F322F22270850F4CF220F331FB1
S1134EC0441F551F661F771F881F991F0A95B2F745
S1134ED00F91089597FB10F8169400080F9308306B
S1134EE098F00850232F342F452F562F672F782FF3
S1134EF0892F902DF4CF059497958795779567958D
S1134F0057954795379527950A95AAF70F910895D0
S1134F102A0D3B1D4C1D5D1D6E1D7F1D801F911FA5
S1134F2008952A193B094C095D096E097F09800B14
S1134F30910B08950024A7FD00942A17300540051D
S1134F40500560057005800590050895A29FB00185
S1134F50B39FC001A39F700D811D1124911DB29FA9
S1134F60700D811D1124911D08950E94A627460FDE
S1134F70571FC81FD91F08F431960895DC0101C0DA
S1114F806D9341505040E0F70895F894FFCF30
S1134F8EFD07FD072C08FF0101FFFFFFFFFFFF22B6
S1134F9E01000100000002000000006C0700000088
S1074FAE00010000FA
S9030000FC
