S01700006275696C642F697269732F6D61696E2E7372656343
S11300000C9475000C9494000C9494000C9494003B
S11300100C9494000C9494000C9494000C9494000C
S11300200C9494000C9494000C9494000C949400FC
S11300300C9494000C94430D0C9494000C948C0D2B
S11300400C949F0E0C94500E0C94890E0C94940EE8
S11300500C94D80E0C9494000C9494000C9494007A
S11300600C94B40D0C9494000C9494000C9494008F
S11300700C9494000C9494000C9494000C949400AC
S11300800C9494000C9494000C9494000C9494009C
S11300900C9494000C9494000C9494000C9494008C
S11300A00C9494000C9494000C9494000C9494007C
S11300B00C9494000C9494000C9494000C9494006C
S11300C00C9494000C9494000C949400240A3E0A1A
S11300D07D0A020B350BA90BF10B930C390C4D0C5B
S11300E0BB0CD40C00020E060C0411241FBECFEF6F
S11300F0D1E2DEBFCDBF12E0A0E0B2E0E8EDF1E274
S113010000E00BBF02C007900D92AC30B107D9F7E5
S113011013E0ACE0B2E001C01D92AB3AB107E1F7E5
S11301200E94030F0C94EA100C9400002F98089579
S1130130289A08959FB7F8948091F6028F5F809370
S1130140F6029FBF08950DB407FEFDCF8EB5089546
S1130150982F0DB407FEFDCF8EB59EBD0895289847
S113016008958627082E8295807F8025092E982F52
S113017082958F700826869598278927880F880F7F
S1130180880F80250895809102038F3F69F0E82F3E
S1130190F0E0E85DFD4F9081909302039F3F11F4DE
S11301A090939D039FEF908308958091B000809376
S11301B0B0008091B60081FDFCCF08952FB7F8946C
S11301C080910802909109022FBF08959FB7F89477
S11301D0E82FF0E0E85DFD4F20812F3F99F4E09196
S11301E09D03E81779F0209102032F3F19F48093BF
S11301F0020304C0F0E0E85DFD4F808380939D031B
S113020080E001C085E09FBF089582E00C94E60081
S11302100F931F932FB7F8944091E1025091E2029B
S11302206091E3027091E4028091840090918500D2
S1130230B09B08C04F5F5F4F6F4F7F4F809184002A
S1130240909185002FBFBA0155274427A0E0B0E064
S11302508A019B01082B192B2A2B3B2BC901B801BE
S11302601F910F91089540918400509185006FB7BC
S1130270F89420918400309185002D5F3F4FF9015F
S1130280E41BF50BE817F90718F49C01240F351F3C
S11302902115310511F421E030E02150310930936A
S11302A089002093880082E086BB80916F00826081
S11302B080936F006FBF08950F931F93CF93DF93C5
S11302C08C018FB7F894C091F402D091F5029E018D
S11302D02F5E3E4F3093F5022093F4028FBF84E0EB
S11302E00E94E600CE01B8010E9486108A5D9E4FEE
S11302F0DF91CF911F910F9108952FB7F89430910A
S1130300B2008091240290912502A0912602B0911E
S11303102702B99B0BC04091B3003091B200019603
S1130320A11DB11D840F911DA11DB11DBC01CD01E5
S1130330630F711D811D911D2FBF0895CF93DF930E
S1130340DFB7F894C0910C02C11109C081E0809319
S11303500C021092010289E00E94E60018C080910C
S11303604B028F3F99F4E0910202EE2379F08091E1
S113037003028F3F19F41092030204C0F0E0E55B1E
S1130380FD4F108210920202C0E001C0C5E0DFBF41
S11303908C2FDF91CF910895CF93DF93DFB7F8943B
S11303A080910D02823021F5C0910402C11120C058
S11303B0909106029F3FB1F0E92FF0E0E35CFD4F1E
S11303C08081809306028F3F11F4809305028FEFA2
S11303D080839093040281E080930D0280E00E9468
S11303E0E60004C09093040210920D02DFBF02C025
S11303F0DFBFC1E08C2FDF91CF910895CF93DF93BE
S1130400DFB7F89480910C02823039F5C091010273
S1130410C11123C0909103029F3FB1F0E92FF0E096
S1130420E55BFD4F8081809303028F3F11F480933D
S113043002028FEF80839093010281E080930C028B
S113044089E00E94E60004C09093010210920C021D
S11304508CB58F7B8CBDDFBF02C0DFBFC1E08C2FAA
S1130460DF91CF910895CF92DF92EF92FF920F9395
S11304701F93CF93CFB7F8942091B3009091B2001B
S113048087B3291711F081FF02C0CFBF7CC08091D0
S11304904302811102C086EE3FC00E947D01C090DC
S11304A01802D0901902E0901A02F0901B020091F9
S11304B00703109108032091090330910A03AB014B
S11304C0BC014C195D096E097F0940175107620789
S11304D0730728F01092430286EE91E01EC0D90102
S11304E0C8018C0D9D1DAE1DBF1D4091240250916D
S11304F025026091260270912702841B950BA60B9E
S1130500B70B873E9105A105B10528F68230910508
S1130510A105B10508F482E090E02FEF280F309197
S1130520B60033FDFCCF3091B2002313822F4091EB
S113053024025091250260912602709127028A01BB
S11305409B010F5F1F4F2F4F3F4F080F111D211DA0
S1130550311D041715072607370710F4842F8095DB
S11305602091B60023FDFCCF8093B300CFBF992325
S113057051F085E0CF911F910F91FF90EF90DF90A4
S1130580CF900C94E600CF911F910F91FF90EF90C4
S1130590DF90CF900895CF93DF931F92CDB7DEB74E
S11305A089830E94AF00898180688EBD80E00E94AB
S11305B0A8000E94A30089830E94980089810F905B
S11305C0DF91CF9108951F93CF93DF931F92CDB7FF
S11305D0DEB7182F69830E94AF00912F906C9EBDE7
S11305E089810E94A8000E94A3000F90DF91CF91FF
S11305F01F910C9498008CB58F7B8CBD229A239804
S1130600219A209A8CB580618CBD8CB58F778CBD76
S11306108CB5877F8CBD8CB58B7F8CBD8CB580648D
S11306208CBD8DB581608DBD8CB58C7F8CBD0895DE
S1130630CF938FB7F89490910102911106C09091D5
S11306400C02923011F48FBF0FC08FBFCFB7F89454
S113065080910C0281110AC082E080930C021092F6
S113066001020E94FB02CFBF81E004C0CFBF0E9401
S11306709E0180E0CF910895CF93DF93FC01228106
S113068030E0322F22274181242B25FF15C0277407
S11306903C7C2134384881F4FC01C781D0E0DC2F54
S11306A0CC278681C82B0E94DE0021E0C817D90719
S11306B009F020E0822F01C080E0DF91CF910895FE
S11306C02F923F924F925F926F927F92AF92BF921E
S11306D0CF92DF92EF92FF920F931F93CF93DF930A
S11306E020910F02222311F015E0DEC010919B032C
S11306F01530D1F72091FD022111F6CFEC010E94B3
S11307001803882389F38CA582FF03C06EA56F703C
S113071001C060E08091AB02681731F06093AB02D6
S1130720606885E00E94E3022A8130E0322F2227AC
S11307308981282B27743C7C21343848A1F486E035
S11307400E94CB028F7190E04091480220913E02BA
S113075030E0240F311D43E0359527954A95E1F7A4
S11307602817390744F169E082E00E94E3020E94FD
S113077008012B013C016E01EFEFCE1ADE0A08815D
S11307808CA52EEFB22EB00E84FF09C09E012C1949
S11307903D098BEF800FA82EA20EBA1802C0AB2C15
S11307A0B12C81E00E94CB028F71893039F066E070
S11307B082E00E94E3020E94FE0176C08FB7F894A3
S11307C02F9AE0908400F09085008FBF0E949600DD
S11307D00E94AF0080E68EBD802F0E94A800860193
S11307E03A2CF80181918F010E94A8003A943110AB
S11307F0F8CFAA942A2D30E08601020F131F2F5F31
S11308003F4F2C0D3D1D1701F2EA2F0E311C241809
S11308103508C101AA2797FDA095BA2F120123011B
S1130820280E391E4A1E5B1EBB2041F1F80181814E
S1130830C280D12CE12CF12C7601DD24CC24F82AC1
S11308408481C82A8381D82AD701C60182199309D1
S1130850A409B50984839383A283B183A22E3901A9
S1130860F30181913F010E94A800862D8A198B1102
S1130870F7CFF801C482D382E282F1820E94A300FE
S11308800E94980066E082E00E94E3028CA58260E8
S11308908CA728A639A64AA65BA686E080939B036C
S11308A084E080930F0210E0812FDF91CF911F919C
S11308B00F91FF90EF90DF90CF90BF90AF907F901B
S11308C06F905F904F903F902F9008953F924F927A
S11308D05F926F927F928F929F92AF92BF92CF92CC
S11308E0DF92EF92FF920F931F93CF93DF9300D089
S11308F0CDB7DEB714E030E8A32E05E043E0D42EF4
S113090059E0852E62E0C62E78E0B72E84E392E0AB
S1130910E5E09E2E980E8091F002823009F07DC0B1
S11309201092F00280917B02823009F459C0833026
S113093009F461C0813009F070C0209184003091C5
S113094085006090DD027090DE02621A730A909155
S11309504202903841F41092420290914102923046
S113096009F05BC03AC097FF04C0161417040CF4D6
S1130970A8C3E0903F02F0904002809123028111CD
S1130980A0C3C7010E946003282F81119BC3D70114
S11309909C968C919C978E7F9C968C9381E08093FF
S11309A02302F0929F03E0929E03D092420235C04C
S11309B097FF9FC3161417040CF09BC3A092420226
S11309C081E080937B028093F002C30129830E941B
S11309D03301298120930B0381E08093410208C0F5
S11309E0109223021092420210920B0310934102C0
S11309F00E94050112C090919B03923019F48093D8
S1130A009B0309C080910F02863029F410920F02D3
S1130A1081E00E94CB020E94F7098091FD028823A5
S1130A2009F4B3C080919B03813009F4AEC00E94E5
S1130A301803882309F4A9C08FB7F8946090490279
S1130A4070904A028FBF1092FD028FE00E94CB0289
S1130A50F82E80910F028B7F833021F400939B0347
S1130A60B0920F02F2FE4AC080910F02863011F458
S1130A7010920F0280910F02811140C0B4E0FB126A
S1130A8034C086E00E94CB028F7190913E02292FE0
S1130A9026952695921B980F90933E02E0911C0296
S1130AA0F0911D0294A59B7F986094A786A70E944D
S1130AB00801930127503109261B370B29016624AD
S1130AC057FC6094762CE0911C02F0911D0224A541
S1130AD0226024A7AB01BC01440D551D661D771D82
S1130AE040A751A762A773A707C0E0911C02F09129
S1130AF01D0284A5857F84A700930F02F3FE45C0E1
S1130B0080910F02843081F500939B0310920F02B1
S1130B1080912302833019F41092230236C0E091AD
S1130B209E03F0919F03828190E0982F8827218172
S1130B30822B85FF0EC087749C7C8134984849F4CD
S1130B40878190E0982F88272681822B019609F0CF
S1130B50D3C2109223021092420210920B031093FC
S1130B6041020E94050111C0853079F486E00E949B
S1130B70CB02909148028F71292F26952695921BBE
S1130B80980F9093480280920F0280910F0288235D
S1130B9009F44DC2893009F0BCC10E94AF0080E263
S1130BA08EBD0DB407FEFDCF8EB51EBC0DB407FE81
S1130BB0FDCF8EB59DEF980F973208F07AC01EBC1A
S1130BC0E0911C02F0911D023F015FEF651A750A66
S1130BD08083AEEF5A2E580E86E0851510F0452C12
S1130BE002C0F7E04F2E7301342C40E050E080E067
S1130BF049835A830E94A800D7018D937D01682FF1
S1130C0049815A81CA010E94B100AC013A94311061
S1130C10EECF2FEF240D30E02F5F3F4F620E731E97
S1130C20E0911C02F0911D0281818770823029F4C9
S1130C30809123028230D9F50BC09FB7F89481E0EC
S1130C402091F702233008F080E09FBF882379F1D8
S1130C50852D84197301680E80E049835A836E14CC
S1130C6069F00E94A800F70181937F01682F4981F0
S1130C705A81CA010E94B100AC01EECF0E94A800C3
S1130C80682F49815A81CA010E94B1007C0180E029
S1130C900E94A800682FC7010E94B1007C010E9435
S1130CA0A300E0911C02F0911D0285A705C00E94DB
S1130CB0A300EE24E394F12C0E94980000939B037C
S1130CC010920F02EF2809F0A9C140901C02509025
S1130CD01D02D20111968C91119787709091230275
S1130CE0823029F5923009F00FC1E0919E03F09112
S1130CF09F0313969C918381981306C180916F0082
S1130D008D7F80936F001092F002E0919E03F0912A
S1130D109F0384A5816084A710922302109242024B
S1130D2010920B03109341020E940501EDC0911132
S1130D3017C0C2010E943C03882391F00093AC02C7
S1130D40C092AD021092AE02F20183818093AF0291
S1130D508CEA92E00E946003811102C0D0922302C7
S1130D60E0908400F0908500C2010E943C03882337
S1130D7021F0F4EEEF1AFCEFFF0AF092DE02E092AB
S1130D80DD0280918400909185009701281B390B26
S1130D90C90118161906ACF42091420221110EC0A3
S1130DA02091F00221110DC021E020937B022093B9
S1130DB0F0020E943301A092420203C020682093F3
S1130DC04202D20119968C91199790E0982F8827A6
S1130DD018962C91822B20919C03422F50E0FA010B
S1130DE0EE0FFF1FEF55FC4F60817181F090A0035F
S1130DF06817790711F4FA0110C0A1EAB3E0E4E33B
S1130E00F2E020E030E070E060E04D915D91481741
S1130E10590779F420939C03F901EC5CFD4F808120
S1130E208F1509F43FC0F394F092A003F08260E8B8
S1130E3022C041915F2D541B651710F4722F652F4A
S1130E402F5F3F4F2530310501F770939C03272F07
S1130E5030E0F901EE0FFF1FEF55FC4F91838083C3
S1130E60F394F092A003F901EC5CFD4FF082F901D8
S1130E70E25EFD4F10828091A003982F9F779F37E9
S1130E8019F020919C030EC06F37D8F3E4E3F2E02D
S1130E90282F207890819F679813208331969E1283
S1130EA0F9CFEFCFD20113969C91E22FF0E0DF014E
S1130EB0A25EBD4F8C91E850FD4F80FF04C080813D
S1130EC0981303C021C081608C939083FFB6F8947B
S1130ED08091F7028330B8F4E0910503E80FE33022
S1130EE008F0E350F0E0EE0FFF1FEE5EFD4F708060
S1130EF0E180518240828F5F8093F70283E00E94F9
S1130F00E600472C5E2CFFBE50921D0240921C024C
S1130F1085C09FEF980F933008F06EC09EEF980F36
S1130F209230D8F520919B03213099F49091F002EE
S1130F3091110FC029830E949600D0927B022981CF
S1130F402093F0028BE293E00E943301C0929B0352
S1130F503EC0833011F5233001F50E941803882325
S1130F60E1F08FE00E94CB02809181008064809345
S1130F70810080E286BB80916F00806280936F0065
S1130F8060913A02606688E00E94E30266E082E0D3
S1130F900E94E30210939B031AC080910F028150B8
S1130FA08230A8F480919B03853089F40E94180351
S1130FB0882369F063E082E00E94E30280916F007D
S1130FC08F7D80936F001092FD02D0929B038091DD
S1130FD00F02813041F490919B039330F9F42F9ADE
S1130FE080939B0306C08230C9F480919B038330B5
S1130FF0A9F4B0920F0212C0873081F40E94180342
S1131000882361F060913A02606688E00E94E302FE
S113101080919B03853069F710939B0380910F02A5
S1131020883029F410920F0281E00E94E60080913A
S11310300F0281111DC080919B038530C9F48091FA
S1131040FD02811115C080912302811111C080918C
S1131050420281110DC08091F002811109C080917A
S11310604102823029F481E0809341020E9405010B
S113107080910F02811103C087E00E94E6008FB7C0
S1131080F8949091F6029130B9F41092F6028FBF61
S11310900F900F90DF91CF911F910F91FF90EF90E0
S11310A0DF90CF90BF90AF909F908F907F906F9084
S11310B05F904F903F90089591E09093F6028FBF18
S11310C02ACC25E090914202892F8F77813009F054
S11310D06FCC907892609093420280E198E00E94F5
S11310E05C0121E020937B022093F0020E943301F3
S11310F094CC109242026ECC8091F002811129CDE1
S1131100C0927B0281E08093F00289E993E00E941F
S11311103301C092230239CD9FB7F8948091F6022F
S113112081508093F602803811F09FBF089581E0CA
S11311308093F6029FBF0C9466040F931F93CF9382
S1131140DF931F92CDB7DEB78C018FE3F80182875E
S113115090910E029F5F90930E0293830E949A00D7
S11311608091410281110DC01093F3020093F202A9
S113117081E0809341021092F1020E94050180E017
S113118001C085E089830E948C0889810F90DF91DA
S1131190CF911F910F910895FF920F931F93CF93B7
S11311A0DF93EA012D3108F068C0EA81F0E0FE2FF8
S11311B0EE279981E92BAF0147745C7C4134584890
S11311C039F0E073FF27E164F868E98398E89A83CB
S11311D08B01F82E235F28830E94DE00888799877D
S11311E09FB7F894809107029FBF8C831D82FB8672
S11311F00E831F838FB7F89490910D0291110FC045
S113120092E090930D02109204028FBFCE010E94CF
S11312109D08C82F882391F10E94CC012FC08FBF55
S1131220D0933C02C0933B02DFB7F894C0910D0207
S1131230C11109C081E080930D021092040280E084
S11312400E94E60018C080913D028F3F99F4E0911E
S11312500502EE2379F0809106028F3F19F4109273
S1131260060204C0F0E0E35CFD4F10821092050218
S1131270C0E001C0C5E0DFBF01C0C6E08C2FDF9134
S1131280CF911F910F91FF90089510920002E09169
S1131290DF02F091E0023097C9F08091060380FDEF
S11312A015C080910002811115C020812D506781E5
S11312B070E0762F66278681682BAF0183850E94B4
S11312C0CC08882339F08BE00C94E60081E080930D
S11312D00002E7CF08952091000221110DC0209152
S11312E0DF023091E0022817390731F41092E0024E
S11312F01092DF020C94450908958F929F92AF9249
S1131300BF92CF92DF92EF92FF920F931F9340917F
S1131310ED0241FF5FC08090E5029090E602A0904C
S1131320E702B090E802C090E902D090EA02E090AF
S1131330EB02F090EC028B019C01081919092A09AF
S11313403B090C151D052E053F0508F443C040FF5D
S113135005C0842F8D7F8093ED020EC0B701A601D6
S1131360480D591D6A1D7B1D4093E5025093E6020A
S11313706093E7027093E8028FEF809352028093A8
S113138053028AE0809357028091DF029091E00239
S1131390892B01F58CE492E09093E0028093DF02C4
S11313A08FE080934C0280910002882399F0109280
S11313B0000222E04CE452E06FEF7FEF8AE00E94EB
S11313C0CC08882339F081E0809300021092E00277
S11313D01092DF0286E01F910F91FF90EF90DF9053
S11313E0CF90BF90AF909F908F900C94E6009FB7E2
S11313F0F8948091F602882329F080688093F6029D
S11314009FBF089581E08093F6029FBF0C94660409
S11314102F923F924F925F926F927F928F929F9200
S1131420AF92BF92CF92DF92EF92FF920F931F93EE
S1131430CF93DF9390E08C30910508F00CC3FC014E
S1131440EA59FF4F0C949A108FB7F89492E0909356
S11314500D028FBF809104028111FDC280913B0275
S113146090913C020E949D08882309F4F4C20E94D2
S1131470CC0180913B0290913C028AC08091410250
S113148010924102853089F50E947D016093E50246
S11314907093E6028093E7029093E8028AEF90E06B
S11314A0A0E0B0E08093E9029093EA02A093EB02FB
S11314B0B093EC028091ED028E7F82608093ED0206
S11314C086E0DF91CF911F910F91FF90EF90DF9015
S11314D0CF90BF90AF909F908F907F906F905F90D0
S11314E04F903F902F900C94E6009AEF980F923013
S11314F008F4B1C280934102AEC20E949A00D09116
S11315004102D13091F58091F1028F5F8093F10215
S1131510863058F58091F2029091F30220914202B4
S1131520211115C0C091F002C11111C09093400265
S113153080933F02D09342028BED91E10E945C01C3
S1131540D0937B02D093F0020E94330101C0C5E026
S1131550C0930B03C11104C083E08093410208C00F
S113156082E080934102C0E003C010924102C1E0D6
S11315700E948C08CC2309F46EC2C091F202D0916F
S1131580F3028A858F3309F066C20E94CC01CE0132
S1131590DF91CF911F910F91FF90EF90DF90CF904B
S11315A0BF90AF909F908F907F906F905F904F907F
S11315B03F902F900C946B09E0910503F0E0EE0F3F
S11315C0FF1FEE5EFD4FC081D1818FBF88819EEFEA
S11315D0980F9930F0F49FB7F89480910503E82FA1
S11315E0F0E0EE0FFF1FEE5EFD4FD183C0838F5FEF
S11315F08330C0F5809305038091F7028150809376
S1131600F7029FBF8FB7F8949091F7029111D4CF4E
S113161042C19A859F3399F48B508230E0F2EF8077
S1131620F12CFE2CEE248E81E82A2FEFE216F2062E
S1131630A9F00E94DE00E816F90669F60FC0EF80F3
S1131640F12CFE2CEE248E81E82A0E94DE00E8169E
S1131650F90621F0EF20E09409F0BDCF8FB7F8949C
S11316608FBFB9CF10920503C7CFEFB7F89480911D
S1131670440290914502A0914602B09147021C0198
S11316802D019C01A20160E070E080E090E003E0A5
S11316900E94A31051016201E12CF12C00E010E042
S11316A00E94DA1059016A017B01F82F192F03E017
S11316B00E94A3100F2F0E94DA1059016A017B01C6
S11316C0F82F192F03E00E94A3100F2F0E94DA10A5
S11316D059016A017B01F82F192F03E00E94A3101E
S11316E00F2F0E94DA1059016A017B01F82F192F7C
S11316F003E00E94A3100F2F0E94DA1001E00E9461
S1131700A31029013A0100E20E94BE1049015A01C6
S11317107694679457944794840C951CA61CB71C24
S1131720B7FE07C0E894B7F84FEF841A940AA40AE6
S1131730B40A8092440290924502A0924602B0926A
S11317404702EFBF8FB7F8949092F5028092F402AB
S1131750A2C080913902811141C04091FE02509192
S1131760FF0260910003709101032FB7F894C090B9
S11317700703D0900803E0900903F0900A038091D6
S1131780180290911902A0911A02B0911B028C0DBB
S11317909D1DAE1DBF1D2FBF4093FE025093FF023F
S11317A06093000370930103109239022FB7F894E9
S11317B031E0309343028093180290931902A0936E
S11317C01A02B0931B0240930703509308036093DB
S11317D0090370930A032FBF0E9433020E947D0104
S11317E034C00E947D012FB7F894109243022FBF9A
S11317F02091ED0221FF2FC1C090E502D090E602B6
S1131800E090E702F090E8029B01AC012C193D093D
S11318104E095F0969017A018090E9029090EA0219
S1131820A090EB02B090EC02A50194012C193D09A3
S11318304E095F0969017A013FEFC316D306E30637
S11318403FE7F30609F0CDC006C1DF91CF911F91A8
S11318500F91FF90EF90DF90CF90BF90AF909F904B
S11318608F907F906F905F904F903F902F900C944B
S11318707D098FB7F8941092EF021092EE02109245
S11318809A0310929903109211021092100210926E
S1131890DC021092DB028FBFDEC0CFB7F89482E087
S11318A080930C020E94FB02CFBF80910102811140
S11318B0D2C080919B0381114AC0CEEFD1E0CE010A
S11318C0019701960197E1F716980E94960086E029
S11318D090E0019701960197E1F7169A60E083E0A2
S11318E00E94E30268E082E00E94E30221972196CD
S11318F02197E1F76DE48EE00E94E30267EC89E052
S11319000E94E30260E885E00E94E3021092AB02C9
S11319108AE180933A026AE788E00E94E3022F9A00
S113192081E080939B03DF91CF911F910F91FF90F2
S1131930EF90DF90CF90BF90AF909F908F907F906B
S11319406F905F904F903F902F900C94FE01DF9129
S1131950CF911F910F91FF90EF90DF90CF90BF90A8
S1131960AF909F908F907F906F905F904F903F903B
S11319702F900C94F70980910603882309F46BC017
S1131980EFEDF2E028E091E0382F392329F01182BD
S11319901082392F30958323990F215032962111CB
S11319A0F3CF8093060357C0E0910002F0E0EE0FFE
S11319B0FF1FE152FD4F11821082DF91CF911F91E1
S11319C00F91FF90EF90DF90CF90BF90AF909F90DA
S11319D08F907F906F905F904F903F902F900C94DA
S11319E045091C141D041E041F040CF02ECFC092C4
S11319F0FE02D092FF02E0920003F092010321E084
S1131A00209339023FB7F89420934302609318025D
S1131A107093190280931A0290931B02C0920703D9
S1131A20D0920803E0920903F0920A033FBFDF91CA
S1131A30CF911F910F91FF90EF90DF90CF90BF90C7
S1131A40AF909F908F907F906F905F904F903F905A
S1131A502F900C943302DF91CF911F910F91FF903F
S1131A60EF90DF90CF90BF90AF909F908F907F903A
S1131A706F905F904F903F902F9008958FB7F89498
S1131A8008958FBF08951F920F920FB60F921124DD
S1131A900BB60F920F931F932F933F934F935F9324
S1131AA06F937F938F939F93AF93BF93EF93FF9322
S1131AB00E94D5008091B30090E0019640912402E9
S1131AC05091250260912602709127028A019B01A0
S1131AD0080F191F211D311D0093240210932502A4
S1131AE0209326023093270278940E943302FF91B8
S1131AF0EF91BF91AF919F918F917F916F915F9182
S1131B004F913F912F911F910F910F900BBE0F900A
S1131B100FBE0F901F9018951F920F920FB60F9241
S1131B2011240BB60F922F933F934F935F936F93B0
S1131B307F938F939F93AF93BF93EF93FF930E94F1
S1131B40D500FF91EF91BF91AF919F918F917F91BC
S1131B506F915F914F913F912F910F900BBE0F901A
S1131B600FBE0F901F9018951F920F920FB60F92F1
S1131B7011240BB60F922F933F934F935F936F9360
S1131B807F938F939F93AF93BF93EF93FF932EB560
S1131B90E091EE02F091EF02309739F08091DB0290
S1131BA09091DC02E80FF91F20838091DB02909171
S1131BB0DC0201969093DC028093DB028CB58F7774
S1131BC08CBD8091DB029091DC02609110027091D7
S1131BD011028617970708F03FC0209199033091AE
S1131BE09A03E091EE02F091EF02AC01465F5F4F81
S1131BF06417750708F4AB01415051098417950720
S1131C00C8F42115310549F0D901A80FB91F6C9109
S1131C106EBD0DB407FEFDCF04C01EBC0DB407FE9F
S1131C20FDCF6EB5309721F0DF01A80FB91F6C937B
S1131C300196E4CF4CB540684CBD2115310531F017
S1131C40F901E80FF91F20812EBD01C01EBC90933D
S1131C50DC028093DB0211C01092EF021092EE02BC
S1131C6010929A031092990310921102109210028A
S1131C701092DC021092DB028EB5FF91EF91BF91BE
S1131C80AF919F918F917F916F915F914F913F9110
S1131C902F910F900BBE0F900FBE0F901F901895B1
S1131CA078941F920F920FB60F9211240BB60F92D5
S1131CB02F933F934F935F936F937F938F939F9350
S1131CC0AF93BF93EF93FF9380916F008D7F8093C9
S1131CD06F0078948FB7F8949091F002913019F4D2
S1131CE092E09093F0028FBF0E94F709FF91EF9169
S1131CF0BF91AF919F918F917F916F915F914F9120
S1131D003F912F910F900BBE0F900FBE0F901F901D
S1131D10189578941F920F920FB60F9211240F907A
S1131D200FBE0F901F90189578941F920F920FB6C4
S1131D300F9211240F900FBE0F901F901895789456
S1131D401F920F920FB60F9211240BB60F922F937E
S1131D503F934F935F936F937F938F939F93AF932F
S1131D60BF93EF93FF93E6E8F0E0808191812081B7
S1131D7031818FB7F89430934A022093490291E05D
S1131D809093FD028FBF0E94F709FF91EF91BF91DD
S1131D90AF919F918F917F916F915F914F913F91FF
S1131DA02F910F900BBE0F900FBE0F901F901895A0
S1131DB078941F920F920FB60F9211242F938F9342
S1131DC09F93AF93BF932FB7F8948091E1029091C2
S1131DD0E202A091E302B091E4020196A11DB11DBB
S1131DE08093E1029093E202A093E302B093E402B1
S1131DF02FBFBF91AF919F918F912F910F900FBEE5
S1131E000F901F901895CFB7F89414BE88E10FB6C1
S1131E10F89480936000109260000FBE4CE050E094
S1131E206FEF70E088E292E00E94E3108FEF8093FE
S1131E30020380939D0356985E9854985C98809111
S1131E406F008F7D80936F00209A0E949800279ADC
S1131E500E9496000E9A169A8CE792E090931D02C7
S1131E6080931C02109248028AE580933E0281E02E
S1131E708093810080E28093B60083E08093B10078
S1131E8020918400309185008AE74091840050912C
S1131E9085004217530708F481509A018111F5CF48
S1131EA08091B2009091B2009817E1F320918400E0
S1131EB0309185008091B2009091B2009817E1F3BF
S1131EC080918400909185004096821B930B25E0BD
S1131ED0969587952A95E1F79093040380930303DD
S1131EE01092B100109281001092B6001092B200CC
S1131EF010928500109284008FEF87BB86BB80917F
S1131F00B6008571E1F718B88FEF87B90C9814986B
S1131F10109285001092840080916F0081608093FC
S1131F206F0080918100887F8260809381000E948D
S1131F30C3008F3F19F00E94080AF9CF80934B0227
S1131F400E949E018091B60080628093B6008091C9
S1131F50B60081FDFCCF82E08093B0008091B60092
S1131F6080FDFCCF83E08093B1008091B60083FDB7
S1131F70FCCF86EE8093B3008091700082608093E2
S1131F8070000E94330280910A0290910B02AC010E
S1131F904F5F5F4F60E070E040934402509345020E
S1131FA060934602709347022CE033E030931302AF
S1131FB0209312022BE333E0309315022093140292
S1131FC02AE633E030931702209316028295807F2D
S1131FD080930E028FEF80933D028FEF9FEF9093DB
S1131FE0A2038093A1039093A4038093A3039093EB
S1131FF0A6038093A5039093A8038093A7039093CB
S1132000AA038093A9030E94C3008F3F19F00E9482
S1132010080AF9CFCFBF78940E949A0080914102B8
S1132020811117C080910F02811113C080919B030D
S1132030813029F48091F00281110BC002C08530F7
S113204041F083E080930F020E94F70985E08093BA
S113205041020E948C08CFB7F8940E94C3008F3FBE
S113206009F050C080917000837089F08091B600AF
S11320708A71E1F78091B3009091B200891B8C3092
S113208040F08091B200853F20F483E003C085E0F6
S113209001C082E0E0916E00E670E9F490916F0077
S11320A09E72E1F4E0917100EE72A9F40CB407FCA5
S11320B015C09091C100987189F4E091C900E8714C
S11320C051F49091BC0092FD09C090917A0097FD63
S11320D004C0E5E003C0E0E001C0E1E093B78E177F
S11320E008F4E82FF0E0EC51FF4F8491E92FE07FF2
S11320F0E160E82BE3BF78948895F89483B78E7FEA
S113210083BFABCFCFBF0E94080AA5CFAA1BBB1BBE
S113211051E107C0AA1FBB1FA617B70710F0A61BE3
S1132120B70B881F991F5A95A9F780959095BC0104
S1132130CD010895EE0FFF1F0024001C0BBE079075
S1132140F691E02D09940F93083090F0982F872F83
S1132150762F652F542F432F322F22270850F4CF88
S1132160220F331F441F551F661F771F881F991F97
S11321700A95B2F70F91089597FB10F8169400088A
S11321800F93083098F00850232F342F452F562FE3
S1132190672F782F892F902DF4CF059497958795E5
S11321A07795679557954795379527950A95AAF793
S11321B00F9108952A193B094C095D096E097F099D
S11321C0800B910B0895DC0101C06D934150504088
S10B21D0E0F70895F894FFCF35
S10F21D801FFFFFFFFFFFF2201000100D8
S9030000FC
