S01700006275696C642F697269732F6D61696E2E7372656343
S11300000C9484010C94A3010C94A3010C94A301FB
S11300100C94A3010C94A3010C94A3010C94A301CC
S11300200C94A3010C94A3010C94A3010C94A301BC
S11300300C94A3010C944E110C94A3010C949711ED
S11300400C94AA120C945B120C9494120C949F12AC
S11300500C94E3120C94A3010C94A3010C94A3013B
S11300600C94BF110C940E130C94A3010C948213E2
S11300700C94A3010C94A3010C94A3010C94C91433
S11300800C94A8140C94B3140C94BE140C94DC14A7
S11300900C948C140C94A3010C949D140C94A30143
S11300A00C94A3010C94A3010C94A3010C94A3013C
S11300B00C94A3010C94A3010C94A3010C94A3012C
S11300C00C94A3010C94A3010C94A3011D08A5088E
S11300D05509FF0C370D450DCD0DF40D6A0EB30E09
S11300E0140FBA0ECD0E3E0F0E10351037104210FD
S11300F07710ED13F8130D1454145B14621469147F
S1130100701400020E060C0400002110422063301B
S11301108440A550C660E770088129914AA16BB15B
S11301208CC1ADD1CEE1EFF1311210027332522203
S1130130B5529442F772D662399318837BB35AA3AB
S1130140BDD39CC3FFF3DEE36224433420040114D3
S1130150E664C774A44485546AA54BB528850995FB
S1130160EEE5CFF5ACC58DD55336722611163006A3
S1130170D776F6669556B4465BB77AA7199738874B
S1130180DFF7FEE79DD7BCC7C448E5588668A77863
S11301904008611802282338CCC9EDD98EE9AFF99B
S11301A0488969990AA92BB9F55AD44AB77A966A43
S11301B0711A500A333A122AFDDBDCCBBFFB9EEBEB
S11301C0799B588B3BBB1AABA66C877CE44CC55C13
S11301D0222C033C600C411CAEED8FFDECCDCDDD3B
S11301E02AAD0BBD688D499D977EB66ED55EF44EE3
S11301F0133E322E511E700E9FFFBEEFDDDFFCCF8B
S11302001BBF3AAF599F788F8891A981CAB1EBA1DE
S11302100CD12DC14EF16FE18010A100C230E3205A
S11302200450254046706760B9839893FBA3DAB302
S11302303DC31CD37FE35EF3B1029012F322D232AA
S11302403542145277625672EAB5CBA5A8958985D2
S11302506EF54FE52CD50DC5E234C324A0148104FA
S11302606674476424540544DBA7FAB79987B897A2
S11302705FE77EF71DC73CD7D326F2369106B0164A
S113028057667676154634564CD96DC90EF92FE962
S1130290C899E9898AB9ABA944586548067827689A
S11302A0C018E1088238A3287DCB5CDB3FEB1EFB42
S11302B0F98BD89BBBAB9ABB754A545A376A167AEA
S11302C0F10AD01AB32A923A2EFD0FED6CDD4DCD12
S11302D0AABD8BADE89DC98D267C076C645C454C3A
S11302E0A23C832CE01CC10C1FEF3EFF5DCF7CDFE2
S11302F09BAFBABFD98FF89F176E367E554E745E8A
S1130300932EB23ED10EF01E11241FBECFEFD1E2C8
S1130310DEBFCDBF12E0A0E0B2E0E6EAFFE200E01B
S11303200BBF02C007900D92A231B107D9F718E0B4
S1130330A2E1B2E001C01D92A13CB107E1F70E9425
S1130340F9140C94D1170C9400002F980895289A4E
S113035008950DB407FEFDCF8EB50895982F0DB402
S113036007FEFDCF8EB59EBD089528980895862773
S1130370082E8295807F8025092E982F82958F7074
S11303800826869598278927880F880F880F802547
S11303900895E0E0F8E01182108284E08093800206
S11303A01092910310920A08109284021092220370
S11303B010922103089580910F088F3F69F0E82F70
S11303C0F0E0EB5BFD4F908190930F089F3F11F499
S11303D09093AE089FEF908308958091B00080932E
S11303E0B0008091B60081FDFCCF08959FB7F894CA
S11303F022B181E0822782B99FBF08959FB7F89404
S1130400E82FF0E0EB5BFD4F20812F3F99F4E09162
S1130410AE08E81779F020910F082F3F19F4809364
S11304200F0804C0F0E0EB5BFD4F80838093AE08BF
S113043080E001C085E09FBF089585E00C94FE0133
S113044082E00C94FE0180918A038A3021F4809129
S11304508002843021F081E08093230208958FE0AC
S11304600E94FE01109223020895CF93CFB7F8940F
S11304708091AC08811108C08DE00E94FE018111B9
S113048003C081E08093AC08CFBFCF9108952FB70C
S1130490F8943091B2008091410290914202A0916F
S11304A04302B0914402B99B0BC04091B300309118
S11304B0B2000196A11DB11D840F911DA11DB11D96
S11304C0BC01CD01630F711D811D911D2FBF0895C6
S11304D040918400509185006FB7F8942091840076
S11304E0309185002D5F3F4FF901E41BF50BE817B0
S11304F0F90718F49C01240F351F2115310511F457
S113050021E030E0215031093093890020938800A4
S113051082E086BB80916F00826080936F006FBF22
S113052008950F931F93CF93DF938C018FB7F894A3
S1130530C0918E03D0918F039E012F5E3E4F309366
S11305408F0320938E038FBF87E00E94FE01CE01AC
S1130550B8010E9437178A5D9E4FDF91CF911F919A
S11305600F9108952FB7F89480910E0290910F0285
S11305702FBF08950F931F932FB7F89440911D0335
S113058050911E0360911F03709120038091840099
S113059090918500B09B08C04F5F5F4F6F4F7F4FB6
S11305A080918400909185002FBFBA01552744277C
S11305B0A0E0B0E08A019B01082B192B2A2B3B2BCE
S11305C0C901B8011F910F910895E8E0F1E069278E
S11305D0660FF11DE60FF11DC895982F802D3196F9
S11305E0C89590250895DC01662319F00E94F60150
S11305F01EC02FB7F8949091C008E92FF0E0EE0FD9
S1130600FF1FE750FD4F40815181A417B50771F4D6
S113061081E0890F8C3018F48093C00802C01092D6
S1130620C008809132028111109232022FBF81E002
S11306300C94FE01CF93DF93DFB7F894C0912402AA
S1130640C11109C081E080932402109207028CE05A
S11306500E94FE0118C0809191028F3F99F4E091AD
S11306600802EE2379F0809109028F3F19F4109269
S1130670090204C0F0E0EF56FD4F10821092080208
S1130680C0E001C0C5E0DFBF8C2FDF91CF9108959A
S1130690CF93DF93DFB7F89480912502823021F560
S11306A0C0910A02C11120C090910C029F3FB1F089
S11306B0E92FF0E0E658FD4F808180930C028F3FD4
S11306C011F480930B028FEF808390930A0281E0F0
S11306D08093250283E00E94FE0104C090930A02E5
S11306E010922502DFBF02C0DFBFC1E08C2FDF9173
S11306F0CF910895CF93DF93DFB7F89480912402CC
S1130700823039F5C0910702C11123C090910902CA
S11307109F3FB1F0E92FF0E0EF56FD4F80818093C9
S113072009028F3F11F4809308028FEF8083909326
S1130730070281E0809324028CE00E94FE0104C041
S113074090930702109224028CB58F7B8CBDDFBF7F
S113075002C0DFBFC1E08C2FDF91CF910895CF920B
S1130760DF92EF92FF920F931F93CF93CFB7F8943A
S11307702091B3009091B20087B3291711F081FF43
S113078002C0CFBF7CC080918502811102C086EE79
S11307903FC00E944702C0903402D0903502E090DE
S11307A03602F09037020091150810911608209136
S11307B0170830911808AB01BC014C195D096E098A
S11307C07F09401751076207730728F010928502CA
S11307D086EE91E01EC0D901C8018C0D9D1DAE1D91
S11307E0BF1D4091410250914202609143027091B9
S11307F04402841B950BA60BB70B873E9105A105FC
S1130800B10528F682309105A105B10508F482E00E
S113081090E02FEF280F3091B60033FDFCCF3091DC
S1130820B2002313822F4091410250914202609101
S11308304302709144028A019B010F5F1F4F2F4FA7
S11308403F4F080F111D211D311D041715072607E1
S1130850370710F4842F80952091B60023FDFCCF38
S11308608093B300CFBF992351F088E0CF911F91BB
S11308700F91FF90EF90DF90CF900C94FE01CF91F9
S11308801F910F91FF90EF90DF90CF900895CF9339
S1130890DF931F92CDB7DEB789830E94B5018981AA
S11308A080688EBD80E00E94AE010E94A901898308
S11308B00E94A70189810F90DF91CF9108951F9322
S11308C0CF93DF931F92CDB7DEB7182F69830E94B1
S11308D0B501912F906C9EBD89810E94AE010E944A
S11308E0A9010F90DF91CF911F910C94A7018CB5B2
S11308F08F7B8CBD229A2398219A209A8CB5806193
S11309008CBD8CB58F778CBD8CB5877F8CBD8CB539
S11309108B7F8CBD8CB580648CBD8DB581608DBDA5
S11309208CB58C7F8CBD0895209117029091220282
S113093021112FC081112DC081E0809317022091D5
S1130940060220931602292F217020933A02209147
S11309500002309101023093150220931402209179
S1130960210220931302292F21708227967EE82FDB
S1130970F0E0EE0FFF1FEE5FFD4F208131813093D9
S1130980010220930002982B9093220282E10C949E
S1130990FE0190FF02C09B7F01C09D7F90932202C5
S11309A00895CF93DF93D82FC62F80918002813092
S11309B061F028F0823099F0833019F1E2C0DD2330
S11309C009F425C10E94C901ECC0D11120C1609372
S11309D00A088CEB860F823008F0D3C0E4C0D11132
S11309E0D0C06093840280912103909122030E94DD
S11309F0E502909322038093210383E08093800295
S1130A0006C1809191038F3F09F4BBC0DD2309F433
S1130A1054C0823008F4B5C0E0910008EE2311F010
S1130A20E15001C0E2E0AE2FB0E0A050B84F129602
S1130A302C9130E0322F2227EE2311F0E15001C037
S1130A40E2E0F0E0E050F84F8281282B809121030E
S1130A50909122032817390709F093C080E00E947F
S1130A60940480910A088434A9F420918402E091CA
S1130A7011039091120381E08E0F863008F4BDC0FB
S1130A80992341F0F0E0EF5EFC4F228310921103B2
S1130A900E9435020E94C901809112028D7F8093C9
S1130AA0120280912302882309F4B1C084E0809368
S1130AB08002DF91CF910C942302823008F44CC061
S1130AC0E0910108F0E0E050F84F92818091220219
S1130AD0282F269526952695237030E02130310560
S1130AE021F02230310579F01EC0877E8061809329
S1130AF02202992311F080E001C085E08093210255
S1130B009093060210C0809121028F3260F4E0912C
S1130B100002F0910102E80FF11D908380912102FF
S1130B208F5F8093210280910108E82FF0E0E0506C
S1130B30F84F62818F5F833018F48093010802C0FC
S1130B401092010880912103909122030E94E502F2
S1130B50909322038093210380910008E82FF0E012
S1130B60E050F84FC2838F5F833018F480930008FD
S1130B7002C010920008809191038F5F80939103CB
S1130B8046C00E94C901809112028D7F8093120297
S1130B9081E00E94940480912302811187CFDD2398
S1130BA0B1F181E02BCF80912103909122030E9427
S1130BB0E5029093220380932103C43411F482E06C
S1130BC001C083E0809380029091220290FF04C0D0
S1130BD092FDD7CF946003C091FDD3CF92609093E0
S1130BE0220280912202877E8860809322021092E2
S1130BF021028FEF809306020AC0891709F44ACFB5
S1130C00F0E0EF5EFC4F22838093110341CFDF912C
S1130C10CF910895CF93DF93FC01228130E0322FEE
S1130C2022274181242B25FF15C027743C7C2134C5
S1130C30384881F4FC01C781D0E0DC2FCC278681C1
S1130C40C82B0E94B20221E0C817D90709F020E09E
S1130C50822F01C080E0DF91CF910895CF938FB7A9
S1130C60F89490910702911106C090912402923059
S1130C7011F48FBF0FC08FBFCFB7F89480912402B7
S1130C8081110AC082E080932402109207020E941C
S1130C907704CFBF81E004C0CFBF0E941A0380E075
S1130CA0CF9108958091930290919402892BC1F57C
S1130CB081E090E090930908809308088DE592E024
S1130CC09093940280939302109282021092810274
S1130CD081E0809383028091C00080648093C0008F
S1130CE08091C10080648093C100809181029091C1
S1130CF082029C012F5F3F4F309382022093810236
S1130D00FC01E35AFD4F80819FB7F8948093C6009D
S1130D108091C00080648093C0009FBF80E00895EC
S1130D2085E0089593E8980F923050F49091120260
S1130D3091609093120290E28927809390038DE74B
S1130D4080935D020C9452069FB7F894809112022E
S1130D508E7F809312028EE780935D029FBF0C9476
S1130D6052062F923F924F925F926F927F92AF9270
S1130D70BF92CF92DF92EF92FF920F931F93CF9384
S1130D80DF9320912702222311F015E0DEC0109199
S1130D90A9081530D1F7209105082111F6CFEC01EF
S1130DA00E942E06882389F38CA582FF03C06EA5BA
S1130DB06F7001C060E08091C902681731F06093E0
S1130DC0C902606885E00E945F042A8130E0322F06
S1130DD022278981282B27743C7C21343848A1F4AC
S1130DE086E00E9447048F7190E040918B0220912D
S1130DF07B0230E0240F311D43E0359527954A9559
S1130E00E1F72817390744F169E082E00E945F04A2
S1130E100E94BA022B013C016E01EFEFCE1ADE0AEA
S1130E2008818CA52EEFB22EB00E84FF09C09E015E
S1130E302C193D098BEF800FA82EA20EBA1802C000
S1130E40AB2CB12C81E00E9447048F71893039F0BA
S1130E5066E082E00E945F040E947A0376C08FB746
S1130E60F8942F9AE0908400F09085008FBF0E9440
S1130E70A5010E94B50180E68EBD802F0E94AE01BF
S1130E8086013A2CF80181918F010E94AE013A94B7
S1130E903110F8CFAA942A2D30E08601020F131FD7
S1130EA02F5F3F4F2C0D3D1D1701F2EA2F0E311C11
S1130EB024183508C101AA2797FDA095BA2F12015D
S1130EC02301280E391E4A1E5B1EBB2041F1F80186
S1130ED08181C280D12CE12CF12C7601DD24CC243B
S1130EE0F82A8481C82A8381D82AD701C6018219A5
S1130EF09309A409B50984839383A283B183A22EA1
S1130F003901F30181913F010E94AE01862D8A19B6
S1130F108B11F7CFF801C482D382E282F1820E945E
S1130F20A9010E94A70166E082E00E945F048CA5EB
S1130F3082608CA728A639A64AA65BA686E0809381
S1130F40A90884E08093270210E0812FDF91CF91DC
S1130F501F910F91FF90EF90DF90CF90BF90AF90D3
S1130F607F906F905F904F903F902F900895FF92E5
S1130F700F931F93CF93DF9300D0CDB7DEB71FB786
S1130F80F89420918A02211125C02091330230E087
S1130F90F901EE0FFF1FEE59FD4F0081F1808083B0
S1130FA09183C90101966CE070E00E944B17809315
S1130FB0330290918D03981303C081E080938A02D9
S1130FC08091140881110EC00E94FE0181E080937B
S1130FD0140808C089839A830E94F6018981082F26
S1130FE09A81F92E1FBF802F9F2D0F900F90DF91B4
S1130FF0CF911F910F91FF9008952F923F924F929E
S11310005F926F927F928F929F92AF92BF92CF9294
S1131010DF92EF92FF920F931F93CF93DF931F9270
S1131020CDB7DEB790E08331910510F00C94351103
S1131030FC01EA59FF4F0C9481178FB7F894209163
S1131040330290918D03291307C090918A02911164
S113105003C01092140887C08FBFA0918D03B0E025
S1131060AA0FBB1F9D012E593D4F7901D901ED9166
S1131070FC91308143EF430F4093250353856781EF
S11310802681818590E0982F88277085872B74812D
S11310906F01B5E0CB0ED11C17E0D6011D921A9555
S11310A0E9F7808797837287D701ED91FC914D31E1
S11310B010F00C94D41090E0962B268395835387DC
S11310C0418780911D0290911E02892B11F00C948E
S11310D0D4108FB7F89495E090931B0210921A02E3
S11310E0F0932002E0931F0242E050E050931E026E
S11310F040931D021092180210921902315030933D
S11311001C028FBF8FB7F89490918A039A3019F418
S11311108FBF0C94D0108FBF9FB7F8948091980222
S1131120811106C081E0809398021092990201C057
S113113080E09FBF882311F40C94D0100E943502E4
S11311409FB7F89422B182E0A7C08FB7F89420919A
S113115028029091C008291309C09091320291117C
S113116005C010922B028FBF0C9435118FBFE091F4
S1131170C008F0E0EE0FFF1FE750FD4FC080D180A4
S1131180F60141855581E680878190E0982F882774
S11311902085822B13852181207330E021643868F7
S11311A0218328E8228314A6808791874D3108F093
S11311B078C0F12CF52A435F40830E94B202D60125
S11311C018968C93189719969C9319979FB7F8942F
S11311D080910D029FBFF601848315821387E682F6
S11311E0F7828FB7F89490912502911121C092E073
S11311F09093250210920A028FBF8FE31A968C9364
S11312001A97809126028F5F8093260213968C93FF
S113121080917E02811143C0D0928C03C0928B03D3
S113122081E080937E02109288030E941D0230C0E8
S11312308FBFD0926102C09260021FB7F894809170
S1131240250281110AC081E08093250210920A02CE
S113125083E00E94FE011FBF1BC080917A028F3F72
S113126099F4E0910B02EE2379F080910C028F3F08
S113127019F410920C0204C0F0E0E658FD4F1082FD
S113128010920B0280E001C085E01FBF811109C0EC
S11312909FB7F89422B184E0822782B97FC70E9465
S11312A048030E94F60181E095C380918703823050
S11312B009F064C01092870380919502823009F48A
S11312C03FC0833009F448C0813009F057C02091F1
S11312D0840030918500C0901B03D0901C03C21A77
S11312E0D30A90917F02903841F410927F0290913A
S11312F07E02923009F042C02AC097FF04C01C1439
S11313001D040CF455C7E0907C02F0907D0280919E
S1131310400281114DC7C7010E94B106182F8111E7
S113132048C7F70184A58E7F84A781E0809340029B
S1131330F092B008E092AF0883E080937F021EC071
S11313401092400210927F021092190884E0809358
S11313507E020E941D0212C09091A908923019F4D5
S11313608093A90809C080912702863029F410923D
S1131370270281E00E9447040E9420028091050810
S1131380882309F4B9C08091A908813009F4B4C054
S11313900E942E06882309F4AFC08FB7F894E0901A
S11313A08E02F0908F028FBF109205088FE00E948A
S11313B04704182F809127028B7F833031F485E016
S11313C08093A90888E08093270212FF4BC0809184
S11313D02702863011F4109227028091270281118E
S11313E041C01430A9F586E00E9447048F719091A2
S11313F07B02292F26952695921B980F90937B02AA
S1131400E0913802F091390294A59B7F986094A7EB
S113141086A70E94BA02970127503109A901461BE9
S1131420570B6A01EE24D7FCE094FE2CE0913802BD
S1131430F091390224A5226024A7AB01BC014C0D14
S11314405D1D6E1D7F1D40A751A762A773A707C02E
S1131450E0913802F091390284A5857F84A785E064
S11314608093270213FF48C080912702843091F5AE
S113147085E08093A908109227028091400283306E
S113148019F41092400238C0E091AF08F091B0080E
S1131490828190E0982F88272181822B85FF0EC0BE
S11314A087749C7C8134984849F4878190E0982F14
S11314B088272681822B019609F0C6C61092400225
S11314C010927F021092190884E080937E020E9499
S11314D01D0212C0853081F486E00E944704909179
S11314E08B028F71292F26952695921B980F909326
S11314F08B0289E08093270280912702882309F4D4
S113150043C2893009F0B2C10E94B50180E28EBDA8
S11315100DB407FEFDCF8EB51EBC0DB407FEFDCF86
S11315200EB58DEF800F873208F06CC01EBCE091C1
S11315303802F09139026F013FEFC31AD30A0083D6
S11315400250073010F4902E02C0F7E09F2E56018F
S1131550192DE12CF12C80E00E94AE01D5018D9370
S11315605D01682FC7010E94B7017C01115099F7F2
S11315704FEF490D50E04F5F5F4F9601240F351F29
S1131580E0913802F091390281818770823029F428
S1131590809140028230A1F50BC09FB7F89481E09E
S11315A04091C605433008F080E09FBF882341F195
S11315B009196901020F80E00C1559F00E94AE016F
S11315C0F60181936F01682FC7010E94B7017C0166
S11315D0F2CF0E94AE01682FC7010E94B7018C01AF
S11315E080E00E94AE01682FC8010E94B7017C010F
S11315F00E94A901E0913802F091390285A705C043
S11316000E94A901EE24E394F12C0E94A70115E0A5
S11316101093A90810922702EF2809F0ACC1C090DA
S11316203802D0903902D60111968C9111978770A7
S113163090914002823031F5923009F012C1E0916C
S1131640AF08F091B00813969C918381981309C157
S113165080916F008D7F80936F0010928703E091DB
S1131660AF08F091B00884A5816084A7109240026D
S113167010927F021092190884E080937E020E94E7
S11316801D02EFC0911119C0C6010E940A068823E9
S1131690A1F01093CA0282E08093CB021092CC0294
S11316A0F60183818093CD028AEC92E00E94B10618
S11316B0811103C083E080934002E0908400F090A5
S11316C08500C6010E940A06882321F0F4EEEF1A71
S11316D0FCEFFF0AF0921C03E0921B03809184004C
S11316E0909185009701281B390BC901181619061A
S11316F0B4F420917F0221110FC02091870321119E
S11317000EC021E020939502209387030E94680273
S113171080E880937F0203C0206820937F02D60173
S113172019964C91199750E0542F442718968C9190
S1131730482B2091AD08E22FF0E0DF01AA0FBB1F78
S1131740AA54B74F6D917C919091B30864177507B3
S113175081F0A6EBB8E0E8E5F2E020E030E080E0DC
S113176060E0ED90FD90E416F50679F42093AD0861
S1131770F901E85AFD4F8081891709F441C09F5F40
S11317809093B308908360E822C07191192F171BBE
S1131790611710F4822F612F2F5F3F4F25303105E1
S11317A001F78093AD08282F30E0F901EE0FFF1FF9
S11317B0EA54F74F518340839F5F9093B308F90134
S11317C0E85AFD4F9083F901E55CFD4F108280914A
S11317D0B308982F9F779F3719F02091AD0810C058
S11317E06F37D8F3E8E5F2E0382F307825E02E0F94
S11317F090819F679813308331962E13F9CFEDCFE4
S1131800D60113969C91E22FF0E0DF01A55CBD4F59
S11318108C91E953FA4F80FF04C08081981303C070
S113182020C081608C9390831FB7F8948091C60583
S11318308330B0F4E0911308E80FE33008F0E3508C
S1131840F0E0EE0FFF1FE45DFD4FE080F180D182F8
S1131850C0828F5F8093C60586E00E94FE01670107
S11318601FBFD0923902C092380285C09FEF980FF3
S1131870933008F06DC09EEF980F9230C0F5109130
S1131880A908113089F49091870391110DC00E9429
S1131890A50183E080939502109387038BE293E084
S11318A00E94680282E03CC0833009F51330F9F4E9
S11318B00E942E068823D9F08FE00E94470480916D
S11318C0810080648093810080E286BB80916F00F8
S11318D0806280936F0060915F02606688E00E947E
S11318E05F0466E082E00E945F0484E019C0809196
S11318F0270281508230B0F48091A908853091F498
S11319000E942E06882371F063E082E00E945F0447
S113191080916F008F7D80936F001092050883E0A3
S11319208093A90880912702813041F49091A908FD
S1131930933009F52F9A8093A90806C08230D9F410
S11319408091A9088330B9F488E08093270213C0FA
S1131950873089F40E942E06882369F060915F0223
S1131960606688E00E945F048091A908853061F771
S113197084E08093A90880912702883029F410928A
S1131980270284E00E94FE018091270281111DC07C
S11319908091A9088530C9F480910508811115C08A
S11319A080914002811111C080917F0281110DC08C
S11319B080918703811109C080917E02823029F4CD
S11319C081E080937E020E941D0280912702811192
S11319D04CC48AE00F90DF91CF911F910F91FF903B
S11319E0EF90DF90CF90BF90AF909F908F907F90BB
S11319F06F905F904F903F902F900C94FE018FB7A3
S1131A00F89492E0909325028FBF80910A0281118D
S1131A102CC4E0916002F09161028FE3828780918F
S1131A2026028F5F80932602838380917E02811138
S1131A30EDC3F0938C03E0938B0381E080937E02EB
S1131A40109288030F90DF91CF911F910F91FF9017
S1131A50EF90DF90CF90BF90AF909F908F907F904A
S1131A606F905F904F903F902F900C941D02809147
S1131A707E0210927E02853019F410923202F5C370
S1131A809AEF980F923078F5F0C300917E02E090BF
S1131A908B03F0908C03013059F5909188039F5F7C
S1131AA090938803963020F580917F02811115C0B0
S1131AB010918703111111C0F0927D02E0927C0213
S1131AC000937F028BED91E10E94910200939502B5
S1131AD0009387030E94680201C015E0109319085F
S1131AE0111104C083E080937E02BFC382E0FBCF68
S1131AF010927E0260911908F70182858F3309F0F4
S1131B00B4C369830E9448036981C70186C3E09115
S1131B101308F0E0EE0FFF1FE45DFD4F008111811B
S1131B208FBFD8018C919EEF980F993008F457C05D
S1131B301A969C911A979F3309F03CC08B508230BF
S1131B4008F44DC01796EC901797F12CFE2CEE2458
S1131B5016968C91E82ABFEFEB16FB0629F52FB7F2
S1131B60F8942FBFC8010E94B7073FB7F89420919B
S1131B701308E22FF0E0EE0FFF1FE45DFD4F8083BA
S1131B80918381E0820F833060F580931308809104
S1131B90C60581508093C6053FBF8FB7F8949091D6
S1131BA0C6059111B4CFDFCA0E94B202E816F90645
S1131BB0C9F6D5CFD8011796EC901797F12CFE2CC7
S1131BC0EE2416968C91E82A0E94B202E816F906D1
S1131BD019F0EF20E09419F48FB7F8948FBFC8017F
S1131BE0C4CF10921308D3CFEFB7F8948091860234
S1131BF090918702A0918802B09189021C012D0165
S1131C009C01A20160E070E080E090E003E00E94AB
S1131C108A1751016201E12CF12C00E010E00E94CE
S1131C20C11759016A017B01F82F192F03E00E94A3
S1131C308A170F2F0E94C11759016A017B01F82FDF
S1131C40192F03E00E948A170F2F0E94C117590110
S1131C506A017B01F82F192F03E00E948A170F2FC6
S1131C600E94C11759016A017B01F82F192F03E063
S1131C700E948A170F2F0E94C11701E00E948A1741
S1131C8029013A0100E20E94A51749015A01D30132
S1131C90C201B695A79597958795880E991EAA1E99
S1131CA0BB1EB7FE07C0E894B7F8FFEF8F1A9F0A70
S1131CB0AF0ABF0A8092860290928702A09288029D
S1131CC0B0928902EFBF8FB7F89490928F038092FD
S1131CD08E0349CA80915E02811141C040910B0874
S1131CE050910C0860910D0870910E082FB7F8946C
S1131CF0C0901508D0901608E0901708F0901808C6
S1131D008091340290913502A0913602B09137024D
S1131D108C0D9D1DAE1DBF1D2FBF40930B0850930E
S1131D200C0860930D0870930E0810925E022FB792
S1131D30F89431E030938502809334029093350215
S1131D40A0933602B09337024093150850931608B7
S1131D5060931708709318082FBF0E94AF030E9466
S1131D60470289E037CE0E9447028FB7F894109259
S1131D708502F9C98FB7F8941092860310928503EF
S1131D801092A8081092A70810922A021092290211
S1131D9010921A0310921903E6C91FB7F89482E04F
S1131DA0809324020E9477041FBF8091070281114F
S1131DB05CC28091A90881114CC00EEF11E0C801EA
S1131DC0019701960197E1F716980E94A50186E014
S1131DD090E0019701960197E1F7169A60E083E09D
S1131DE00E945F0468E082E00E945F04C8010197DA
S1131DF001960197E1F76DE48EE00E945F0467ECC1
S1131E0089E00E945F0460E885E00E945F0410920C
S1131E10C9028AE180935F026AE788E00E945F0456
S1131E202F9A81E08093A9080F90DF91CF911F91A1
S1131E300F91FF90EF90DF90CF90BF90AF909F9065
S1131E408F907F906F905F904F903F902F900C9465
S1131E507A030F90DF91CF911F910F91FF90EF9034
S1131E60DF90CF90BF90AF909F908F907F906F90B6
S1131E705F904F903F902F900C9420022FB7F894CE
S1131E801092AC0880918A0398EF980F923050F426
S1131E9010928A03E0912603F0E0EE0FFF1FEA564A
S1131EA0FD4F10822FBF923018F53FB7F8949091F0
S1131EB012089F5F9093120890919202933489F4D0
S1131EC08091120390911103981741F08F5F86302F
S1131ED018F48093120302C01092120380E020E0F1
S1131EE005C021E0883009F420E081E03FBF04C050
S1131EF08111A8C120E080E03FB7F89490912302BB
S1131F003FBF992339F09FB7F8943AE030938A039E
S1131F109FBF3FC04FB7F8943091960290919802BA
S1131F204FBF6FB7F89450911103409112036FBFE4
S1131F30541709F131111FC03FB7F89492E0909300
S1131F4096025FB7F89440911103909112035FBF1A
S1131F50491739F0E0911203F0E0EF5EFC4F9281F3
S1131F6001C090E09093970293E4909392021092B0
S1131F7026033FBF0CC09150923058F49FB7F89499
S1131F8035E43093920231E0309326039FBF01E0A1
S1131F9001C000E0882341F08FB7F89420931A021F
S1131FA08FBF81E10E94FE011FB7F89480918A03DC
S1131FB08A3021F40E9423021FBF57C11FBF002390
S1131FC009F453C18FB7F8941092B2081092B10873
S1131FD01092900291E090938A038FBF0E94A4060E
S1131FE0882309F442C18FB7F89499E090938A0347
S1131FF08FBF0F90DF91CF911F910F91FF90EF90C2
S1132000DF90CF90BF90AF909F908F907F906F9014
S11320105F904F903F902F900C9435028091C100B7
S11320208F7B8093C1008091C1008F778093C10022
S113203010928903109283028091C100886080937A
S1132040C1008091C10080618093C1008091C10072
S113205080688093C1008FB7F89410928A0310921D
S113206080028FBF10928A0200C180E1B3CC8091BC
S1132070C100877F8093C1008091C1008F7E8093CF
S1132080C100F3C010921E0210921D029FB7F89473
S113209080911A029FBF90911902911183E040919F
S11320A01F0250912002909118029111DEC08111FB
S11320B07BC09FB7F89480918D03E82FF0E0EE0F7A
S11320C0FF1FEE59FD4F208131814217530769F4F8
S11320D08F5F8C3018F480938D0302C010928D03AF
S11320E080918A02811110928A029FBF5FC09FB7BC
S11320F0F8948091160200911402C0901502109178
S11321003A029FBF811135C0DFB6F8948091320244
S1132110811128C080912802E82FF0E0EE0FFF1F04
S1132120E750FD4FE080F1800083C1828F5F8C30E7
S113213018F48093280202C0109228029091280279
S11321408091C008981303C081E08093320280918B
S11321502B0281110BC081E00E94FE0181E080937B
S11321602B0204C00E94F601E02EFC2CDFBE0E2DD3
S1132170CF2C9FB7F894E12FF0E0EE0FFF1FEE5F36
S1132180FD4F0083C18280912202112311F08B7FC5
S113219001C08D7F80932202109217029FBF65C0F9
S11321A010921E0210921D020E94F60180E012CCD1
S11321B015E090917F02892F8F77813081F4907898
S11321C0926090937F0280E198E00E94910221E066
S11321D020939502209387030E946802CFC897FF3B
S11321E00FC01C141D0464F480E880937F0281E016
S11321F08093950280938703C6010E94680202C0FF
S113220010927F021093190881E0A1C80E9448032C
S113221065E080916002909161020F90DF91CF910F
S11322201F910F91FF90EF90DF90CF90BF90AF90F0
S11322309F908F907F906F905F904F903F902F90E2
S11322400C94F30200E0B0CE80918703811136C96B
S113225012E01093950281E08093870389E993E06B
S11322600E9468021093400247C90F90DF91CF91FA
S11322701F910F91FF90EF90DF90CF90BF90AF90A0
S11322809F908F907F906F905F904F903F902F9092
S113229008958FB7F89408958FBF08951F920F92F1
S11322A00FB60F9211240BB60F920F931F932F9317
S11322B03F934F935F936F937F938F939F93AF93CA
S11322C0BF93EF93FF930E94ED018091B30090E0E0
S11322D001964091410250914202609143027091F3
S11322E044028A019B01080F191F211D311D00930F
S11322F041021093420220934302309344027894A3
S11323000E94AF03FF91EF91BF91AF919F918F9185
S11323107F916F915F914F913F912F911F910F91F9
S11323200F900BBE0F900FBE0F901F9018951F9229
S11323300F920FB60F9211240BB60F922F933F9367
S11323404F935F936F937F938F939F93AF93BF93B9
S1132350EF93FF930E94ED01FF91EF91BF91AF9135
S11323609F918F917F916F915F914F913F912F91A9
S11323700F900BBE0F900FBE0F901F9018951F92D9
S11323800F920FB60F9211240BB60F922F933F9317
S11323904F935F936F937F938F939F93AF93BF9369
S11323A0EF93FF932EB5E0918503F0918603309768
S11323B039F08091190390911A03E80FF91F2083D3
S11323C08091190390911A03019690931A038093B4
S11323D019038CB58F778CBD8091190390911A03E2
S11323E06091290270912A028617970708F03FC06E
S11323F02091A7083091A808E0918503F091860305
S1132400AC01465F5F4F6417750708F4AB01415098
S1132410510984179507C8F42115310549F0D901EC
S1132420A80FB91F6C916EBD0DB407FEFDCF04C09B
S11324301EBC0DB407FEFDCF6EB5309721F0DF0151
S1132440A80FB91F6C930196E4CF4CB540684CBDFE
S11324502115310531F0F901E80FF91F20812EBD56
S113246001C01EBC90931A038093190311C01092EB
S11324708603109285031092A8081092A708109260
S11324802A021092290210921A03109219038EB58F
S1132490FF91EF91BF91AF919F918F917F916F9138
S11324A05F914F913F912F910F900BBE0F900FBEF4
S11324B00F901F90189578941F920F920FB60F9259
S11324C011240BB60F922F933F934F935F936F9307
S11324D07F938F939F93AF93BF93EF93FF938091D9
S11324E06F008D7F80936F0078948FB7F8949091EC
S11324F08703913019F492E0909387038FBF0E9471
S11325002002FF91EF91BF91AF919F918F917F91A5
S11325106F915F914F913F912F910F900BBE0F9050
S11325200FBE0F901F90189578941F920F920FB6BC
S11325300F9211240F900FBE0F901F90189578944E
S11325401F920F920FB60F9211240F900FBE0F908F
S11325501F90189578941F920F920FB60F92112422
S11325600BB60F922F933F934F935F936F937F9389
S11325708F939F93AF93BF93EF93FF93E6E8F0E0BD
S113258080819181208131818FB7F89430938F02BB
S113259020938E0291E0909305088FBF0E94200241
S11325A0FF91EF91BF91AF919F918F917F916F9127
S11325B05F914F913F912F910F900BBE0F900FBEE3
S11325C00F901F90189578941F920F920FB60F9248
S11325D011242F938F939F93AF93BF932FB7F894A6
S11325E080911D0390911E03A0911F03B0912003BD
S11325F00196A11DB11D80931D0390931E03A0930A
S11326001F03B09320032FBFBF91AF919F918F9170
S11326102F910F900FBE0F901F9018951F920F923D
S11326200FB60F9211240BB60F922F933F934F9333
S11326305F936F937F938F939F93AF93BF93EF9326
S1132640FF938091C00087FF4AC06091C60020912B
S11326502303309124032115310551F18091AA08F7
S11326609091AB08AC014F5F5F4F5093AB08409320
S1132670AA08F901E80FF91F60832091AA08309194
S1132680AB088091B4089091B5082817390738F140
S11326901092240310922303809189038330F9F06C
S11326A08091C1008F778093C1001092890317C075
S11326B06E3719F460E081E010C0809112026D372A
S11326C021F48260809312020AC081FF05C08D7FCD
S11326D08093120280E2682780E00E94D104FF9177
S11326E0EF91BF91AF919F918F917F916F915F9186
S11326F04F913F912F910F900BBE0F900FBE0F90F3
S11327001F90189578941F920F920FB60F92112470
S11327100BB60F92EF92FF920F931F932F933F9359
S11327204F935F936F937F938F939F93AF93BF93D5
S1132730CF93DF93EF93FF93809181029091820274
S1132740209108083091090882179307D0F420914A
S1132750930230919402AC014F5F5F4F5093820219
S113276040938102F901E80FF91F80819FB7F89423
S11327708093C6008091C00080648093C0009FBF96
S1132780B2C010929402109293021092830280912C
S1132790C1008F7B8093C1000FB7F894809112021F
S11327A0982F9170F92E80FF0AC08E7F80931202B9
S11327B08091900380935D020E94520693C0E09141
S11327C08A038E2F90E0FC013197E830F10508F080
S11327D084C0E758FF4F0C948117809192020E94A5
S11327E09206182F83E080938A03609192020AC0B4
S11327F0809112080E949206182F83E080938A0326
S1132800609112088091B1089091B2080E94E5028B
S11328109093B2088093B1085EC0E0912603F0E083
S1132820EE0FFF1FEA56FD4F81810E949206182F7A
S1132830E0902603CE2DD0E0CC0FDD1FFE01EA563A
S1132840FD4F61818091B1089091B2080E94E50228
S11328509093B2088093B108909190029F5F9093F7
S1132860900281E0E8121EC080911B02E0911F02D9
S1132870F0912002E80FF11D20818F5F80931B02ED
S113288030911C02381720F482E08093980201C032
S1132890F22ECA56DD4F8881823021F09F3F11F01D
S11328A0F98219C084E012C08091B1080E94920696
S11328B0182F85E00BC08091B2080E949206182F51
S11328C086E004C00E94A406182F87E080938A0340
S11328D002C088E003C0112329F089E080938A03B1
S11328E00E9435020FBFFF91EF91DF91CF91BF910D
S11328F0AF919F918F917F916F915F914F913F9194
S11329002F911F910F91FF90EF900F900BBE0F909E
S11329100FBE0F901F9018951F920F920FB60F9233
S113292011248F938091C80087FD8091CE008F91F0
S11329300F900FBE0F901F90189578941F920F92CE
S11329400FB60F9211240F900FBE0F901F90189581
S113295078941F920F920FB60F9211240F900FBE0E
S11329600F901F90189578941F920F920FB60F92A4
S113297011240F900FBE0F901F90189578941F92FA
S11329800F920FB60F9211240F900FBE0F901F904D
S1132990189578941F920F920FB60F9211248F936B
S11329A09F9380919600909197009F918F910F90A3
S11329B00FBE0F901F90189578941F920F920FB628
S11329C00F9211242F938F939F932FB7F894809194
S11329D08C0290918D02019690938D0280938C02CB
S11329E02FBF9F918F912F910F900FBE0F901F902B
S11329F01895CFB7F89414BE0FB6F894A8958091A3
S1132A006000886180936000109260000FBE43E113
S1132A1050E06FEF70E085E492E00E94CA178FEFF8
S1132A2080930F088093AE0856985E9854985C98EB
S1132A3080916F008F7D80936F00209A0E94A70180
S1132A40279A0E94A5010E9A169A8AE992E0909319
S1132A5039028093380210928B028AE580937B02BC
S1132A6081E08093810080E28093B60083E08093CC
S1132A70B10020918400309185008AE74091840060
S1132A80509185004217530708F481509A0181112F
S1132A90F5CF8091B2009091B2009817E1F32091A4
S1132AA08400309185008091B2009091B200981713
S1132AB0E1F380918400909185004096821B930BF2
S1132AC055E0969587955A95E1F790931108809370
S1132AD010081092B100109281001092B60010926A
S1132AE0B20010928500109284008FEF87BB86BBE2
S1132AF08091B6008571E1F70A9A099A089A129AA8
S1132B00119A109A18B88FEF87B90C9814981092EC
S1132B1095001092940080917100816080937100FF
S1132B2080919100887F826080939100109285004B
S1132B301092840080916F00816080936F00809177
S1132B408100887F8260809381000E94DB01D82FFE
S1132B508F3F19F00E94FD07F8CF02E016E0609164
S1132B60100870911108CB01A0E0B0E0BC01CD01C8
S1132B702CE0660F771F881F991F2A95D1F7C12C67
S1132B8031EED32EE12CF12CA70196010E945F17A0
S1132B90215031092093C4003093C5000093C00034
S1132BA01093C2001092C100609110087091110836
S1132BB0CB01A0E0B0E0BC01CD014CE0660F771F73
S1132BC0881F991F4A95D1F7A70196010E945F17A4
S1132BD0215031092093CC003093CD000093C800DC
S1132BE01093CA001092C90084E490E090930708FF
S1132BF08093060810929602109298028AE08093BD
S1132C008A0310929002109292021092120810926B
S1132C10B2081092B1081092AC08109226030E94D8
S1132C20C9011092120310921103D09391020E94D1
S1132C301A038091B60080628093B6008091B6003A
S1132C4081FDFCCF82E08093B0008091B60080FDCE
S1132C50FCCF83E08093B1008091B60083FDFCCF6C
S1132C6086EE8093B3008091700082608093700040
S1132C700E94AF038091100290911102AC014F5F4A
S1132C805F4F60E070E04093860250938702609348
S1132C908802709389022AE138E030932D02209350
S1132CA02C0229E438E030932F0220932E0228E7E7
S1132CB038E030933102209330028295807F8093F4
S1132CC026028FEF80937A028FEF9FEF9093B708DD
S1132CD08093B6089093B9088093B8089093BB0882
S1132CE08093BA089093BD088093BC089093BF0862
S1132CF08093BE080E94DB018F3F19F00E94FD07FC
S1132D00F9CFCFBF78948CEC95E0E2E6F2E08193C2
S1132D1091938F9622E0EA37F207C9F710928D0358
S1132D20109233021092140881E080938A0282E99F
S1132D3093E0E9EFF2E0819391938F9623E0E13100
S1132D40F207C9F71092C0081092280210922B02C1
S1132D5081E08093320280917E02811118C08091BB
S1132D602702811114C08091A908813029F480912F
S1132D70870381110CC003C0853009F475C083E05A
S1132D80809327020E94200285E080937E028FB701
S1132D90F89490918A039A3041F090918002943093
S1132DA021F08FBF10928A0204C08FBF8EE00E9470
S1132DB0FE01CFB7F8940E94DB018F3F09F050C0A9
S1132DC080917000837089F08091B6008A71E1F778
S1132DD08091B3009091B200891B8C3040F08091B7
S1132DE0B200853F20F483E003C085E001C082E0A7
S1132DF0E0916E00E670E9F490916F009E72E1F448
S1132E00E0917100EE72A9F40CB407FC15C0909126
S1132E10C100987189F4E091C900E87151F490916E
S1132E20BC0092FD09C090917A0097FD04C0E5E0D2
S1132E3003C0E0E001C0E1E093B78E1708F4E82F87
S1132E40F0E0EE5FFE4F8491E92FE07FE160E82B34
S1132E50E3BF78948895F89483B78E7F83BFABCF14
S1132E60CFBF0E94FD07A5CF1092320290CFAA1BBC
S1132E70BB1B51E107C0AA1FBB1FA617B70710F061
S1132E80A61BB70B881F991F5A95A9F78095909593
S1132E90BC01CD01089597FB072E16F4009407D0CA
S1132EA077FD09D00E94371707FC05D03EF49095B2
S1132EB081959F4F0895709561957F4F0895A1E284
S1132EC01A2EAA1BBB1BFD010DC0AA1FBB1FEE1FA0
S1132ED0FF1FA217B307E407F50720F0A21BB30BEB
S1132EE0E40BF50B661F771F881F991F1A9469F767
S1132EF060957095809590959B01AC01BD01CF01C3
S1132F000895EE0FFF1F0024001C0BBE0790F691DE
S1132F10E02D09940F93083090F0982F872F762F87
S1132F20652F542F432F322F22270850F4CF220F1E
S1132F30331F441F551F661F771F881F991F0A954B
S1132F40B2F70F91089597FB10F8169400080F93A9
S1132F50083098F00850232F342F452F562F672F11
S1132F60782F892F902DF4CF059497958795779591
S1132F70679557954795379527950A95AAF70F9121
S1132F8008952A193B094C095D096E097F09800BD4
S1132F90910B0895DC0101C06D9341505040E0F75E
S1092FA00895F894FFCF30
S1132FA6270327035603FFFFFFFFFFFFFF2201004E
S1052FB6010014
S9030000FC
