:100000000C9489010C94A8010C94A8010C94A801EB
:100010000C94A8010C94A8010C94A8010C94A801BC
:100020000C94A8010C94A8010C94A8010C94A801AC
:100030000C94A8010C94BE220C94A8010C940723E4
:100040000C9444220C94BE210C9400220C9439226E
:100050000C947D220C94A8010C94A8010C94A80186
:100060000C942F230C94CB230C94A8010C943F24C4
:100070000C94A8010C94A8010C94A8010C9486255A
:100080000C9465250C9470250C947B250C94992573
:100090000C9449250C94A8010C945A250C94A801A1
:1000A0000C94A8010C94A8010C94A8010C94A8012C
:1000B0000C94A8010C94A8010C94A8010C94A8011C
:1000C0000C94A8010C94A8010C94A8015016731666
:1000D000ED1673175119C919111AD81A7E1A911AE7
:1000E000DE1ABF1D961EBF1ED41EF91E081FC61F96
:1000F000EA1FEC1FF71F33202A205520AA24B5241D
:10010000CA24112518251F2526252D2500020E0697
:100110000C0400002110422063308440A550C660CA
:10012000E770088129914AA16BB18CC1ADD1CEE1B4
:10013000EFF13112100273325222B5529442F7722B
:10014000D662399318837BB35AA3BDD39CC3FFF304
:10015000DEE36224433420040114E664C774A4443B
:1001600085546AA54BB528850995EEE5CFF5ACC554
:100170008DD55336722611163006D776F66695560B
:10018000B4465BB77AA719973887DFF7FEE79DD7A4
:10019000BCC7C448E5588668A7784008611802289B
:1001A0002338CCC9EDD98EE9AFF9488969990AA9F4
:1001B0002BB9F55AD44AB77A966A711A500A333A6B
:1001C000122AFDDBDCCBBFFB9EEB799B588B3BBB44
:1001D0001AABA66C877CE44CC55C222C033C600CFB
:1001E000411CAEED8FFDECCDCDDD2AAD0BBD688D94
:1001F000499D977EB66ED55EF44E133E322E511E4B
:10020000700E9FFFBEEFDDDFFCCF1BBF3AAF599FE3
:10021000788F8891A981CAB1EBA10CD12DC14EF183
:100220006FE18010A100C230E320045025404670E9
:100230006760B9839893FBA3DAB33DC31CD37FE314
:100240005EF3B1029012F322D23235421452776239
:100250005672EAB5CBA5A89589856EF54FE52CD5E4
:100260000DC5E234C324A014810466744764245489
:100270000544DBA7FAB79987B8975FE77EF71DC7F4
:100280003CD7D326F2369106B016576676761546D9
:1002900034564CD96DC90EF92FE9C899E9898AB944
:1002A000ABA94458654806782768C018E108823829
:1002B000A3287DCB5CDB3FEB1EFBF98BD89BBBAB54
:1002C0009ABB754A545A376A167AF10AD01AB32A79
:1002D000923A2EFD0FED6CDD4DCDAABD8BADE89DA4
:1002E000C98D267C076C645C454CA23C832CE01CC9
:1002F000C10C1FEF3EFF5DCF7CDF9BAFBABFD98F34
:10030000F89F176E367E554E745E932EB23ED10E18
:10031000F01E11241FBECFEFD1E2DEBFCDBF19E02A
:10032000A0E0B2E0EEE6FCE500E00BBF02C0079003
:100330000D92AC33B107D9F71CE1ACE3B9E001C0D1
:100340001D92AE3EB107E1F70E94B6250C94352E02
:100350000C9400002F980895289A08959FB7F89458
:100360008091BE0F8F5F8093BE0F9FBF08950DB425
:1003700007FEFDCF8EB50895982F0DB407FEFDCF73
:100380008EB59EBD0895289808958627082E8295DB
:10039000807F8025092E982F82958F70082686955C
:1003A00098278927880F880F880F80250895FC01DA
:1003B000CB014383528361839083BA010895FC018A
:1003C00020816181862F90E0A0E0B0E0DC019927D8
:1003D0008827B22B2381822B2281BC01CD01722B75
:1003E0000895E9EEF0E11182108284E08093860B9B
:1003F0001092BD0F1092F4101092940B10921B0FDC
:1004000010921A0F08958091011C8F3F69F0E82F18
:10041000F0E0E850F54F90819093011C9F3F11F45C
:100420009093D01C9FEF908308958091B0008093AB
:10043000B0008091B60081FDFCCF08952FB7F894ED
:100440003091B2008091F00A9091F10AA091F20AE5
:10045000B091F30AB99B0BC04091B3003091B20048
:100460000196A11DB11D840F911DA11DB11DBC01DF
:10047000CD01630F711D811D911D2FBF08959FB781
:10048000F894E82FF0E0E850F54F20812F3F99F4E1
:10049000E091D01CE81779F02091011C2F3F19F44E
:1004A0008093011C04C0F0E0E850F54F80838093F6
:1004B000D01C80E001C085E09FBF0895CF93CFB7E7
:1004C000F8948091CE1C811108C080E10E943F0207
:1004D000811103C081E08093CE1CCFBFCF910895DE
:1004E00082E00C943F028091B30F8A3021F4809116
:1004F000860B843021F081E080935209089582E1D7
:100500000E943F02109252090895FC01208122515D
:10051000E20FF11D24852E3319F582589A4001F51A
:10052000611119C08091A50E8F5F8093A50EE09197
:10053000B30AF091B40A808190E0982F8827218136
:10054000822B20912102309122028217930719F405
:1005500084818F5F84838091970B8D7F8093970B2D
:1005600008952FB7F89480911002909111022FBF37
:10057000089540918400509185006FB7F8942091C0
:100580008400309185002D5F3F4FF901E41BF50B8E
:10059000E817F90718F49C01240F351F21153105C0
:1005A00011F421E030E02150310930938B00209389
:1005B0008A0084E086BB80916F00846080936F0026
:1005C0006FBF08950F931F93CF93DF938C018FB765
:1005D000F894C091B80FD091B90F9E012F5E3E4F95
:1005E0003093B90F2093B80F8FBF84E00E943F0271
:1005F000CE01B8010E942A2A8A5D9E4FDF91CF91D9
:100600001F910F910895E7E2FEE0108239968EE087
:10061000EF36F807D1F78FB7F8941092040E8FBF1A
:1006200008950F931F932FB7F8948091160F909110
:10063000170FA091180FB091190F6091840070915D
:100640008500B09B07C00196A11DB11D609184007B
:10065000709185002FBF25E0769567952A95E1F783
:10066000AB0160E070E03BE0880F991FAA1FBB1F41
:100670003A95D1F78A019B01082B192B2A2B3B2B8A
:10068000C901B8011F910F9108959FB7F89480FF99
:1006900002C0129801C0129A81FF02C0119801C0D5
:1006A000119A82FF02C0109801C0109A9FBF08954E
:1006B0000F931F930E941103AB01BC018091230E85
:1006C0009091240EA091250EB091260E0091000E5F
:1006D0001091010E2091020E3091030E080F191F88
:1006E0002A1F3B1F481759076A077B0730F0081776
:1006F00019072A073B0758F005C0081719072A07EA
:100700003B0770F5401751076207730748F5D90199
:10071000C801841B950BA60BB70B8130E4E09E0744
:10072000A105B10500F18A019B011C5F2F4F3F4FCE
:100730000093230E1093240E2093250E3093260E43
:100740009450A109B1098093000E9093010EA093DB
:10075000020EB093030E80E094E0A0E0B0E013C07E
:1007600080E090E0DC010093230E1093240E209390
:10077000250E3093260E1092000E1092010E10924C
:10078000020E1092030E25E0880F991F2A95E1F7BB
:1007900035E0440F551F3A95E1F7209184003091E0
:1007A00085002D5F3F4FB901641B750B68177907F2
:1007B00018F49C01240F351F2115310511F421E097
:1007C00030E021503109309389002093880082E085
:1007D00086BB80916F00826080936F001F910F91A4
:1007E000089590915C09E92FF0E0EE0FFF1FE154AE
:1007F000F04F4081518120915A09222359F09F5F87
:10080000943119F090935C0902C010925C09215058
:1008100020935A09CA01089590915909E92FF0E0EF
:10082000EE0FFF1FE555F14F40815181209157098F
:10083000222359F09F5F943119F09093590902C017
:1008400010925909215020935709CA010895909197
:100850005609E92FF0E0EE0FFF1FE45AF44F4081F4
:10086000518120915409222359F09F5F943119F04E
:100870009093560902C010925609215020935409B2
:10088000CA010895823031F0833031F0813031F483
:100890000C94F1030C940C040C94270480914E0BDF
:1008A00090914F0B089580915A09882319F00E9466
:1008B000F103F9CF80915709882319F00E940C04A5
:1008C000F9CF80915409882319F00E942704F9CFA9
:1008D0000895E2E1F1E06927660FF11DE60FF11DD1
:1008E000C895982F802D3196C89590250895209110
:1008F00046099091510921112FC081112DC081E02D
:10090000809346092091060220934509292F2170E2
:100910002093B80A209100023091010230934409DB
:10092000209343092091500920934209292F2170D7
:100930008227967EE82FF0E0EE0FFF1FEE5FFD4F5F
:10094000208131813093010220930002982B9093F3
:10095000510985E10C943F0290FF02C09B7F01C0CA
:100960009D7F909351090895CF93DF93D82FC62F81
:100970008091860B813061F028F0823099F08330CD
:1009800019F1E2C0DD2309F425C10E94F101ECC098
:10099000D11120C16093F4108CEB860F823008F0E7
:1009A000D3C0E4C0D111D0C06093940B80911A0FD2
:1009B00090911B0F0E94690490931B0F80931A0F54
:1009C00083E08093860B06C18091BD0F8F3F09F4B1
:1009D000BBC0DD2309F454C0823008F4B5C0E091F7
:1009E000E910EE2311F0E15001C0E2E0AE2FB0E0DB
:1009F000A751BF4E12962C9130E0322F2227EE23C2
:100A000011F0E15001C0E2E0F0E0E751FF4E8281D9
:100A1000282B80911A0F90911B0F2817390709F086
:100A200093C080E00E9477048091F4108434A9F48C
:100A30002091940BE091070F9091080F81E08E0FA9
:100A4000863008F4BDC0992341F0F0E0E95FF04F33
:100A500022831092070F0E945E020E94F101809192
:100A600041098D7F8093410980915209882309F4BF
:100A7000B1C084E08093860BDF91CF910C94730218
:100A8000823008F44CC0E091EA10F0E0E751FF4EEC
:100A9000928180915109282F2695269526952370BD
:100AA00030E02130310521F02230310579F01EC0CF
:100AB000877E806180935109992311F080E001C005
:100AC00085E0809350099093060210C080915009F0
:100AD0008F3260F4E0910002F0910102E80FF11D05
:100AE0009083809150098F5F809350098091EA1024
:100AF000E82FF0E0E751FF4E62818F5F833018F4FA
:100B00008093EA1002C01092EA1080911A0F90911F
:100B10001B0F0E94690490931B0F80931A0F809102
:100B2000E910E82FF0E0E751FF4EC2838F5F83307A
:100B300018F48093E91002C01092E9108091BD0F63
:100B40008F5F8093BD0F46C00E94F10180914109E3
:100B50008D7F8093410981E00E9477048091520942
:100B6000811187CFDD23B1F181E02BCF80911A0F66
:100B700090911B0F0E94690490931B0F80931A0F92
:100B8000C43411F482E001C083E08093860B90911D
:100B9000510990FF04C092FDD7CF946003C091FD2E
:100BA000D3CF92609093510980915109877E8860DC
:100BB00080935109109250098FEF809306020AC06A
:100BC000891709F44ACFF0E0E95FF04F2283809360
:100BD000070F41CFDF91CF910895FC0182851F92CD
:100BE0008F9387851F928F9381851F928F93838127
:100BF0001F928F9382811F928F9386811F928F9372
:100C000085811F928F9383E292E09F938F930E943E
:100C10004A2B8DB79EB740960FB6F8949EBF0FBE75
:100C20008DBF08950F931F93CF93DF93FC019381A2
:100C30008FEF890F833098F5923029F0933031F09F
:100C4000C0915A0905C0C091570902C0C09154090A
:100C50008DE8C89FE00111248FE2989FC00DD11D3F
:100C60001124C650DF4E8E01045F1F4F9CE1D80156
:100C700001900D929A95E1F71E8A8091DC1C90E01C
:100C8000982F88272091DD1C822B888F9F8BCE0187
:100C90004C960E94D7010115110539F404C08AE66B
:100CA00092E00E945E2B81E057C08F85823001F177
:100CB0008330C1F1813009F04EC090915A099431CE
:100CC00008F049C080915B09E82FF0E0EE0FFF1FAC
:100CD000E154F04F118300838F5F843119F08093CA
:100CE0005B0902C010925B099F5F90935A0933C061
:100CF00090915709943178F580915809E82FF0E0E8
:100D0000EE0FFF1FE555F14F118300838F5F843194
:100D100019F08093580902C0109258099F5F909370
:100D2000570919C0909154099431A8F4809155093C
:100D3000E82FF0E0EE0FFF1FE45AF44F1183008319
:100D40008F5F843119F08093550902C010925509C4
:100D50009F5F9093540980E0DF91CF911F910F9195
:100D60000895E091B30AF091B40A208130E0322F67
:100D700022278181282B81E040912102509122027B
:100D80002417350709F480E00895CF93DF93EC0131
:100D90008091B70A8F938091B60A8F9322EA32E04E
:100DA0003F932F930E944A2B0F900F900F900F901C
:100DB000CB56D94059F48091B60A9091B70A019662
:100DC0009093B70A8093B60A1092F310DF91CF91F7
:100DD0000895CF93DF93DFB7F894C0915D09C111F7
:100DE00009C081E080935D091092090289E00E94A8
:100DF0003F0218C08091210E8F3F99F4E0910A02C2
:100E0000EE2379F080910B028F3F19F410920B02C0
:100E100004C0F0E0EF5DF14F108210920A02C0E0D2
:100E200001C0C5E0DFBF8C2FDF91CF9108959C01F9
:100E300080914C0990914D09892BB1F59FB7F89499
:100E400085E080934A091092490930934F09209315
:100E50004E0922E030E030934D0920934C09109266
:100E6000470910924809645F60934B099FBF8FB791
:100E7000F8949091B30F9A3011F48FBF17C08FBFC1
:100E80009FB7F8948091740E811106C081E0809321
:100E9000740E1092750E01C080E09FBF882331F060
:100EA0000E945E0280E0089585E0089510924D0949
:100EB00010924C0981E008958FEF8093A31C8093DA
:100EC000A21C84E68093A81C8091FE1B9091FF1BBE
:100ED000892BF1F48DE99CE19093FF1B8093FE1B1D
:100EE0008CE18093A61C80910702882391F01092D8
:100EF00007026CE18DE99CE10E941707882349F005
:100F000091E0909307021092FF1B1092FE1B089530
:100F100085E0089580913E098C3118F4482F50E007
:100F200002C04CE150E09CE1E9EAFCE1DF011D92E6
:100F30009A95E9F79091400920E030E024173507B1
:100F400099F0E92FF0E0E951F04F6081882329F012
:100F50009F5F9A3F09F490E08150F901E356F34E08
:100F600064872F5F3F4FEACF9093400980933E09FB
:100F70000E945C07882319F086E10C943F020895D3
:100F8000CF93DF931F92CDB7DEB790913D099111BA
:100F90000BC090913E099D3738F091E090933D0948
:100FA00089830E948A0789813FB7F89420913E097E
:100FB0002A3FB8F490913F09E92FF0E0E951F04F52
:100FC000808381E0890F8A3F19F080933F0902C036
:100FD00010923F092F5F20933E093FBF80E090E0D1
:100FE00003C03FBF8FEF9FEF0F90DF91CF91089528
:100FF000CF93DF93DFB7F89480915E09823021F5BB
:10100000C0910C02C11120C090910E029F3FB1F01F
:10101000E92FF0E0E95AF44F808180930E028F3F70
:1010200011F480930D028FEF808390930C0281E086
:1010300080935E0980E00E943F0204C090930C02FE
:1010400010925E09DFBF02C0DFBFC1E08C2FDF91CD
:10105000CF910895CF93DF93DFB7F89480915D0926
:10106000823039F5C0910902C11123C090910B0261
:101070009F3FB1F0E92FF0E0EF5DF14F8081809369
:101080000B028F3F11F480930A028FEF80839093BD
:10109000090281E080935D0989E00E943F0204C05B
:1010A0009093090210925D098CB58F7B8CBDDFBFD8
:1010B00002C0DFBFC1E08C2FDF91CF910895CF92A6
:1010C000DF92EF92FF920F931F93CF93CFB7F894D5
:1010D0002091B3009091B20087B3291711F081FFDE
:1010E00002C0CFBF7CC08091950B811102C086EEFB
:1010F0003FC00E941E02C0907A0AD0907B0AE09006
:101100007C0AF0907D0A0091081C1091091C209126
:101110000A1C30910B1CAB01BC014C195D096E0916
:101120007F09401751076207730728F01092950B4B
:1011300086EE91E01EC0D901C8018C0D9D1DAE1D2B
:10114000BF1D4091F00A5091F10A6091F20A70912E
:10115000F30A841B950BA60BB70B873E9105A105DF
:10116000B10528F682309105A105B10508F482E0A9
:1011700090E02FEF280F3091B60033FDFCCF309177
:10118000B2002313822F4091F00A5091F10A60912E
:10119000F20A7091F30A8A019B010F5F1F4F2F4FD4
:1011A0003F4F080F111D211D311D0417150726077C
:1011B000370710F4842F80952091B60023FDFCCFD3
:1011C0008093B300CFBF992351F085E0CF911F9159
:1011D0000F91FF90EF90DF90CF900C943F02CF9152
:1011E0001F910F91FF90EF90DF90CF9008950F9394
:1011F0001F932FB7F8944091C70D5091C80D60917F
:10120000C90D7091CA0D8091840090918500B09BAA
:1012100008C04F5F5F4F6F4F7F4F80918400909168
:1012200085002FBFBA0155274427A0E0B0E08A010E
:101230009B01082B192B2A2B3B2BC901B8011F91AD
:101240000F910895CF93DF931F92CDB7DEB78983B7
:101250000E94C301898180688EBD80E00E94BC012C
:101260000E94B70189830E94AC0189810F90DF91B0
:10127000CF9108951F93CF93DF931F92CDB7DEB721
:10128000182F69830E94C301912F906C9EBD8981A4
:101290000E94BC010E94B7010F90DF91CF911F9176
:1012A0000C94AC018CB58F7B8CBD229A2398219A2B
:1012B000209A8CB580618CBD8CB58F778CBD8CB538
:1012C000877F8CBD8CB58B7F8CBD8CB580648CBDCD
:1012D0008DB581608DBD8CB58C7F8CBD0895CF930D
:1012E000DF93FC01228130E0322F22274181242B21
:1012F00025FF15C027743C7C2134384881F4FC015B
:10130000C781D0E0DC2FCC278681C82B0E94B10298
:1013100021E0C817D90709F020E0822F01C080E042
:10132000DF91CF910895CF92DF92EF92FF92CF930A
:10133000C82F6A017B010E941E0229E0C29FF001B2
:101340001124DF01A05EB04F6D937D938D939C932C
:1013500013971496CD92DD92ED92FC921797E85D6B
:10136000F04F808181608260808386E0CF91FF9022
:10137000EF90DF90CF900C943F024F925F926F926C
:101380007F928F929F92AF92BF92CF92DF92FF9205
:101390000F931F93CF93DF93A0E2BFE0C12CD12C1A
:1013A00049E04C9DF0014D9DF00D1124EF01C05E10
:1013B000D04FF884F1FE91C00D911D912D913C917B
:1013C000139714968D909D90AD90BC9017972B011C
:1013D0003C01401A510A620A730A481459046A040B
:1013E0007B0408F47AC0F0FE06C0E85DF04F20816F
:1013F0002D7F20830AC0B901A801480D591D6A1D1F
:101400007B1D488359836A837B8322E0C21689F05F
:1014100084E0C81609F448C021E0C21267C08BEB13
:1014200092E00E945E2B8FB7F894109260098FBFF4
:101430005DC080916709811131C0E091B30AF091DC
:10144000B40A808190E0982F88272181822B019611
:1014500071F48091A50E8F5F8093A50E853038F0D2
:101460001482909121028091220291838083E091E5
:10147000B30AF091B40A808190E0982F88272181E7
:10148000822B019699F18091970B81FD2FC082608C
:101490008093970B8BE00E943F0228C080913A0F07
:1014A0008D7F80933A0F22C080913C091F928F93C9
:1014B0008AEC92E09F938F930E944A2B48EF51E170
:1014C00060E070E084E00E94930987E10E943F029F
:1014D0000F900F900F900F9009C02FEFC21AD20AF1
:1014E000199625E0C216D10409F05BCF86E0DF91A2
:1014F000CF911F910F91FF90DF90CF90BF90AF9051
:101500009F908F907F906F905F904F900C943F02D0
:10151000CF92DF92EF92FF920F931F93CF93DF93BF
:10152000EC01C880D980EA80FB8080917E0A90918E
:101530007F0AA091800AB091810AA7019601281B19
:10154000390B4A0B5B0BCA01B9010E94E3282091B9
:10155000F40A3091F50A4091F60A5091F70A0E9478
:10156000BD290E94A5280091190B10911A0B2091FA
:101570001B0B30911C0BDC01CB01800F911FA21FB4
:10158000B31FC80ED91EEA1EFB1EC882D982EA828A
:10159000FB828091040E843050F4DF91CF911F9133
:1015A0000F91FF90EF90DF90CF900C94B10680E008
:1015B000DF91CF911F910F91FF90EF90DF90CF902F
:1015C0000895CF938FB7F89490910902911106C0B6
:1015D00090915D09923011F48FBF0FC08FBFCFB7CC
:1015E000F89480915D0981110AC082E080935D09C1
:1015F000109209020E945209CFBF81E004C0CFBF00
:101600000E94E90680E0CF91089510920702E091D0
:10161000FE1BF091FF1B3097D1F08091FC0D80FDF7
:1016200016C080910702811116C0258186816185CF
:101630006D3118F08FE00C943F0290E0922B86837E
:101640009583CF010E941707882329F0F3CF81E00B
:1016500080930702E6CF089580916F0E9091700EEF
:10166000892BC1F581E090E09093F2108093F11006
:1016700088E19BE09093700E80936F0E1092920B16
:101680001092910B81E08093930B8091C000806455
:101690008093C0008091C10080648093C1008091DC
:1016A000910B9091920B9C012F5F3F4F3093920BC7
:1016B0002093910BFC01E85EF44F80819FB7F89472
:1016C0008093C6008091C00080648093C0009FBF5B
:1016D00080E0089585E0089593E8980F923050F4E3
:1016E0009091410991609093410990E289278093FC
:1016F000BA0F8DE78093180B0C942C0B9FB7F894BE
:10170000809141098E7F809341098EE78093180B69
:101710009FBF0C942C0B2F923F924F925F926F922F
:101720007F928F929F92AF92BF92CF92DF92EF9271
:10173000FF920F931F93CF93DF9320916809222389
:1017400011F0D5E0D6C0D0919C1CD530D1F72091B6
:10175000EE102111F6CF8C010E94E10A882389F353
:10176000F80184A582FF03C066A56F7001C060E028
:101770008091AA0E681731F06093AA0E606885E028
:101780000E943A09F801228130E0322F222781811C
:10179000282B27743C7C21343848A1F486E00E9431
:1017A00022098F7190E04091C20D2091580B30E0DA
:1017B000240F311D43E0359527954A95E1F7281709
:1017C00039074CF169E082E00E943A090E94F7086B
:1017D0002B013C0148018FEF881A980AF801C0815B
:1017E00084A59EEF392E3C0E84FF09C0980128196C
:1017F00039098BEF8C0FD82ED20E3D1802C0D32C96
:10180000312C81E00E9422098F71893039F066E025
:1018100082E00E943A090E942A086BC08FB7F894B0
:101820002F9AE0908400F09085008FBF0E94AA015B
:101830000E94C30180E68EBD8C2F0E94BC01E40192
:10184000CD2C89910E94BC01CA94C110FACFDA94C0
:10185000CD2DD0E05401AC0EBD1E2196C80DD91D72
:101860006701F2EACF0ED11CC418D508EE24D7FCCC
:10187000E094FE2CC40CD51CE61CF71C332011F19F
:101880008FEFA81AB80AC5010E94DF012B013C01A5
:10189000AB01BC014C195D096E097F09C5010E94AD
:1018A000D7012C2E8C2E9D2EF40181914F010E9488
:1018B000BC01882D82198311F7CFB301A201C501A4
:1018C0000E94D7010E94B7010E94AC0166E082E04D
:1018D0000E943A09F80184A5826084A7C0A6D1A617
:1018E000E2A6F3A686E080939C1C84E080936809BE
:1018F000D0E08D2FDF91CF911F910F91FF90EF904E
:10190000DF90CF90BF90AF909F908F907F906F901F
:101910005F904F903F902F9008953F924F925F922B
:101920006F927F928F929F92AF92BF92CF92DF92EF
:10193000EF92FF920F931F93CF93DF9300D0CDB719
:10194000DEB714E030E8A32E05E043E0D42E59E0E2
:10195000852E62E0C62E78E0B72E80E19BE0E5E0C0
:101960009E2E980E8091AF0F823009F07DC01092AC
:10197000AF0F8091710E823009F459C0833009F4A1
:1019800061C0813009F070C02091840030918500E1
:101990006090120F7090130F621A730A9091850B6A
:1019A000903841F41092850B9091840B923009F09D
:1019B0005BC03AC097FF04C0161417040CF4A8C308
:1019C000E0905A0BF0905B0B8091BE0A8111A0C38E
:1019D000C7010E948B0B282F81119BC3D7019C96B6
:1019E0008C919C978E7F9C968C9381E08093BE0A0D
:1019F000F092D21CE092D11CD092850B35C097FF9B
:101A00009FC3161417040CF09BC3A092850B81E0B2
:101A10008093710E8093AF0FC30129830E94B90296
:101A2000298120930C1C81E08093840B08C01092C4
:101A3000BE0A1092850B10920C1C1093840B0E940E
:101A4000700212C090919C1C923019F480939C1CDF
:101A500009C080916809863029F41092680981E0F4
:101A60000E9422090E94E5128091EE10882309F459
:101A7000B3C080919C1C813009F4AEC00E94E10A81
:101A8000882309F4A9C08FB7F8946090CB0D7090AB
:101A9000CC0D8FBF1092EE108FE00E942209F82E1D
:101AA000809168098B7F833021F400939C1CB09255
:101AB0006809F2FE4AC080916809863011F41092DC
:101AC000680980916809811140C0B4E0FB1234C0FC
:101AD00086E00E9422098F719091580B292F26953C
:101AE0002695921B980F9093580BE091B10AF091B4
:101AF000B20A94A59B7F986094A786A70E94F708D6
:101B0000930127503109261B370B2901662457FC06
:101B10006094762CE091B10AF091B20A24A522607B
:101B200024A7AB01BC01440D551D661D771D40A7C0
:101B300051A762A773A707C0E091B10AF091B20A5A
:101B400084A5857F84A700936809F3FE45C0809132
:101B50006809843081F500939C1C1092680980917B
:101B6000BE0A833019F41092BE0A36C0E091D11C2F
:101B7000F091D21C828190E0982F88272181822BBE
:101B800085FF0EC087749C7C8134984849F4878116
:101B900090E0982F88272681822B019609F0D3C2E6
:101BA0001092BE0A1092850B10920C1C1093840B9D
:101BB0000E94700211C0853079F486E00E942209EB
:101BC0009091C20D8F71292F26952695921B980F03
:101BD0009093C20D8092680980916809882309F466
:101BE0004DC2893009F0BCC10E94C30180E28EBDA4
:101BF0000DB407FEFDCF8EB51EBC0DB407FEFDCFA4
:101C00008EB59DEF980F973208F07AC01EBCE09118
:101C1000B10AF091B20A3F015FEF651A750A80833D
:101C2000AEEF5A2E580E86E0851510F0452C02C0F6
:101C3000F7E04F2E7301342C40E050E080E0498300
:101C40005A830E94BC01D7018D937D01682F498181
:101C50005A81CA010E94C501AC013A943110EECFFD
:101C60002FEF240D30E02F5F3F4F620E731EE09187
:101C7000B10AF091B20A81818770823029F4809193
:101C8000BE0A8230D9F50BC09FB7F89481E020914D
:101C9000E110233008F080E09FBF882379F1852D83
:101CA00084197301680E80E049835A836E1469F0C9
:101CB0000E94BC01F70181937F01682F49815A81FD
:101CC000CA010E94C501AC01EECF0E94BC01682F81
:101CD00049815A81CA010E94C5017C0180E00E94AD
:101CE000BC01682FC7010E94C5017C010E94B70199
:101CF000E091B10AF091B20A85A705C00E94B70130
:101D0000EE24E394F12C0E94AC0100939C1C1092F1
:101D10006809EF2809F0A9C14090B10A5090B20AB1
:101D2000D20111968C91119787709091BE0A8230E2
:101D300029F5923009F00FC1E091D11CF091D21C2D
:101D400013969C918381981306C180916F008B7FBD
:101D500080936F001092AF0FE091D11CF091D21CD4
:101D600084A5816084A71092BE0A1092850B109200
:101D70000C1C1093840B0E947002EDC0911117C0CF
:101D8000C2010E946F09882391F00093D40EC09283
:101D9000D50E1092D60EF20183818093D70E84ED7A
:101DA0009EE00E948B0B811102C0D092BE0AE0908F
:101DB0008400F0908500C2010E946F09882321F001
:101DC000F4EEEF1AFCEFFF0AF092130FE092120FFD
:101DD00080918400909185009701281B390BC901DF
:101DE00018161906ACF42091850B21110EC0209114
:101DF000AF0F21110DC021E02093710E2093AF0F82
:101E00000E94B902A092850B03C020682093850B25
:101E1000D20119968C91199790E0982F88271896DF
:101E20002C91822B2091CF1C422F50E0FA01EE0F13
:101E3000FF1FE252F34E60817181F090D51C68174C
:101E4000790711F4FA0110C0AEEDBCE1E0E1FBE06E
:101E500020E030E070E060E04D915D914817590757
:101E600079F42093CF1CF901E05FF44F80818F1546
:101E700009F43FC0F394F092D51CF08260E822C0D0
:101E800041915F2D541B651710F4722F652F2F5F42
:101E90003F4F2530310501F77093CF1C272F30E0DD
:101EA000F901EE0FFF1FE252F34E91838083F3940A
:101EB000F092D51CF901E05FF44FF082F901E7548C
:101EC000F54F10828091D51C982F9F779F3719F07E
:101ED0002091CF1C0EC06F37D8F3E0E1FBE0282F34
:101EE000207890819F679813208331969E12F9CFB6
:101EF000EFCFD20113969C91E22FF0E0DF01A754BF
:101F0000B54F8C91ED51FF4E80FF04C08081981336
:101F100003C021C081608C939083FFB6F8948091B8
:101F2000E1108330B8F4E091051CE80FE33008F0CD
:101F3000E350F0E0EE0FFF1FE252F64F7080E180B9
:101F4000518240828F5F8093E11083E00E943F02C4
:101F5000472C5E2CFFBE5092B20A4092B10A85C057
:101F60009FEF980F933008F06EC09EEF980F92305D
:101F7000D8F520919C1C213099F49091AF0F9111CC
:101F80000FC029830E94AA01D092710E298120934B
:101F9000AF0F8BE293E00E94B902C0929C1C3EC03E
:101FA000833011F5233001F50E94E10A8823E1F026
:101FB0008FE00E94220980918100806480938100DB
:101FC00080E286BB80916F00806280936F00609199
:101FD000500B606688E00E943A0966E082E00E9449
:101FE0003A0910939C1C1AC0809168098150823074
:101FF000A8F480919C1C853089F40E94E10A882312
:1020000069F063E082E00E943A0980916F008F7D61
:1020100080936F001092EE10D0929C1C8091680902
:10202000813041F490919C1C9330F9F42F9A809365
:102030009C1C06C08230C9F480919C1C8330A9F49A
:10204000B092680912C0873081F40E94E10A8823A7
:1020500061F06091500B606688E00E943A098091BF
:102060009C1C853069F710939C1C8091680988300E
:1020700029F41092680981E00E943F02809168096A
:1020800081111DC080919C1C8530C9F48091EE1097
:10209000811115C08091BE0A811111C08091850BFC
:1020A00081110DC08091AF0F811109C08091840B07
:1020B000823029F481E08093840B0E947002809129
:1020C0006809811103C087E00E943F028FB7F8942E
:1020D0009091BE0F9130B9F41092BE0F8FBF0F9048
:1020E0000F90DF91CF911F910F91FF90EF90DF90B4
:1020F000CF90BF90AF909F908F907F906F905F90A8
:102100004F903F90089591E09093BE0F8FBF2ACCDF
:1021100025E09091850B892F8F77813009F06FCC66
:10212000907892609093850B80E198E00E94E202A3
:1021300021E02093710E2093AF0F0E94B90294CC3E
:102140001092850B6ECC8091AF0F811129CDC0927A
:10215000710E81E08093AF0F89E993E00E94B9028C
:10216000C092BE0A39CD9FB7F8948091BE0F8150BE
:102170008093BE0F803811F09FBF089581E0809357
:10218000BE0F9FBF0C948D0C0F931F93CF93DF93C3
:102190001F92CDB7DEB78C018FE3F8018287909153
:1021A00063099F5F9093630993830E94AE018091BE
:1021B000840B81110DC01093B50F0093B40F81E013
:1021C0008093840B1092B10F0E94700280E001C0D6
:1021D00085E089830E94B31089810F90DF91CF91B0
:1021E0001F910F910895FF920F931F93CF93DF9349
:1021F000EA012D3108F068C0EA81F0E0FE2FEE27F9
:102200009981E92BAF0147745C7C4134584839F01F
:10221000E073FF27E164F868E98398E89A838B010B
:10222000F82E235F28830E94B102888799879FB781
:10223000F89480910F029FBF8C831D82FB860E83D2
:102240001F838FB7F89490915E0991110FC092E0AF
:1022500090935E0910920C028FBFCE010E94C410B1
:10226000C82F882391F10E94F8072FC08FBFD09309
:10227000560BC093550BDFB7F894C0915E09C1119E
:1022800009C081E080935E0910920C0280E00E94F8
:102290003F0218C08091570B8F3F99F4E0910D02D7
:1022A000EE2379F080910E028F3F19F410920E0206
:1022B00004C0F0E0E95AF44F108210920D02C0E021
:1022C00001C0C5E0DFBF01C0C6E08C2FDF91CF9118
:1022D0001F910F91FF90089510920802E091140F42
:1022E000F091150F3097C9F08091071C80FD15C043
:1022F00080910802811115C020812D50678170E006
:10230000762F66278681682BAF0183850E94F310A4
:10231000882339F08DE00C943F0281E0809308021D
:10232000E7CF0895EF92FF921F93CF93DF93182F7B
:10233000EB01F42E80910802811111C08091140FDD
:102340009091150F8617970751F41092150F109260
:10235000140F0E946C116F2DCE010E9485021A305D
:1023600019F01B3099F02BC11F92FF928DEE92E075
:102370009F938F930E944A2B8FB7F8941092590B1A
:102380008FBF0F900F900F900F9011C1CE010C9640
:102390009093EF0A8093EE0A1F851F92FF928FE0C1
:1023A00093E09F938F930E944A2B8CA50F900F90E0
:1023B0000F900F9080FF5CC080916009811158C020
:1023C0008FE293E00E945E2BE090EE0AF090EF0A1D
:1023D00081E38093AB0F8BE09091AB0F9923D9F001
:1023E000292F30E0829FD001839FB00D1124A85681
:1023F000B44F21503109829FF001839FF00D1124C9
:10240000E856F44F282F01900D922A95E1F791504C
:102410009093AB0FE1CFF70181858093990B1092D8
:10242000980B828180939A0BC70140960E94DF012E
:10243000AB01BC018BE99BE00E94D701C701449628
:102440000E94DF01AB01BC018FE99BE00E94D70134
:102450008FEF810F833008F099C0812F0E944204D2
:10246000E12FF0E0E852F34E80818F5F80839AC0C5
:102470001F921F93E091EE0AF091EF0A82811F9262
:102480008F9383E793E09F938F930E944A2B0F9043
:102490000F900F900F900F900F90809160098823FC
:1024A00041F083E993E09F938F930E944A2B0F9012
:1024B0000F908FB7F8949091061C9F5F9093061C25
:1024C0002091B00F291710F49093B00F8FBF8FB7E2
:1024D000F89490915F09911107C09091061C923079
:1024E00018F091E090935F098FBF9FB7F8948091A7
:1024F000061C9FBF843048F00E9453048FB7F894A5
:102500001092061C10925F098FBFE091EE0AF091C5
:10251000EF0A8FB7F8949091061C8FBF208131810C
:102520008FEF810F2130310519F4943018F408C071
:10253000923030F0833050F5812F0E94420432C037
:10254000833020F5123051F0133081F0E0915C09B6
:10255000F0E0EE0FFF1FE154F04F0FC0E09159097A
:10256000F0E0EE0FFF1FE555F14F07C0E09156096F
:10257000F0E0EE0FFF1FE45AF44F0190F081E02DE0
:10258000309781F082858F5F82870CC01F921F93E6
:102590008AE493E09F938F930E944A2B0F900F90B1
:1025A0000F900F908FB7F8941092590B8FBFCE01F8
:1025B000DF91CF911F91FF90EF900C94C506DF91B2
:1025C000CF911F91FF90EF9008959FB7F89480915D
:1025D000BE0F882329F080688093BE0F9FBF0895A7
:1025E00081E08093BE0F9FBF0C948D0CCF93DF933F
:1025F0001F92CDB7DEB70E94AE018091840B81118E
:1026000019C080916809811115C080919C1C81308E
:1026100029F48091AF0F81110DC002C0853099F06F
:1026200083E0809368090E94E51285E08093840B23
:1026300080E001C085E089830E94B31089810F90FA
:10264000DF91CF91089589E0F6CF8FB7F894089580
:102650008FBF08958FB7F89490913D09913011F490
:102660008FBF0EC090913E09911104C08FBF81E0D1
:1026700090E0089591E090933D098FBF0E948A07F2
:1026800080E090E00895CF92DF92EF92FF920F9357
:102690001F93CF93DF93CFB7F8940E94110300915B
:1026A000510B1091520B2091530B3091540BDC01C4
:1026B000CB01800F911FA21FB31F8093C30D909376
:1026C000C40DA093C50DB093C60DCFBF2FB7F8941E
:1026D00080911F0F90E001966091110F70E00E94B1
:1026E0003E2A80931F0F2FBFC0911F0F1FB7F89472
:1026F00080911202882309F445C084EB93E09F93F4
:102700008F930E944A2BEAE9F9E00F900F9082E044
:1027100090E08193919329E0EA3AF207D1F7809112
:10272000210290912202009739F481E090E0909389
:102730009F0980939E0924C08130910529F49093CC
:10274000A1098093A0091CC08230910539F481E071
:1027500090E09093A3098093A20912C08330910561
:1027600039F481E090E09093A5098093A40908C012
:10277000049731F481E090E090939B0980939A094B
:1027800010921202C093DD098091E8108C1769F055
:102790008091DC1C90E0982F88272091DD1C822BF3
:1027A00001968093DD1C9093DC1CF090DC1CD09192
:1027B000DD1CC093E8101FBF809160090C2F10E052
:1027C000813071F080915F09813041F4C8018095BA
:1027D000909568E070E00E943E2A02C08C2F8770BE
:1027E0000E9445038091110F1F928F931F92CF93E8
:1027F000809122028F93809121028F938EEC93E03F
:102800009F938F930E944A2B000F111FF801E656E9
:10281000F64F008111816DB77EB7685F7F4F0FB6AD
:10282000F8947EBF0FBE6DBF0130110551F030F03E
:102830000230110551F48BEF93E005C08FEE93E069
:1028400002C086EF93E00E945E2B0E942A13C130E3
:10285000B1F58091210290912202892B09F046C1A5
:1028600030E03F298BEC9AE09093170B8093160B86
:102870001092CC0A1092CB0A80E090E08D2B8093CE
:10288000CF0A3093CE0A8091590B811115C025E0F3
:102890004FEB5AE06FEF7FEF8AE00E94F310811157
:1028A00008C08FB7F894C093590B8FBF84E094E0B1
:1028B0001BC189E194E018C18DE294E015C101309B
:1028C000110509F013C180915F09813009F05BC1E6
:1028D00080915A09882309F431C1E0915C09F0E044
:1028E000EE0FFF1FE154F04FC081D18180E0909145
:1028F0005F09992309F44BC1813009F448C18A85E5
:102900001F928F9389851F928F938A811F928F9335
:102910008CE494E09F938F930E944A2B8DB79EB7CF
:1029200008960FB6F8949EBF0FBE8DBF8A818111A5
:102930000BC08FE794E09F938F930E944A2BCE01A8
:102940000E94ED050F900F90DF93CF938AEC94E0F7
:102950009F938F930E944A2B9091570980915A0917
:10296000890F90915409890F1F928F9381EE94E003
:102970009F938F930E944A2B8BE29BE09093620976
:10298000809361098CE1FE01ABE2BBE001900D9206
:102990008A95E1F78091310B1F928F9380912E0BD6
:1029A0001F928F938091300B1F928F938AEF94E048
:1029B0009F938F930E944A2BCFB7F89420912102C6
:1029C00030912202E0916109F091620927838681AA
:1029D000A901415051096DB77EB7605F7F4F0FB6B7
:1029E000F8947EBF0FBE6DBF4230510508F00CC198
:1029F0009DEF980F923008F007C190E02350310905
:102A00002230310508F402C190870E941E02AB01FA
:102A1000BC01809161099091620944960E94D7019E
:102A2000E0916109F09162098091061C808F80918C
:102A3000980B9091990BA0919A0B818F928FA38FF5
:102A40008091590BCFBF8111EFC08091D30E8823A5
:102A500031F084E395E00E945E2B0E94F612809193
:102A600060098111D9C08091200B80622091210BD7
:102A700090E0922B8093200B9093210B2FB7F8942A
:102A80008091DC1C90E0982F88273091DD1C832BEF
:102A9000E0916109F0916209868795878091D91C40
:102AA000818F8091DA1C828F8091DB1C838F109242
:102AB000D91C1092DA1C1092DB1C2FBFE091610927
:102AC000F0916209608570E02CE14FE15BE08BE002
:102AD0000E94F3108111A5C08FB7F89491E09093F4
:102AE000590B8FBF85E895E00E945E2BC090510B7B
:102AF000D090520BE090530BF090540B0E941103B6
:102B0000CFB7F8946093230E7093240E8093250E14
:102B10009093260EC092000ED092010EE092020E0B
:102B2000F092030E0E945803CFBFDF91CF911F9107
:102B30000F91FF90EF90DF90CF900895809157090B
:102B4000882341F0E0915909F0E0EE0FFF1FE555B1
:102B5000F14FCACE80915409882341F0E091560983
:102B6000F0E0EE0FFF1FE45AF44FBECEC0914E0BC3
:102B7000D0914F0B8FB7F89410925F091092061CFA
:102B80008FBF81E0B4CE80E0C5E0DEE0B0CE8091C2
:102B90005A09882341F0E0915C09F0E0EE0FFF1F35
:102BA000E154F04F17C080915709882341F0E0911C
:102BB0005909F0E0EE0FFF1FE555F14F0BC0809172
:102BC00054098823A1F1E0915609F0E0EE0FFF1FB0
:102BD000E45AF44FC081D181911191CE89851F9221
:102BE0008F938A811F928F9381EA94E09F938F93B2
:102BF0000E944A2BCE010E94ED050F900F900F907E
:102C00000F900F900F90A0CE982FF8CE8150823069
:102C100008F0FACE90E0F8CE8EE495E00E945E2BAC
:102C20002DCF8AE995E060CF88EA95E05DCF8FB738
:102C3000F8941092061C8FBF9091570980915A0901
:102C4000890F90915409890F09F450CF87E00E94B1
:102C50004503FFCF2F923F924F925F926F927F92E8
:102C60008F929F92AF92BF92CF92DF92EF92FF929C
:102C70000F931F93CF93DF93CDB7DEB7C454D10921
:102C80000FB6F894DEBF0FBECDBF90E0883191053E
:102C900010F00C94A421FC01EA59FF4F0C94CD2AAA
:102CA0008FB7F89492E090935E098FBF80910C02E9
:102CB00081110C94A4218091550B9091560B0E9488
:102CC000C410882311F40C94A42124968FAF249768
:102CD0000E94F807E091550BF091560B24964FADEA
:102CE0002497BF01D2C08091840B1092840B853051
:102CF00009F057C04CE150E069E970E085E09EE0E2
:102D00000E94432B8BEB95E00E945E2B1FB7F8943B
:102D10001092D30E80911E0B811140C08091210230
:102D200090912202892B81F48FB7F89410921F0F93
:102D30008FBF80916F008D7F80936F000E9443133F
:102D40008091D81C8093110F81E080931E0B85ED3C
:102D500095E00E945E2B40E85CE060E070E040930C
:102D6000A60E5093A70E6093A80E7093A90E86E04E
:102D70008093150B4093030F5093040F6093050F3E
:102D80007093060F4093510B5093520B6093530B6B
:102D90007093540B8093960B8093110F1FBF0C946C
:102DA000A421863091F48091B50A882311F40C9403
:102DB000A4211092B50A8AEE95E00E945E2B8FB78F
:102DC000F89491E09093D30EE1C2873011F40C9403
:102DD000A4218093840B0C94A4210E94AE01009145
:102DE000840B013091F58091B10F8F5F8093B10F0B
:102DF000863058F58091B40F9091B50F2091850BD6
:102E0000211115C01091AF0F111111C090935B0BE0
:102E100080935A0B0093850B8BED91E10E94E202A7
:102E20000093710E0093AF0F0E94B90201C015E02C
:102E300010930C1C111104C083E08093840B08C014
:102E400082E08093840B10E003C01092840B11E0A9
:102E50000E94B310112311F40C94A42140910C1C76
:102E60000091B40F1091B50FD8011A968C918F3341
:102E700011F00C94A42124964FAF24970E94F807D8
:102E800024964FAD2497B801F80183850E949211D2
:102E90000C94A421E091051CF0E0EE0FFF1FE2521C
:102EA000F64F008111818FBFD8012C918EEF820FD8
:102EB000893000F518019FB7F8948091051CE82F20
:102EC000F0E0EE0FFF1FE252F64F208231828F5F5B
:102ED000833008F0E3C18093051C8091E11081509C
:102EE0008093E1109FBF8FB7F8949091E1109111FA
:102EF000D1CF4CC21A968C911A978F3309F0B7C173
:102F000085EF820F8230B0F21B963C911B9717968B
:102F1000EC901797F12CFE2CEE2416968C91E82A53
:102F2000BFEFEB16FB0651F4F80194814FB7F8940C
:102F300080910F024FBF9817A1F0BCCF24962FAFFE
:102F4000249725963FAF25970E94B10224962FAD76
:102F5000249725963FAD2597E816F90609F0AACFE4
:102F6000E3CF3B3009F48AC03D3309F45DC13A3008
:102F700009F0A0CFD801818590E0982F882720857F
:102F8000822B9093BC0F8093BB0FC8010C9690933B
:102F9000170B8093160B848590E0982F88271D9639
:102FA0002C91822B9F938F93A0E0B6E0BF93AF93B9
:102FB0000E944A2BE091160BF091170B838190E051
:102FC000982F88272481822B9F938F93AFE1B6E0BF
:102FD000BF93AF930E944A2B0FB6F894DEBF0FBE8B
:102FE000CDBF8091210290912202892B71F08091B6
:102FF000F9101F928F93A9E3B6E0BF93AF930E949D
:103000004A2B0F900F900F900F908091210290917A
:103010002202892BF1F08091BB0F9091BC0F892B7C
:10302000C1F48FB7F89410921F0F8FBF80916F007B
:103030008D7F80936F000E944313FFB6F8948091B8
:103040006609811105C0F1E0F09366090E945304FE
:10305000FFBE8AE294E00E945E2B8091BC0F8F93AA
:103060008091BB0F8F93AAE5B6E0BF93AF930E9408
:103070004A2B0F900F900F900F901CCF8FB7F894A2
:10308000C090DD098FBF8189D288893661F5B3E2AE
:10309000DB1229C0F80180899091600991110ACF53
:1030A000F4E68F9F70011124FF92EF921F928F938D
:1030B000A8E7B6E0BF93AF930E944A2B8FB7F8946E
:1030C000F1E0F09360098FBFA701662757FD609577
:1030D000762F81E00E9493090F900F900F900F9030
:1030E0000F900F90E7CEED2CF12C80912102909162
:1030F0002202E816F90689F00E941E02AB01BC010B
:1031000080916009811105C0C8010C960E941206C9
:1031100004C081EA96E00E945E2BEC2DF0E0EE0FF9
:10312000FF1FE656F64F808191810297B1F01F9202
:10313000CF92809122028F93809121028F93A9ECEC
:10314000B6E0BF93AF930E944A2B0E942A130F90C0
:103150000F900F900F900F900F90809121029091FF
:103160002202E816F90609F0A5CEF1E3F093AB0FC1
:103170004091AB0F4423E1F0842F90E0FC01EE0F6F
:10318000FF1FE80FF91FEC51F64F01979C01220F2A
:10319000331F820F931FDC01AC51B64F8D919D916F
:1031A000AC9180839183A28341504093AB0FE0CFD9
:1031B000D80155968C9155978093E5091092E409B2
:1031C0001E968C911E978093E60951962C915197EB
:1031D000E22FF0E0EE0FFF1FE957F44F808191815D
:1031E0000196918380831F92DF9253968C911F9258
:1031F0008F931F922F93AEEFB6E0BF93AF930E94D1
:103200004A2B87E597E00E945E2B8091640990919C
:103210006509019690936509809364090FB6F89447
:10322000DEBF0FBECDBF46CE2D50253008F442CEB6
:10323000D8018081825190E00C96800F911FFC0193
:1032400020812E3309F036CE2091970B20FD32CE0F
:103250009C962C9121FF2ECE01960E94DF016115D4
:1032600071058105904811F00C94592123CED801A5
:103270001796EC901797F12CFE2CEE2416968C9155
:10328000E82A0E94B102E816F90621F0EF20E09446
:1032900009F010CE8FB7F8948FBF0CCE1092051C9A
:1032A0001CCEEFB7F8948091BE0D9091BF0DA09108
:1032B000C00DB091C10D1C012D019C01A20160E067
:1032C00070E080E090E003E00E94D62A51016201A4
:1032D000E12CF12C00E010E00E94162B59016A014C
:1032E0007B01F82F192F03E00E94D62A0F2F0E948E
:1032F000162B59016A017B01F82F192F03E00E9458
:10330000D62A0F2F0E94162B59016A017B01F82F34
:10331000192F03E00E94D62A0F2F0E94162B590165
:103320006A017B01F82F192F03E00E94D62A0F2F84
:103330000E94162B01E00E94D62A29013A0100E2E0
:103340000E94F12A49015A01D301C201B695A795FD
:1033500097958795880E991EAA1EBB1EB7FE07C0BB
:10336000E894B7F8FFEF8F1A9F0AAF0ABF0A80925E
:10337000BE0D9092BF0DA092C00DB092C10DEFBFD7
:103380008FB7F8949092B90F8092B80F8FBF0C94BA
:10339000A42180911D0B811141C04091F5105091E5
:1033A000F6106091F7107091F8102FB7F894C09054
:1033B000081CD090091CE0900A1CF0900B1C809116
:1033C0007A0A90917B0AA0917C0AB0917D0A8C0DBB
:1033D0009D1DAE1DBF1D2FBF4093F5105093F610DD
:1033E0006093F7107093F81010921D0B2FB7F8949C
:1033F00031E03093950B80937A0A90937B0AA093E7
:103400007C0AB0937D0A4093081C5093091C60937A
:103410000A1C70930B1C2FBF0E945F080E941E02A3
:1034200047C00E941E022FB7F8941092950B2FBF31
:1034300040E25FE0A0E0CC24CA94DC2CEC2CEFE767
:10344000FE2E20E030E0B9E0B29FF001B39FF00D16
:103450001124E05EF04FE085E1FF1BC0FA0180809F
:103460009180A280B3802B013C01481859086A085A
:103470007B0884809580A680B78084189508A6086C
:10348000B7088C149D04AE04BF041CF475016401DC
:10349000A1E02F5F3F4F475F5F4F25303105A1F619
:1034A000AA2309F451C71C141D041E041F041CF098
:1034B0000E94BD0949C7C092F510D092F610E09263
:1034C000F710F092F81021E020931D0B3FB7F8940D
:1034D0002093950B60937A0A70937B0A80937C0A01
:1034E00090937D0AC092081CD092091CE0920A1C9D
:1034F000F0920B1C3FBF0E945F0826C78FB7F8945D
:103500001092AD0F1092AC0F10929B1C10929A1C4F
:1035100010926A09109269091092100F10920F0F01
:1035200035CF1FB7F89482E080935D090E9452095D
:103530001FBF80910902811107C780919C1C8111D6
:103540003AC00EEF11E0C801019701960197E1F72B
:1035500016980E94AA0186E090E0019701960197D3
:10356000E1F7169A60E083E00E943A0968E082E0A1
:103570000E943A09C801019701960197E1F76DE4AD
:103580008EE00E943A0967EC89E00E943A0960E8FF
:1035900085E00E943A091092AA0E8AE18093500BAE
:1035A0006AE788E00E943A092F9A81E080939C1C88
:1035B0000E942A08C9C60E94E512C6C60091B60F2D
:1035C0001091B70FD8011C962C911C9730E0322F28
:1035D00022271D968C91282BE091B30AF091B40A12
:1035E000808190E0982F88274181842B2817390704
:1035F000A0F44091A50E443038F44091210250913E
:1036000022028417950749F021833083F8018089CD
:10361000E091B30AF091B40A0DC08217930709F044
:10362000AAC2D80150968C919481B82FB91B1B1651
:103630000CF0A1C28483E091B30AF091B40A8081B6
:1036400090E0982F88272181822B209121023091B0
:1036500022028217930710F41092A50E5801E5E19B
:10366000AE0EB11CC5010E94DF0169837A838B8392
:103670009C83CE0101960E94880A4801F1E18F0ED9
:10368000911CC4010E94DF01C980DA80EB80FC80BC
:10369000C61AD70AE80AF90AC982DA82EB82FC82E2
:1036A0008091040E843020F40E94B106811118C06C
:1036B00004EFC00E01E0D01EE11CF11C19EEC11692
:1036C00013E0D106E104F10458F0809153098F5FB3
:1036D00080935309843008F472C00E9403036FC0C2
:1036E0001092E21010925309E7E2EE2EEEE0FE2E69
:1036F00000E0DD24DA94412C512C320110E0C501A8
:103700000E94DF01D70111962D913D914D915C9161
:103710001497DC01CB01821B930BA40BB50B8F3FDD
:10372000EFEF9E07AE07EFE7BE0710F0F70110823C
:10373000F7013081332331F03091E2103F5F309355
:10374000E21001C0D12E84159505A605B70518F025
:103750002C013D01012F1F5FF9E0EF0EF11C183025
:1037600071F6EE24EA94DE1431F08091E2108F5F5E
:103770008093E2100D2D29E0020280011124095DE1
:10378000114F81E0D8018C93C5010E94DF01F8013F
:103790006183728383839483C4010E94DF016B0180
:1037A0007C01C5010E94DF01C61AD70AE80AF90A9E
:1037B000D8011596CD92DD92ED92FC921897E0908B
:1037C000F40AF090F50A0091F60A1091F70AEBAAB4
:1037D000FCAA0DAB1EAB07E21EE01EA30DA3F80171
:1037E00080E090E0982E2081213009F41DC50196DB
:1037F000399688309105B1F7BEC1182D292D2103C6
:10380000C0011124AC01495D514F1A01DA018C91BC
:10381000813009F095C011964D905D906D907C902F
:103820001497EFA0F8A409A51AA54E185F08600A1E
:10383000710AC301B201298D3A8D4B8D5C8D0E94B6
:10384000742A79018A01550F220B322FA9012D8B81
:103850003E8B4F8B588F2D853E854F8558896989C2
:103860007A898B899C8957016801ED88FE2C0E2D81
:103870001E2D0E940D2B2D873E874F87588B698BFD
:103880007A8B8B8B9C8BC301B201298D3A8D4B8D2A
:103890005C8D0E94522AED8CFE8C0F8D18A1E60ED5
:1038A000F71E081F191FED8EFE8E0F8F18A3F10152
:1038B00085819681A781B085BC01CD01EBA4FCA4D4
:1038C0000DA51EA56E197F09800B910B298D3A8DD0
:1038D0004B8D5C8D0E94742A79018A016D8B7E8BE1
:1038E0008F8B988F29013A01770C4408542C3201B0
:1038F0002D813E814F81588569857A858B859C8590
:1039000057016801E42CF42C042D142D0E940D2B7A
:103910002D833E834F83588769877A878B879C875F
:1039200009A11AA12BA13CA18D899E89AF89B88DCF
:10393000080F191F2A1F3B1F09A31AA32BA33CA37F
:10394000939498E0991259CFCFA0D8A4E9A4FAA4EF
:103950000D851E852F853889C00ED11EE21EF31EEF
:103960006D8D7E8D8F8D98A1298D3A8D4B8D5C8DBF
:103970000E94742AD701C601820F931FA41FB51F8E
:103980008FAB98AFA9AFBAAFCBA4DCA4EDA4FEA4D3
:103990000D811E812F813885C00ED11EE21EF31EBF
:1039A00069A17AA18BA19CA1298D3A8D4B8D5C8D4B
:1039B0000E94742AD701C601820F931FA41FB51F4E
:1039C0008BAF9CAFADAFBEAF1D8E19A21FA21BA6C1
:1039D0001FA618AA19AA1AAA312C212C1D821D86ED
:1039E000198E1D8A912C812CADA1BEA18C918130A4
:1039F00009F060C011964D905D906D907C90149789
:103A0000EFA8F8AC09AD1AAD4E185F08600A710A4C
:103A100015968D919D910D90BC91A02D9C01AD01AD
:103A2000EBACFCAC0DAD1EAD2E193F09400B510B9C
:103A300023962CAF3DAF4EAF5FAF2397C301B201CA
:103A4000A30192010E948B2A59016A017B018C011A
:103A5000232D322D4D815D85698D7D89892D982D90
:103A60000E940D2B322E232E4D835D87698F7D8B17
:103A7000982E892EC301B20123962CAD3DAD4EADDB
:103A80005FAD23970E948B2A59016A017B018C014B
:103A90002D8D39A14FA15BA56FA578A989A99AA9F8
:103AA0000E940D2B2D8F39A34FA35BA76FA778AB77
:103AB00089AB9AAB0DA11EA1075F1F4F1EA30DA3DB
:103AC0000F561E4009F090CF232D322D4D815D857C
:103AD000698D7D89892D982DA0E00E941F2B01F111
:103AE0002D8D39A14FA15BA56FA578A989A99AA9A8
:103AF0000E94DB286B017C01232D322D4D815D85D9
:103B0000698D7D89892D982D0E94DB289B01AC0150
:103B1000C701B6010E9433286BAB7CAB8DAB9EAB6B
:103B20008FB7F894EBA8FCA80DA91EA9E092F40A9F
:103B3000F092F50A0093F60A1093F70A0BAD1CAD4C
:103B40002DAD3EAD0093190B10931A0B20931B0B58
:103B500030931C0B2FA938AD49AD5AAD20937E0A86
:103B600030937F0A4093800A5093810A9091E2102B
:103B70009093040E8FBF8091970B8E7F95C30E9408
:103B80001E026B017C0169837A838B839C83CE0147
:103B900001960E94880AE091B30AF091B40A20913C
:103BA000210230912202808190E0982F8827418164
:103BB000842B8217930781F580917E0A90917F0A6A
:103BC000A091800AB091810A97018601081B190B08
:103BD0002A0B3B0BD901C8010097A105B0425CF14B
:103BE0002FB7F894C0927E0AD0927F0AE092800AA2
:103BF000F092810A89819A81AB81BC818C199D09DF
:103C0000AE09BF098093190B90931A0BA0931B0B5D
:103C1000B0931C0B2FBF0FC08091A50E853058F0BC
:103C20001092A50E21833083E091B30AF091B40A7B
:103C300084818F5F848349815A816B817C818091EB
:103C4000B30A9091B40A05960E94D7018091040EA0
:103C50008330B8F4E091B30AF091B40A808190E027
:103C6000982F88272181822B2091210230912202D6
:103C70008217930731F08091A50E8F5F8093A50E78
:103C800010C30E941E024B015C010E94F7082EE344
:103C90002093970AC818D908EA08FB082AE0CC0C38
:103CA000DD1CEE1CFF1C2A95D1F7AB01BC014C0DAD
:103CB0005D1D6E1D7F1D88E99AE00E94D7018091ED
:103CC000AE0A80618093AE0A8FEF8093880A80935A
:103CD000890A8DE380938D0A8091140F9091150FBE
:103CE000892B09F0DEC282E89AE09093150F809349
:103CF000140F8BE18093820A80910802882309F4D3
:103D000023C3109208022EE042E85AE06FEF7FEFE3
:103D10008DE30E94F310882309F416C381E0809399
:103D200008021092150F1092140FBBC28091071C4D
:103D3000882309F409C384E1E82E8FE0F82E10E00F
:103D400001E09091071C802F892389F0D7012D91E4
:103D50003C9111971D921C92802F809598239093EF
:103D6000071C111104C063E0C9010E948502000F05
:103D70001F5FB2E0EB0EF11C183019F7E5C210918D
:103D80000802E12FF0E0EE0FFF1FEC5EF04FE08045
:103D9000F180118210820E946C111111D5C261E074
:103DA000C7010E948502D0C28091FC0D882309F4CE
:103DB000CBC21EEFE12E1BE1F12E10E001E080915D
:103DC000FC0D902F982369F0F70111821082902F3B
:103DD000909589238093FC0D111103C086E10E9408
:103DE0003F02000F1F5FF2E0EF0EF11C183039F7B1
:103DF000ABC210910702E12FF0E0EE0FFF1FE2507F
:103E0000F44E118210820E94050B11119DC227C130
:103E10002FB7F8941092CE1C8091B30F98EF980FA3
:103E2000923050F41092B30FE0911E0FF0E0EE0FBD
:103E3000FF1FEE58F14F10822FBF923018F53FB799
:103E4000F8949091041C9F5F9093041C9091220E13
:103E5000933489F48091080F9091070F981741F0DF
:103E60008F5F863018F48093080F02C01092080FFD
:103E700020E090E005C091E0883009F490E021E076
:103E80003FBF04C0811113C290E020E03FB7F89417
:103E9000809152093FBF882339F08FB7F8943AE0F8
:103EA0003093B30F8FBF3FC04FB7F8943091720E6D
:103EB0008091740E4FBF6FB7F8945091070F4091E7
:103EC000080F6FBF541709F131111FC03FB7F894A5
:103ED00082E08093720E5FB7F8944091070F809153
:103EE000080F5FBF481739F0E091080FF0E0E95F75
:103EF000F04F828101C080E08093730E83E4809351
:103F0000220E10921E0F3FBF0CC08150823058F419
:103F10008FB7F89435E43093220E31E030931E0FC2
:103F20008FBF11E001C010E0222341F08FB7F89459
:103F3000909349098FBF84E10E943F020FB7F89424
:103F40008091B30F8A3021F40E9473020FBFFCC12D
:103F50000FBF112309F4F8C18FB7F8941092D41C45
:103F60001092D31C1092FD0D91E09093B30F8FBF70
:103F70000E947E0B882309F4E7C18FB7F89499E07B
:103F80009093B30F8FBF0E945E02DEC18091C1008B
:103F90008F7B8093C1008091C1008F778093C10097
:103FA0001092B20F1092930B8091C10088608093A1
:103FB000C1008091C10080618093C1008091C100E7
:103FC00080688093C1008FB7F8941092B30F10925D
:103FD000860BDCC983E144C08091C100877F809358
:103FE000C1008091C1008F7E8093C100ADC110924D
:103FF0004D0910924C098FB7F894109149098FBF61
:1040000080914809811113E080914E0990914F09E8
:1040100020914709211198C120910702211194C1D3
:104020002091FE1B3091FF1B2817390709F08CC126
:104030001092FF1B1092FE1B0E94050B11110FC066
:1040400080913E09882319F00E948A077DC1109251
:104050003D097AC10E945C07882309F475C186E195
:104060000E943F0271C19FB7F8942091430930919B
:1040700044098091B80A9FBF9FB7F894E82FF0E0F9
:10408000EE0FFF1FEE5FFD4F31832083882321F069
:10409000809151098B7F03C0809151098D7F80935E
:1040A0005109109246099FBF4FC188E797E00E94CF
:1040B0005E2B81E090E09093BB098093BA091BE0EE
:1040C0001093BC0921E02093BD0982E08093BE09D2
:1040D00080912102909122028093BF091092C00921
:1040E0008093C1091092C2091092C9093091AE0F94
:1040F0003093C3091F921F921F922F9399279F936A
:104100008F938AE997E09F938F930E944A2B809127
:10411000C3091F928F931F921F938CEC97E09F937C
:104120008F930E944A2BE090BE090FB6F894DEBF31
:104130000FBECDBF13E01E1510F463E0E62E1F92F4
:10414000EF9280EF97E09F938F930E944A2B8AEB28
:1041500099E00E94ED05B090C3090F900F900F9069
:104160000F9080915F09813059F48091BA09909144
:10417000BB09892B29F489E298E00E945E2B2DC0AF
:1041800000E010E0F12C52E5C52E58E0D52E0E15BA
:10419000E8F40093C9098B2D800F8093C3091F9306
:1041A0000F93DF92CF920E944A2B0E941E02AB0116
:1041B000BC018AEB99E00E9412060F900F900F90BD
:1041C0000F908111F82E0F5F1F4FE1CFFF2029F0D4
:1041D0008EE698E00E945E2B05C083E898E00E947E
:1041E0005E2BF12C9091AE0F8091BE09890F8093C8
:1041F000AE0F10923C091F928F938BE998E09F932A
:104200008F930E944A2B0F900F900F900F90F110F8
:1042100006C081E080933C0985EB98E002C080ED08
:1042200098E00E945E2B90C029E0289FF001299F12
:10423000F00D1124E95DF14F2181328143815481D8
:104240002FA338A749A75AA785819681A781B08552
:104250008BA79CA7ADA7BEA78091E210E82EF12CFA
:1042600000E010E0E98EFA8E0B8F1C8F1D821E82FB
:104270001F82188619861A861B861C861D861E8636
:104280001F86188A198A1A8A1B8A1C8A19A21AA2DE
:104290001BA21CA21D8E1E8E1F8E18A249E0842E0A
:1042A0004FCB8091970B8D7F8093970B4DC010E083
:1042B00045CE2090B60F3090B70F1093B70F0093F4
:1042C000B60FD8018C918251F801E80FF11DCF0192
:1042D0000D960E94DF016B017C01D80198964D90EC
:1042E0005D906D907C909B970E94F7084B015C015C
:1042F0000E941E022AE0F594E794D794C7942A9569
:10430000D1F7C60ED71EE81EF91EB301A201481947
:1043100059096A097B093AE075956795579547955C
:104320003A95D1F74C0D5D1D6E1D7F1DC801459658
:104330000E94D7018091970B81608093970B8AE050
:104340000E943F020C945B17CC5BDF4F0FB6F894D2
:10435000DEBF0FBECDBFDF91CF911F910F91FF90B8
:10436000EF90DF90CF90BF90AF909F908F907F9015
:104370006F905F904F903F902F90089578941F9288
:104380000F920FB60F9211240BB60F922F933F93FB
:104390004F935F936F937F938F939F93AF93BF934D
:1043A000CF93EF93FF9380916F008D7F80936F0089
:1043B000CFB7F8948091000E9091010EA091020E5B
:1043C000B091030E892B8A2B8B2B19F40E94431377
:1043D00002C00E945803CFBFFF91EF91CF91BF91D0
:1043E000AF919F918F917F916F915F914F913F918D
:1043F0002F910F900BBE0F900FBE0F901F9018952E
:1044000078941F920F920FB60F9211240BB60F9251
:104410002F933F934F935F936F937F938F939F93CC
:10442000AF93BF93EF93FF9380916F008B7F809347
:104430006F0078948FB7F8949091AF0F913019F482
:1044400092E09093AF0F8FBF0E94E512FF91EF9122
:10445000BF91AF919F918F917F916F915F914F919C
:104460003F912F910F900BBE0F900FBE0F901F909A
:10447000189578941F920F920FB60F9211240F90F7
:104480000FBE0F901F90189578941F920F920FB641
:104490000F9211240BB60F922F933F934F935F937C
:1044A0006F937F938F939F93AF93BF93EF93FF93FC
:1044B000E6E8F0E080819181208131818FB7F89426
:1044C0003093CC0D2093CB0D91E09093EE108FBFE5
:1044D0000E94E512FF91EF91BF91AF919F918F9153
:1044E0007F916F915F914F913F912F910F900BBEF4
:1044F0000F900FBE0F901F90189578941F920F92F7
:104500000FB60F9211242F938F939F93AF93BF9366
:104510002FB7F8948091C70D9091C80DA091C90D47
:10452000B091CA0D0196A11DB11D8093C70D909346
:10453000C80DA093C90DB093CA0D2FBF2FB7F89423
:104540008091160F9091170FA091180FB091190F2D
:104550000196A11DB11D8093160F9093170FA09384
:10456000180FB093190F2FBFBF91AF919F918F91EB
:104570002F910F900FBE0F901F9018951F920F92C2
:104580000FB60F9211240BB60F920F931F932F9318
:104590003F934F935F936F937F938F939F93AF93CB
:1045A000BF93EF93FF930E9415028091B30090E0B8
:1045B00001964091F00A5091F10A6091F20A7091CF
:1045C000F30A8A019B01080F191F211D311D009359
:1045D000F00A1093F10A2093F20A3093F30A7894C8
:1045E0000E945F08FF91EF91BF91AF919F918F91D2
:1045F0007F916F915F914F913F912F911F910F91FB
:104600000F900BBE0F900FBE0F901F9018951F922A
:104610000F920FB60F9211240BB60F922F933F9368
:104620004F935F936F937F938F939F93AF93BF93BA
:10463000EF93FF930E941502FF91EF91BF91AF910D
:104640009F918F917F916F915F914F913F912F91AA
:104650000F900BBE0F900FBE0F901F9018951F92DA
:104660000F920FB60F9211240BB60F922F933F9318
:104670004F935F936F937F938F939F93AF93BF936A
:10468000EF93FF932EB5E091AC0FF091AD0F309703
:1046900039F080910F0F9091100FE80FF91F2083D0
:1046A00080910F0F9091100F01969093100F8093AF
:1046B0000F0F8CB58F778CBD80910F0F9091100FDD
:1046C0006091690970916A098617970708F03FC0E1
:1046D00020919A1C30919B1CE091AC0FF091AD0F92
:1046E000AC01465F5F4F6417750708F4AB0141509A
:1046F000510984179507C8F42115310549F0D901EE
:10470000A80FB91F6C916EBD0DB407FEFDCF04C09C
:104710001EBC0DB407FEFDCF6EB5309721F0DF0152
:10472000A80FB91F6C930196E4CF4CB540684CBDFF
:104730002115310531F0F901E80FF91F20812EBD57
:1047400001C01EBC9093100F80930F0F11C01092E8
:10475000AD0F1092AC0F10929B1C10929A1C1092ED
:104760006A09109269091092100F10920F0F8EB5FE
:10477000FF91EF91BF91AF919F918F917F916F9139
:104780005F914F913F912F910F900BBE0F900FBEF5
:104790000F901F9018951F920F920FB60F92112431
:1047A0000BB60F922F933F934F935F936F937F932B
:1047B0008F939F93AF93BF93EF93FF938091C0002C
:1047C00087FF4AC06091C60020911C0F30911D0FD9
:1047D0002115310551F18091CC1C9091CD1CAC017B
:1047E0004F5F5F4F5093CD1C4093CC1CF901E80FF5
:1047F000F91F60832091CC1C3091CD1C8091D61C78
:104800009091D71C2817390738F110921D0F10927C
:104810001C0F8091B20F8330F9F08091C1008F7727
:104820008093C1001092B20F17C06E3719F460E088
:1048300081E010C0809141096D3721F4826080933E
:1048400041090AC081FF05C08D7F8093410980E244
:10485000682780E00E94B404FF91EF91BF91AF916F
:104860009F918F917F916F915F914F913F912F9188
:104870000F900BBE0F900FBE0F901F90189578945D
:104880001F920F920FB60F9211240BB60F92EF9258
:10489000FF920F931F932F933F934F935F936F93C9
:1048A0007F938F939F93AF93BF93CF93DF93EF93B8
:1048B000FF938091910B9091920B2091F110309188
:1048C000F21082179307D0F420916F0E3091700E82
:1048D000AC014F5F5F4F5093920B4093910BF901E6
:1048E000E80FF91F80819FB7F8948093C6008091EC
:1048F000C00080648093C0009FBFB2C01092700E51
:1049000010926F0E1092930B8091C1008F7B809359
:10491000C1000FB7F89480914109982F9170F92E3A
:1049200080FF0AC08E7F809341098091BA0F8093E7
:10493000180B0E942C0B93C0E091B30F8E2F90E0C8
:10494000FC013197E830F10508F084C0E258FF4FD0
:104950000C94CD2A8091220E0E946C0B182F83E0BC
:104960008093B30F6091220E0AC08091041C0E94B4
:104970006C0B182F83E08093B30F6091041C80911F
:10498000D31C9091D41C0E9469049093D41C8093F2
:10499000D31C5EC0E0911E0FF0E0EE0FFF1FEE583B
:1049A000F14F81810E946C0B182FE0901E0FCE2DCD
:1049B000D0E0CC0FDD1FFE01EE58F14F61818091F8
:1049C000D31C9091D41C0E9469049093D41C8093B2
:1049D000D31C9091FD0D9F5F9093FD0D81E0E81237
:1049E0001EC080914A09E0914E09F0914F09E80FED
:1049F000F11D20818F5F80934A0930914B09381750
:104A000020F482E08093740E01C0F22ECE58D14F74
:104A10008881823021F09F3F11F0F98219C084E033
:104A200012C08091D31C0E946C0B182F85E00BC024
:104A30008091D41C0E946C0B182F86E004C00E9449
:104A40007E0B182F87E08093B30F02C088E003C06D
:104A5000112329F089E08093B30F0E945E020FBFFB
:104A6000FF91EF91DF91CF91BF91AF919F918F9186
:104A70007F916F915F914F913F912F911F910F9176
:104A8000FF90EF900F900BBE0F900FBE0F901F90F6
:104A900018951F920F920FB60F9211248F93809149
:104AA000C80087FD8091CE008F910F900FBE0F90B0
:104AB0001F90189578941F920F920FB60F921124A1
:104AC0000F900FBE0F901F90189578941F920F9221
:104AD0000FB60F9211240F900FBE0F901F901895D4
:104AE00078941F920F920FB60F9211240F900FBE61
:104AF0000F901F90189578941F920F920FB60F92F7
:104B000011240F900FBE0F901F90189578941F924C
:104B10000F920FB60F9211248F939F93809196005E
:104B2000909197009F918F910F900FBE0F901F90C3
:104B3000189578941F920F920FB60F9211242F930D
:104B40008F939F932FB7F8948091FE0D9091FF0D56
:104B500001969093FF0D8093FE0D2FBF9F918F9133
:104B60002F910F900FBE0F901F901895CFB7F8940C
:104B700014BE0FB6F894A895809160008861809368
:104B80006000109260000FBE48E150E06FEF70E0EF
:104B900088EF9AE00E94432B8FEF8093011C809353
:104BA000D01C56985E9854985C9880916F008F7DC9
:104BB00080936F00209A0E94AC01279A0E94AA015C
:104BC0000E9A169A86E79EE09093B20A8093B10AF5
:104BD0001092C20D8AE58093580B81E0809381008A
:104BE00080E28093B60083E08093B100209184003E
:104BF000309185008AE740918400509185004217EA
:104C0000530708F481509A018111F5CF8091B200C9
:104C10009091B2009817E1F32091840030918500C3
:104C20008091B2009091B2009817E1F380918400D6
:104C3000909185004096821B930B55E09695879541
:104C40005A95E1F79093031C8093021C1092B100D7
:104C5000109281001092B6001092B200109285005E
:104C6000109284008FEF87BB86BB8091B600857160
:104C7000E1F70A9A099A089A129A119A109A18B8A2
:104C80008FEF87B90C9814981092950010929400A9
:104C90008091710081608093710080919100887F84
:104CA0008260809391001092850010928400809120
:104CB0006F00816080936F0080918100887F8260A7
:104CC000809381000E940302D82F8F3F19F00E9429
:104CD0002A16F8CF83E192E09093EB1C8093EA1CB4
:104CE00002E016E06091021C7091031CCB01A0E071
:104CF000B0E0BC01CD012CE0660F771F881F991F23
:104D00002A95D1F7C12C31EED32EE12CF12CA7013D
:104D100096010E94522A215031092093C4003093F9
:104D2000C5000093C0001093C2001092C1006091B2
:104D3000021C7091031CCB01A0E0B0E0BC01CD01CE
:104D40004CE0660F771F881F991F4A95D1F7A7017E
:104D500096010E94522A215031092093CC003093B1
:104D6000CD000093C8001093CA001092C90084E4DB
:104D700090E09093F0108093EF101092720E1092CA
:104D8000740E8AE08093B30F1092FD0D1092220EE4
:104D90001092041C1092D41C1092D31C1092CE1CA2
:104DA00010921E0F0E94F1011092080F1092070F2F
:104DB00010923D09D093210E0E94E9068091B60021
:104DC00080628093B6008091B60081FDFCCF82E0C6
:104DD0008093B0008091B60080FDFCCF83E080938B
:104DE000B1008091B60083FDFCCF86EE8093B300C6
:104DF000809170008260809370000E945F088091B3
:104E0000210290912202AC014F5F5F4F60E070E0A1
:104E10004093BE0D5093BF0D6093C00D7093C10DB4
:104E20002DE03CE13093DF092093DE092CE33CE1E7
:104E30003093E1092093E0092BE63CE13093E3094C
:104E40002093E2098295807F80936309DFEFD093FE
:104E5000570B8FEF9FEF9093DF1C8093DE1C909396
:104E6000E11C8093E01C9093E31C8093E21C9093E0
:104E7000E51C8093E41C9093E71C8093E61C80E47F
:104E800091E0A0E0B0E08093510B9093520BA0937F
:104E9000530BB093540B81E18093110F1092001CBF
:104EA0001092F40A1092F50A1092F60A1092F70A7C
:104EB00010927E0A10927F0A1092800A1092810A44
:104EC0001092190B10921A0B10921B0B10921C0BC4
:104ED0000E9403038EE89AE09093B40A8093B30A89
:104EE000D0938F0AD0938E0A8DEC9DE09093B70FEC
:104EF0008093B60F84E08093970B0E9403028F3F4C
:104F000019F00E942A16F9CFCFBF78941F928BE038
:104F10008F938FE199E09F938F930E944A2B0E9479
:104F20002A131092AE0F49ED58E060E070E084E083
:104F30000E9493098FB7F8940F900F900F900F90E5
:104F40009091B30F9A3031F09091860B943011F01C
:104F50008FBF04C08FBF81E10E943F021092F31007
:104F60001092B70A1092B60A10926509109264095D
:104F700087EE98E00E945E2B0E94F61281E099E095
:104F80000E945E2B0E94F6121092A50E90912102B3
:104F900080912202E091B30AF091B40A9383828354
:104FA00080913A0F8D7F80933A0F81E0809367095B
:104FB000CFB7F8940E9403028F3F09F050C0809150
:104FC0007000837089F08091B6008A71E1F780915A
:104FD000B3009091B200891B8C3040F08091B200F8
:104FE000853F20F483E003C085E001C082E0E091CA
:104FF0006E00E670E9F490916F009E72E1F4E0912A
:105000007100EE72A9F40CB407FC15C09091C100B8
:10501000987189F4E091C900E87151F49091BC0055
:1050200092FD09C090917A0097FD04C0E5E003C0AD
:10503000E0E001C0E1E093B78E1708F4E82FF0E05C
:10504000E45FFE4F8491E92FE07FE160E82BE3BF4E
:1050500078948895F89483B78E7F83BFABCFCFBF0A
:105060000E942A16A5CF0E9447280C9483290E94EB
:105070007C2958F00E94752940F029F45F3F29F0FF
:105080000C945C2951110C94B7290C9462290E944C
:10509000942968F39923B1F3552391F3951B550B8C
:1050A000BB27AA2762177307840738F09F5F5F4FFB
:1050B000220F331F441FAA1FA9F335D00E2E3AF03A
:1050C000E0E832D091505040E695001CCAF72BD052
:1050D000FE2F29D0660F771F881FBB1F26173707A3
:1050E0004807AB07B0E809F0BB0B802DBF01FF27D5
:1050F00093585F4F3AF09E3F510578F00C945C292D
:105100000C94B7295F3FE4F3983ED4F386957795E6
:105110006795B795F7959F5FC9F7880F911D96958D
:10512000879597F90895E1E0660F771F881FBB1FE9
:10513000621773078407BA0720F0621B730B840B96
:10514000BA0BEE1F88F7E09508950E94AC2868948A
:10515000B1110C94B72908950E949C2988F09F579B
:1051600098F0B92F9927B751B0F0E1F0660F771F8B
:10517000881F991F1AF0BA95C9F714C0B13091F081
:105180000E94B629B1E008950C94B629672F782FB4
:105190008827B85F39F0B93FCCF386957795679546
:1051A000B395D9F73EF490958095709561957F4FB2
:1051B0008F4F9F4F089597FB16F40E9465290C941A
:1051C0001F29E89409C097FB3EF49095809570954F
:1051D00061957F4F8F4F9F4F9923A9F0F92F96E943
:1051E000BB279395F695879577956795B795F111B8
:1051F000F8CFFAF4BB0F11F460FF1BC06F5F7F4F55
:105200008F4F9F4F16C0882311F096E911C0772366
:1052100021F09EE8872F762F05C0662371F096E86F
:10522000862F70E060E02AF09A95660F771F881F3E
:10523000DAF7880F9695879597F90895E894F92FEE
:1052400096EBFF2381F0121613061406440B939578
:10525000F69587957795679557954040FF23B9F761
:105260001BC099270895882351F49850D2F7872BB3
:10527000762F652F542F432F322F20E0B1F31216D3
:1052800013061406440B88233AF09A95440F551FD1
:10529000661F771F881FCAF755234AF4440F551F0E
:1052A00011F460FF04C06F5F7F4F8F4F9F4F880FD7
:1052B0009695879597F9089597F99F6780E870E02C
:1052C00060E008959FEF80EC08959095809570952B
:1052D000609550954095309521953F4F4F4F5F4FCA
:1052E0006F4F7F4F8F4F9F4F089500240A941616DB
:1052F000170618060906089500240A9412161306C4
:10530000140605060895092E0394000C11F4882351
:1053100052F0BB0F40F4BF2B11F460FF04C06F5F6D
:105320007F4F8F4F9F4F089557FD9058440F551F43
:1053300059F05F3F71F04795880F97FB991F61F017
:105340009F3F79F087950895121613061406551F8E
:10535000F2CF4695F1DF08C0161617061806991FFA
:10536000F1CF86957105610508940895E894BB27EF
:1053700066277727CB0197F908950E94D0290C94CE
:1053800083290E94752938F00E947C2920F09523FA
:1053900011F00C945C290C94622911240C94B72907
:1053A0000E94942970F3959FC1F3950F50E0551F0B
:1053B000629FF001729FBB27F00DB11D639FAA276A
:1053C000F00DB11DAA1F649F6627B00DA11D661FB9
:1053D000829F2227B00DA11D621F739FB00DA11DDA
:1053E000621F839FA00D611D221F749F3327A00D94
:1053F000611D231F849F600D211D822F762F6A2F30
:1054000011249F5750409AF0F1F088234AF0EE0F94
:10541000FF1FBB1F661F771F881F91505040A9F7C1
:105420009E3F510580F00C945C290C94B7295F3F96
:10543000E4F3983ED4F3869577956795B795F795FD
:10544000E7959F5FC1F7FE2B880F911D9695879575
:1054500097F90895AA1BBB1B51E107C0AA1FBB1FE8
:10546000A617B70710F0A61BB70B881F991F5A95F0
:10547000A9F780959095BC01CD01089597FB072E63
:1054800016F4009407D077FD09D00E942A2A07FC61
:1054900005D03EF4909581959F4F08957095619544
:1054A0007F4F0895A1E21A2EAA1BBB1BFD010DC060
:1054B000AA1FBB1FEE1FFF1FA217B307E407F507C4
:1054C00020F0A21BB30BE40BF50B661F771F881FA0
:1054D000991F1A9469F760957095809590959B0136
:1054E000AC01BD01CF010895052E97FB1EF4009479
:1054F0000E94C52A57FD07D00E94522A07FC03D0FC
:105500004EF40C94C52A50954095309521953F4F07
:105510004F4F5F4F089597FB57FF0C949B2A9F9323
:105520008F930E949B2A6E1B7F0BAF91BF918A0BBA
:105530009B0B0895E894DF93CF93FC01DB010E945D
:105540002B2B7F936F93E9019A01AC01BF93AF932B
:105550003F932F93DF010E942B2B26F46C1B7D0BB6
:10556000820B930B9E01EB01FC010E943A2BAF9141
:10557000BF912F913F910E943A2BBE01CF01F901BB
:105580002F913F91CF91DF910895909580957095DF
:1055900061957F4F8F4F9F4F0895EE0FFF1F00249F
:1055A000001C0BBE0790F691E02D09940F93083074
:1055B00090F0982F872F762F652F542F432F322F5F
:1055C00022270850F4CF220F331F441F551F661F98
:1055D000771F881F991F0A95B2F70F91089597FBBF
:1055E00010F8169400080F93083098F00850232FF5
:1055F000342F452F562F672F782F892F902DF4CFDA
:10560000059497958795779567955795479537951D
:1056100027950A95AAF70F9108952A0D3B1D4C1D59
:105620005D1D6E1D7F1D801F911F08952A193B0966
:105630004C095D096E097F09800B910B08950024C8
:10564000A7FD00942A173005400550056005700538
:10565000800590050895A29FB001B39FC001A39F4C
:10566000700D811D1124911DB29F700D811D11249B
:10567000911D08950E942B2B460F571FC81FD91F3D
:1056800008F431960895DC0101C06D9341505040FB
:10569000E0F70895CF93DF93CDB7DEB7AE014B5F50
:1056A0005F4FFA0161917191AF018091EA1C909175
:1056B000EB1C0E948E2BDF91CF9108950F931F93C7
:1056C000CF93DF93E091EA1CF091EB1C238121FF43
:1056D0001BC08C01D0E0C0E0F80181918F01609186
:1056E000EA1C7091EB1CDB011896ED91FC91199767
:1056F000882331F00995892B79F3DFEFCFEFECCFD9
:105700008AE00995892B19F08FEF9FEF02C08D2F4A
:105710009C2FDF91CF911F910F9108952F923F926F
:105720004F925F926F927F928F929F92AF92BF92B1
:10573000CF92DF92EF92FF920F931F93CF93DF935D
:10574000CDB7DEB72C970FB6F894DEBF0FBECDBF36
:105750007C016B018A01FC0117821682838181FF23
:10576000BDC1CE0101964C01F7019381F60193FD75
:10577000859193FF81916F01882309F4ABC1853234
:1057800039F493FD859193FF81916F01853229F45E
:10579000B70190E00E949F2DE7CF512C312C20E0E3
:1057A0002032A0F48B3269F030F4803259F0833229
:1057B00069F420612CC08D3239F0803339F42160D6
:1057C00026C02260246023C0286021C027FD27C096
:1057D00030ED380F3A3078F426FF06C0FAE05F9ECD
:1057E000300D1124532E13C08AE0389E300D112441
:1057F000332E20620CC08E3221F426FD6BC1206452
:1058000006C08C3611F4206802C0883641F4F601D7
:1058100093FD859193FF81916F018111C1CF982FE5
:105820009F7D9554933028F40C5F1F4FFFE3F9835D
:105830000DC0833631F0833771F0833509F05BC0DA
:1058400022C0F801808189830E5F1F4F4424439456
:10585000512C540115C03801F2E06F0E711CF80193
:10586000A080B18026FF03C0652D70E002C06FEFFD
:105870007FEFC5012C870E94942D2C0183012C857C
:105880002F77222E17C03801F2E06F0E711CF8013D
:10589000A080B18026FF03C0652D70E002C06FEFCD
:1058A0007FEFC5012C870E94892D2C012C85206853
:1058B000222E830123FC1BC0832D90E0481659063D
:1058C000B0F4B70180E290E00E949F2D3A94F4CFAB
:1058D000F50127FC859127FE81915F01B70190E0DA
:1058E0000E949F2D31103A94F1E04F1A5108411453
:1058F000510471F7E5C0843611F0893639F5F801A5
:1059000027FF07C060817181828193810C5F1F4FE7
:1059100008C060817181882777FD8095982F0E5F80
:105920001F4F2F76722E97FF09C090958095709526
:1059300061957F4F8F4F9F4F2068722E2AE030E095
:10594000A4010E94D72DA82EA81844C0853729F499
:105950002F7EB22E2AE030E025C0F22FF97FBF2E35
:105960008F36C1F018F4883579F0B4C0803719F05B
:10597000883721F0AFC02F2F2061B22EB4FE0DC0AA
:105980008B2D8460B82E09C024FF0AC09F2F96601B
:10599000B92E06C028E030E005C020E130E002C0AA
:1059A00020E132E0F801B7FE07C060817181828199
:1059B00093810C5F1F4F06C06081718180E090E091
:1059C0000E5F1F4FA4010E94D72DA82EA818FB2DF3
:1059D000FF777F2E76FE0BC0372D3E7FA51450F447
:1059E00074FE0AC072FC08C0372D3E7E05C0BA2C7A
:1059F000372D03C0BA2C01C0B52C34FF0DC0FE01F9
:105A0000EA0DF11D8081803311F4397E09C032FF27
:105A100006C0B394B39404C0832F867809F0B3947E
:105A200033FD13C030FF06C05A2CB31418F4530CC6
:105A30005B18B32CB31468F4B70180E290E03C87A4
:105A40000E949F2DB3943C85F5CFB31410F43B18FE
:105A500001C0312C34FF12C0B70180E390E03C87D5
:105A60000E949F2D3C8532FF17C031FD03C088E79F
:105A700090E002C088E590E0B7010CC0832F8678E3
:105A800059F031FF02C08BE201C080E237FD8DE2A8
:105A9000B70190E00E949F2DA51438F4B70180E370
:105AA00090E00E949F2D5A94F7CFAA94F401EA0D3A
:105AB000F11D8081B70190E00E949F2DA110F5CFCC
:105AC000332009F451CEB70180E290E00E949F2D6F
:105AD0003A94F6CFF7018681978102C08FEF9FEF4E
