:100000000C948A010C94A9010C94A9010C94A901E7
:100010000C94A9010C94A9010C94A9010C94A901B8
:100020000C94A9010C94A9010C94A9010C94A901A8
:100030000C94A9010C94AD200C94A9010C94F62009
:100040000C9433200C94AD1F0C94EF1F0C942820BB
:100050000C946C200C94A9010C94A9010C94A90196
:100060000C941E210C94BA210C94A9010C942E22FC
:100070000C94A9010C94A9010C94A9010C9475236A
:100080000C9454230C945F230C946A230C948823BF
:100090000C9438230C94A9010C9449230C94A901C5
:1000A0000C94A9010C94A9010C94A9010C94A90128
:1000B0000C94A9010C94A9010C94A9010C94A90118
:1000C0000C94A9010C94A9010C94A90149156C1573
:1000D000D6155E16A21717185F182619CC18DF1848
:1000E0002C190D1CE41C0D1D221D471D561D141E30
:1000F000381E3A1E451E811E781EA31ED21E99224E
:10010000A422B922002307230E2315231C23000257
:100110000E060C0400002110422063308440A550DC
:10012000C660E770088129914AA16BB18CC1ADD13D
:10013000CEE1EFF13112100273325222B5529442E5
:10014000F772D662399318837BB35AA3BDD39CC38D
:10015000FFF3DEE36224433420040114E664C77431
:10016000A44485546AA54BB528850995EEE5CFF5DD
:10017000ACC58DD55336722611163006D776F66685
:100180009556B4465BB77AA719973887DFF7FEE72D
:100190009DD7BCC7C448E5588668A7784008611851
:1001A00002282338CCC9EDD98EE9AFF9488969997D
:1001B0000AA92BB9F55AD44AB77A966A711A500A25
:1001C000333A122AFDDBDCCBBFFB9EEB799B588BCD
:1001D0003BBB1AABA66C877CE44CC55C222C033C71
:1001E000600C411CAEED8FFDECCDCDDD2AAD0BBD1D
:1001F000688D499D977EB66ED55EF44E133E322EC5
:10020000511E700E9FFFBEEFDDDFFCCF1BBF3AAF6C
:10021000599F788F8891A981CAB1EBA10CD12DC1CA
:100220004EF16FE18010A100C230E3200450254060
:1002300046706760B9839893FBA3DAB33DC31CD3C0
:100240007FE35EF3B1029012F322D23235421452B0
:1002500077625672EAB5CBA5A89589856EF54FE50C
:100260002CD50DC5E234C324A01481046674476400
:1002700024540544DBA7FAB79987B8975FE77EF760
:100280001DC73CD7D326F2369106B0165766767650
:10029000154634564CD96DC90EF92FE9C899E9892C
:1002A0008AB9ABA94458654806782768C018E108A0
:1002B0008238A3287DCB5CDB3FEB1EFBF98BD89B00
:1002C000BBAB9ABB754A545A376A167AF10AD01AF0
:1002D000B32A923A2EFD0FED6CDD4DCDAABD8BAD4C
:1002E000E89DC98D267C076C645C454CA23C832C40
:1002F000E01CC10C1FEF3EFF5DCF7CDF9BAFBABFA0
:10030000D98FF89F176E367E554E745E932EB23E8F
:10031000D10EF01E11241FBECFEFD1E2DEBFCDBF44
:1003200012E0A0E0B2E0E2E6F2E500E00BBF02C0BE
:1003300007900D92A432B107D9F716E1A4E2B2E01A
:1003400001C01D92A131B107E1F70E94A5230C94D1
:100350002F290C9400002F980895289A08959FB78C
:10036000F8948091B5088F5F8093B5089FBF08957A
:100370000DB407FEFDCF8EB50895982F0DB407FE7E
:10038000FDCF8EB59EBD0895289808958627082E26
:100390008295807F8025092E982F82958F70082660
:1003A000869598278927880F880F880F80250895BC
:1003B000FC01CB014383528361839083BA0108958A
:1003C000FC0120816181862F90E0A0E0B0E0DC019B
:1003D00099278827B22B2381822B2281BC01CD0152
:1003E000722B0895E0EEF9E01182108284E0809390
:1003F00071041092B4081092EB0910927F041092CD
:1004000009081092080808958091F8148F3F69F048
:10041000E82FF0E0EE51FC4F90819093F8149F3F4D
:1004200011F49093F6159FEF908308958091B0009A
:100430008093B0008091B60081FDFCCF08952FB766
:10044000F8943091B2008091DA039091DB03A0918F
:10045000DC03B091DD03B99B0BC04091B300309138
:10046000B2000196A11DB11D840F911DA11DB11DEA
:10047000BC01CD01630F711D811D911D2FBF08951A
:100480009FB7F894E82FF0E0EE51FC4F20812F3F0A
:1004900099F4E091F615E81779F02091F8142F3FC0
:1004A00019F48093F81404C0F0E0EE51FC4F8083FF
:1004B0008093F61580E001C085E09FBF0895CF933B
:1004C000CFB7F8948091C515811108C080E10E94D2
:1004D0004002811103C081E08093C515CFBFCF9149
:1004E000089582E00C9440028091AA088A3021F499
:1004F00080917104843021F081E080933B02089563
:1005000082E10E94400210923B020895FC0120818A
:100510002251E20FF11D24852E3319F58C5693409C
:1005200001F5611119C0809193078F5F8093930744
:10053000E0919D03F0919E03808190E0982F8827A1
:100540002181822B20912102309122028217930770
:1005500019F484818F5F8483809182048D7F8093DE
:10056000820408952FB7F89480911002909111029F
:100570002FBF089540918400509185006FB7F89483
:1005800020918400309185002D5F3F4FF901E41BDD
:10059000F50BE817F90718F49C01240F351F2115F6
:1005A000310511F421E030E02150310930938B0006
:1005B00020938A0084E086BB80916F0084608093E2
:1005C0006F006FBF08950F931F93CF93DF938C013C
:1005D0008FB7F894C091AF08D091B0089E012F5EFC
:1005E0003E4F3093B0082093AF088FBF84E00E9445
:1005F0004002CE01B8010E940F288A5D9E4FDF9114
:10060000CF911F910F910895E5E1F7E0108239969F
:1006100087E0ED35F807D1F78FB7F8941092F2061E
:100620008FBF08950F931F932FB7F89480910408FC
:1006300090910508A0910608B09107086091840088
:1006400070918500B09B07C00196A11DB11D6091FE
:100650008400709185002FBF25E0769567952A95D7
:10066000E1F7AB0160E070E03BE0880F991FAA1F43
:10067000BB1F3A95D1F78A019B01082B192B2A2B16
:100680003B2BC901B8011F910F9108959FB7F894B2
:1006900080FF02C0129801C0129A81FF02C0119817
:1006A00001C0119A82FF02C0109801C0109A9FBF2A
:1006B00008950F931F930E941203AB01BC01809118
:1006C000110790911207A0911307B09114070091A0
:1006D000EB061091EC062091ED063091EE06080F26
:1006E000191F2A1F3B1F481759076A077B0730F05D
:1006F000081719072A073B0758F005C008171907FC
:100700002A073B0770F5401751076207730748F542
:10071000D901C801841B950BA60BB70B8130E4E00F
:100720009E07A105B10500F18A019B011C5F2F4FB7
:100730003F4F009311071093120720931307309334
:1007400014079450A109B1098093EB069093EC062D
:10075000A093ED06B093EE0680E094E0A0E0B0E058
:1007600013C080E090E0DC010093110710931207A2
:1007700020931307309314071092EB061092EC06A7
:100780001092ED061092EE0625E0880F991F2A952B
:10079000E1F735E0440F551F3A95E1F720918400C9
:1007A000309185002D5F3F4FB901641B750B6817B1
:1007B000790718F49C01240F351F2115310511F418
:1007C00021E030E0215031093093890020938800E6
:1007D00082E086BB80916F00826080936F001F91E2
:1007E0000F91089590914502E92FF0E0EE0FFF1F61
:1007F000EA54F74F4081518120914302222359F05E
:100800009F5F943119F09093450202C01092450207
:10081000215020934302CA01089590914202E92F8A
:10082000F0E0EE0FFF1FE756F84F40815181209115
:100830004002222359F09F5F943119F090934202B5
:1008400002C010924202215020934002CA01089532
:1008500090913F02E92FF0E0EE0FFF1FE95BFB4FA5
:100860004081518120913D02222359F09F5F9431B4
:1008700019F090933F0202C010923F022150209342
:100880003D02CA010895823031F0833031F0813069
:1008900031F40C94F2030C940D040C942804809110
:1008A000390490913A040895E4E1F1E06927660F74
:1008B000F11DE60FF11DC895982F802D3196C89532
:1008C0009025089520912F0290913A0221112FC076
:1008D00081112DC081E080932F0220910602209388
:1008E0002E02292F21702093A20320910002309123
:1008F000010230932D0220932C0220913902209383
:100900002B02292F21708227967EE82FF0E0EE0F30
:10091000FF1FEE5FFD4F2081318130930102209354
:100920000002982B90933A0285E10C94400290FFCC
:1009300002C09B7F01C09D7F90933A020895CF93A0
:10094000DF93D82FC62F80917104813061F028F099
:10095000823099F0833019F1E2C0DD2309F425C11A
:100960000E94F201ECC0D11120C16093EB098CEB25
:10097000860F823008F0D3C0E4C0D111D0C060939C
:100980007F0480910808909109080E945404909374
:1009900009088093080883E08093710406C1809160
:1009A000B4088F3F09F4BBC0DD2309F454C0823082
:1009B00008F4B5C0E091E009EE2311F0E15001C068
:1009C000E2E0AE2FB0E0A052B64F12962C9130E08C
:1009D000322F2227EE2311F0E15001C0E2E0F0E0D7
:1009E000E052F64F8281282B8091080890910908E7
:1009F0002817390709F093C080E00E9462048091B3
:100A0000EB098434A9F420917F04E091F5079091DB
:100A1000F60781E08E0F863008F4BDC0992341F0BF
:100A2000F0E0EB50F84F22831092F5070E945F022E
:100A30000E94F20180912A028D7F80932A02809188
:100A40003B02882309F4B1C084E080937104DF91F4
:100A5000CF910C947402823008F44CC0E091E1090B
:100A6000F0E0E052F64F928180913A02282F2695CD
:100A700026952695237030E02130310521F0223073
:100A8000310579F01EC0877E806180933A029923F8
:100A900011F080E001C085E0809339029093060256
:100AA00010C0809139028F3260F4E0910002F09121
:100AB0000102E80FF11D9083809139028F5F8093CE
:100AC00039028091E109E82FF0E0E052F64F6281AF
:100AD0008F5F833018F48093E10902C01092E1091E
:100AE00080910808909109080E9454049093090885
:100AF000809308088091E009E82FF0E0E052F64F7B
:100B0000C2838F5F833018F48093E00902C0109293
:100B1000E0098091B4088F5F8093B40846C00E94BA
:100B2000F20180912A028D7F80932A0281E00E9447
:100B3000620480913B02811187CFDD23B1F181E016
:100B40002BCF80910808909109080E94540490933B
:100B5000090880930808C43411F482E001C083E0DE
:100B60008093710490913A0290FF04C092FDD7CF18
:100B7000946003C091FDD3CF926090933A0280912C
:100B80003A02877E886080933A02109239028FEF92
:100B9000809306020AC0891709F44ACFF0E0EB50AF
:100BA000F84F22838093F50741CFDF91CF910895CD
:100BB0000F931F93CF93DF93FC0123813FEF320FFD
:100BC000333010F081E08AC0223029F0233031F038
:100BD000C091430205C0C091400202C0C0913D02D5
:100BE000FC018DE8C89FE00111248FE2289FC00D11
:100BF000D11D1124CF50D64F8E01045F1F4F8CE1C1
:100C0000D80101900D928A95E1F71E8A8091FF1517
:100C100090E0982F882720910016822B888F9F8B39
:100C2000CE014C960E94D8010115110559F28F850D
:100C3000823001F18330C1F1813009F04EC09091D2
:100C40004302943108F049C080914402E82FF0E05B
:100C5000EE0FFF1FEA54F74F118300838F5F84313B
:100C600019F08093440202C0109244029F5F909357
:100C7000430233C090914002943178F58091410253
:100C8000E82FF0E0EE0FFF1FE756F84F11830083C7
:100C90008F5F843119F08093410202C010924102AB
:100CA0009F5F9093400219C090913D029431A8F447
:100CB00080913E02E82FF0E0EE0FFF1FE95BFB4F53
:100CC000118300838F5F843119F080933E0202C04C
:100CD00010923E029F5F90933D0280E0DF91CF91A2
:100CE0001F910F910895E0919D03F0919E03208143
:100CF00030E0322F22278181282B81E04091210290
:100D0000509122022417350709F480E00895CF920C
:100D1000DF92EF92FF920F931F93CF93DF938C019B
:100D20006C018CE0C80ED11CF8019089F92E94302A
:100D300010F083E0F82EF801E588809148028130B8
:100D4000E9F424853585232BC9F48785813031F476
:100D50008091EF06980F9093EF0624C0823031F413
:100D60008091F006980F9093F0061CC08330D1F468
:100D70008091F106980F9093F10614C0C0E0D0E086
:100D8000DF1589F0F801D38F8D2F8E0D858B0E9492
:100D90001F02AB01BC01C6010E94D8058111C82FFA
:100DA000DF5FEECFC0E08C2FDF91CF911F910F91CD
:100DB000FF90EF90DF90CF900895CF93DF93DFB750
:100DC000F894C0914602C11109C081E080934602A7
:100DD0001092090289E00E94400218C080910F071A
:100DE0008F3F99F4E0910A02EE2379F080910B0293
:100DF0008F3F19F410920B0204C0F0E0E15FF84F4E
:100E0000108210920A02C0E001C0C5E0DFBF8C2F43
:100E1000DF91CF9108959C01809135029091360227
:100E2000892BB1F59FB7F89485E080933302109237
:100E30003202309338022093370222E030E03093C0
:100E40003602209335021092300210923102645F14
:100E5000609334029FBF8FB7F8949091AA089A309C
:100E600011F48FBF17C08FBF9FB7F89480916207AE
:100E7000811106C081E0809362071092630701C070
:100E800080E09FBF882331F00E945F0280E00895D8
:100E900085E00895109236021092350281E008959F
:100EA0008FEF80939A158093991584E680939F1510
:100EB0008091F5149091F614892BF1F484E995E171
:100EC0009093F6148093F5148CE180939D15809196
:100ED0000702882391F0109207026CE184E995E102
:100EE0000E940B07882349F091E09093070210922B
:100EF000F6141092F514089585E008958091270264
:100F00008C3118F4482F50E002C04CE150E09CE1D5
:100F1000E0EAF5E1DF011D929A95E9F79091290247
:100F200020E030E02417350799F0E92FF0E0E25295
:100F3000F74F6081882329F09F5F9A3F09F490E082
:100F40008150F901EC56FA4E64872F5F3F4FEACF8C
:100F500090932902809327020E945007882319F05A
:100F600086E10C9440020895CF93DF931F92CDB792
:100F7000DEB79091260291110BC0909127029D3708
:100F800038F091E09093260289830E947E07898140
:100F90003FB7F894209127022A3FB8F49091280295
:100FA000E92FF0E0E252F74F808381E0890F8A3F1A
:100FB00019F08093280202C0109228022F5F20931C
:100FC00027023FBF80E090E003C03FBF8FEF9FEF5D
:100FD0000F90DF91CF910895CF93DF93DFB7F8940F
:100FE00080914702823021F5C0910C02C11120C0CE
:100FF00090910E029F3FB1F0E92FF0E0EE5BFB4FC6
:10100000808180930E028F3F11F480930D028FEF49
:10101000808390930C0281E08093470280E00E94DD
:10102000400204C090930C0210924702DFBF02C03E
:10103000DFBFC1E08C2FDF91CF910895CF93DF9375
:10104000DFB7F89480914602823039F5C0910902E9
:10105000C11123C090910B029F3FB1F0E92FF0E046
:10106000E15FF84F808180930B028F3F11F48093F2
:101070000A028FEF80839093090281E080934602F9
:1010800089E00E94400204C0909309021092460237
:101090008CB58F7B8CBDDFBF02C0DFBFC1E08C2F62
:1010A000DF91CF910895CF92DF92EF92FF920F934D
:1010B0001F93CF93CFB7F8942091B3009091B200D3
:1010C00087B3291711F081FF02C0CFBF7CC0809188
:1010D0008004811102C086EE3FC00E941F02C090B2
:1010E0006403D0906503E0906603F090670300917D
:1010F000FF14109100152091011530910215AB01DC
:10110000BC014C195D096E097F0940175107620740
:10111000730728F01092800486EE91E01EC0D9017A
:10112000C8018C0D9D1DAE1DBF1D4091DA0350916D
:10113000DB036091DC037091DD03841B950BA60B30
:10114000B70B873E9105A105B10528F682309105C0
:10115000A105B10508F482E090E02FEF280F30914F
:10116000B60033FDFCCF3091B2002313822F4091A3
:10117000DA035091DB036091DC037091DD038A0197
:101180009B010F5F1F4F2F4F3F4F080F111D211D58
:10119000311D041715072607370710F4842F809593
:1011A0002091B60023FDFCCF8093B300CFBF9923DD
:1011B00051F085E0CF911F910F91FF90EF90DF905C
:1011C000CF900C944002CF911F910F91FF90EF9020
:1011D000DF90CF9008950F931F932FB7F89440910D
:1011E000B2065091B3066091B4067091B506809135
:1011F000840090918500B09B08C04F5F5F4F6F4F98
:101200007F4F80918400909185002FBFBA015527B0
:101210004427A0E0B0E08A019B01082B192B2A2B60
:101220003B2BC901B8011F910F9108958091430292
:10123000882319F00E94F203F9CF8091400288239D
:1012400019F00E940D04F9CF80913D02882319F016
:101250000E942804F9CF0895CF93DF931F92CDB752
:10126000DEB789830E94C401898180688EBD80E0D9
:101270000E94BD010E94B80189830E94AD0189814D
:101280000F90DF91CF9108951F93CF93DF931F921B
:10129000CDB7DEB7182F69830E94C401912F906CDF
:1012A0009EBD89810E94BD010E94B8010F90DF910F
:1012B000CF911F910C94AD018CB58F7B8CBD229A80
:1012C0002398219A209A8CB580618CBD8CB58F773C
:1012D0008CBD8CB5877F8CBD8CB58B7F8CBD8CB560
:1012E00080648CBD8DB581608DBD8CB58C7F8CBDCF
:1012F0000895CF93DF93FC01228130E0322F222723
:101300004181242B25FF15C027743C7C21343848AB
:1013100081F4FC01C781D0E0DC2FCC278681C82B6B
:101320000E94B20221E0C817D90709F020E0822FFD
:1013300001C080E0DF91CF910895CF92DF92EF92CC
:10134000FF92CF93C82F6A017B010E941F0229E000
:10135000C29FF0011124DF01A25FB74F6D937D930F
:101360008D939C9313971496CD92DD92ED92FC92FF
:101370001797EA5EF74F808181608260808386E004
:10138000CF91FF90EF90DF90CF900C9440024F925E
:101390005F926F927F928F929F92AF92BF92CF9205
:1013A000DF92FF920F931F93CF93DF93AEE0B8E0ED
:1013B000C12CD12C49E04C9DF0014D9DF00D112424
:1013C000EF01C25FD74FF884F1FE8BC00D911D91E4
:1013D0002D913C91139714968D909D90AD90BC905B
:1013E00017972B013C01401A510A620A730A4814EC
:1013F00059046A047B0408F474C0F0FE06C0EA5E77
:10140000F74F20812D7F20830AC0B901A801480D24
:10141000591D6A1D7B1D488359836A837B8322E0A3
:10142000C216D9F02C1548F081E0C81263C08FB7FE
:10143000F894109249028FBF5DC024E0C21609F4EF
:1014400045C085E0C81256C04EEA5BE060E070E03F
:1014500085E00E949D0988E141C080915002811180
:101460002FC0E0919D03F0919E03808190E0982F22
:1014700088272181822B019671F4809193078F5FD9
:1014800080939307853038F01482909121028091E7
:10149000220291838083E0919D03F0919E038081DD
:1014A00090E0982F88272181822B019619F1809155
:1014B000820481FD1FC08260809382048BE00EC095
:1014C000809128088D7F8093280814C04AE75DE04A
:1014D00060E070E084E00E949D0987E10E94400284
:1014E00009C02FEFC21AD20A199626E0C216D104FB
:1014F00009F061CF86E0DF91CF911F910F91FF90AE
:10150000DF90CF90BF90AF909F908F907F906F9023
:101510005F904F900C944002CF92DF92EF92FF9237
:101520000F931F93CF93DF93EC01C880D980EA809B
:10153000FB808091680390916903A0916A03B09148
:101540006B03A7019601281B390B4A0B5B0BCA01E1
:10155000B9010E94C8262091DE033091DF0340913B
:10156000E0035091E1030E94A2270E948A26009185
:101570000404109105042091060430910704DC0155
:10158000CB01800F911FA21FB31FC80ED91EEA1EE8
:10159000FB1EC882D982EA82FB828091F2068430E7
:1015A00050F4DF91CF911F910F91FF90EF90DF905A
:1015B000CF900C94730680E0DF91CF911F910F9133
:1015C000FF90EF90DF90CF900895CF938FB7F8946E
:1015D00090910902911106C090914602923011F447
:1015E0008FBF0FC08FBFCFB7F89480914602811193
:1015F0000AC082E080934602109209020E945C09B0
:10160000CFBF81E004C0CFBF0E94DD0680E0CF9154
:10161000089510920702E091F514F091F6143097B6
:10162000D1F08091E70680FD16C0809107028111FC
:1016300016C02581868161856D3118F08FE00C948C
:10164000400290E0922B86839583CF010E940B0786
:10165000882329F0F3CF81E080930702E6CF089535
:1016600080915D0790915E07892BC1F581E090E044
:101670009093E9098093E80983E094E090935E07F2
:1016800080935D0710927D0410927C0481E080932A
:101690007E048091C00080648093C0008091C1006E
:1016A00080648093C10080917C0490917D049C01B2
:1016B0002F5F3F4F30937D0420937C04FC01ED5F4E
:1016C000FB4F80819FB7F8948093C6008091C00043
:1016D00080648093C0009FBF80E0089585E00895F6
:1016E00093E8980F923050F490912A029160909371
:1016F0002A0290E289278093B1088DE78093030442
:101700000C94300B9FB7F89480912A028E7F8093BF
:101710002A028EE7809303049FBF0C94300B2F9214
:101720003F924F925F926F927F928F929F92AF9271
:10173000BF92CF92DF92EF92FF920F931F93CF93BE
:10174000DF9320915102222311F0D5E0D6C0D09131
:101750009315D530D1F72091E5092111F6CF8C01F1
:101760000E94E50A882389F3F80184A582FF03C05B
:1017700066A56F7001C060E080919807681731F02E
:1017800060939807606885E00E944409F80122810F
:1017900030E0322F22278181282B27743C7C213492
:1017A0003848A1F486E00E942C098F7190E04091A6
:1017B000AD062091430430E0240F311D43E0359500
:1017C00027954A95E1F7281739074CF169E082E03F
:1017D0000E9444090E94EB082B013C0148018FEF55
:1017E000881A980AF801C08184A59EEF392E3C0E14
:1017F00084FF09C09801281939098BEF8C0FD82E66
:10180000D20E3D1802C0D32C312C81E00E942C094D
:101810008F71893039F066E082E00E9444090E94AD
:101820001E086BC08FB7F8942F9AE0908400F09058
:1018300085008FBF0E94AB010E94C40180E68EBD6F
:101840008C2F0E94BD01E401CD2C89910E94BD0125
:10185000CA94C110FACFDA94CD2DD0E05401AC0E69
:10186000BD1E2196C80DD91D6701F2EACF0ED11C0D
:10187000C418D508EE24D7FCE094FE2CC40CD51C6B
:10188000E61CF71C332011F18FEFA81AB80AC50126
:101890000E94E0012B013C01AB01BC014C195D0928
:1018A0006E097F09C5010E94D8012C2E8C2E9D2E19
:1018B000F40181914F010E94BD01882D821983118D
:1018C000F7CFB301A201C5010E94D8010E94B8015F
:1018D0000E94AD0166E082E00E944409F80184A5FF
:1018E000826084A7C0A6D1A6E2A6F3A686E0809374
:1018F000931584E080935102D0E08D2FDF91CF913A
:101900001F910F91FF90EF90DF90CF90BF90AF901D
:101910009F908F907F906F905F904F903F902F900F
:1019200008953F924F925F926F927F928F929F9213
:10193000AF92BF92CF92DF92EF92FF920F931F93DD
:10194000CF93DF9300D0CDB7DEB714E030E8A32EFD
:1019500005E043E0D42E59E0852E62E0C62E78E003
:10196000B72E8BEF93E0E5E09E2E980E8091A608AF
:10197000823009F07DC01092A60880915F07823006
:1019800009F459C0833009F461C0813009F070C096
:1019900020918400309185006090000870900108CB
:1019A000621A730A90917004903841F41092700496
:1019B00090916F04923009F05BC03AC097FF04C069
:1019C000161417040CF4A8C3E0904504F0904604E4
:1019D0008091A8038111A0C3C7010E948F0B282FFB
:1019E00081119BC3D7019C968C919C978E7F9C966E
:1019F0008C9381E08093A803F092F815E092F7159C
:101A0000D092700435C097FF9FC3161417040CF0D2
:101A10009BC3A092700481E080935F078093A60827
:101A2000C30129830E94BA0229812093031581E012
:101A300080936F0408C01092A80310927004109253
:101A4000031510936F040E94710212C090919315B8
:101A5000923019F48093931509C080915102863019
:101A600029F41092510281E00E942C090E94D012A8
:101A70008091E509882309F4B3C0809193158130E2
:101A800009F4AEC00E94E50A882309F4A9C08FB703
:101A9000F8946090B6067090B7068FBF1092E50973
:101AA0008FE00E942C09F82E809151028B7F8330A9
:101AB00021F400939315B0925102F2FE4AC0809136
:101AC0005102863011F4109251028091510281111D
:101AD00040C0B4E0FB1234C086E00E942C098F7134
:101AE00090914304292F26952695921B980F909349
:101AF0004304E0919B03F0919C0394A59B7F986025
:101B000094A786A70E94EB08930127503109261B52
:101B1000370B2901662457FC6094762CE0919B03D7
:101B2000F0919C0324A5226024A7AB01BC01440DC5
:101B3000551D661D771D40A751A762A773A707C053
:101B4000E0919B03F0919C0384A5857F84A700937B
:101B50005102F3FE45C080915102843081F500931B
:101B60009315109251028091A803833019F41092BA
:101B7000A80336C0E091F715F091F815828190E046
:101B8000982F88272181822B85FF0EC087749C7C2B
:101B90008134984849F4878190E0982F88272681DE
:101BA000822B019609F0D3C21092A8031092700400
:101BB0001092031510936F040E94710211C08530BA
:101BC00079F486E00E942C099091AD068F71292F3F
:101BD00026952695921B980F9093AD068092510200
:101BE00080915102882309F44DC2893009F0BCC1AB
:101BF0000E94C40180E28EBD0DB407FEFDCF8EB5FC
:101C00001EBC0DB407FEFDCF8EB59DEF980F973229
:101C100008F07AC01EBCE0919B03F0919C033F0149
:101C20005FEF651A750A8083AEEF5A2E580E86E074
:101C3000851510F0452C02C0F7E04F2E7301342CAF
:101C400040E050E080E049835A830E94BD01D70103
:101C50008D937D01682F49815A81CA010E94C60176
:101C6000AC013A943110EECF2FEF240D30E02F5F0E
:101C70003F4F620E731EE0919B03F0919C038181A4
:101C80008770823029F48091A8038230D9F50BC087
:101C90009FB7F89481E02091D809233008F080E0C4
:101CA0009FBF882379F1852D84197301680E80E028
:101CB00049835A836E1469F00E94BD01F701819334
:101CC0007F01682F49815A81CA010E94C601AC0177
:101CD000EECF0E94BD01682F49815A81CA010E943E
:101CE000C6017C0180E00E94BD01682FC7010E94EF
:101CF000C6017C010E94B801E0919B03F0919C0316
:101D000085A705C00E94B801EE24E394F12C0E943F
:101D1000AD010093931510925102EF2809F0A9C16B
:101D200040909B0350909C03D20111968C91119787
:101D300087709091A803823029F5923009F00FC185
:101D4000E091F715F091F81513969C918381981303
:101D500006C180916F008B7F80936F001092A60860
:101D6000E091F715F091F81584A5816084A7109291
:101D7000A803109270041092031510936F040E9430
:101D80007102EDC0911117C0C2010E947909882328
:101D900091F00093C207C092C3071092C407F201EA
:101DA00083818093C50782EC97E00E948F0B81119D
:101DB00002C0D092A803E0908400F0908500C20198
:101DC0000E947909882321F0F4EEEF1AFCEFFF0A54
:101DD000F0920108E09200088091840090918500C3
:101DE0009701281B390BC90118161906ACF420916C
:101DF000700421110EC02091A60821110DC021E010
:101E000020935F072093A6080E94BA02A092700454
:101E100003C0206820937004D20119968C91199701
:101E200090E0982F882718962C91822B2091F515F9
:101E3000422F50E0FA01EE0FFF1FEF5FF94E608175
:101E40007181F090FB156817790711F4FA0110C041
:101E5000A1E0B6E1EBEFF3E020E030E070E060E01D
:101E60004D915D914817590779F42093F515F901C3
:101E7000E550FC4F80818F1509F43FC0F394F09238
:101E8000FB15F08260E822C041915F2D541B65175D
:101E900010F4722F652F2F5F3F4F2530310501F76A
:101EA0007093F515272F30E0F901EE0FFF1FEF5F5C
:101EB000F94E91838083F394F092FB15F901E5507C
:101EC000FC4FF082F901ED55FC4F10828091FB151B
:101ED000982F9F779F3719F02091F5150EC06F3717
:101EE000D8F3EBEFF3E0282F207890819F679813C9
:101EF000208331969E12F9CFEFCFD20113969C9199
:101F0000E22FF0E0DF01AD55BC4F8C91E652F64F69
:101F100080FF04C08081981303C021C081608C932E
:101F20009083FFB6F8948091D8098330B8F4E0919B
:101F3000FC14E80FE33008F0E350F0E0EE0FFF1F71
:101F4000E953FD4F7080E180518240828F5F809322
:101F5000D80983E00E944002472C5E2CFFBE5092BD
:101F60009C0340929B0385C09FEF980F933008F02D
:101F70006EC09EEF980F9230D8F5209193152130C6
:101F800099F49091A60891110FC029830E94AB018A
:101F9000D0925F0729812093A6088BE293E00E94EC
:101FA000BA02C09293153EC0833011F5233001F57B
:101FB0000E94E50A8823E1F08FE00E942C098091BD
:101FC000810080648093810080E286BB80916F00F5
:101FD000806280936F0060913B04606688E00E949D
:101FE000440966E082E00E944409109393151AC0E8
:101FF0008091510281508230A8F4809193158530F0
:1020000089F40E94E50A882369F063E082E00E9477
:10201000440980916F008F7D80936F001092E509D5
:10202000D092931580915102813041F49091931593
:102030009330F9F42F9A8093931506C08230C9F437
:10204000809193158330A9F4B092510212C0873069
:1020500081F40E94E50A882361F060913B04606688
:1020600088E00E94440980919315853069F71093A8
:10207000931580915102883029F41092510281E029
:102080000E9440028091510281111DC080919315E0
:102090008530C9F48091E509811115C08091A803AC
:1020A000811111C08091700481110DC08091A6082A
:1020B000811109C080916F04823029F481E08093FE
:1020C0006F040E94710280915102811103C087E068
:1020D0000E9440028FB7F8949091B5089130B9F4FE
:1020E0001092B5088FBF0F900F90DF91CF911F9185
:1020F0000F91FF90EF90DF90CF90BF90AF909F90A7
:102100008F907F906F905F904F903F90089591E0F7
:102110009093B5088FBF2ACC25E090917004892F49
:102120008F77813009F06FCC907892609093700433
:1021300080E198E00E94E30221E020935F07209372
:10214000A6080E94BA0294CC109270046ECC8091C2
:10215000A608811129CDC0925F0781E08093A6086F
:1021600089E993E00E94BA02C092A80339CD9FB7D3
:10217000F8948091B50881508093B508803811F0AB
:102180009FBF089581E08093B5089FBF0C94910C88
:102190000F931F93CF93DF931F92CDB7DEB78C01C0
:1021A0008FE3F801828790914C029F5F90934C02DD
:1021B00093830E94AF0180916F0481110DC0109331
:1021C000AC080093AB0881E080936F041092A808DC
:1021D0000E94710280E001C085E089830E94B710EF
:1021E00089810F90DF91CF911F910F910895FF92F8
:1021F0000F931F93CF93DF93EA012D3108F068C04E
:10220000EA81F0E0FE2FEE279981E92BAF014774B8
:102210005C7C4134584839F0E073FF27E164F8688A
:10222000E98398E89A838B01F82E235F28830E9424
:10223000B202888799879FB7F89480910F029FBF59
:102240008C831D82FB860E831F838FB7F894909139
:10225000470291110FC092E09093470210920C0236
:102260008FBFCE010E94C810C82F882391F10E9411
:10227000EC072FC08FBFD0934104C0934004DFB759
:10228000F894C0914702C11109C081E080934702D0
:1022900010920C0280E00E94400218C0809142041B
:1022A0008F3F99F4E0910D02EE2379F080910E02B8
:1022B0008F3F19F410920E0204C0F0E0EE5BFB4F6A
:1022C000108210920D02C0E001C0C5E0DFBF01C066
:1022D000C6E08C2FDF91CF911F910F91FF90089551
:1022E00010920802E0910208F09103083097C9F0BB
:1022F0008091FE1480FD15C080910802811115C0E7
:1023000020812D50678170E0762F66278681682BAB
:10231000AF0183850E94F710882339F08DE00C947B
:10232000400281E080930802E7CF0895EF92FF9288
:102330000F931F93CF93DF931F92CDB7DEB7182F64
:102340007B0180910802811113C080910208909155
:1023500003088617970761F4109203081092020889
:1023600049830E9470114981642FC7010E9486022F
:102370001A3019F01B3069F00BC18FB7F894109226
:1023800044048FBF84E5E81682E0F80609F000C136
:10239000F4C0C7010C969093D9038093D803F7013A
:1023A000178584A580FF47C080914902811143C0F1
:1023B00081E38093A2089BE08091A2088823D9F052
:1023C000282F30E0929FD001939FB00D1124AD577C
:1023D000BB4F21503109929FF001939FF00D1124C2
:1023E000ED57FB4F292F01900D922A95E1F781506F
:1023F0008093A208E1CFF70185898093840410922D
:102400008304868580938504C7014C960E94E00171
:10241000AB01BC0186E894E00E94D801C701809618
:102420000E94E001AB01BC018AE894E00E94D8015F
:102430008FEF810F6DC09FB7F8948091FD148F5F6F
:102440008093FD142091A708281710F48093A70803
:102450009FBF0FB7F89480914802882391F00FBF77
:102460009FB7F8948091FD149FBF8430E0F10E94E3
:1024700016098FB7F8941092FD14109248028FBF7E
:1024800032C08091FD14823050F381E08093480285
:102490009091EF0680914302890F8093EF0690910F
:1024A000F00680914002890F8093F0069091F1062A
:1024B00080913D02890F8093F10680914302882329
:1024C00019F00E94F203F9CF80914002882319F09D
:1024D0000E940D04F9CF80913D02882309F4BFCFFB
:1024E0000E942804F8CFE091D803F091D9038FB768
:1024F000F8949091FD148FBF208131818FEF810F6F
:102500002130310519F4943018F408C0923030F0BD
:10251000833048F5812F0E94430425C0833018F58D
:10252000123051F0133081F0E0914502F0E0EE0FEF
:10253000FF1FEA54F74F0FC0E0914202F0E0EE0FA8
:10254000FF1FE756F84F07C0E0913F02F0E0EE0FA3
:10255000FF1FE95BFB4F0190F081E02D309719F0F0
:1025600082858F5F82878FB7F894109244048FBF63
:10257000F4E5EF16F2E0FF0659F48091A003909184
:10258000A10301969093A1038093A0031092EA09FE
:102590000F90DF91CF911F910F91FF90EF900895D1
:1025A0009FB7F8948091B508882329F080688093BC
:1025B000B5089FBF089581E08093B5089FBF0C9434
:1025C000910CCF93DF931F92CDB7DEB70E94AF017E
:1025D00080916F04811119C080915102811115C041
:1025E00080919315813029F48091A60881110DC046
:1025F00002C0853099F083E0809351020E94D0128E
:1026000085E080936F0480E001C085E089830E94AB
:10261000B71089810F90DF91CF91089589E0F6CFAF
:102620008FB7F89408958FBF08958FB7F89490915D
:102630002602913011F48FBF0EC0909127029111A4
:1026400004C08FBF81E090E0089591E0909326024E
:102650008FBF0E947E0780E090E00895CF92DF92C6
:10266000EF92FF920F931F93CF93DF93CFB7F8941E
:102670000E94120300913C0410913D0420913E04FD
:1026800030913F04DC01CB01800F911FA21FB31FCB
:102690008093AE069093AF06A093B006B093B106B8
:1026A000CFBF2FB7F89480910D0890E0019660910C
:1026B000FF0770E00E94232880930D082FBFC09170
:1026C0000D082FB7F894809112028823E9F1E3E80E
:1026D000F2E082E090E08193919332E0E339F307F6
:1026E000D1F78091210290912202009739F481E084
:1026F00090E0909388028093870224C081309105F6
:1027000029F490938A02809389021CC0823091053B
:1027100039F481E090E090938C0280938B0212C098
:102720008330910539F481E090E090938E0280939C
:102730008D0208C0049731F481E090E09093840208
:102740008093830210921202C093C6028091DF0927
:102750008C1769F08091FF1590E0982F88273091B1
:102760000016832B0196809300169093FF15F0902E
:10277000FF15D0910016C093DF092FBF8091490249
:102780000C2F10E0813071F080914802813041F4CB
:10279000C8018095909568E070E00E94232802C0EF
:1027A0008C2F87700E944603000F111FF801ED5710
:1027B000FD4F008111810E941513C13069F5809190
:1027C000210290912202892B09F0CFC030E03F29ED
:1027D00085EB93E090930204809301041092B6037A
:1027E0001092B50380E090E08D2B8093B903309375
:1027F000B803809144048111B8C025E049EA53E050
:102800006FEF7FEF8AE00E94F7108111AEC08FB7A3
:10281000F894C0934404A8C00130110509F0A5C084
:1028200080914802813009F0C8C0E0913904F091EC
:102830003A048FB7F894109248021092FD148FBF9B
:1028400081E090914802992309F4BBC0813009F4DA
:10285000B8C086E194E090934B0280934A028CE1E9
:10286000A6E1B4E001900D928A95E1F7CFB7F89414
:102870002091210230912202E0914A02F0914B0214
:1028800027838681A901415051094230510508F042
:10289000D2C09DEF980F923008F0CDC090E0235049
:1028A00031092230310508F4C8C090870E941F0208
:1028B000AB01BC0180914A0290914B0244960E9468
:1028C000D801E0914A02F0914B028091FD14808F73
:1028D00080914404CFBF811148C08091C10781110C
:1028E0000E94E1128091490281110BC080910B047A
:1028F000806220910C0490E0922B80930B049093C3
:102900000C042FB7F8948091FF1590E0982F88273A
:1029100030910016832BE0914A02F0914B0286879A
:1029200095878091EF06818F8091F006828F80914C
:10293000F106838F1092EF061092F0061092F106C6
:102940002FBFE0914A02F0914B02608570E02CE1CC
:102950004AE054E08BE00E94F710811106C08FB767
:10296000F89491E0909344048FBFC0903C04D090C1
:102970003D04E0903E04F0903F040E941203CFB764
:10298000F894609311077093120780931307909344
:102990001407C092EB06D092EC06E092ED06F0929E
:1029A000EE060E945903CFBFDF91CF911F910F9187
:1029B000FF90EF90DF90CF90089580E0E3EFF6E096
:1029C00040CF80914302882341F0E0914502F0E03E
:1029D000EE0FFF1FEA54F74F17C080914002882383
:1029E00041F0E0914202F0E0EE0FFF1FE756F84F92
:1029F0000BC080913D02882359F0E0913F02F0E046
:102A0000EE0FFF1FE95BFB4F0190F081E02D21CF1E
:102A10008FB7F8941092FD148FBF9091400280916F
:102A20004302890F90913D02890F09F49ECF87E000
:102A30000E944603FFCF982F32CF8150823008F09A
:102A400034CF90E032CF2F923F924F925F926F92AD
:102A50007F928F929F92AF92BF92CF92DF92EF922E
:102A6000FF920F931F93CF93DF93CDB7DEB7C4547C
:102A7000D1090FB6F894DEBF0FBECDBF90E089310B
:102A8000910510F00C94931FFC01EA59FF4F0C9430
:102A9000B2288FB7F89492E0909347028FBF80914D
:102AA0000C0281110C94931F809140049091410479
:102AB0000E94C810882311F40C94931F24968FAFA2
:102AC00024970E94EC07E0914004F0914104249681
:102AD0004FAD2497BF01C2C080916F0410926F0464
:102AE000853009F04BC04CE150E069E970E083EFBC
:102AF00096E00E9428291FB7F8941092C107809190
:102B00000904811138C08091210290912202892B01
:102B100061F48FB7F89410920D088FBF80916F0009
:102B20008D7F80936F000E942E1381E080930904B3
:102B300040E85CE060E070E04093940750939507B4
:102B4000609396077093970786E080930004409304
:102B5000F1075093F2076093F3077093F4074093E3
:102B60003C0450933D0460933E0470933F04809373
:102B700081048093FF071FBF0C94931F863071F46C
:102B800080919F03882311F40C94931F10929F034C
:102B90008FB7F89491E09093C10747C2873011F442
:102BA0000C94931F80936F040C94931F0E94AF01A9
:102BB00000916F04013091F58091A8088F5F809398
:102BC000A808863058F58091AB089091AC08209108
:102BD0007004211115C01091A608111111C0909315
:102BE000460480934504009370048BED91E10E94AC
:102BF000E30200935F070093A6080E94BA0201C097
:102C000015E010930315111104C083E080936F0445
:102C100008C082E080936F0410E003C010926F043C
:102C200011E00E94B710112311F40C94931F4091EE
:102C300003150091AB081091AC08D8011A968C913D
:102C40008F3311F00C94931F24964FAF24970E945A
:102C5000EC0724964FAD2497B801F80183850E94B4
:102C600096110C94931FE091FC14F0E0EE0FFF1FFF
:102C7000E953FD4F008111818FBFD8012C918EEF58
:102C8000820F893010F5902F812F3FB7F894209153
:102C9000FC14E22FF0E0EE0FFF1FE953FD4F90838D
:102CA000818381E0820F833008F049C18093FC1456
:102CB0008091D80981508093D8093FBF8FB7F8948D
:102CC0009091D8099111CFCFB0C11A968C911A97D3
:102CD0008F3309F020C185EF820F8230A0F21B965E
:102CE0003C911B971796EC901797F12CFE2CEE2435
:102CF00016968C91E82ABFEFEB16FB0651F4F8010B
:102D000094814FB7F89480910F024FBF9817A1F0AC
:102D1000BACF24962FAF249725963FAF25970E94D0
:102D2000B20224962FAD249725963FAD2597E8163D
:102D3000F90609F0A8CFE3CF3B30D1F13D3309F4D8
:102D4000C9C03A3009F09FCF818590E0982F88273D
:102D50002085822B9093B3088093B2089801245F5A
:102D60003F4F3093020420930104209121023091BF
:102D70002202232B09F487CF892B09F084CF8FB748
:102D8000F89410920D088FBF80916F008D7F809313
:102D90006F000E942E13FFB6F89480914F028111AC
:102DA00005C0B1E0B0934F020E941609FFBE6BCF81
:102DB0008FB7F894D090C6028FBFF80191898289AD
:102DC0009936C9F48332B9F440898091490281115E
:102DD0005ACF8FB7F894F1E0F09349028FBF24E601
:102DE000429FA0011124662757FD6095762F81E050
:102DF0000E949D0948CFE82EF12C809121029091EC
:102E00002202E816F90661F00E941F02AB01BC0124
:102E100080914902811104C0C8010C960E94D80516
:102E2000ED2DF0E0EE0FFF1FED57FD4F80819181FA
:102E3000029711F00E9415138091210290912202B5
:102E4000E816F90609F01FCF31E33093A20820916C
:102E5000A2082223E1F0822F90E0DC01AA0FBB1F21
:102E6000A80FB91FA353BD4F0197FC01EE0FFF1F21
:102E70008E0F9F1FFC01E353FD4FC080D180E28085
:102E8000CD92DD92EC9221502093A208E0CFD801A0
:102E900055968C9155978093CE021092CD021E9636
:102EA0008C911E978093CF025196EC91F0E0EE0F3B
:102EB000FF1FEE58FB4F80819181019691838083A3
:102EC00080914D0290914E02019690934E02809314
:102ED0004D02D9CE2D50253008F4D5CEF801808191
:102EE000825190E00C96800F911FDC012C912E33C3
:102EF00009F0C9CE2091820420FDC5CE24A521FF72
:102F0000C2CE01960E94E0016115710581059048CD
:102F100009F0BCC7B8CEF801E780F12CFE2CEE24F6
:102F20008681E82A0E94B202E816F90621F0EF2015
:102F3000E09409F0A8CE8FB7F8948FBFA4CE10927A
:102F4000FC14B6CEEFB7F8948091A9069091AA062A
:102F5000A091AB06B091AC061C012D019C01A20111
:102F600060E070E080E090E003E00E94BB28510147
:102F70006201E12CF12C00E010E00E94FB285901D5
:102F80006A017B01F82F192F03E00E94BB280F2F45
:102F90000E94FB2859016A017B01F82F192F03E0D9
:102FA0000E94BB280F2F0E94FB2859016A017B0158
:102FB000F82F192F03E00E94BB280F2F0E94FB2837
:102FC00059016A017B01F82F192F03E00E94BB28E9
:102FD0000F2F0E94FB2801E00E94BB2829013A0123
:102FE00000E20E94D62849015A01769467945794CA
:102FF0004794840C951CA61CB71CB7FE07C0E89428
:10300000B7F80FEF801A900AA00AB00A8092A906BA
:103010009092AA06A092AB06B092AC06EFBF8FB713
:10302000F8949092B0088092AF088FBF7CC78091CF
:103030000804811141C04091EC095091ED09609163
:10304000EE097091EF092FB7F894C090FF14D0905B
:103050000015E0900115F0900215809164039091A5
:103060006503A0916603B09167038C0D9D1DAE1D95
:10307000BF1D2FBF4093EC095093ED096093EE09FB
:103080007093EF09109208042FB7F89431E0309351
:1030900080048093640390936503A0936603B093C8
:1030A00067034093FF1450930015609301157093CC
:1030B00002152FBF0E9453080E941F0247C00E94A2
:1030C0001F022FB7F894109280042FBFEEE0F8E0B3
:1030D00010E044244A94542C642C5FE7752E20E0C1
:1030E00030E009E0029FA001039F500D1124DA0196
:1030F000A25FB74F18964C9141FF1AC0C080D18093
:10310000E280F3804B015C018C189D08AE08BF087B
:10311000C480D580E680F780C818D908EA08FB0883
:10312000C414D504E604F7041CF42601370111E0A9
:103130002F5F3F4F399626303105A1F6112309F450
:10314000F2C614141504160417041CF00E94C709D3
:10315000EAC64092EC095092ED096092EE09709235
:10316000EF0921E0209308043FB7F89420938004EE
:103170006093640370936503809366039093670381
:103180004092FF1450920015609201157092021542
:103190003FBF0E945308C7C68FB7F8941092A40887
:1031A0001092A3081092921510929115109253024A
:1031B000109252021092FE071092FD0736CF1FB7F1
:1031C000F89482E0809346020E945C091FBF8091C0
:1031D00009028111A8C68091931581113AC00EEFA2
:1031E00011E0C801019701960197E1F716980E9436
:1031F000AB0186E090E0019701960197E1F7169AFE
:1032000060E083E00E94440968E082E00E94440993
:10321000C801019701960197E1F76DE48EE00E94E5
:10322000440967EC89E00E94440960E885E00E9457
:103230004409109298078AE180933B046AE788E08A
:103240000E9444092F9A81E0809393150E941E08E2
:103250006AC60E94D01267C60091AD081091AE08F0
:10326000D8011C962C911C9730E0322F22271D96F6
:103270008C91282BE0919D03F0919E03808190E03A
:10328000982F88274181842B28173907A0F4409173
:103290009307443038F44091210250912202841760
:1032A000950749F021833083F8018089E0919D03DF
:1032B000F0919E030DC08217930709F0AAC2D801AE
:1032C00050968C919481B82FB91B1B160CF0A1C29B
:1032D0008483E0919D03F0919E03808190E0982F7C
:1032E00088272181822B209121023091220282178E
:1032F000930710F4109293075801E5E1AE0EB11C4C
:10330000C5010E94E00169837A838B839C83CE018F
:1033100001960E948C0A4801F1E18F0E911CC401B4
:103320000E94E001C980DA80EB80FC80C61AD70ACF
:10333000E80AF90AC982DA82EB82FC828091F206FD
:10334000843020F40E947306811118C004EFC00E6F
:1033500001E0D01EE11CF11C19EEC11613E0D106EC
:10336000E104F10458F080913C028F5F80933C02AD
:10337000843008F472C00E9404036FC01092D9090F
:1033800010923C02E5E1EE2EE7E0FE2E00E0DD24A7
:10339000DA94412C512C320110E0C5010E94E00169
:1033A000D70111962D913D914D915C911497DC01BF
:1033B000CB01821B930BA40BB50B8F3FEFEF9E0746
:1033C000AE07EFE7BE0710F0F7011082F70130817A
:1033D000332331F03091D9093F5F3093D90901C0CF
:1033E000D12E84159505A605B70518F02C013D01D1
:1033F000012F1F5FF9E0EF0EF11C183071F6EE247B
:10340000EA94DE1431F08091D9098F5F8093D90955
:103410000D2D29E00202800111240B5E184F81E07E
:10342000D8018C93C5010E94E001F8016183728389
:1034300083839483C4010E94E0016B017C01C50178
:103440000E94E001C61AD70AE80AF90AD8011596BF
:10345000CD92DD92ED92FC921897E090DE03F09011
:10346000DF030091E0031091E103EBAAFCAA0DAB8E
:103470001EAB05E117E01EA30DA3F80180E090E06C
:10348000982E2081213009F4BCC4019639968830E9
:103490009105B1F7BEC1182D292D2103C0011124BA
:1034A000AC014B5E584F1A01DA018C91813009F062
:1034B00095C011964D905D906D907C901497EFA003
:1034C000F8A409A51AA54E185F08600A710AC3017D
:1034D000B201298D3A8D4B8D5C8D0E94592879015E
:1034E0008A01550F220B322FA9012D8B3E8B4F8B5A
:1034F000588F2D813E814F81588569857A858B85CE
:103500009C8557016801ED88FE2C0E2D1E2D0E9412
:10351000F2282D833E834F83588769877A878B876C
:103520009C87C301B201298D3A8D4B8D5C8D0E9421
:103530003728ED8CFE8C0F8D18A1E60EF71E081FA4
:10354000191FED8EFE8E0F8F18A3F10185819681D4
:10355000A781B085BC01CD01EBA4FCA40DA51EA5DF
:103560006E197F09800B910B298D3A8D4B8D5C8DE7
:103570000E94592879018A016D8B7E8B8F8B988FE1
:1035800029013A01770C4408542C32012D853E85DF
:103590004F85588969897A898B899C895701680187
:1035A000E42CF42C042D142D0E94F2282D873E8744
:1035B0004F87588B698B7A8B8B8B9C8B09A11AA1B7
:1035C0002BA13CA18D899E89AF89B88D080F191F49
:1035D0002A1F3B1F09A31AA32BA33CA3939498E093
:1035E000991259CFCFA0D8A4E9A4FAA40D811E81C5
:1035F0002F813885C00ED11EE21EF31E6D8D7E8D8B
:103600008F8D98A1298D3A8D4B8D5C8D0E94592804
:10361000D701C601820F931FA41FB51F8FAB98AFB0
:10362000A9AFBAAFCBA4DCA4EDA4FEA40D851E8582
:103630002F853889C00ED11EE21EF31E69A17AA122
:103640008BA19CA1298D3A8D4B8D5C8D0E945928B0
:10365000D701C601820F931FA41FB51F8BAF9CAF6C
:10366000ADAFBEAF1D8E19A21FA21BA61FA618AA22
:1036700019AA1AAA312C212C1D821D86198E1D8A89
:10368000912C812CADA1BEA18C91813009F060C03C
:1036900011964D905D906D907C901497EFA8F8ACCA
:1036A00009AD1AAD4E185F08600A710A15968D9122
:1036B0009D910D90BC91A02D9C01AD01EBACFCAC9B
:1036C0000DAD1EAD2E193F09400B510B23962CAFAB
:1036D0003DAF4EAF5FAF2397C301B201A30192018B
:1036E0000E94702859016A017B018C01232D322D23
:1036F0004D815D85698D7D89892D982D0E94F228E7
:10370000322E232E4D835D87698F7D8B982E892ED7
:10371000C301B20123962CAD3DAD4EAD5FAD2397F5
:103720000E94702859016A017B018C012D8D39A1FD
:103730004FA15BA56FA578A989A99AA90E94F22833
:103740002D8F39A34FA35BA76FA778AB89AB9AAB3B
:103750000DA11EA1075F1F4F1EA30DA30D551740FE
:1037600009F090CF232D322D4D815D85698D7D89A6
:10377000892D982DA0E00E94042901F12D8D39A1F9
:103780004FA15BA56FA578A989A99AA90E94C02617
:103790006B017C01232D322D4D815D85698D7D89E5
:1037A000892D982D0E94C0269B01AC01C701B6014E
:1037B0000E9418266BAB7CAB8DAB9EAB8FB7F89499
:1037C000EBA8FCA80DA91EA9E092DE03F092DF038E
:1037D0000093E0031093E1030BAD1CAD2DAD3EADA6
:1037E0000093040410930504209306043093070407
:1037F0002FA938AD49AD5AAD2093680330936903C2
:1038000040936A0350936B039091D9099093F20609
:103810008FBF809182048E7F34C30E941F026B0190
:103820007C0169837A838B839C83CE0101960E94FD
:103830008C0AE0919D03F0919E032091210230912A
:103840002202808190E0982F88274181842B821763
:10385000930781F58091680390916903A0916A03B1
:10386000B0916B0397018601081B190B2A0B3B0BC8
:10387000D901C8010097A105B0425CF12FB7F894B7
:10388000C0926803D0926903E0926A03F0926B03DE
:1038900089819A81AB81BC818C199D09AE09BF09D0
:1038A0008093040490930504A0930604B093070446
:1038B0002FBF0FC080919307853058F01092930767
:1038C00021833083E0919D03F0919E0384818F5F7B
:1038D000848349815A816B817C8180919D03909181
:1038E0009E0305960E94D8018091F2068330B8F4B9
:1038F000E0919D03F0919E03808190E0982F8827AE
:103900002181822B2091210230912202821793077C
:1039100031F0809193078F5F80939307AFC20E942D
:103920001F024B015C010E94EB082EE320938103F0
:10393000C818D908EA08FB081AE0CC0CDD1CEE1CFC
:10394000FF1C1A95D1F7AB01BC014C0D5D1D6E1D1E
:103950007F1D82E893E00E94D801809198038061E6
:10396000809398038FEF80937203809373038DE3AA
:10397000809377038091020890910308892B09F0C6
:103980007DC28CE693E090930308809302088BE15C
:1039900080936C0380910802882309F4C4C21092BA
:1039A00008022EE04CE653E06FEF7FEF8DE30E94BC
:1039B000F710882309F4B7C281E0809308021092BF
:1039C0000308109202085AC28091FE14882309F459
:1039D000AAC2B2E0EB2EB8E0FB2E10E001E090911D
:1039E000FE14802F892389F0D7012D913C911197E6
:1039F0001D921C92802F809598239093FE14111194
:103A000004C063E0C9010E948602000F1F5FB2E09C
:103A1000EB0EF11C183019F786C210910802E12F45
:103A2000F0E0EE0FFF1FEE5FF74FE080F1801182B4
:103A300010820E947011111176C261E0C7010E94CC
:103A4000860271C28091E706882309F46CC2E5EF13
:103A5000EE2EE4E1FE2E10E001E08091E706902FCB
:103A6000982369F0F70111821082902F9095892395
:103A70008093E706111103C086E10E944002000F07
:103A80001F5FF2E0EF0EF11C183039F74CC21091B5
:103A90000702E12FF0E0EE0FFF1FEB50FB4E11820B
:103AA00010820E94090B11113EC227C12FB7F89452
:103AB0001092C5159091AA0888EF890F823050F4B2
:103AC0001092AA08E0910C08F0E0EE0FFF1FE05AF8
:103AD000F84F10822FBF823018F53FB7F8948091CD
:103AE000FB148F5F8093FB1480911007833489F45B
:103AF0008091F6079091F507981741F08F5F863017
:103B000018F48093F60702C01092F60720E080E0D8
:103B100005C081E0983009F480E021E03FBF04C097
:103B20009111B2C180E020E03FB7F89490913B0240
:103B30003FBF992339F09FB7F8943AE03093AA0831
:103B40009FBF3FC04FB7F8943091600790916207D4
:103B50004FBF6FB7F8945091F5074091F6076FBFCC
:103B6000541709F131111FC03FB7F89492E09093B8
:103B700060075FB7F8944091F5079091F6075FBF33
:103B8000491739F0E091F607F0E0EB50F84F9281D9
:103B900001C090E09093610793E490931007109216
:103BA0000C083FBF0CC09150923058F49FB7F89466
:103BB00035E43093100731E030930C089FBF11E0DB
:103BC00001C010E0222341F09FB7F89480933202A5
:103BD0009FBF84E10E9440020FB7F8948091AA0829
:103BE0008A3021F40E9474020FBF9DC10FBF1123C0
:103BF00009F499C18FB7F8941092FA151092F9153B
:103C00001092E80691E09093AA088FBF0E94820B61
:103C1000882309F488C18FB7F89499E09093AA0893
:103C20008FBF0E945F027FC18091C1008F7B809314
:103C3000C1008091C1008F778093C1001092A908C4
:103C400010927E048091C10088608093C1008091B1
:103C5000C10080618093C1008091C1008068809321
:103C6000C1008FB7F8941092AA0810927104DDC9B0
:103C700083E144C08091C100877F8093C10080911F
:103C8000C1008F7E8093C1004EC110923602109207
:103C900035028FB7F894109132028FBF80913102B4
:103CA000811113E080913702909138022091300207
:103CB000211139C120910702211135C12091F5143C
:103CC0003091F6142817390709F02DC11092F61417
:103CD0001092F5140E94090B11110FC08091270258
:103CE000882319F00E947E071EC1109226021BC174
:103CF0000E945007882309F416C186E10E94400201
:103D000012C19FB7F89420912C0230912D0280911E
:103D1000A2039FBF9FB7F894E82FF0E0EE0FFF1FBC
:103D2000EE5FFD4F31832083882321F080913A029A
:103D30008B7F03C080913A028D7F80933A0210926C
:103D40002F029FBFF0C01092A4021092A30211E0B4
:103D50001093A50282E08093A6028093A70290911F
:103D600021029093A8028093A9029093AA02109234
:103D7000AB021092B2028091A5088093AC0287E951
:103D800092E00E9487062091A5089091A702920FC9
:103D90009093A508882319F010922502C4C01093AF
:103DA0002502C1C01092D3151092D21582E08093E3
:103DB000D41511E01093D5151093D61580912102DA
:103DC0008093D7151092D8158093D9151092DA15D3
:103DD0001092E115809163038093DB1586EC95E1E9
:103DE0000E948706209163039091D615920F9093BD
:103DF0006303882319F01092240295C010932402C3
:103E000092C029E0289FF001299FF00D1124EB5E5C
:103E1000F84FE180F28003811481EFA2F8A609A790
:103E20001AA705811681278130850BA71CA72DA70E
:103E30003EA78091D909282F30E040E050E0298F3B
:103E40003A8F4B8F5C8F1D861E861F86188A198AB3
:103E50001A8A1B8A1C8A1D821E821F821886198656
:103E60001A861B861C8619A21AA21BA21CA21D8ED2
:103E70001E8E1F8E18A249E0842EB0CB8091820442
:103E80008D7F809382044FC010E0A6CE2090AD08B5
:103E90003090AE081093AE080093AD08D8018C9115
:103EA0008251F801E80FF11DCF010D960E94E0014B
:103EB0006B017C01D80198964D905D906D907C903F
:103EC0009B970E94EB084B015C010E941F022AE0B5
:103ED000F594E794D794C7942A95D1F7AB01BC0128
:103EE0004C0D5D1D6E1D7F1D481859086A087B0822
:103EF0003AE075946794579447943A95D1F7440DF6
:103F0000551D661D771DC80145960E94D8018091F8
:103F100082048160809382048AE00E944002922D94
:103F2000832D0C944516CC5BDF4F0FB6F894DEBFA3
:103F30000FBECDBFDF91CF911F910F91FF90EF90FA
:103F4000DF90CF90BF90AF909F908F907F906F90B9
:103F50005F904F903F902F90089578941F920F920A
:103F60000FB60F9211240BB60F922F933F934F93DE
:103F70005F936F937F938F939F93AF93BF93CF93F1
:103F8000EF93FF9380916F008D7F80936F00CFB789
:103F9000F8948091EB069091EC06A091ED06B0911B
:103FA000EE06892B8A2B8B2B19F40E942E1302C04C
:103FB0000E945903CFBFFF91EF91CF91BF91AF9175
:103FC0009F918F917F916F915F914F913F912F9131
:103FD0000F900BBE0F900FBE0F901F901895789406
:103FE0001F920F920FB60F9211240BB60F922F93C0
:103FF0003F934F935F936F937F938F939F93AF9371
:10400000BF93EF93FF9380916F008B7F80936F003E
:1040100078948FB7F8949091A608913019F492E0B3
:104020009093A6088FBF0E94D012FF91EF91BF918D
:10403000AF919F918F917F916F915F914F913F9140
:104040002F910F900BBE0F900FBE0F901F901895E1
:1040500078941F920F920FB60F9211240F900FBEFB
:104060000F901F90189578941F920F920FB60F9291
:1040700011240BB60F922F933F934F935F936F933F
:104080007F938F939F93AF93BF93EF93FF93E6E854
:10409000F0E080819181208131818FB7F894309355
:1040A000B7062093B60691E09093E5098FBF0E9472
:1040B000D012FF91EF91BF91AF919F918F917F911E
:1040C0006F915F914F913F912F910F900BBE0F9089
:1040D0000FBE0F901F90189578941F920F920FB6F5
:1040E0000F9211242F938F939F93AF93BF932FB76A
:1040F000F8948091B2069091B306A091B406B09165
:10410000B5060196A11DB11D8093B2069093B3062A
:10411000A093B406B093B5062FBF2FB7F894809143
:10412000040890910508A0910608B091070801962F
:10413000A11DB11D8093040890930508A093060863
:10414000B09307082FBFBF91AF919F918F912F918F
:104150000F900FBE0F901F9018951F920F920FB6E1
:104160000F9211240BB60F920F931F932F933F932F
:104170004F935F936F937F938F939F93AF93BF936F
:10418000EF93FF930E9416028091B30090E0019696
:104190004091DA035091DB036091DC037091DD0301
:1041A0008A019B01080F191F211D311D0093DA039D
:1041B0001093DB032093DC033093DD0378940E949B
:1041C0005308FF91EF91BF91AF919F918F917F9194
:1041D0006F915F914F913F912F911F910F910F9090
:1041E0000BBE0F900FBE0F901F9018951F920F924D
:1041F0000FB60F9211240BB60F922F933F934F934C
:104200005F936F937F938F939F93AF93BF93EF933E
:10421000FF930E941602FF91EF91BF91AF919F9182
:104220008F917F916F915F914F913F912F910F905F
:104230000BBE0F900FBE0F901F9018951F920F92FC
:104240000FB60F9211240BB60F922F933F934F93FB
:104250005F936F937F938F939F93AF93BF93EF93EE
:10426000FF932EB5E091A308F091A408309739F0A0
:104270008091FD079091FE07E80FF91F2083809140
:10428000FD079091FE0701969093FE078093FD072E
:104290008CB58F778CBD8091FD079091FE07609162
:1042A0005202709153028617970708F03FC0209181
:1042B000911530919215E091A308F091A408AC01FA
:1042C000465F5F4F6417750708F4AB014150510911
:1042D00084179507C8F42115310549F0D901A80FB5
:1042E000B91F6C916EBD0DB407FEFDCF04C01EBC9E
:1042F0000DB407FEFDCF6EB5309721F0DF01A80F9A
:10430000B91F6C930196E4CF4CB540684CBD2115A4
:10431000310531F0F901E80FF91F20812EBD01C0F0
:104320001EBC9093FE078093FD0711C01092A40855
:104330001092A308109292151092911510925302A8
:10434000109252021092FE071092FD078EB5FF9157
:10435000EF91BF91AF919F918F917F916F915F91FD
:104360004F913F912F910F900BBE0F900FBE0F906A
:104370001F9018951F920F920FB60F9211240BB633
:104380000F922F933F934F935F936F937F938F93EE
:104390009F93AF93BF93EF93FF938091C00087FFEC
:1043A0004AC06091C60020910A0830910B0821157F
:1043B000310551F18091C3159091C415AC014F5F47
:1043C0005F4F5093C4154093C315F901E80FF91FCF
:1043D00060832091C3153091C4158091FC15909194
:1043E000FD152817390738F110920B0810920A08AA
:1043F0008091A9088330F9F08091C1008F77809374
:10440000C1001092A90817C06E3719F460E081E06E
:1044100010C080912A026D3721F4826080932A02B5
:104420000AC081FF05C08D7F80932A0280E2682741
:1044300080E00E949F04FF91EF91BF91AF919F9107
:104440008F917F916F915F914F913F912F910F903D
:104450000BBE0F900FBE0F901F90189578941F926F
:104460000F920FB60F9211240BB60F92EF92FF929C
:104470000F931F932F933F934F935F936F937F936C
:104480008F939F93AF93BF93CF93DF93EF93FF935C
:1044900080917C0490917D042091E8093091E90994
:1044A00082179307D0F420915D0730915E07AC012D
:1044B0004F5F5F4F50937D0440937C04F901E80FF8
:1044C000F91F80819FB7F8948093C6008091C00047
:1044D00080648093C0009FBFB2C010925E071092AC
:1044E0005D0710927E048091C1008F7B8093C10094
:1044F0000FB7F89480912A02982F9170F92E80FFBF
:104500000AC08E7F80932A028091B10880930304B1
:104510000E94300B93C0E091AA088E2F90E0FC011E
:104520003197E830F10508F084C0E158FF4F0C9452
:10453000B228809110070E94700B182F83E080939F
:10454000AA08609110070AC08091FB140E94700BAA
:10455000182F83E08093AA086091FB148091F915CD
:104560009091FA150E9454049093FA158093F915CE
:104570005EC0E0910C08F0E0EE0FFF1FE05AF84F2C
:1045800081810E94700B182FE0900C08CE2DD0E096
:10459000CC0FDD1FFE01E05AF84F61818091F915C3
:1045A0009091FA150E9454049093FA158093F9158E
:1045B0009091E8069F5F9093E80681E0E8121EC0A4
:1045C00080913302E0913702F0913802E80FF11D3B
:1045D00020818F5F8093330230913402381720F4AA
:1045E00082E08093620701C0F22EC05AD84F8881C2
:1045F000823021F09F3F11F0F98219C084E012C08F
:104600008091F9150E94700B182F85E00BC08091E6
:10461000FA150E94700B182F86E004C00E94820BCE
:10462000182F87E08093AA0802C088E003C01123F6
:1046300029F089E08093AA080E945F020FBFFF91D2
:10464000EF91DF91CF91BF91AF919F918F917F912A
:104650006F915F914F913F912F911F910F91FF901B
:10466000EF900F900BBE0F900FBE0F901F901895FC
:104670001F920F920FB60F9211248F938091C80052
:1046800087FD8091CE008F910F900FBE0F901F90ED
:10469000189578941F920F920FB60F9211240F90D5
:1046A0000FBE0F901F90189578941F920F920FB61F
:1046B0000F9211240F900FBE0F901F9018957894B1
:1046C0001F920F920FB60F9211240F900FBE0F90F2
:1046D0001F90189578941F920F920FB60F92112485
:1046E0000F900FBE0F901F90189578941F920F9205
:1046F0000FB60F9211248F939F9380919600909103
:1047000097009F918F910F900FBE0F901F9018955B
:1047100078941F920F920FB60F9211242F938F93BC
:104720009F932FB7F8948091E9069091EA0601963D
:104730009093EA068093E9062FBF9F918F912F9166
:104740000F900FBE0F901F901895CFB7F89414BE1E
:104750000FB6F894A89580916000886180936000FE
:10476000109260000FBE49E150E06FEF70E082EE02
:1047700093E00E9428298FEF8093F8148093F61518
:1047800056985E9854985C9880916F008F7D8093C6
:104790006F00209A0E94AD01279A0E94AB010E9AE9
:1047A000169A84E697E090939C0380939B03109263
:1047B000AD068AE58093430481E08093810080E226
:1047C0008093B60083E08093B10020918400309103
:1047D00085008AE740918400509185004217530775
:1047E00008F481509A018111F5CF8091B200909127
:1047F000B2009817E1F320918400309185008091F8
:10480000B2009091B2009817E1F3809184009091EA
:1048100085004096821B930B55E0969587955A9597
:10482000E1F79093FA148093F9141092B10010926A
:1048300081001092B6001092B20010928500109282
:1048400084008FEF87BB86BB8091B6008571E1F74E
:104850000A9A099A089A129A119A109A18B88FEF20
:1048600087B90C981498109295001092940080913A
:10487000710081608093710080919100887F8260D7
:1048800080939100109285001092840080916F00B7
:10489000816080936F0080918100887F8260809327
:1048A00081000E940402D82F8F3F19F00E94231527
:1048B000F8CF83E192E090930E1680930D1602E0FC
:1048C00016E06091F9147091FA14CB01A0E0B0E009
:1048D000BC01CD012CE0660F771F881F991F2A9518
:1048E000D1F7C12C31EED32EE12CF12CA70196018A
:1048F0000E943728215031092093C4003093C5000D
:104900000093C0001093C2001092C1006091F9148E
:104910007091FA14CB01A0E0B0E0BC01CD014CE0F5
:10492000660F771F881F991F4A95D1F7A701960137
:104930000E943728215031092093CC003093CD00BC
:104940000093C8001093CA001092C90084E490E05C
:104950009093E7098093E60910926007109262072E
:104960008AE08093AA081092E8061092100710922D
:10497000FB141092FA151092F9151092C5151092A9
:104980000C080E94F2011092F6071092F50710929F
:104990002602D0930F070E94DD068091B600806248
:1049A0008093B6008091B60081FDFCCF82E08093B9
:1049B000B0008091B60080FDFCCF83E08093B10011
:1049C0008091B60083FDFCCF86EE8093B30080918A
:1049D00070008260809370000E94530880912102D1
:1049E00090912202AC014F5F5F4F60E070E0409316
:1049F000A9065093AA066093AB067093AC0624E018
:104A000035E13093C8022093C70223E335E13093A8
:104A1000CA022093C90222E635E13093CC022093EA
:104A2000CB028295807F80934C02DFEFD0934204CB
:104A30008FEF9FEF909302168093011690930416C8
:104A4000809303169093061680930516909308168C
:104A50008093071690930A168093091680E491E0DC
:104A6000A0E0B0E080933C0490933D04A0933E040A
:104A7000B0933F0481E18093FF071092F7141092E6
:104A8000DE031092DF031092E0031092E103109214
:104A900068031092690310926A0310926B031092DC
:104AA00004041092050410920604109207040E9458
:104AB000040388E793E090939E0380939D03D09333
:104AC0007903D093780388EB96E09093AE088093B7
:104AD000AD0884E0809382040E9404028F3F19F0A5
:104AE0000E942315F9CFCFBF78940E94151310921E
:104AF00063034EEC54E060E070E085E00E949D09A5
:104B00000E9415131092A5084BE554E060E070E098
:104B100084E00E949D098FB7F8949091AA089A307A
:104B200031F090917104943011F08FBF04C08FBFA9
:104B300081E10E9440021092EA091092A1031092B2
:104B4000A00310924E0210924D020E94E1120E94A8
:104B5000E112109293079091210280912202E0913C
:104B60009D03F0919E0393838283809128088D7F1B
:104B70008093280881E080935002CFB7F8940E9478
:104B800004028F3F09F050C080917000837089F05B
:104B90008091B6008A71E1F78091B3009091B200E4
:104BA000891B8C3040F08091B200853F20F483E077
:104BB00003C085E001C082E0E0916E00E670E9F498
:104BC00090916F009E72E1F4E0917100EE72A9F491
:104BD0000CB407FC15C09091C100987189F4E09164
:104BE000C900E87151F49091BC0092FD09C0909108
:104BF0007A0097FD04C0E5E003C0E0E001C0E1E019
:104C000093B78E1708F4E82FF0E0E25FFE4F84912F
:104C1000E92FE07FE160E82BE3BF78948895F89472
:104C200083B78E7F83BFABCFCFBF0E942315A5CFA5
:104C30000E942C260C9468270E94612758F00E943D
:104C40005A2740F029F45F3F29F00C944127511175
:104C50000C949C270C9447270E94792768F399238A
:104C6000B1F3552391F3951B550BBB27AA27621768
:104C70007307840738F09F5F5F4F220F331F441F75
:104C8000AA1FA9F335D00E2E3AF0E0E832D09150A9
:104C90005040E695001CCAF72BD0FE2F29D0660F96
:104CA000771F881FBB1F261737074807AB07B0E8D9
:104CB00009F0BB0B802DBF01FF2793585F4F3AF0DF
:104CC0009E3F510578F00C9441270C949C275F3F40
:104CD000E4F3983ED4F3869577956795B795F79565
:104CE0009F5FC9F7880F911D9695879597F908954D
:104CF000E1E0660F771F881FBB1F621773078407E9
:104D0000BA0720F0621B730B840BBA0BEE1F88F7F7
:104D1000E09508950E9491266894B1110C949C2707
:104D200008950E94812788F09F5798F0B92F9927FE
:104D3000B751B0F0E1F0660F771F881F991F1AF086
:104D4000BA95C9F714C0B13091F00E949B27B1E029
:104D500008950C949B27672F782F8827B85F39F028
:104D6000B93FCCF3869577956795B395D9F73EF41F
:104D700090958095709561957F4F8F4F9F4F0895C7
:104D800097FB16F40E944A270C940427E89409C064
:104D900097FB3EF490958095709561957F4F8F4F6E
:104DA0009F4F9923A9F0F92F96E9BB279395F69584
:104DB000879577956795B795F111F8CFFAF4BB0F02
:104DC00011F460FF1BC06F5F7F4F8F4F9F4F16C066
:104DD000882311F096E911C0772321F09EE8872FF0
:104DE000762F05C0662371F096E8862F70E060E0AC
:104DF0002AF09A95660F771F881FDAF7880F969525
:104E0000879597F90895E894F92F96EBFF2381F0A1
:104E1000121613061406440B9395F695879577950D
:104E2000679557954040FF23B9F71BC09927089510
:104E3000882351F49850D2F7872B762F652F542F63
:104E4000432F322F20E0B1F3121613061406440B41
:104E500088233AF09A95440F551F661F771F881FC5
:104E6000CAF755234AF4440F551F11F460FF04C0DC
:104E70006F5F7F4F8F4F9F4F880F9695879597F95C
:104E8000089597F99F6780E870E060E008959FEFCC
:104E900080EC08959095809570956095509540951B
:104EA000309521953F4F4F4F5F4F6F4F7F4F8F4F43
:104EB0009F4F089500240A9416161706180609062F
:104EC000089500240A941216130614060506089580
:104ED000092E0394000C11F4882352F0BB0F40F408
:104EE000BF2B11F460FF04C06F5F7F4F8F4F9F4F48
:104EF000089557FD9058440F551F59F05F3F71F0CA
:104F00004795880F97FB991F61F09F3F79F0879530
:104F10000895121613061406551FF2CF4695F1DFB9
:104F200008C0161617061806991FF1CF8695710549
:104F3000610508940895E894BB2766277727CB017D
:104F400097F908950E94B5270C9468270E945A2764
:104F500038F00E94612720F0952311F00C9441272E
:104F60000C94472711240C949C270E94792770F3F6
:104F7000959FC1F3950F50E0551F629FF001729FFE
:104F8000BB27F00DB11D639FAA27F00DB11DAA1F0D
:104F9000649F6627B00DA11D661F829F2227B00D5A
:104FA000A11D621F739FB00DA11D621F839FA00DE5
:104FB000611D221F749F3327A00D611D231F849F35
:104FC000600D211D822F762F6A2F11249F5750408C
:104FD0009AF0F1F088234AF0EE0FFF1FBB1F661F07
:104FE000771F881F91505040A9F79E3F510580F0D0
:104FF0000C9441270C949C275F3FE4F3983ED4F334
:10500000869577956795B795F795E7959F5FC1F773
:10501000FE2B880F911D9695879597F90895AA1BE9
:10502000BB1B51E107C0AA1FBB1FA617B70710F093
:10503000A61BB70B881F991F5A95A9F780959095C5
:10504000BC01CD01089597FB072E16F4009407D0FC
:1050500077FD09D00E940F2807FC05D03EF49095FB
:1050600081959F4F0895709561957F4F0895A1E2B6
:105070001A2EAA1BBB1BFD010DC0AA1FBB1FEE1FD2
:10508000FF1FA217B307E407F50720F0A21BB30B1D
:10509000E40BF50B661F771F881F991F1A9469F799
:1050A00060957095809590959B01AC01BD01CF01F5
:1050B0000895052E97FB1EF400940E94AA2857FD20
:1050C00007D00E94372807FC03D04EF40C94AA287E
:1050D00050954095309521953F4F4F4F5F4F089524
:1050E00097FB57FF0C9480289F938F930E948028F2
:1050F0006E1B7F0BAF91BF918A0B9B0B0895E894B9
:10510000DF93CF93FC01DB010E9410297F936F9303
:10511000E9019A01AC01BF93AF933F932F93DF0155
:105120000E94102926F46C1B7D0B820B930B9E01B1
:10513000EB01FC010E941F29AF91BF912F913F917C
:105140000E941F29BE01CF01F9012F913F91CF91FC
:10515000DF91089590958095709561957F4F8F4F61
:105160009F4F0895EE0FFF1F0024001C0BBE0790F9
:10517000F691E02D09940F93083090F0982F872F27
:10518000762F652F542F432F322F22270850F4CF2C
:10519000220F331F441F551F661F771F881F991F3B
:1051A0000A95B2F70F91089597FB10F8169400082E
:1051B0000F93083098F00850232F342F452F562F87
:1051C000672F782F892F902DF4CF05949795879589
:1051D0007795679557954795379527950A95AAF737
:1051E0000F9108952A0D3B1D4C1D5D1D6E1D7F1DE9
:1051F000801F911F08952A193B094C095D096E090A
:105200007F09800B910B08950024A7FD00942A17B5
:10521000300540055005600570058005900508952E
:10522000A29FB001B39FC001A39F700D811D1124E7
:10523000911DB29F700D811D1124911D08950E9432
:105240001029460F571FC81FD91F08F4319608951B
:10525000DC0101C06D9341505040E0F70895F8948F
:02526000FFCF7E
:10526200440844087308FF0101FFFFFFFFFFFF220C
:105272000100010000000200000000B4070000006D
:045282000001000027
:00000001FF
