:100000000C9483010C94A2010C94A2010C94A20103
:100010000C94A2010C94A2010C94A2010C94A201D4
:100020000C94A2010C94A2010C94A2010C94A201C4
:100030000C94A2010C94ED110C94A2010C943612B4
:100040000C9449130C94FA120C9433130C943E1331
:100050000C9482130C94A2010C94A2010C94A201A2
:100060000C945E120C94AD130C94A2010C94211408
:100070000C94A2010C94A2010C94A2010C9468159A
:100080000C9447150C9452150C945D150C947B152B
:100090000C942B150C94A2010C943C150C94A20109
:1000A0000C94A2010C94A2010C94A2010C94A20144
:1000B0000C94A2010C94A2010C94A2010C94A20134
:1000C0000C94A2010C94A2010C94A201B30C360D65
:1000D000CF0DEB0DFC0DA80ED20E460F8F0FF00FBB
:1000E000960FA90F1E10F010171119112411591194
:1000F0008C149714AC14F314FA14011508150F1589
:1001000000020E060C0400002110422063308440DF
:10011000A550C660E770088129914AA16BB18CC1D6
:10012000ADD1CEE1EFF13112100273325222B5524D
:100130009442F772D662399318837BB35AA3BDD326
:100140009CC3FFF3DEE36224433420040114E6641D
:10015000C774A44485546AA54BB528850995EEE576
:10016000CFF5ACC58DD55336722611163006D7762D
:10017000F6669556B4465BB77AA719973887DFF7C6
:10018000FEE79DD7BCC7C448E5588668A7784008F5
:10019000611802282338CCC9EDD98EE9AFF9488916
:1001A00069990AA92BB9F55AD44AB77A966A711A8D
:1001B000500A333A122AFDDBDCCBBFFB9EEB799B66
:1001C000588B3BBB1AABA66C877CE44CC55C222CDD
:1001D000033C600C411CAEED8FFDECCDCDDD2AADB6
:1001E0000BBD688D499D977EB66ED55EF44E133E6D
:1001F000322E511E700E9FFFBEEFDDDFFCCF1BBF06
:100200003AAF599F788F8891A981CAB1EBA10CD1DF
:100210002DC14EF16FE18010A100C230E3200450E7
:10022000254046706760B9839893FBA3DAB33DC35A
:100230001CD37FE35EF3B1029012F322D232354237
:10024000145277625672EAB5CBA5A89589856EF5EA
:100250004FE52CD50DC5E234C324A0148104667487
:10026000476424540544DBA7FAB79987B8975FE73A
:100270007EF71DC73CD7D326F2369106B0165766D7
:100280007676154634564CD96DC90EF92FE9C899C2
:10029000E9898AB9ABA94458654806782768C01827
:1002A000E1088238A3287DCB5CDB3FEB1EFBF98B9A
:1002B000D89BBBAB9ABB754A545A376A167AF10A77
:1002C000D01AB32A923A2EFD0FED6CDD4DCDAABDAA
:1002D0008BADE89DC98D267C076C645C454CA23CC7
:1002E000832CE01CC10C1FEF3EFF5DCF7CDF9BAF7A
:1002F000BABFD98FF89F176E367E554E745E932E17
:10030000B23ED10EF01E11241FBECFEFD1E2DEBFF0
:10031000CDBF12E0A0E0B2E0EAEDF0E300E00BBFF9
:1003200002C007900D92A231B107D9F718E0A2E1FF
:10033000B2E001C01D92A13CB107E1F70E949815FF
:100340000C946B180C9400002F980895289A089527
:100350000DB407FEFDCF8EB50895982F0DB407FE9E
:10036000FDCF8EB59EBD0895289808958627082E46
:100370008295807F8025092E982F82958F70082680
:10038000869598278927880F880F880F80250895DC
:100390009FB7F894809191038F5F809391039FBFE3
:1003A0000895E0E0F8E01182108284E080937F02FB
:1003B0001092900310920A08109283021092210367
:1003C00010922003089580910F088F3F69F0E82F65
:1003D000F0E0EB5BFD4F908190930F089F3F11F48D
:1003E0009093AE089FEF908308958091B000809322
:1003F000B0008091B60081FDFCCF08959FB7F894BE
:1004000022B181E0822782B99FBF08959FB7F894F7
:10041000E82FF0E0EB5BFD4F20812F3F99F4E09156
:10042000AE08E81779F020910F082F3F19F4809358
:100430000F0804C0F0E0EB5BFD4F80838093AE08B3
:1004400080E001C085E09FBF089584E00C9406021F
:10045000809189038A3021F480917F02843021F0D9
:1004600081E08093230208958EE00E94060210929C
:1004700023020895CF93CFB7F8948091AC088111EF
:1004800008C08CE00E940602811103C081E08093C5
:10049000AC08CFBFCF9108950F931F932FB7F89457
:1004A00040911C0350911D0360911E0370911F0326
:1004B0008091840090918500B09B08C04F5F5F4F92
:1004C0006F4F7F4F80918400909185002FBFBA01BC
:1004D00055274427A0E0B0E08A019B01082B192B87
:1004E0002A2B3B2BC901B8011F910F910895409110
:1004F0008400509185006FB7F8942091840030916A
:1005000085002D5F3F4FF901E41BF50BE817F90754
:1005100018F49C01240F351F2115310511F421E039
:1005200030E021503109309389002093880082E027
:1005300086BB80916F00826080936F006FBF0895CB
:100540000F931F93CF93DF938C018FB7F894C091D3
:100550008D03D0918E039E012F5E3E4F30938E030C
:1005600020938D038FBF86E00E940602CE01B80162
:100570000E94D1178A5D9E4FDF91CF911F910F91FD
:1005800008952FB7F89480910E0290910F022FBF1B
:1005900008952FB7F8943091B20080914102909164
:1005A0004202A0914302B0914402B99B0BC040911A
:1005B000B3003091B2000196A11DB11D840F911DB1
:1005C000A11DB11DBC01CD01630F711D811D911DC8
:1005D0002FBF0895E6E0F1E06927660FF11DE60FF1
:1005E000F11DC895982F802D3196C89590250895B6
:1005F000DC01662319F00E94FE011EC02FB7F8949B
:100600009091C008E92FF0E0EE0FFF1FE850FD4F7A
:1006100040815181A417B50771F481E0890F8C30B6
:1006200018F48093C00802C01092C0088091320272
:100630008111109232022FBF81E00C940602CF93F9
:10064000DF93DFB7F894C0912402C11109C081E0A3
:1006500080932402109207028BE00E94060218C0C9
:10066000809190028F3F99F4E0910802EE2379F097
:10067000809109028F3F19F41092090204C0F0E042
:10068000E057FD4F108210920802C0E001C0C5E0A3
:10069000DFBF8C2FDF91CF910895CF93DF93DFB72A
:1006A000F89480912502823021F5C0910A02C1118F
:1006B00020C090910C029F3FB1F0E92FF0E0E75885
:1006C000FD4F808180930C028F3F11F480930B02C9
:1006D0008FEF808390930A0281E08093250282E06D
:1006E0000E94060204C090930A0210922502DFBF06
:1006F00002C0DFBFC1E08C2FDF91CF910895CF936F
:10070000DF93DFB7F89480912402823039F5C091ED
:100710000702C11123C0909109029F3FB1F0E92F58
:10072000F0E0E057FD4F8081809309028F3F11F484
:10073000809308028FEF80839093070281E080937B
:1007400024028BE00E94060204C0909307021092DC
:1007500024028CB58F7B8CBDDFBF02C0DFBFC1E040
:100760008C2FDF91CF910895CF92DF92EF92FF927D
:100770000F931F93CF93CFB7F8942091B30090912C
:10078000B20087B3291711F081FF02C0CFBF7CC030
:1007900080918402811102C086EE3FC00E94C9028E
:1007A000C0903402D0903502E0903602F0903702CB
:1007B000009115081091160820911708309118081B
:1007C000AB01BC014C195D096E097F094017510747
:1007D0006207730728F01092840286EE91E01EC033
:1007E000D901C8018C0D9D1DAE1DBF1D4091410258
:1007F000509142026091430270914402841B950B18
:10080000A60BB70B873E9105A105B10528F68230EE
:100810009105A105B10508F482E090E02FEF280FC3
:100820003091B60033FDFCCF3091B2002313822FFC
:100830004091410250914202609143027091440202
:100840008A019B010F5F1F4F2F4F3F4F080F111D54
:10085000211D311D041715072607370710F4842FB3
:1008600080952091B60023FDFCCF8093B300CFBFCD
:10087000992351F087E0CF911F910F91FF90EF9056
:10088000DF90CF900C940602CF911F910F91FF90B3
:10089000EF90DF90CF900895CF93DF931F92CDB765
:1008A000DEB789830E94B401898180688EBD80E0B3
:1008B0000E94AD010E94A80189830E94A60189813E
:1008C0000F90DF91CF9108951F93CF93DF931F92E5
:1008D000CDB7DEB7182F69830E94B401912F906CB9
:1008E0009EBD89810E94AD010E94A8010F90DF91F9
:1008F000CF911F910C94A6018CB58F7B8CBD229A51
:100900002398219A209A8CB580618CBD8CB58F7705
:100910008CBD8CB5877F8CBD8CB58B7F8CBD8CB529
:1009200080648CBD8DB581608DBD8CB58C7F8CBD98
:100930000895209117029091220221112FC0811158
:100940002DC081E0809317022091060220931602A9
:10095000292F217020933A02209100023091010248
:100960003093150220931402209121022093130248
:10097000292F21708227967EE82FF0E0EE0FFF1FCF
:10098000EE5FFD4F20813181309301022093000200
:10099000982B9093220281E10C94060290FF02C0F2
:1009A0009B7F01C09D7F909322020895CF93DF9398
:1009B000D82FC62F80917F02813061F028F08230DD
:1009C00099F0833019F1E2C0DD2309F425C10E94BA
:1009D000D101ECC0D11120C160930A088CEB860FC5
:1009E000823008F0D3C0E4C0D111D0C0609383023C
:1009F00080912003909121030E94EA0290932103A9
:100A00008093200383E080937F0206C1809190034E
:100A10008F3F09F4BBC0DD2309F454C0823008F4D1
:100A2000B5C0E0910008EE2311F0E15001C0E2E012
:100A3000AE2FB0E0A050B84F12962C9130E0322F7C
:100A40002227EE2311F0E15001C0E2E0F0E0E05097
:100A5000F84F8281282B8091200390912103281741
:100A6000390709F093C080E00E94990480910A0838
:100A70008434A9F420918302E09110039091110332
:100A800081E08E0F863008F4BDC0992341F0F0E07C
:100A9000E05FFC4F2283109210030E943A020E94F2
:100AA000D101809112028D7F8093120280912302E6
:100AB000882309F4B1C084E080937F02DF91CF9155
:100AC0000C942802823008F44CC0E0910108F0E058
:100AD000E050F84F928180912202282F269526958A
:100AE0002695237030E02130310521F02230310588
:100AF00079F01EC0877E806180932202992311F0D5
:100B000080E001C085E0809321029093060210C02E
:100B1000809121028F3260F4E0910002F091010295
:100B2000E80FF11D9083809121028F5F8093210255
:100B300080910108E82FF0E0E050F84F62818F5F6C
:100B4000833018F48093010802C01092010880914C
:100B50002003909121030E94EA0290932103809345
:100B6000200380910008E82FF0E0E050F84FC283A6
:100B70008F5F833018F48093000802C01092000841
:100B8000809190038F5F8093900346C00E94D101B3
:100B9000809112028D7F8093120281E00E9499045D
:100BA00080912302811187CFDD23B1F181E02BCF2A
:100BB00080912003909121030E94EA0290932103E7
:100BC00080932003C43411F482E001C083E0809359
:100BD0007F029091220290FF04C092FDD7CF9460D3
:100BE00003C091FDD3CF92609093220280912202A4
:100BF000877E886080932202109221028FEF80937B
:100C000006020AC0891709F44ACFF0E0E05FFC4F02
:100C100022838093100341CFDF91CF910895CF932A
:100C2000DF93FC01228130E0322F22274181242BE7
:100C300025FF15C027743C7C2134384881F4FC0121
:100C4000C781D0E0DC2FCC278681C82B0E94C1024F
:100C500021E0C817D90709F020E0822F01C080E009
:100C6000DF91CF910895CF938FB7F89490910702B9
:100C7000911106C090912402923011F48FBF0FC0E1
:100C80008FBFCFB7F8948091240281110AC082E00F
:100C900080932402109207020E947C04CFBF81E05F
:100CA00004C0CFBF0E941F0380E0CF9108958091C0
:100CB000920290919302892BC1F581E090E090938C
:100CC0000908809308088CE592E090939302809342
:100CD0009202109281021092800281E0809382023F
:100CE0008091C00080648093C0008091C1008064C6
:100CF0008093C10080918002909181029C012F5FBE
:100D00003F4F3093810220938002FC01E45AFD4F53
:100D100080819FB7F8948093C6008091C000806462
:100D20008093C0009FBF80E0089585E0089593E818
:100D3000980F923050F490911202916090931202A9
:100D400090E2892780938F038DE780935C020C9457
:100D500057069FB7F894809112028E7F80931202FB
:100D60008EE780935C029FBF0C9457062F923F92B0
:100D70004F925F926F927F92AF92BF92CF92DF922B
:100D8000EF92FF920F931F93CF93DF93209127024F
:100D9000222311F015E0DEC01091A9081530D1F71B
:100DA000209105082111F6CFEC010E94330688231B
:100DB00089F38CA582FF03C06EA56F7001C060E04F
:100DC0008091C802681731F06093C802606885E0BE
:100DD0000E9464042A8130E0322F22278981282B47
:100DE00027743C7C21343848A1F486E00E944C04EE
:100DF0008F7190E040918A0220917A0230E0240FB6
:100E0000311D43E0359527954A95E1F728173907B5
:100E100044F169E082E00E9464040E944C022B01CC
:100E20003C016E01EFEFCE1ADE0A08818CA52EEF91
:100E3000B22EB00E84FF09C09E012C193D098BEF24
:100E4000800FA82EA20EBA1802C0AB2CB12C81E0E4
:100E50000E944C048F71893039F066E082E00E9474
:100E600064040E947F0376C08FB7F8942F9AE090B5
:100E70008400F09085008FBF0E94A4010E94B401FD
:100E800080E68EBD802F0E94AD0186013A2CF801CC
:100E900081918F010E94AD013A943110F8CFAA944C
:100EA0002A2D30E08601020F131F2F5F3F4F2C0DBC
:100EB0003D1D1701F2EA2F0E311C24183508C1011F
:100EC000AA2797FDA095BA2F12012301280E391EDB
:100ED0004A1E5B1EBB2041F1F8018181C280D12CEA
:100EE000E12CF12C7601DD24CC24F82A8481C82A57
:100EF0008381D82AD701C60182199309A409B509AB
:100F000084839383A283B183A22E3901F30181915B
:100F10003F010E94AD01862D8A198B11F7CFF80190
:100F2000C482D382E282F1820E94A8010E94A601BB
:100F300066E082E00E9464048CA582608CA728A6EB
:100F400039A64AA65BA686E08093A90884E0809330
:100F5000270210E0812FDF91CF911F910F91FF9019
:100F6000EF90DF90CF90BF90AF907F906F905F90A9
:100F70004F903F902F9008952F923F924F925F9203
:100F80006F927F928F929F92AF92BF92CF92DF9299
:100F9000EF92FF920F931F93CF93DF931F92CDB7E2
:100FA000DEB714E000E8C02E05E083E0D82E90E222
:100FB000B92E87E592E025E0922E980E39E0A32E17
:100FC00080918603823009F07DC010928603809163
:100FD0009402823009F459C0833009F461C0813031
:100FE00009F070C0209184003091850060901A0350
:100FF00070901B03621A730A90917E02903841F43C
:1010000010927E0290917D02923009F05BC03AC04E
:1010100097FF04C0161417040CF4B3C3E0907B02CE
:10102000F0907C02809140028111ABC3C7010E9405
:10103000B606282F8111A6C3D7019C968C919C9748
:101040008E7F9C968C9381E080934002F092B00852
:10105000E092AF08D0927E0235C097FFAAC3161463
:1010600017040CF0A6C3C0927E0281E08093940224
:1010700080938603C30129830E94770229812093EC
:10108000190881E080937D0208C0109240021092FE
:101090007E021092190810937D020E94250212C050
:1010A0009091A908923019F48093A90809C0809101
:1010B0002702863029F41092270281E00E944C0416
:1010C0000E94390C80910508882309F4CBC08091D7
:1010D000A908813009F4C6C00E943306882309F4A8
:1010E000C1C08FB7F89460908D0270908E028FBF50
:1010F000109205088FE00E944C04282FB82FB8707A
:10110000FB2E83FF1EC0883031F08C3099F4809123
:10111000270281110FC087E029830E944C04E091CF
:101120003802F091390294A59B7F986094A786A716
:10113000298107C0E0913802F091390284A5877FA8
:1011400084A7809127028B7F833029F40093A9081C
:1011500088E08093270222FF4CC0809127028630CE
:1011600011F4109227029091270291112DC324307F
:1011700009F022C386E00E944C0490917A02292F44
:1011800026952695921B8F71980F90937A020E9454
:101190004C02930127503109261B370B2901662485
:1011A00057FC6094762CE0913802F091390224A526
:1011B000226024A7DC01CB01840D951DA61DB71D5F
:1011C00080A791A7A2A7B3A700932702FF2009F445
:1011D00049C086E00E944C0490918A028F71292FA9
:1011E00026952695921B980F90938A02A09227022B
:1011F00039C0FF20B9F180912702843081F5009336
:10120000A9081092270280914002833019F41092AD
:10121000400228C0E091AF08F091B008828190E0D0
:10122000982F88272181822B85FF0EC087749C7C94
:101230008134984849F4878190E0982F8827268147
:10124000822B019609F0C3C21092400210927E02D6
:101250001092190810937D020E94250203C0853068
:1012600009F4B7CF90912702992309F440C299302D
:1012700009F0AEC10E94B401BEBC0DB407FEFDCFA3
:101280008EB51EBC0DB407FEFDCF9EB58DEF890F48
:10129000873208F06FC01EBCE0913802F09139022D
:1012A0003F015FEF651A750A9083EEEF8E2E890E6F
:1012B00086E0881510F0582C02C077E0572E730195
:1012C000452C212C312C80E00E94AD01D7018D935B
:1012D0007D01682FC1010E94B6011C014A94411092
:1012E000F2CF9FEF950D892F90E00196860D971D07
:1012F000E0913802F091390221812770223029F4DF
:10130000209140022230A1F50BC03FB7F89421E0B4
:101310004091C605433008F020E03FBF222341F151
:1013200085187C01880E80E08E1459F00E94AD0172
:10133000F70181937F01682FC1010E94B6011C0152
:10134000F2CF0E94AD01682FC1010E94B6017C015D
:1013500080E00E94AD01682FC7010E94B6017C01A8
:101360000E94A801E0913802F091390285A705C0DA
:101370000E94A801EE24E394F12C0E94A6010093A0
:10138000A90810922702EF2809F0A8C1609038023E
:1013900070903902D30111968C91119787709091BA
:1013A0004002823029F5923009F00DC1E091AF087A
:1013B000F091B00813969C918381981304C1809199
:1013C0006F008D7F80936F0010928603E091AF08CD
:1013D000F091B00884A5816084A710924002109219
:1013E0007E021092190810937D020E942502EBC024
:1013F000911118C0C3010E940F06882399F0009331
:10140000C90282E08093CA021092CB02F301838169
:101410008093CC0289EC92E00E94B606811102C052
:10142000D0924002E0908400F0908500C3010E94B9
:101430000F06882321F0F4EEEF1AFCEFFF0AF0927A
:101440001B03E0921A03809184009091850097011C
:10145000281B390BC90118161906ACF420917E021D
:1014600021110EC02091860321110DC021E020938F
:101470009402209386030E947702C0927E0203C0EA
:10148000206820937E02D30119968C91199790E0E1
:10149000982F882718962C91822B2091AD08E22F47
:1014A000F0E0DF01AA0FBB1FAA54B74F4D915C912A
:1014B0006091B3084817590781F0A6EBB8E0E7E55B
:1014C000F2E020E030E0F12C70E04D915D914817A2
:1014D000590779F42093AD08F901E95AFD4F80814D
:1014E000861709F43EC06F5F6093B308608370E8AD
:1014F00021C04191562F541B751710F4F22E752FF1
:101500002F5F3F4F2530310501F7F092AD08EF2DE9
:10151000F0E0DF01AA0FBB1FAA54B74F8D939C9335
:101520006F5F6093B308DF01A95ABD4F6C93E55C10
:10153000FD4F10828091B308982F9F779F3719F045
:101540002091AD080EC07F37D8F3E7E5F2E0282FF1
:10155000207890819F679813208331969E12F9CF4F
:10156000EFCFD30113969C91E22FF0E0DF01A55C51
:10157000BD4F8C91E953FA4F80FF04C080819813CE
:1015800003C021C081608C939083FFB6F894809152
:10159000C6058330B8F4E0911308E80FE33008F093
:1015A000E350F0E0EE0FFF1FE45DFD4F8080E1802F
:1015B000718260828F5F8093C60585E00E9406027B
:1015C000682C7E2CFFBE709239026092380286C071
:1015D0008FEF890F833008F06FC08EEF890F823054
:1015E000D8F52091A9082130A1F4809186038111BA
:1015F00033C029830E94A401D092940229812093B0
:1016000086038BE293E00E94770282E08093A90830
:101610003DC0933009F52330F9F40E943306882346
:10162000D9F08FE00E944C04809181008064809307
:101630008100B6BA80916F00806280936F006091E4
:101640005E02606688E00E94640466E082E00E94B8
:1016500064041093A9081AC0809127028150823037
:10166000A8F48091A908853089F40E943306882364
:1016700069F063E082E00E94640480916F008F7DD6
:1016800080936F0010920508D092A90880912702DC
:10169000813041F49091A908933001F52F9A8093FD
:1016A000A90806C08230D1F48091A9088330B1F432
:1016B00088E08093270212C0973081F40E9433069D
:1016C000882361F060915E02606688E00E94640495
:1016D0008091A908853061F71093A90880912702AD
:1016E000883029F41092270283E00E94060280913C
:1016F000270281111DC08091A9088530C9F480910D
:101700000508811115C080914002811111C080919E
:101710007E0281110DC080918603811109C08091E4
:101720007D02823029F481E080937D020E942502AF
:1017300080912702811103C089E00E9406028FB7C1
:10174000F894909191039130B9F4109291038FBF66
:101750000F90DF91CF911F910F91FF90EF90DF904D
:10176000CF90BF90AF909F908F907F906F905F9041
:101770004F903F902F90089591E0909391038FBFE9
:101780001FCC25E090917E02892F8F77813009F060
:1017900064CC9078926090937E0280E198E00E9401
:1017A000A00221E020939402209386030E947702F6
:1017B00089CC10927E0263CCE0913802F09139021C
:1017C00084A58D7F84A700CDF11015CD50CD8091DB
:1017D0008603811139CDF2E0FF2EF092940281E070
:1017E0008093860389E993E00E947702F092400299
:1017F00039CD9FB7F89480919103815080939103E4
:10180000803811F09FBF089581E0809391039FBFBE
:101810000C94BC070F931F93CF93DF931F92CDB708
:10182000DEB78C018FE3F8018287909126029F5FDB
:101830009093260293830E94C80180917D028111BA
:101840000DC010938B0300938A0381E080937D0287
:10185000109287030E94250280E001C085E0898301
:101860000E94F90B89810F90DF91CF911F910F9109
:1018700008959FB7F89480919103882329F0806898
:10188000809391039FBF089581E0809391039FBF50
:101890000C94BC07FF920F931F93CF93DF93EC013F
:1018A0004A3059F48CA583FF03C08EA590E002C096
:1018B0008FEF9FEFFB0181839083FFB6F8948091B7
:1018C0008902811125C02091330230E0F901EE0F29
:1018D000FF1FEF59FD4F00811181D183C083C901E2
:1018E00001966CE070E00E94E517809333029091BE
:1018F0008C03981303C081E08093890280911408BF
:10190000811109C00E94060281E08093140803C07F
:101910000E94FE018E01FFBEC801DF91CF911F9191
:101920000F91FF9008952F923F924F925F926F9286
:101930007F928F929F92AF92BF92CF92DF92EF925F
:10194000FF920F931F93CF93DF9300D01F92CDB7D9
:10195000DEB790E08231910508F024C5FC01EA5918
:10196000FF4F0C941B188FB7F8942091330290917D
:101970008C03291307C090918902911103C0109222
:10198000140882C08FBFE0918C03F0E0EE0FFF1FC0
:10199000EF59FD4FA081B1813C9143EF430F40933C
:1019A00024031B965C911B9717966C9117971696BC
:1019B0002C91169719968C91199790E0982F88275B
:1019C00018967C911897872B18968C9318971796D2
:1019D0009C930190F081E02D4D3108F0C7C490E058
:1019E000962B268395835387418780911D02909182
:1019F0001E02892B09F0BAC48FB7F89495E0909332
:101A00001B0210921A02F0932002E0931F0242E0A0
:101A100050E050931E0240931D0210921802109243
:101A20001902315030931C028FBF8FB7F8949091F8
:101A300089039A3011F48FBF95C48FBF9FB7F89474
:101A400080919702811106C081E0809397021092E5
:101A5000980201C080E09FBF882309F483C40E94DC
:101A60003A029FB7F89422B182E092C08FB7F894FF
:101A7000209128029091C008291308C09091320249
:101A8000911104C010922B028FBF8CC48FBFE091C4
:101A9000C008F0E0EE0FFF1FE850FD4FC080D1807E
:101AA000F60121853581E68013852D3108F073C05C
:101AB000828190E0982F88274181842BAC01477464
:101AC0005C7C4134584841F0807399278164986860
:101AD000F601818388E88283F12CF32A235FF601E3
:101AE00020830E94C102F601808791879FB7F894F6
:101AF00080910D029FBF848315821387E682F7824F
:101B00008FB7F8949091250291110EC092E09093B6
:101B1000250210920A028FBFC6010E940A0C882378
:101B200099F10E944D0337C08FBFD0926002C092DE
:101B30005F021FB7F8948091250281110AC081E0ED
:101B40008093250210920A0282E00E9406021FBFC3
:101B50001BC0809179028F3F99F4E0910B02EE2334
:101B600079F080910C028F3F19F410920C0204C09E
:101B7000F0E0E758FD4F108210920B0280E001C0A8
:101B800085E01FBF811107C09FB7F89422B184E0A0
:101B9000822782B9E5C30E94FE0181E0EAC38FB7C4
:101BA000F89492E0909325028FBF80910A028111F0
:101BB000F9C380915F02909160020E940A0C882311
:101BC00009F4F0C38B830E944D036B8180915F0207
:101BD0009091600261C080917D0210927D028530FB
:101BE00019F410923202DEC39AEF980F923008F483
:101BF000D9C380937D02D6C30E94C80100917D02A3
:101C0000013091F5809187038F5F80938703863041
:101C100058F580918A0390918B0320917E022111C7
:101C200015C010918603111111C090937C0280930E
:101C30007B0200937E028BED91E10E94A002009353
:101C40009402009386030E94770201C015E010936E
:101C50001908111104C083E080937D0208C082E05E
:101C600080937D0210E003C010927D0211E00E947B
:101C7000F90B112309F496C360911908E0908A03C7
:101C8000F0908B03F70182858F3309F08BC36B8350
:101C90000E944D036B81C7010F900F900F90DF9151
:101CA000CF911F910F91FF90EF90DF90CF90BF9059
:101CB000AF909F908F907F906F905F904F903F90EC
:101CC0002F900C94F802E0911308F0E0EE0FFF1F44
:101CD000E45DFD4FC080D1808FBFF60180819EEF13
:101CE000980F993008F459C092859F3309F043C08A
:101CF0008B50823008F451C04385B601645F7F4F3A
:101D0000E780F12CFE2CEE248681E82AFFEFEF1607
:101D1000FF0629F52FB7F8942FBFC6010E944A0C81
:101D20003FB7F89420911308E22FF0E0EE0FFF1F69
:101D3000E45DFD4F8083918381E0820F833078F5ED
:101D4000809313088091C60581508093C6053FBFDC
:101D50008FB7F8949091C6059111B5CF95CE498370
:101D60006B837A830E94C10249816B817A81E81674
:101D7000F90699F6CFCFF601E780F12CFE2CEE2480
:101D80008681E82A0E94C102E816F90619F0EF20C0
:101D9000E09419F48FB7F8948FBFC601C1CF1092A9
:101DA0001308D0CFEFB7F894809185029091860206
:101DB000A0918702B09188021C012D019C01A20113
:101DC00060E070E080E090E003E00E9424185101A0
:101DD0006201E12CF12C00E010E00E945B18590137
:101DE0006A017B01F82F192F03E00E9424180F2F9E
:101DF0000E945B1859016A017B01F82F192F03E03B
:101E00000E9424180F2F0E945B1859016A017B0160
:101E1000F82F192F03E00E9424180F2F0E945B183F
:101E200059016A017B01F82F192F03E00E94241841
:101E30000F2F0E945B1801E00E94241829013A012B
:101E400000E20E943F1849015A0176946794579422
:101E50004794840C951CA61CB71CB7FE07C0E894D9
:101E6000B7F86FEF861A960AA60AB60A809285021C
:101E700090928602A0928702B0928802EFBF8FB73D
:101E8000F89490928E0380928D03FECD80915D0236
:101E9000811141C040910B0850910C0860910D08D0
:101EA00070910E082FB7F894C0901508D0901608BE
:101EB000E0901708F0901808809134029091350254
:101EC000A0913602B09137028C0D9D1DAE1DBF1D35
:101ED0002FBF40930B0850930C0860930D0870932C
:101EE0000E0810925D022FB7F89431E0309384020F
:101EF0008093340290933502A0933602B093370258
:101F000040931508509316086093170870931808AB
:101F10002FBF0E94B4030E94C90288E02AC20E9417
:101F2000C9028FB7F89410928402AECD8FB7F8949F
:101F300010928503109284031092A8081092A708AB
:101F400010922A021092290210921903109218037B
:101F50009BCD1FB7F89482E0809324020E947C04FA
:101F60001FBF8091070281111DC28091A9088111B4
:101F70004EC00EEF11E0C801019701960197E1F7FD
:101F800016980E94A40186E090E0019701960197BF
:101F9000E1F7169A60E083E00E94640468E082E062
:101FA0000E946404C801019701960197E1F76DE46E
:101FB0008EE00E94640467EC89E00E94640460E89B
:101FC00085E00E9464041092C8028AE180935E0258
:101FD0006AE788E00E9464042F9A81E08093A90850
:101FE0000F900F900F90DF91CF911F910F91FF9065
:101FF000EF90DF90CF90BF90AF909F908F907F90A9
:102000006F905F904F903F902F900C947F030F90B4
:102010000F900F90DF91CF911F910F91FF90EF9054
:10202000DF90CF90BF90AF909F908F907F906F90F8
:102030005F904F903F902F900C94390C2FB7F894ED
:102040001092AC089091890388EF890F823050F488
:1020500010928903E0912503F0E0EE0FFF1FEB568D
:10206000FD4F10822FBF823018F52FB7F894809162
:1020700012088F5F8093120880919102833489F453
:102080008091110390911003981741F08F5F863073
:1020900018F48093110302C01092110390E080E0C5
:1020A00005C081E0983009F480E091E02FBF04C0C2
:1020B000911176C180E090E03FB7F894209123021F
:1020C0003FBF222339F02FB7F8943AE030938903C9
:1020D0002FBF3FC04FB7F8943091950220919702DF
:1020E0004FBF6FB7F89450911003409111036FBF29
:1020F000541709F131111FC03FB7F89422E0209323
:1021000095025FB7F89440911003209111035FBFCF
:10211000421739F0E0911103F0E0E05FFC4F2281BB
:1021200001C020E02093960223E4209391021092B4
:1021300025033FBF0CC02150223058F42FB7F8942C
:1021400035E43093910231E0309325032FBF11E045
:1021500001C010E0992341F09FB7F89480931A02D0
:102160009FBF80E10E940602FFB6F8948091890328
:102170008A3021F40E942802FFBE14C1FFBE112341
:1021800009F410C18FB7F8941092B2081092B108F8
:1021900010928F0291E0909389038FBF0E94A9064D
:1021A000882309F4FFC08FB7F89499E090938903CE
:1021B0008FBF0F900F900F90DF91CF911F910F91D4
:1021C000FF90EF90DF90CF90BF90AF909F908F9057
:1021D0007F906F905F904F903F902F900C943A02B9
:1021E0008091C1008F7B8093C1008091C1008F7767
:1021F0008093C10010928803109282028091C100E6
:1022000088608093C1008091C10080618093C1008B
:102210008091C10080688093C1008FB7F8941092BC
:10222000890310927F028FBF10928902BBC08FE09A
:10223000A0C08091C100877F8093C1008091C100C0
:102240008F7E8093C100AEC010921E0210921D02BC
:102250009FB7F89480911A029FBF90911902911133
:1022600083E040911F025091200290911802911139
:1022700099C081117BC09FB7F89480918C03E82F9F
:10228000F0E0EE0FFF1FEF59FD4F20813181421723
:10229000530769F48F5F8C3018F480938C0302C06D
:1022A00010928C03809189028111109289029FBF44
:1022B0005FC09FB7F8948091160200911402C090FD
:1022C0001502F0903A029FBF811135C01FB7F894F4
:1022D00080913202811128C080912802E82FF0E01D
:1022E000EE0FFF1FE850FD4FD080E1800083C182D8
:1022F0008F5F8C3018F48093280202C0109228025D
:10230000909128028091C008981303C081E08093C7
:10231000320280912B0281110BC081E00E940602E3
:1023200081E080932B0204C00E94FE01D02EEC2C91
:102330001FBF0D2DCE2C9FB7F894EF2DF0E0EE0FC0
:10234000FF1FEE5FFD4F0083C18280912202FF20BC
:1023500011F08B7F01C08D7F8093220210921702B3
:102360009FBF20C010921E0210921D020E94FE010B
:1023700080E00F900F900F90DF91CF911F910F9100
:10238000FF90EF90DF90CF90BF90AF909F908F9095
:102390007F906F905F904F903F902F900C9406022B
:1023A00010E0E2CE0F900F900F90DF91CF911F9130
:1023B0000F91FF90EF90DF90CF90BF90AF909F90E4
:1023C0008F907F906F905F904F903F902F900895E7
:1023D0008FB7F89408958FBF08951F920F920FB68C
:1023E0000F9211240BB60F920F931F932F933F93CD
:1023F0004F935F936F937F938F939F93AF93BF930D
:10240000EF93FF930E94F5018091B30090E0019655
:102410004091410250914202609143027091440206
:102420008A019B01080F191F211D311D00934102D4
:1024300010934202209343023093440278940E9406
:10244000B403FF91EF91BF91AF919F918F917F91D5
:102450006F915F914F913F912F911F910F910F902D
:102460000BBE0F900FBE0F901F9018951F920F92EA
:102470000FB60F9211240BB60F922F933F934F93E9
:102480005F936F937F938F939F93AF93BF93EF93DC
:10249000FF930E94F501FF91EF91BF91AF919F9142
:1024A0008F917F916F915F914F913F912F910F90FD
:1024B0000BBE0F900FBE0F901F9018951F920F929A
:1024C0000FB60F9211240BB60F922F933F934F9399
:1024D0005F936F937F938F939F93AF93BF93EF938C
:1024E000FF932EB5E0918403F0918503309739F086
:1024F0008091180390911903E80FF91F20838091B0
:10250000180390911903019690931903809318036F
:102510008CB58F778CBD80911803909119036091D1
:10252000290270912A028617970708F03FC0209170
:10253000A7083091A808E0918403F0918503AC01CD
:10254000465F5F4F6417750708F4AB0141505109AE
:1025500084179507C8F42115310549F0D901A80F52
:10256000B91F6C916EBD0DB407FEFDCF04C01EBC3B
:102570000DB407FEFDCF6EB5309721F0DF01A80F37
:10258000B91F6C930196E4CF4CB540684CBD211542
:10259000310531F0F901E80FF91F20812EBD01C08E
:1025A0001EBC909319038093180311C010928503E9
:1025B000109284031092A8081092A70810922A0281
:1025C0001092290210921903109218038EB5FF91F0
:1025D000EF91BF91AF919F918F917F916F915F919B
:1025E0004F913F912F910F900BBE0F900FBE0F9008
:1025F0001F90189578941F920F920FB60F92112486
:102600000BB60F922F933F934F935F936F937F93EC
:102610008F939F93AF93BF93EF93FF9380916F003E
:102620008D7F80936F0078948FB7F8949091860394
:10263000913019F492E0909386038FBF0E94390C79
:10264000FF91EF91BF91AF919F918F917F916F918A
:102650005F914F913F912F910F900BBE0F900FBE46
:102660000F901F90189578941F920F920FB60F92AB
:1026700011240F900FBE0F901F90189578941F9201
:102680000F920FB60F9211240F900FBE0F901F9054
:10269000189578941F920F920FB60F9211240BB6D3
:1026A0000F922F933F934F935F936F937F938F93EB
:1026B0009F93AF93BF93EF93FF93E6E8F0E08081A1
:1026C0009181208131818FB7F89430938E022093CD
:1026D0008D0291E0909305088FBF0E94390CFF9105
:1026E000EF91BF91AF919F918F917F916F915F918A
:1026F0004F913F912F910F900BBE0F900FBE0F90F7
:102700001F90189578941F920F920FB60F92112474
:102710002F938F939F93AF93BF932FB7F89480918C
:102720001C0390911D03A0911E03B0911F030196FD
:10273000A11DB11D80931C0390931D03A0931E0344
:10274000B0931F032FBFBF91AF919F918F912F9196
:102750000F900FBE0F901F9018951F920F920FB6FB
:102760000F9211240BB60F922F933F934F935F93C9
:102770006F937F938F939F93AF93BF93EF93FF9349
:102780008091C00087FF4AC06091C600209122035B
:10279000309123032115310551F18091AA089091C0
:1027A000AB08AC014F5F5F4F5093AB084093AA0852
:1027B000F901E80FF91F60832091AA083091AB0856
:1027C0008091B4089091B5082817390738F1109214
:1027D000230310922203809188038330F9F08091C3
:1027E000C1008F778093C1001092880317C06E37A5
:1027F00019F460E081E010C0809112026D3721F47D
:102800008260809312020AC081FF05C08D7F809391
:10281000120280E2682780E00E94D604FF91EF91C7
:10282000BF91AF919F918F917F916F915F914F91E8
:102830003F912F910F900BBE0F900FBE0F901F90E6
:10284000189578941F920F920FB60F9211240BB621
:102850000F92EF92FF920F931F932F933F934F93FB
:102860005F936F937F938F939F93AF93BF93CF9318
:10287000DF93EF93FF9380918002909181022091EA
:1028800008083091090882179307D0F4209192022A
:1028900030919302AC014F5F5F4F509381024093A0
:1028A0008002F901E80FF91F80819FB7F8948093A7
:1028B000C6008091C00080648093C0009FBFB2C0FA
:1028C0001092930210929202109282028091C100A3
:1028D0008F7B8093C1000FB7F89480911202982FDC
:1028E0009170F92E80FF0AC08E7F80931202809132
:1028F0008F0380935C020E94570693C0E091890386
:102900008E2F90E0FC013197E830F10508F084C08B
:10291000E858FF4F0C941B18809191020E94970673
:10292000182F83E080938903609191020AC08091FF
:1029300012080E949706182F83E080938903609104
:1029400012088091B1089091B2080E94EA02909317
:10295000B2088093B1085EC0E0912503F0E0EE0F6D
:10296000FF1FEB56FD4F81810E949706182FE090C4
:102970002503CE2DD0E0CC0FDD1FFE01EB56FD4F21
:1029800061818091B1089091B2080E94EA0290930F
:10299000B2088093B10890918F029F5F90938F024D
:1029A00081E0E8121EC080911B02E0911F02F091AD
:1029B0002002E80FF11D20818F5F80931B02309170
:1029C0001C02381720F482E08093970201C0F22E97
:1029D000CB56DD4F8881823021F09F3F11F0F98284
:1029E00019C084E012C08091B1080E949706182F88
:1029F00085E00BC08091B2080E949706182F86E0F0
:102A000004C00E94A906182F87E08093890302C0A2
:102A100088E003C0112329F089E0809389030E9494
:102A20003A020FBFFF91EF91DF91CF91BF91AF912C
:102A30009F918F917F916F915F914F913F912F91D6
:102A40001F910F91FF90EF900F900BBE0F900FBE54
:102A50000F901F9018951F920F920FB60F9211248E
:102A60008F938091C80087FD8091CE008F910F9049
:102A70000FBE0F901F90189578941F920F920FB66B
:102A80000F9211240F900FBE0F901F9018957894FD
:102A90001F920F920FB60F9211240F900FBE0F903E
:102AA0001F90189578941F920F920FB60F921124D1
:102AB0000F900FBE0F901F90189578941F920F9251
:102AC0000FB60F9211240F900FBE0F901F90189504
:102AD00078941F920F920FB60F9211248F939F93A9
:102AE00080919600909197009F918F910F900FBECB
:102AF0000F901F90189578941F920F920FB60F9217
:102B000011242F938F939F932FB7F89480918B026A
:102B100090918C02019690938C0280938B022FBF30
:102B20009F918F912F910F900FBE0F901F9018952E
:102B3000CFB7F89414BE88E10FB6F8948093600084
:102B4000109260000FBE42E150E06FEF70E085E44C
:102B500092E00E9464188FEF80930F088093AE0874
:102B600056985E9854985C9880916F008F7D809302
:102B70006F00209A0E94A601279A0E94A4010E9A33
:102B8000169A89E992E09093390280933802109264
:102B90008A028AE580937A0281E08093810080E254
:102BA0008093B60083E08093B1002091840030913F
:102BB00085008AE7409184005091850042175307B1
:102BC00008F481509A018111F5CF8091B200909163
:102BD000B2009817E1F32091840030918500809134
:102BE000B2009091B2009817E1F380918400909127
:102BF00085004096821B930B55E0969587955A95D4
:102C0000E1F790931108809310081092B100109290
:102C100081001092B6001092B200109285001092BE
:102C200084008FEF87BB86BB8091B6008571E1F78A
:102C30000A9A099A089A129A119A109A18B88FEF5C
:102C400087B90C9814981092950010929400809176
:102C5000710081608093710080919100887F826013
:102C600080939100109285001092840080916F00F3
:102C7000816080936F0080918100887F8260809363
:102C800081000E94E301D82F8F3F19F00E94930C1E
:102C9000F8CF02E016E06091100870911108CB01A6
:102CA000A0E0B0E0BC01CD012CE0660F771F881FCB
:102CB000991F2A95D1F7C12C31EED32EE12CF12C9E
:102CC000A70196010E94F917215031092093C400F1
:102CD0003093C5000093C0001093C2001092C10051
:102CE0006091100870911108CB01A0E0B0E0BC0128
:102CF000CD014CE0660F771F881F991F4A95D1F7C9
:102D0000A70196010E94F917215031092093CC00A8
:102D10003093CD000093C8001093CA001092C900F0
:102D200084E490E09093070880930608109295023F
:102D3000109297028AE08093890310928F0210927A
:102D40009102109212081092B2081092B1081092DB
:102D5000AC08109225030E94D10110921103109229
:102D60001003D09390020E941F038091B6008062EE
:102D70008093B6008091B60081FDFCCF82E0809305
:102D8000B0008091B60080FDFCCF83E08093B1005D
:102D90008091B60083FDFCCF86EE8093B3008091D6
:102DA00070008260809370000E94B40380911002D2
:102DB00090911102AC014F5F5F4F60E070E0409373
:102DC00085025093860260938702709388022AE1FD
:102DD00038E030932D0220932C0229E438E0309320
:102DE0002F0220932E0228E738E0309331022093FF
:102DF00030028295807F809326028FEF8093790244
:102E00008FEF9FEF9093B7088093B6089093B9081F
:102E10008093B8089093BB088093BA089093BD083C
:102E20008093BC089093BF088093BE080E94E30182
:102E30008F3F19F00E94930CF9CFCFBF78948CECA0
:102E400095E0E1E6F2E0819391938F9622E0E937F5
:102E5000F207C9F710928C031092330210921408F3
:102E600081E08093890282E993E0E8EFF2E08193C8
:102E700091938F9623E0E031F207C9F71092C008D2
:102E80001092280210922B0281E0809332020E945D
:102E9000C80180917D02811117C0809127028111A4
:102EA00013C08091A908813029F480918603811193
:102EB0000BC002C0853041F083E0809327020E945E
:102EC000390C85E080937D020E94F90B8FB7F8944E
:102ED000909189039A3031F090917F02943011F0F3
:102EE0008FBF04C08FBF8DE00E940602CFB7F89459
:102EF0000E94E3018F3F09F050C080917000837001
:102F000089F08091B6008A71E1F78091B3009091C9
:102F1000B200891B8C3040F08091B200853F20F4D4
:102F200083E003C085E001C082E0E0916E00E670BE
:102F3000E9F490916F009E72E1F4E0917100EE72FD
:102F4000A9F40CB407FC15C09091C100987189F4E4
:102F5000E091C900E87151F49091BC0092FD09C064
:102F600090917A0097FD04C0E5E003C0E0E001C065
:102F7000E1E093B78E1708F4E82FF0E0E050FF4F40
:102F80008491E92FE07FE160E82BE3BF7894889596
:102F9000F89483B78E7F83BFABCFCFBF0E94930CD3
:102FA000A5CFAA1BBB1B51E107C0AA1FBB1FA617B9
:102FB000B70710F0A61BB70B881F991F5A95A9F7E2
:102FC00080959095BC01CD01089597FB072E16F4CE
:102FD000009407D077FD09D00E94D11707FC05D0D7
:102FE0003EF4909581959F4F0895709561957F4F20
:102FF0000895A1E21A2EAA1BBB1BFD010DC0AA1F3A
:10300000BB1FEE1FFF1FA217B307E407F50720F051
:10301000A21BB30BE40BF50B661F771F881F991FCC
:103020001A9469F760957095809590959B01AC0115
:10303000BD01CF010895EE0FFF1F0024001C0BBE41
:103040000790F691E02D09940F93083090F0982F97
:10305000872F762F652F542F432F322F222708508A
:10306000F4CF220F331F441F551F661F771F881F81
:10307000991F0A95B2F70F91089597FB10F81694CF
:1030800000080F93083098F00850232F342F452F55
:10309000562F672F782F892F902DF4CF0594979571
:1030A00087957795679557954795379527950A950D
:1030B000AAF70F9108952A193B094C095D096E0979
:1030C0007F09800B910B0895DC0101C06D93415085
:0A30D0005040E0F70895F894FFCF98
:1030DA00260326035503FFFFFFFFFFFFFF22010020
:0230EA000100E3
:00000001FF
