S01700006275696C642F697269732F6D61696E2E7372656343
S11300000C9486010C94A5010C94A5010C94A501F3
S11300100C94A5010C94A5010C94A5010C94A501C4
S11300200C94A5010C94A5010C94A5010C94A501B4
S11300300C94A5010C94FC120C94A5010C9445138A
S11300400C9458140C9409140C9442140C944D14EC
S11300500C9491140C94A5010C94A5010C94A50185
S11300600C946D130C9432150C94A5010C94A615E4
S11300700C94A5010C94BC140C94A5010C94ED16DD
S11300800C94CC160C94D7160C94E2160C9400170E
S11300900C94B0160C94A5010C94C1160C94A501F3
S11300A00C94A5010C94A5010C94A5010C94A50134
S11300B00C94A5010C94A5010C94A5010C94A50124
S11300C00C94A5010C94A5010C94A501F10D1E0E30
S11300D0460E6F0EF40E2D0FA10FE90F82102E1095
S11300E04110AC10D410201144115C112C12501288
S11300F066127112791211161C16311678167F16B3
S113010086168D16941600020E060C0400002110AB
S1130110422063308440A550C660E770088129916D
S11301204AA16BB18CC1ADD1CEE1EFF13112100215
S113013073325222B5529442F772D66239931883BD
S11301407BB35AA3BDD39CC3FFF3DEE362244334E1
S113015020040114E664C774A44485546AA54BB50D
S113016028850995EEE5CFF5ACC58DD553367226B5
S113017011163006D776F6669556B4465BB77AA75D
S113018019973887DFF7FEE79DD7BCC7C448E55801
S11301908668A7784008611802282338CCC9EDD9AD
S11301A08EE9AFF9488969990AA92BB9F55AD44A55
S11301B0B77A966A711A500A333A122AFDDBDCCBFD
S11301C0BFFB9EEB799B588B3BBB1AABA66C877C21
S11301D0E44CC55C222C033C600C411CAEED8FFD4D
S11301E0ECCDCDDD2AAD0BBD688D499D977EB66EF5
S11301F0D55EF44E133E322E511E700E9FFFBEEF9D
S1130200DDDFFCCF1BBF3AAF599F788F8891A9815E
S1130210CAB1EBA10CD12DC14EF16FE18010A10048
S1130220C230E3200450254046706760B983989338
S1130230FBA3DAB33DC31CD37FE35EF3B102901298
S1130240F322D2323542145277625672EAB5CBA504
S1130250A89589856EF54FE52CD50DC5E234C324E8
S1130260A01481046674476424540544DBA7FAB7D8
S11302709987B8975FE77EF71DC73CD7D326F23638
S11302809106B01657667676154634564CD96DC924
S11302900EF92FE9C899E9898AB9ABA94458654888
S11302A006782768C018E1088238A3287DCB5CDB78
S11302B03FEB1EFBF98BD89BBBAB9ABB754A545AD8
S11302C0376A167AF10AD01AB32A923A2EFD0FED44
S11302D06CDD4DCDAABD8BADE89DC98D267C076C28
S11302E0645C454CA23C832CE01CC10C1FEF3EFF18
S11302F05DCF7CDF9BAFBABFD98FF89F176E367E78
S1130300554E745E932EB23ED10EF01E11241FBEC4
S1130310CFEFD1E2DEBFCDBF12E0A0E0B2E0E2E772
S1130320F3E300E00BBF02C007900D92A431B107C4
S1130330D9F714E0A4E1B2E001C01D92A838B107D6
S1130340E1F70E941D170C94B7190C9400002F9824
S11303500895289A08959FB7F8948091BE038F5FFB
S11303608093BE039FBF08950DB407FEFDCF8EB5E5
S11303700895982F0DB407FEFDCF8EB59EBD089548
S1130380289808958627082E8295807F8025092E37
S1130390982F82958F700826869598278927880F2D
S11303A0880F880F80250895E6ECF3E0118210820F
S11303B084E080939C021092BD031092D0031092AB
S11303C0A002109244031092430308958091D50330
S11303D08F3F69F0E82FF0E0EA5BFD4F9081909346
S11303E0D5039F3F11F4909376049FEF9083089573
S11303F08091B0008093B0008091B60081FDFCCF65
S113040008959FB7F894E82FF0E0EA5BFD4F208150
S11304102F3F99F4E0917604E81779F02091D50301
S11304202F3F19F48093D50304C0F0E0EA5BFD4F3D
S113043080838093760480E001C085E09FBF0895A7
S113044083E00C9401028091B7038A3021F48091F7
S11304509C02843021F081E080932502089581E19B
S11304600E940102109225020895CF93CFB7F89409
S113047080917404811108C08FE00E9401028111EF
S113048003C081E080937404CFBFCF9108959FB7D8
S1130490F89422B184E0822782B99FBF08952FB7D0
S11304A0F8943091B2008091420290914302A0915D
S11304B04402B0914502B99B0BC04091B300309106
S11304C0B2000196A11DB11D840F911DA11DB11D86
S11304D0BC01CD01630F711D811D911D2FBF0895B6
S11304E02FB7F89480911002909111022FBF0895B4
S11304F00F931F932FB7F89440913F0350914003FB
S11305006091410370914203809184009091850031
S1130510B09B08C04F5F5F4F6F4F7F4F8091840047
S1130520909185002FBFBA0155274427A0E0B0E081
S11305308A019B01082B192B2A2B3B2BC901B801DB
S11305401F910F91089540918400509185006FB7D9
S1130550F89420918400309185002D5F3F4FF9017C
S1130560E41BF50BE817F90718F49C01240F351F59
S11305702115310511F421E030E021503109309387
S113058089002093880082E086BB80916F0082609E
S113059080936F006FBF08950F931F93CF93DF93E2
S11305A08C018FB7F894C091BA03D091BB039E011C
S11305B02F5E3E4F3093BB032093BA038FBF85E079
S11305C00E940102CE01B8010E9431198A5D9E4F3A
S11305D0DF91CF911F910F910895ECE0F1E069272D
S11305E0660FF11DE60FF11DC895982F802D3196E9
S11305F0C895902508952091190290912402211103
S11306002FC081112DC081E0809319022091060230
S113061020931802292F217020933B02209100027D
S11306203091010230931702209316022091230285
S113063020931502292F21708227967EE82FF0E05F
S1130640EE0FFF1FEE5FFD4F2081318130930102D9
S113065020930002982B9093240284E10C940102CD
S113066090FF02C09B7F01C09D7F90932402089558
S1130670CF93DF93D82FC62F80919C02813061F0F5
S113068028F0823099F0833019F1E2C0DD2309F4B7
S113069025C10E94D401ECC0D11120C16093D003C4
S11306A08CEB860F823008F0D3C0E4C0D111D0C0E7
S11306B06093A00280914303909144030E94ED0251
S11306C0909344038093430383E080939C0206C188
S11306D08091BD038F3F09F4BBC0DD2309F454C0EE
S11306E0823008F4B5C0E091C603EE2311F0E15066
S11306F001C0E2E0AE2FB0E0AA53BC4F12962C9199
S113070030E0322F2227EE2311F0E15001C0E2E065
S1130710F0E0EA53FC4F8281282B809143039091AF
S113072044032817390709F093C080E00E94FB02B4
S11307308091D0038434A9F42091A002E091310384
S11307409091320381E08E0F863008F4BDC0992366
S113075041F0F0E0EF5CFC4F2283109231030E94E1
S113076035020E94D401809114028D7F809314027B
S113077080912502882309F4B1C084E080939C020F
S1130780DF91CF910C942302823008F44CC0E091A5
S1130790C703F0E0EA53FC4F928180912402282F92
S11307A0269526952695237030E02130310521F0D9
S11307B02230310579F01EC0877E80618093240247
S11307C0992311F080E001C085E080932302909387
S11307D0060210C0809123028F3260F4E09100027F
S11307E0F0910102E80FF11D9083809123028F5F45
S11307F0809323028091C703E82FF0E0EA53FC4F73
S113080062818F5F833018F48093C70302C0109213
S1130810C70380914303909144030E94ED02909397
S11308204403809343038091C603E82FF0E0EA5326
S1130830FC4FC2838F5F833018F48093C60302C0D9
S11308401092C6038091BD038F5F8093BD0346C0A1
S11308500E94D401809114028D7F8093140281E060
S11308600E94FB0280912502811187CFDD23B1F123
S113087081E02BCF80914303909144030E94ED02C9
S11308809093440380934303C43411F482E001C081
S113089083E080939C029091240290FF04C092FD17
S11308A0D7CF946003C091FDD3CF9260909324027C
S11308B080912402877E8860809324021092230210
S11308C08FEF809306020AC0891709F44ACFF0E03B
S11308D0EF5CFC4F22838093310341CFDF91CF91B2
S11308E00895019701960197E1F70895CF93DF9357
S11308F0DFB7F894C0912802C11109C081E0809348
S11309002802109209028AE00E94010218C0809114
S1130910AC028F3F99F4E0910A02EE2379F08091C2
S11309200B028F3F19F410920B0204C0F0E0E4555F
S1130930FD4F108210920A02C0E001C0C5E0DFBF83
S11309408C2FDF91CF9108958091DA03882319F0D9
S113095080E09FE102C088E09EE14FB7F8942091C7
S113096062022E7F2093620220917C00322F3F711D
S1130970229526952695237011F421E0931320E007
S11309803091620220FB31F99F71292F220F220F2F
S11309903378322B3093620290937C002091620270
S11309A02170883019F58091D6039091D703863849
S11309B031E0930780F4833C910578F48136910506
S11309C070F48033910568F48831910560F40C97D4
S11309D060F480E00BC087E009C086E007C085E0D2
S11309E005C084E003C083E001C082E087708860B2
S11309F0806120FB85F98064806880937A004FBF12
S1130A000895CF93DF93DFB7F89480912902823061
S1130A1019F5C0910C02C1111FC090910E029F3FA5
S1130A20A9F0E92FF0E0EA59FD4F808180930E028E
S1130A308F3F11F480930D028FEF808390930C020B
S1130A4081E0809329020E94010204C090930C0269
S1130A5010922902DFBF02C0DFBFC1E08C2FDF91FB
S1130A60CF910895811108C09FB7F89422B182E014
S1130A70822782B99FBF02C00E94470210926E046F
S1130A809FB7F89480912A028F5F80932A029FBFB8
S1130A9080912A02853010F480E023C010922A024B
S1130AA010926E040E9447020E944F026093490311
S1130AB070934A0380934B0390934C0380E194EA30
S1130AC0A0E0B0E080934D0390934E03A0934F03B6
S1130AD0B0935003809151038160826080935103ED
S1130AE087E00C940102CF93DF93DFB7F8948091F1
S1130AF02802823039F5C0910902C11123C09091B6
S1130B000B029F3FB1F0E92FF0E0E455FD4F8081E7
S1130B1080930B028F3F11F480930A028FEF80833E
S1130B209093090281E0809328028AE00E940102E6
S1130B3004C090930902109228028CB58F7B8CBD5F
S1130B40DFBF02C0DFBFC1E08C2FDF91CF910895DA
S1130B50CF92DF92EF92FF920F931F93CF93CFB771
S1130B60F8942091B3009091B20087B3291711F043
S1130B7081FF02C0CFBF7CC08091A102811102C05D
S1130B8086EE3FC00E944F02C0903502D0903602DC
S1130B90E0903702F09038020091DC031091DD03FD
S1130BA02091DE033091DF03AB01BC014C195D09D8
S1130BB06E097F09401751076207730728F01092E6
S1130BC0A10286EE91E01EC0D901C8018C0D9D1DC5
S1130BD0AE1DBF1D409142025091430260914402F8
S1130BE070914502841B950BA60BB70B873E9105AC
S1130BF0A105B10528F682309105A105B10508F4D7
S1130C0082E090E02FEF280F3091B60033FDFCCF47
S1130C103091B2002313822F40914202509143023B
S1130C2060914402709145028A019B010F5F1F4F3E
S1130C302F4F3F4F080F111D211D311D041715079C
S1130C402607370710F4842F80952091B60023FDE2
S1130C50FCCF8093B300CFBF992351F086E0CF91AE
S1130C601F910F91FF90EF90DF90CF900C940102B1
S1130C70CF911F910F91FF90EF90DF90CF90089547
S1130C80CF93DF931F92CDB7DEB789830E94C00153
S1130C90898180688EBD80E00E94B9010E94B40100
S1130CA089830E94A90189810F90DF91CF910895D2
S1130CB01F93CF93DF931F92CDB7DEB7182F6983AD
S1130CC00E94C001912F906C9EBD89810E94B90140
S1130CD00E94B4010F90DF91CF911F910C94A90150
S1130CE08CB58F7B8CBD229A2398219A209A8CB53F
S1130CF080618CBD8CB58F778CBD8CB5877F8CBDA6
S1130D008CB58B7F8CBD8CB580648CBD8DB58160BA
S1130D108DBD8CB58C7F8CBD0895CF93DF93FC0182
S1130D20228130E0322F22274181242B25FF15C058
S1130D3027743C7C2134384881F4FC01C781D0E01D
S1130D40DC2FCC278681C82B0E94700221E0C817B3
S1130D50D90709F020E0822F01C080E0DF91CF9114
S1130D600895CF938FB7F89490910902911106C01A
S1130D7090912802923011F48FBF0FC08FBFCFB76C
S1130D80F8948091280281110AC082E0809328029D
S1130D90109209020E947006CFBF81E004C0CFBF49
S1130DA00E94760480E0CF9108958091AE029091E4
S1130DB0AF02892BC1F581E090E09093CF0380933B
S1130DC0CE0380E692E09093AF028093AE0210923D
S1130DD09E0210929D0281E080939F028091C00048
S1130DE080648093C0008091C10080648093C100BE
S1130DF080919D0290919E029C012F5F3F4F309302
S1130E009E0220939D02FC01E05AFD4F80819FB712
S1130E10F8948093C6008091C00080648093C000E1
S1130E209FBF80E0089585E0089593E8980F92307D
S1130E3050F49091140291609093140290E28927E7
S1130E408093BC038DE7809360020C94D5069FB712
S1130E50F894809114028E7F809314028EE780931D
S1130E6060029FBF0C94D5062F923F924F925F92DF
S1130E706F927F92AF92BF92CF92DF92EF92FF92E6
S1130E800F931F93CF93DF9320912C02222311F011
S1130E9015E0DEC0109171041530D1F72091CB0319
S1130EA02111F6CFEC010E94B106882389F38CA5A9
S1130EB082FF03C06EA56F7001C060E08091E502FF
S1130EC0681731F06093E502606885E00E94580677
S1130ED02A8130E0322F22278981282B27743C7CF9
S1130EE021343848A1F486E00E9440068F7190E0D6
S1130EF04091A6022091960230E0240F311D43E078
S1130F00359527954A95E1F72817390744F169E0A3
S1130F1082E00E9458060E9478022B013C016E0177
S1130F20EFEFCE1ADE0A08818CA52EEFB22EB00E9A
S1130F3084FF09C09E012C193D098BEF800FA82E58
S1130F40A20EBA1802C0AB2CB12C81E00E9440065C
S1130F508F71893039F066E082E00E9458060E9461
S1130F60730576C08FB7F8942F9AE0908400F090C0
S1130F7085008FBF0E94A7010E94C00180E68EBD3C
S1130F80802F0E94B90186013A2CF80181918F01CA
S1130F900E94B9013A943110F8CFAA942A2D30E076
S1130FA08601020F131F2F5F3F4F2C0D3D1D1701AC
S1130FB0F2EA2F0E311C24183508C101AA2797FD27
S1130FC0A095BA2F12012301280E391E4A1E5B1E5A
S1130FD0BB2041F1F8018181C280D12CE12CF12C9C
S1130FE07601DD24CC24F82A8481C82A8381D82A76
S1130FF0D701C60182199309A409B509848393838F
S1131000A283B183A22E3901F30181913F010E9491
S1131010B901862D8A198B11F7CFF801C482D382C6
S1131020E282F1820E94B4010E94A90166E082E09A
S11310300E9458068CA582608CA728A639A64AA6C9
S11310405BA686E08093710484E080932C0210E018
S1131050812FDF91CF911F910F91FF90EF90DF903F
S1131060CF90BF90AF907F906F905F904F903F90E4
S11310702F9008953F924F925F926F927F928F923A
S11310809F92AF92BF92CF92DF92EF92FF920F9313
S11310901F93CF93DF9300D0CDB7DEB714E030E8D1
S11310A0A32E05E043E0D42E59E0852E62E0C62E3F
S11310B078E0B72E8BE592E0E5E09E2E980E8091C5
S11310C0B203823009F07DC01092B2038091B00265
S11310D0823009F459C0833009F461C0813009F0C9
S11310E070C0209184003091850060903B03709023
S11310F03C03621A730A90919B02903841F4109257
S11311009B0290919A02923009F05BC03AC097FF1B
S113111004C0161417040CF4A8C3E0909702F090CE
S11311209802809141028111A0C3C7010E94340733
S1131130282F81119BC3D7019C968C919C978E7FFD
S11311409C968C9381E080934102F0927804E09223
S11311507704D0929B0235C097FF9FC316141704DF
S11311600CF09BC3A0929B0281E08093B002809319
S1131170B203C30129830E94A30229812093E003BF
S113118081E080939A0208C01092410210929B025F
S11311901092E00310939A020E94200212C09091D0
S11311A07104923019F48093710409C080912C0267
S11311B0863029F410922C0281E00E9440060E949D
S11311C0C10D8091CB03882309F4B3C080917104CD
S11311D0813009F4AEC00E94B106882309F4A9C085
S11311E08FB7F8946090A9027090AA028FBF1092F2
S11311F0CB038FE00E944006F82E80912C028B7F57
S1131200833021F400937104B0922C02F2FE4AC0A0
S113121080912C02863011F410922C0280912C02C1
S1131220811140C0B4E0FB1234C086E00E94400645
S11312308F7190919602292F26952695921B980FCF
S113124090939602E0913902F0913A0294A59B7F23
S1131250986094A786A70E947802930127503109C9
S1131260261B370B2901662457FC6094762CE091E9
S11312703902F0913A0224A5226024A7AB01BC01F3
S1131280440D551D661D771D40A751A762A773A77E
S113129007C0E0913902F0913A0284A5857F84A7C2
S11312A000932C02F3FE45C080912C02843081F51A
S11312B00093710410922C0280914102833019F43E
S11312C01092410236C0E0917704F0917804828153
S11312D090E0982F88272181822B85FF0EC0877488
S11312E09C7C8134984849F4878190E0982F882722
S11312F02681822B019609F0D3C2109241021092EA
S11313009B021092E00310939A020E94200211C0E3
S1131310853079F486E00E9440069091A6028F7190
S1131320292F26952695921B980F9093A6028092BA
S11313302C0280912C02882309F44DC2893009F0D3
S1131340BCC10E94C00180E28EBD0DB407FEFDCF7A
S11313508EB51EBC0DB407FEFDCF8EB59DEF980F64
S1131360973208F07AC01EBCE0913902F0913A023B
S11313703F015FEF651A750A8083AEEF5A2E580E4F
S113138086E0851510F0452C02C0F7E04F2E73015E
S1131390342C40E050E080E049835A830E94B90134
S11313A0D7018D937D01682F49815A81CA010E941A
S11313B0C201AC013A943110EECF2FEF240D30E08E
S11313C02F5F3F4F620E731EE0913902F0913A0293
S11313D081818770823029F4809141028230D9F56D
S11313E00BC09FB7F89481E02091C003233008F02C
S11313F080E09FBF882379F1852D84197301680EDD
S113140080E049835A836E1469F00E94B901F701A0
S113141081937F01682F49815A81CA010E94C201C8
S1131420AC01EECF0E94B901682F49815A81CA01EB
S11314300E94C2017C0180E00E94B901682FC701AB
S11314400E94C2017C010E94B401E0913902F09132
S11314503A0285A705C00E94B401EE24E394F12C5E
S11314600E94A9010093710410922C02EF2809F044
S1131470A9C14090390250903A02D20111968C9140
S11314801197877090914102823029F5923009F0CA
S11314900FC1E0917704F091780413969C918381B5
S11314A0981306C180916F008D7F80936F00109216
S11314B0B203E0917704F091780484A5816084A755
S11314C01092410210929B021092E00310939A0230
S11314D00E942002EDC0911117C0C2010E948D0626
S11314E0882391F00093E602C092E7021092E8028A
S11314F0F20183818093E90286EE92E00E94340730
S1131500811102C0D0924102E0908400F0908500E5
S1131510C2010E948D06882321F0F4EEEF1AFCEF3D
S1131520FF0AF0923C03E0923B0380918400909187
S113153085009701281B390BC90118161906ACF44C
S113154020919B0221110EC02091B20321110DC0E4
S113155021E02093B0022093B2030E94A302A09240
S11315609B0203C0206820939B02D20119968C91A0
S1131570199790E0982F882718962C91822B209108
S11315807504422F50E0FA01EE0FFF1FE258FB4FA3
S113159060817181F0907B046817790711F4FA0176
S11315A010C0AEE7B4E0EBE5F2E020E030E070E03C
S11315B060E04D915D914817590779F420937504C3
S11315C0F901E55AFD4F80818F1509F43FC0F3946A
S11315D0F0927B04F08260E822C041915F2D541B9D
S11315E0651710F4722F652F2F5F3F4F253031059B
S11315F001F770937504272F30E0F901EE0FFF1FF8
S1131600E258FB4F91838083F394F0927B04F901B9
S1131610E55AFD4FF082F901E45CFD4F10828091A0
S11316207B04982F9F779F3719F0209175040EC083
S11316306F37D8F3EBE5F2E0282F207890819F678D
S11316409813208331969E12F9CFEFCFD2011396CF
S11316509C91E22FF0E0DF01A45CBD4F8C91EF532D
S1131660FC4F80FF04C08081981303C021C08160B7
S11316708C939083FFB6F8948091C0038330B8F4C0
S1131680E091D903E80FE33008F0E350F0E0EE0F07
S1131690FF1FE15DFD4F7080E180518240828F5FCA
S11316A08093C00384E00E940102472C5E2CFFBE9D
S11316B050923A024092390285C09FEF980F9330BE
S11316C008F06EC09EEF980F9230D8F52091710407
S11316D0213099F49091B20391110FC029830E9493
S11316E0A701D092B00229812093B2038BE293E048
S11316F00E94A302C09271043EC0833011F52330CE
S113170001F50E94B1068823E1F08FE00E944006B3
S11317108091810080648093810080E286BB809107
S11317206F00806280936F0060916302606688E05E
S11317300E94580666E082E00E94580610937104E5
S11317401AC080912C0281508230A8F480917104D7
S1131750853089F40E94B106882369F063E082E051
S11317600E94580680916F008F7D80936F001092C5
S1131770CB03D092710480912C02813041F490917A
S113178071049330F9F42F9A8093710406C0823067
S1131790C9F4809171048330A9F4B0922C0212C070
S11317A0873081F40E94B106882361F0609163025E
S11317B0606688E00E94580680917104853069F75C
S11317C01093710480912C02883029F410922C0219
S11317D082E00E94010280912C0281111DC080913F
S11317E071048530C9F48091CB03811115C08091B7
S11317F04102811111C080919B0281110DC0809121
S1131800B203811109C080919A02823029F481E0E7
S113181080939A020E94200280912C02811103C0BD
S113182088E00E9401028FB7F8949091BE03913032
S1131830B9F41092BE038FBF0F900F90DF91CF9138
S11318401F910F91FF90EF90DF90CF90BF90AF90DA
S11318509F908F907F906F905F904F903F900895EE
S113186091E09093BE038FBF2ACC25E090919B0218
S1131870892F8F77813009F06FCC907892609093A4
S11318809B0280E198E00E94CC0221E02093B00208
S11318902093B2030E94A30294CC10929B026ECCBC
S11318A08091B203811129CDC092B00281E080936E
S11318B0B20389E993E00E94A302C092410239CDA8
S11318C09FB7F8948091BE0381508093BE03803803
S11318D011F09FBF089581E08093BE039FBF0C94D5
S11318E03A080F931F93CF93DF931F92CDB7DEB7C0
S11318F08C018FE3F801828790912B029F5F909374
S11319002B0293830E94AB0180919A0281110DC036
S11319101093B9030093B80381E080939A02109264
S1131920B3030E94200280E001C085E089830E9405
S1131930600C89810F90DF91CF911F910F910895D1
S1131940FF920F931F93CF93DF93EA012D3108F099
S113195067C0EA81F0E0FE2FEE279981E92BAF0101
S113196047745C7C4134584839F0E073FF27E164E4
S1131970F868E98398E89A838B01F82E235F28831B
S11319800E947002888799879FB7F89480910F020C
S11319909FBF8C831D82FB860E831F838FB7F894B1
S11319A09091290291110FC092E090932902109214
S11319B00C028FBFCE010E94710CC82F882389F1BD
S11319C00E9401052EC08FBFD0936502C0936402AC
S11319D0DFB7F894C0912902C11108C081E0809357
S11319E0290210920C020E94010218C08091660222
S11319F08F3F99F4E0910D02EE2379F080910E026D
S1131A008F3F19F410920E0204C0F0E0EA59FD4F22
S1131A10108210920D02C0E001C0C5E0DFBF01C01A
S1131A20C6E08C2FDF91CF911F910F91FF90089505
S1131A30E82FF0E0EE0FFF1FE35CFC4F11821082F1
S1131A4091E090930702811103C0862F0C94320514
S1131A5008958FEF80936D0280936E028BE08093E4
S1131A60720280913D0390913E03892B09F587E62C
S1131A7092E090933E0380933D0389E28093670252
S1131A80809107028823B9F0109207022CE147E6FF
S1131A9052E06FEF7FEF8BE00E94A00C882351F09F
S1131AA091E09093070210923E0310923D03089533
S1131AB085E0089580E008958F929F92AF92BF923F
S1131AC0CF92DF92EF92FF920F931F9340915103B5
S1131AD041FF4AC08090490390904A03A0904B0371
S1131AE0B0904C03C0904D03D0904E03E0904F0350
S1131AF0F09050038B019C01081919092A093B092C
S1131B000C151D052E053F0578F140FF05C0842FF7
S1131B108D7F809351030EC0B701A601480D591D56
S1131B206A1D7B1D4093490350934A0360934B0302
S1131B3070934C0380916E04811110C08CE1E5E137
S1131B40F3E0A3E7B2E001900D928A95E1F70E94D9
S1131B50290D811103C081E080936E0480916E048D
S1131B60811102C00E94470287E01F910F91FF90EC
S1131B70EF90DF90CF90BF90AF909F908F900C9498
S1131B8001029FB7F8948091BE03882329F08068EE
S1131B908093BE039FBF089581E08093BE039FBFDF
S1131BA00C943A082F923F924F925F926F927F92D9
S1131BB08F929F92AF92BF92CF92DF92EF92FF9259
S1131BC00F931F93CF93DF931F92CDB7DEB790E0AF
S1131BD08531910508F0F7C4FC01EA59FF4F0C94D4
S1131BE0671980916E04811110C08CE1E5E1F3E086
S1131BF0A3E7B2E001900D928A95E1F70E94290DC6
S1131C00811103C081E080936E0480916E04811180
S1131C10DAC40F90DF91CF911F910F91FF90EF9055
S1131C20DF90CF90BF90AF909F908F907F906F90F8
S1131C305F904F903F902F900C9447028FB7F89489
S1131C4092E0909329028FBF80910C028111BBC452
S1131C5080916402909165020E94710C882309F4BA
S1131C60B2C489830E940105809164029091650247
S1131C702091070269812111A6C420913D0330916E
S1131C803E032817390709F09EC484C080919A0244
S1131C9010929A028530D9F48FB7F89410922A02E0
S1131CA08FBF8CE1E5E1F3E0DF011D928A95E9F74E
S1131CB099E690931A0383E280931B0390931C0389
S1131CC080931D038FE08093190380E0EAC39AEFA9
S1131CD0980F923008F477C480939A0274C40E94D7
S1131CE0AB0100919A02013091F58091B3038F5FAB
S1131CF08093B303863058F58091B8039091B9036B
S1131D0020919B02211115C01091B203111111C031
S1131D10909398028093970200939B028BED91E13C
S1131D200E94CC020093B0020093B2030E94A3026B
S1131D3001C015E01093E003111104C083E0809307
S1131D409A0208C082E080939A0210E003C01092C5
S1131D509A0211E00E94600C112309F434C46091CA
S1131D60E0030091B8031091B903F80182858F3321
S1131D7009F029C469830E940105809107026981E1
S1131D80811121C480913D0390913E0380179107F6
S1131D9009F019C480E07BC2E091D903F0E0EE0FB2
S1131DA0FF1FE15DFD4F008111818FBFD8018C9130
S1131DB09EEF980F9930F8F49FB7F8948091D90367
S1131DC0E82FF0E0EE0FFF1FE15DFD4F118300836C
S1131DD08F5F833008F03EC08093D9038091C003A5
S1131DE081508093C0039FBF8FB7F8949091C00334
S1131DF09111D2CF7CC31A969C911A979F33B1F458
S1131E008B508230C8F21796EC901797F12CFE2C69
S1131E10EE2416968C91E82ABFEFEB16FB06B1F080
S1131E200E947002E816F90639F610C0F801E7803E
S1131E30F12CFE2CEE248681E82A0E947002E8161A
S1131E40F90621F0EF20E09409F0B6CF8FB7F894AB
S1131E508FBFB2CF1092D903C1CFEFB7F89480915E
S1131E60A2029091A302A091A402B091A5021C0128
S1131E702D019C01A20160E070E080E090E003E0AD
S1131E800E94701951016201E12CF12C00E010E074
S1131E900E94A71959016A017B01F82F192F03E049
S1131EA00E9470190F2F0E94A71959016A017B0122
S1131EB0F82F192F03E00E9470190F2F0E94A71901
S1131EC059016A017B01F82F192F03E00E94701950
S1131ED00F2F0E94A71959016A017B01F82F192FAE
S1131EE003E00E9470190F2F0E94A71901E00E94BD
S1131EF0701929013A0100E20E948B1949015A0123
S1131F007694679457944794840C951CA61CB71C2C
S1131F10B7FE07C0E894B7F82FEF821A920AA20A14
S1131F20B20A8092A2029092A302A092A402B0925A
S1131F30A502EFBF8FB7F8949092BB038092BA03C7
S1131F40D6C280916102811141C04091D103509168
S1131F50D2036091D3037091D4032FB7F894C09047
S1131F60DC03D090DD03E090DE03F090DF0380918A
S1131F70350290913602A0913702B09138028C0D4F
S1131F809D1DAE1DBF1D2FBF4093D1035093D2039F
S1131F906093D3037093D403109261022FB7F89423
S1131FA031E03093A1028093350290933602A093DE
S1131FB03702B09338024093DC035093DD036093FF
S1131FC0DE037093DF032FBF0E94A8050E944F0217
S1131FD030C00E944F022FB7F8941092A1022FBF75
S1131FE02091510321FFEFC20091490310914A034C
S1131FF020914B0330914C036B017C01C01AD10A30
S1132000E20AF30A97018601C0904D03D0904E0373
S1132010E0904F03F0905003C01AD10AE20AF30A89
S11320202FEFC216D206E2062FE7F20609F090C29D
S1132030CAC20F90DF91CF911F910F91FF90EF9043
S1132040DF90CF90BF90AF909F908F907F906F90D4
S11320505F904F903F902F900C945C0D8FB7F89445
S11320601092B1031092B0031092700410926F0496
S113207010922E0210922D0210923A0310923903FC
S113208036C21FB7F89482E0809328020E9470063B
S11320901FBF80910902811196C280917104811140
S11320A046C08EEF91E00E94710416980E94A70129
S11320B086E090E00E947104169A60E083E00E943A
S11320C0580668E082E00E9458068EEF91E00E9474
S11320D071046DE48EE00E94580667EC89E00E946A
S11320E0580660E885E00E9458061092E5028AE1ED
S11320F0809363026AE788E00E9458062F9A81E081
S1132100809371040F90DF91CF911F910F91FF90F5
S1132110EF90DF90CF90BF90AF909F908F907F9083
S11321206F905F904F903F902F900C9473050F9099
S1132130DF91CF911F910F91FF90EF90DF90CF909F
S1132140BF90AF909F908F907F906F905F904F90D3
S11321503F902F900C94C10D8FB7F8949091BF03CA
S11321609093080293E0909326028FBF8091080217
S1132170811129C281E08093E4021092DA030F9066
S1132180DF91CF911F910F91FF90EF90DF90CF904F
S1132190BF90AF909F908F907F906F905F904F9083
S11321A03F902F900C94A4041092E4028091DA03DF
S11321B0811109C21FB7F89480912602833009F077
S11321C019C180910802811115C1809148038823A7
S11321D009F4B1C12091270230E0C9010196A1E0C0
S11321E0B0E08130910511F480E090E0E82FE695AD
S11321F0E695E695F0E0E85BFC4F4081582F577078
S1132200BD0101C0660F5A95EAF7542F562331F0E9
S11322106095462340838093270206C08217930764
S113222011F00196DECF8FEF8093BF038FEF809381
S1132230080281E0809326028BE00E940102DAC04A
S11322408091DB03882309F4BEC10DE313E0E12C84
S1132250FF24F3948091DB039F2D982369F0D80128
S11322601D921C929F2D909589238093DB03E1108E
S113227003C083E00E943205FF0CE3940E5F1F4FFE
S1132280B8E0EB12E7CF9FC161E0809107020F90A5
S1132290DF91CF911F910F91FF90EF90DF90CF903E
S11322A0BF90AF909F908F907F906F905F904F9072
S11322B03F902F900C94180D2FB7F894109274043B
S11322C09091B70388EF890F823050F41092B703CE
S11322D0E0914703F0E0EE0FFF1FEF54FD4F108233
S11322E02FBF823018F52FB7F8948091D8038F5FF1
S11322F08093D8038091AD02833489F480913203B2
S113230090913103981741F08F5F863018F48093D1
S1132310320302C01092320390E080E005C081E0F5
S1132320983009F480E091E02FBF04C091110EC1F0
S113233080E090E03FB7F894209125023FBF22232C
S113234039F02FB7F8943AE03093B7032FBF3FC06A
S11323504FB7F8943091B1022091B3024FBF6FB7D9
S1132360F89450913103409132036FBF541709F12F
S113237031111FC03FB7F89422E02093B1025FB738
S1132380F89440913103209132035FBF421739F032
S1132390E0913203F0E0EF5CFC4F228101C020E0C9
S11323A02093B20223E42093AD02109247033FBF6F
S11323B00CC02150223058F42FB7F89435E43093F0
S11323C0AD0231E0309347032FBF01E001C000E0CC
S11323D0992341F09FB7F89480931C029FBF83E137
S11323E00E9401021FB7F8948091B7038A3021F448
S11323F00E9423021FBFE7C01FBF002309F4E3C0EC
S11324008FB7F89410927A04109279041092AB0268
S113241091E09093B7038FBF0E942707882309F4A4
S1132420D2C08FB7F89499E09093B7038FBF0F9001
S1132430DF91CF911F910F91FF90EF90DF90CF909C
S1132440BF90AF909F908F907F906F905F904F90D0
S11324503F902F900C9435028091C1008F7B809324
S1132460C1008091C1008F778093C1001092B403A2
S113247010929F028091C10088608093C100809176
S1132480C10080618093C1008091C1008068809305
S1132490C1008FB7F8941092B70310929C0227C022
S11324A082E10F90DF91CF911F910F91FF90EF90F8
S11324B0DF90CF90BF90AF909F908F907F906F9060
S11324C05F904F903F902F900C9401028091C10037
S11324D0877F8093C1008091C1008F7E8093C1006B
S11324E072C01092200210921F028FB7F8948FBF0F
S11324F06AC09FB7F8942091160230911702809118
S11325003B029FBF9FB7F894E82FF0E0EE0FFF1F48
S1132510EE5FFD4F31832083882321F080912402D4
S11325208B7F03C0809124028D7F809324021092BC
S113253019029FBF48C081E08093080210922602CE
S113254080917A008F7780937A0054CF00E04ACF4D
S11325501C141D041E041F040CF06BCDC092D10387
S1132560D092D203E092D303F092D40321E02093DB
S113257061023FB7F8942093A102609335027093EF
S113258036028093370290933802C092DC03D092D3
S1132590DD03E092DE03F092DF033FBF0F90DF9193
S11325A0CF911F910F91FF90EF90DF90CF90BF904C
S11325B0AF909F908F907F906F905F904F903F90DF
S11325C02F900C94A8050F90DF91CF911F910F913C
S11325D0FF90EF90DF90CF90BF90AF909F908F903F
S11325E07F906F905F904F903F902F9008958FB79A
S11325F0F89408958FBF08951F920F920FB60F920B
S113260011240BB60F920F931F932F933F934F9365
S11326105F936F937F938F939F93AF93BF93EF9346
S1132620FF930E94F8018091B30090E001964091DD
S113263042025091430260914402709145028A0122
S11326409B01080F191F211D311D00934202109395
S11326504302209344023093450278940E94A805D3
S1132660FF91EF91BF91AF919F918F917F916F9166
S11326705F914F913F912F911F910F910F900BBE3E
S11326800F900FBE0F901F9018951F920F920FB6C8
S11326900F9211240BB60F922F933F934F935F9396
S11326A06F937F938F939F93AF93BF93EF93FF9316
S11326B00E94F801FF91EF91BF91AF919F918F918B
S11326C07F916F915F914F913F912F910F900BBE2E
S11326D00F900FBE0F901F9018951F920F920FB678
S11326E00F9211240BB60F922F933F934F935F9346
S11326F06F937F938F939F93AF93BF93EF93FF93C6
S11327002EB5E091B003F091B103309739F0809188
S1132710390390913A03E80FF91F2083809139031C
S113272090913A03019690933A03809339038CB5C0
S11327308F778CBD8091390390913A0360912D027B
S113274070912E028617970708F03FC020916F04FE
S113275030917004E091B003F091B103AC01465F95
S11327605F4F6417750708F4AB0141505109841792
S11327709507C8F42115310549F0D901A80FB91FEF
S11327806C916EBD0DB407FEFDCF04C01EBC0DB42C
S113279007FEFDCF6EB5309721F0DF01A80FB91FFA
S11327A06C930196E4CF4CB540684CBD21153105BE
S11327B031F0F901E80FF91F20812EBD01C01EBCC4
S11327C090933A038093390311C01092B10310928D
S11327D0B0031092700410926F0410922E021092A3
S11327E02D0210923A03109239038EB5FF91EF91A6
S11327F0BF91AF919F918F917F916F915F914F9115
S11328003F912F910F900BBE0F900FBE0F901F9012
S1132810189578941F920F920FB60F9211240BB64D
S11328200F922F933F934F935F936F937F938F9365
S11328309F93AF93BF93EF93FF9380916F008D7F2E
S113284080936F0078948FB7F8949091B20391308D
S113285019F492E09093B2038FBF0E94C10DFF91CF
S1132860EF91BF91AF919F918F917F916F915F9104
S11328704F913F912F910F900BBE0F900FBE0F9071
S11328801F90189578941F920F920FB60F921124EF
S11328900F900FBE0F901F90189578941F920F926F
S11328A00FB60F9211240F900FBE0F901F90189522
S11328B078941F920F920FB60F9211240BB60F92B9
S11328C02F933F934F935F936F937F938F939F9334
S11328D0AF93BF93EF93FF93E6E8F0E0808191819B
S11328E0208131818FB7F8943093AA022093A902F2
S11328F091E09093CB038FBF0E94C10DFF91EF91A4
S1132900BF91AF919F918F917F916F915F914F9103
S11329103F912F910F900BBE0F900FBE0F901F9001
S1132920189578941F920F920FB60F9211242F933B
S11329308F939F93AF93BF932FB7F89480913F03E6
S113294090914003A0914103B09142030196A11DCF
S1132950B11D80933F0390934003A0934103B09330
S113296042032FBFBF91AF919F918F912F910F90F1
S11329700FBE0F901F9018951F920F920FB60F92D3
S113298011240BB60F922F933F934F935F936F9342
S11329907F938F939F93AF93BF93EF93FF93209174
S11329A078003091790078944FB7F894809162025E
S11329B081FB992790F981704FBF811122C08091CA
S11329C07A00877F80937A008091E402813019F045
S11329D0823091F034C0911107C08DE790E00E94DD
S11329E071040E94A4042BC03093B6032093B50352
S11329F08CE00E94010223C0992379F31092E4022F
S1132A001EC08FB7F8948FBF2FB7F89480917A00C7
S1132A1086FB992790F9877F806190FB86F98F77F1
S1132A2080937A00877F80618F7B8F7780937A0091
S1132A30877F80618F7B806880937A002FBFFF91AE
S1132A40EF91BF91AF919F918F917F916F915F9122
S1132A504F913F912F910F900BBE0F900FBE0F908F
S1132A601F9018951F920F920FB60F9211240BB658
S1132A700F922F933F934F935F936F937F938F9313
S1132A809F93AF93BF93EF93FF938091C00087FF11
S1132A904AC06091C6002091450330914603211538
S1132AA0310551F18091720490917304AC014F5F30
S1132AB05F4F5093730440937204F901E80FF91FB8
S1132AC06083209172043091730480917C0490910E
S1132AD07D042817390738F11092460310924503F4
S1132AE08091B4038330F9F08091C1008F77809393
S1132AF0C1001092B40317C06E3719F460E081E08E
S1132B0010C0809114026D3721F482608093140206
S1132B100AC081FF05C08D7F8093140280E268277C
S1132B2080E00E943803FF91EF91BF91AF919F9194
S1132B308F917F916F915F914F913F912F910F9062
S1132B400BBE0F900FBE0F901F90189578941F9294
S1132B500F920FB60F9211240BB60F92EF92FF92C1
S1132B600F931F932F933F934F935F936F937F9391
S1132B708F939F93AF93BF93CF93DF93EF93FF9381
S1132B8080919D0290919E022091CE033091CF03BB
S1132B9082179307D0F42091AE023091AF02AC01BA
S1132BA04F5F5F4F50939E0240939D02F901E80FDF
S1132BB0F91F80819FB7F8948093C6008091C0006C
S1132BC080648093C0009FBFB2C01092AF02109285
S1132BD0AE0210929F028091C1008F7B8093C1004E
S1132BE00FB7F89480911402982F9170F92E80FFFA
S1132BF00AC08E7F809314028091BC03809360028C
S1132C000E94D50693C0E091B7038E2F90E0FC019B
S1132C103197E830F10508F084C0E558FF4F0C9473
S1132C2067198091AD020E941507182F83E08093E5
S1132C30B7036091AD020AC08091D8030E941507C2
S1132C40182F83E08093B7036091D80380917904AF
S1132C5090917A040E94ED0290937A04809379040F
S1132C605EC0E0914703F0E0EE0FFF1FEF54FD4F0D
S1132C7081810E941507182FE0904703CE2DD0E0E4
S1132C80CC0FDD1FFE01EF54FD4F6181809179046B
S1132C9090917A040E94ED0290937A0480937904CF
S1132CA09091AB029F5F9093AB0281E0E8121EC04B
S1132CB080911D02E0912102F0912202E80FF11DA2
S1132CC020818F5F80931D0230911E02381720F4FB
S1132CD082E08093B30201C0F22ECF54DD4F88818D
S1132CE0823021F09F3F11F0F98219C084E012C0B4
S1132CF0809179040E941507182F85E00BC08091FC
S1132D007A040E941507182F86E004C00E94270742
S1132D10182F87E08093B70302C088E003C0112313
S1132D2029F089E08093B7030E9435020FBFFF9119
S1132D30EF91DF91CF91BF91AF919F918F917F914F
S1132D406F915F914F913F912F911F910F91FF9040
S1132D50EF900F900BBE0F900FBE0F901F90189521
S1132D601F920F920FB60F9211248F938091C80077
S1132D7087FD8091CE008F910F900FBE0F901F9012
S1132D80189578941F920F920FB60F9211240F90FA
S1132D900FBE0F901F90189578941F920F920FB644
S1132DA00F9211240F900FBE0F901F9018957894D6
S1132DB01F920F920FB60F9211240F900FBE0F9017
S1132DC01F90189578941F920F920FB60F921124AA
S1132DD00F900FBE0F901F90189578941F920F922A
S1132DE00FB60F9211248F939F9380919600909128
S1132DF097009F918F910F900FBE0F901F90189581
S1132E0078941F920F920FB60F9211242F938F93E1
S1132E109F932FB7F8948091A7029091A8020196EE
S1132E209093A8028093A7022FBF9F918F912F9117
S1132E300F900FBE0F901F901895CFB7F89414BE43
S1132E4088E10FB6F89480936000109260000FBE82
S1132E5045E150E06FEF70E086E492E00E94B01923
S1132E608FEF8093D5038093760456985E98549898
S1132E705C9880916F008F7D80936F00209A0E94F0
S1132E80A901279A0E94A7010E9A169A85EB92E04F
S1132E9090933A02809339021092A6028AE58093B5
S1132EA0960281E08093810080E28093B60083E003
S1132EB08093B10020918400309185008AE740918D
S1132EC08400509185004217530708F481509A01F9
S1132ED08111F5CF8091B2009091B2009817E1F37F
S1132EE020918400309185008091B2009091B200CD
S1132EF09817E1F380918400909185004096821B9D
S1132F00930B55E0969587955A95E1F79093D703DF
S1132F108093D6031092B100109281001092B600F3
S1132F201092B20010928500109284008FEF87BB3C
S1132F3086BB8091B6008571E1F70A9A099A089ACE
S1132F40129A119A109A18B88FEF87B90C9814989E
S1132F50109295001092940080917100816080938A
S1132F60710080919100887F82608093910080E05D
S1132F70877F8F7E8F7D8F7B8F7780937A001092EF
S1132F8085001092840080916F00816080936F00AF
S1132F9080918100887F8260809381000E94E60195
S1132FA0D82F8F3F19F00E94D20DF8CF02E016E01F
S1132FB06091D6037091D703CB01A0E0B0E0BC01CF
S1132FC0CD012CE0660F771F881F991F2A95D1F732
S1132FD0C12C31EED32EE12CF12CA70196010E94D5
S1132FE04519215031092093C4003093C500009342
S1132FF0C0001093C2001092C1006091D60370917A
S1133000D703CB01A0E0B0E0BC01CD014CE0660FDA
S1133010771F881F991F4A95D1F7A70196010E942F
S11330204519215031092093CC003093CD000093F1
S1133030C8001093CA001092C90084E490E09093F1
S1133040CD038093CC031092B1021092B3028AE0B4
S11330508093B7031092AB021092AD021092D80382
S113306010927A0410927904109274041092470317
S11330700E94D4011092320310923103109248033B
S1133080D093AC020E9476048091B6008062809353
S1133090B6008091B60081FDFCCF82E08093B00041
S11330A08091B60080FDFCCF83E08093B1008091D5
S11330B0B60083FDFCCF86EE8093B3008091700050
S11330C08260809370000E94A80580911202909102
S11330D01302AC014F5F5F4F60E070E04093A202C7
S11330E05093A3026093A4027093A50221EE33E0EF
S11330F03093300220932F0220E134E030933202E7
S1133100209331022FE334E03093340220933302CE
S11331108295807F80932B028FEF809366028FEFDE
S11331209FEF90937F0480937E0490938104809317
S11331308004909383048093820490938504809305
S1133140840490938704809386040E94E6018F3F51
S113315019F00E94D20DF9CFCFBF78940E94AB0131
S113316080919A0281111AC080912C02811116C09B
S113317080917104813029F48091B20381110EC0D1
S113318003C0853009F46BC083E080932C020E9455
S1133190C10D85E080939A02C0E001C0C5E00E94A1
S11331A0600CC1110E944702CFB7F8940E94E60157
S11331B08F3F09F050C080917000837089F0809136
S11331C0B6008A71E1F78091B3009091B200891B37
S11331D08C3040F08091B200853F20F483E003C03E
S11331E085E001C082E0E0916E00E670E9F4909120
S11331F06F009E72E1F4E0917100EE72A9F40CB4D8
S113320007FC15C09091C100987189F4E091C90040
S1133210E87151F49091BC0092FD09C090917A003C
S113322097FD04C0E5E003C0E0E001C0E1E093B72E
S11332308E1708F4E82FF0E0EA5FFE4F8491E92F3F
S1133240E07FE160E82BE3BF78948895F89483B736
S11332508E7F83BFABCFCFBF0E94D20DA5CFC9E075
S11332609ECFAA1BBB1B51E107C0AA1FBB1FA617F9
S1133270B70710F0A61BB70B881F991F5A95A9F71B
S113328080959095BC01CD010895A1E21A2EAA1B48
S1133290BB1BFD010DC0AA1FBB1FEE1FFF1FA21702
S11332A0B307E407F50720F0A21BB30BE40BF50BFF
S11332B0661F771F881F991F1A9469F76095709588
S11332C0809590959B01AC01BD01CF010895EE0F4F
S11332D0FF1F0024001C0BBE0790F691E02D0994FB
S11332E00F93083090F0982F872F762F652F542F47
S11332F0432F322F22270850F4CF220F331F441FAD
S1133300551F661F771F881F991F0A95B2F70F91E3
S1133310089597FB10F8169400080F93083098F05E
S11333200850232F342F452F562F672F782F892F9E
S1133330902DF4CF05949795879577956795579534
S11333404795379527950A95AAF70F9108952A1955
S11333503B094C095D096E097F09800B910B0895A7
S1133360DC0101C06D9341505040E0F70895F8949A
S1053370FFCF89
S1133372520352038103FF0101FFFFFFFFFFFF22FC
S10733820100010041
S9030000FC
